{
  "contractName": "CardFactory",
  "abi": [
    {
      "anonymous": false,
      "inputs": [
        {
          "indexed": false,
          "internalType": "uint256",
          "name": "cardId",
          "type": "uint256"
        },
        {
          "indexed": false,
          "internalType": "uint256",
          "name": "cardType",
          "type": "uint256"
        },
        {
          "indexed": false,
          "internalType": "uint256",
          "name": "playerId",
          "type": "uint256"
        },
        {
          "indexed": false,
          "internalType": "uint256",
          "name": "attributeHash",
          "type": "uint256"
        },
        {
          "indexed": false,
          "internalType": "address",
          "name": "owner",
          "type": "address"
        }
      ],
      "name": "CardCreated",
      "type": "event"
    },
    {
      "anonymous": false,
      "inputs": [
        {
          "indexed": true,
          "internalType": "address",
          "name": "previousOwner",
          "type": "address"
        },
        {
          "indexed": true,
          "internalType": "address",
          "name": "newOwner",
          "type": "address"
        }
      ],
      "name": "OwnershipTransferred",
      "type": "event"
    },
    {
      "inputs": [
        {
          "internalType": "uint256",
          "name": "",
          "type": "uint256"
        }
      ],
      "name": "cardIdToOwner",
      "outputs": [
        {
          "internalType": "address",
          "name": "",
          "type": "address"
        }
      ],
      "stateMutability": "view",
      "type": "function"
    },
    {
      "inputs": [
        {
          "internalType": "uint256",
          "name": "",
          "type": "uint256"
        }
      ],
      "name": "cards",
      "outputs": [
        {
          "internalType": "uint256",
          "name": "cardId",
          "type": "uint256"
        },
        {
          "internalType": "uint256",
          "name": "playerId",
          "type": "uint256"
        },
        {
          "internalType": "uint256",
          "name": "attributeHash",
          "type": "uint256"
        },
        {
          "internalType": "uint256",
          "name": "cardType",
          "type": "uint256"
        }
      ],
      "stateMutability": "view",
      "type": "function"
    },
    {
      "inputs": [],
      "name": "owner",
      "outputs": [
        {
          "internalType": "address",
          "name": "",
          "type": "address"
        }
      ],
      "stateMutability": "view",
      "type": "function"
    },
    {
      "inputs": [],
      "name": "renounceOwnership",
      "outputs": [],
      "stateMutability": "nonpayable",
      "type": "function"
    },
    {
      "inputs": [
        {
          "internalType": "address",
          "name": "newOwner",
          "type": "address"
        }
      ],
      "name": "transferOwnership",
      "outputs": [],
      "stateMutability": "nonpayable",
      "type": "function"
    },
    {
      "inputs": [
        {
          "internalType": "uint256",
          "name": "_count",
          "type": "uint256"
        }
      ],
      "name": "setTotalPlayers",
      "outputs": [],
      "stateMutability": "nonpayable",
      "type": "function"
    }
  ],
  "bytecode": "0x60806040526000600155600060025560bd60035534801561001f57600080fd5b5061003c61003161004160201b60201c565b61004960201b60201c565b61010d565b600033905090565b60008060009054906101000a900473ffffffffffffffffffffffffffffffffffffffff169050816000806101000a81548173ffffffffffffffffffffffffffffffffffffffff021916908373ffffffffffffffffffffffffffffffffffffffff1602179055508173ffffffffffffffffffffffffffffffffffffffff168173ffffffffffffffffffffffffffffffffffffffff167f8be0079c531659141344cd1fd0a4f28419497f9722a3daafe3b4186f6b6457e060405160405180910390a35050565b6107298061011c6000396000f3fe608060405234801561001057600080fd5b50600436106100625760003560e01c80634199414014610067578063715018a6146100975780638da5cb5b146100a15780638dc10768146100bf578063b780acc5146100f2578063f2fde38b1461010e575b600080fd5b610081600480360381019061007c91906104eb565b61012a565b60405161008e91906105d8565b60405180910390f35b61009f61015d565b005b6100a96101e5565b6040516100b691906105d8565b60405180910390f35b6100d960048036038101906100d491906104eb565b61020e565b6040516100e99493929190610633565b60405180910390f35b61010c600480360381019061010791906104eb565b61024e565b005b610128600480360381019061012391906104c2565b6102d4565b005b60056020528060005260406000206000915054906101000a900473ffffffffffffffffffffffffffffffffffffffff1681565b6101656103cc565b73ffffffffffffffffffffffffffffffffffffffff166101836101e5565b73ffffffffffffffffffffffffffffffffffffffff16146101d9576040517f08c379a00000000000000000000000000000000000000000000000000000000081526004016101d090610613565b60405180910390fd5b6101e360006103d4565b565b60008060009054906101000a900473ffffffffffffffffffffffffffffffffffffffff16905090565b6004818154811061021e57600080fd5b90600052602060002090600402016000915090508060000154908060010154908060020154908060030154905084565b6102566103cc565b73ffffffffffffffffffffffffffffffffffffffff166102746101e5565b73ffffffffffffffffffffffffffffffffffffffff16146102ca576040517f08c379a00000000000000000000000000000000000000000000000000000000081526004016102c190610613565b60405180910390fd5b8060038190555050565b6102dc6103cc565b73ffffffffffffffffffffffffffffffffffffffff166102fa6101e5565b73ffffffffffffffffffffffffffffffffffffffff1614610350576040517f08c379a000000000000000000000000000000000000000000000000000000000815260040161034790610613565b60405180910390fd5b600073ffffffffffffffffffffffffffffffffffffffff168173ffffffffffffffffffffffffffffffffffffffff1614156103c0576040517f08c379a00000000000000000000000000000000000000000000000000000000081526004016103b7906105f3565b60405180910390fd5b6103c9816103d4565b50565b600033905090565b60008060009054906101000a900473ffffffffffffffffffffffffffffffffffffffff169050816000806101000a81548173ffffffffffffffffffffffffffffffffffffffff021916908373ffffffffffffffffffffffffffffffffffffffff1602179055508173ffffffffffffffffffffffffffffffffffffffff168173ffffffffffffffffffffffffffffffffffffffff167f8be0079c531659141344cd1fd0a4f28419497f9722a3daafe3b4186f6b6457e060405160405180910390a35050565b6000813590506104a7816106c5565b92915050565b6000813590506104bc816106dc565b92915050565b6000602082840312156104d457600080fd5b60006104e284828501610498565b91505092915050565b6000602082840312156104fd57600080fd5b600061050b848285016104ad565b91505092915050565b61051d81610689565b82525050565b6000610530602683610678565b91507f4f776e61626c653a206e6577206f776e657220697320746865207a65726f206160008301527f64647265737300000000000000000000000000000000000000000000000000006020830152604082019050919050565b6000610596602083610678565b91507f4f776e61626c653a2063616c6c6572206973206e6f7420746865206f776e65726000830152602082019050919050565b6105d2816106bb565b82525050565b60006020820190506105ed6000830184610514565b92915050565b6000602082019050818103600083015261060c81610523565b9050919050565b6000602082019050818103600083015261062c81610589565b9050919050565b600060808201905061064860008301876105c9565b61065560208301866105c9565b61066260408301856105c9565b61066f60608301846105c9565b95945050505050565b600082825260208201905092915050565b60006106948261069b565b9050919050565b600073ffffffffffffffffffffffffffffffffffffffff82169050919050565b6000819050919050565b6106ce81610689565b81146106d957600080fd5b50565b6106e5816106bb565b81146106f057600080fd5b5056fea26469706673582212209b5ceffd9717708b13106b8db86c1e8d9d4916496b2d0279627878d00719ffd764736f6c63430008000033",
  "immutableReferences": {},
  "source": "// SPDX-License-Identifier: UNLICENSED\npragma solidity ^0.8.0;\n\nimport \"@openzeppelin/contracts/access/Ownable.sol\";\n\ncontract CardFactory is Ownable {\n\n    uint _tokenId = 0;\n    uint private _randNonce = 0;\n    uint totalPlayers = 189;\n    Card[] public cards;\n\n    mapping (uint => address) public cardIdToOwner;\n\n    event CardCreated(uint cardId, uint cardType, uint playerId, uint attributeHash, address owner);\n    \n    struct Card {\n        uint cardId;\n        uint playerId;\n        uint attributeHash;\n        uint cardType;\n    }\n\n    function createCard(uint _playerId, uint _type) internal {\n        uint attrHash = _generateRandomNumber();\n        Card memory card = Card(_tokenId, _playerId, attrHash, _type);\n        cards.push(card);\n        emit CardCreated(_tokenId, _type, _playerId, attrHash, msg.sender);\n        cardIdToOwner[_tokenId] = msg.sender;\n        _tokenId = _tokenId + 1;\n    }\n\n    function createCustomCard(uint _playerId, uint _type, uint _attribute) internal returns(uint) {\n        Card memory card = Card(_tokenId, _playerId, _attribute, _type);\n        cards.push(card);\n        emit CardCreated(_tokenId, _type, _playerId, _attribute, msg.sender);\n        return _tokenId;\n    }\n\n    function createNonCommonCard(uint _divisor, uint _cardCount, uint _type) internal returns(uint) {\n        uint cardCount = _cardCount;\n\n        if(_generateRandomNumber() % _divisor == 0) {\n            uint playerId = _generateRandomNumber() % totalPlayers;\n            _randNonce = _randNonce + 1;\n            createCard(playerId, _type);\n            cardCount = _cardCount + 1;\n        }\n\n        return cardCount;\n    }\n\n    function createCommonCards(uint _cardsCreated, uint _cardPackQuantity) internal {\n        for(uint i = _cardsCreated; i < _cardPackQuantity; i++) {\n            uint playerId = _generateRandomNumber() % totalPlayers;\n            _randNonce = _randNonce + 1;\n            createCard(playerId, 0);\n        }\n    }\n\n    function _generateRandomNumber() internal view returns (uint) {\n        return uint(keccak256(abi.encodePacked(block.difficulty, block.timestamp, _randNonce)));\n    }\n\n    function setTotalPlayers(uint _count) external onlyOwner {\n        totalPlayers = _count;\n    }\n}",
  "sourcePath": "/Users/tkma4fr/Development/solidity-app/contracts/card-factory.sol",
  "compiler": {
    "name": "solc",
    "version": "0.8.0+commit.c7dfd78e.Emscripten.clang"
  },
  "schemaVersion": "3.4.2",
  "updatedAt": "2021-10-02T15:06:24.805Z",
  "devdoc": {
    "kind": "dev",
    "methods": {
      "owner()": {
        "details": "Returns the address of the current owner."
      },
      "renounceOwnership()": {
        "details": "Leaves the contract without owner. It will not be possible to call `onlyOwner` functions anymore. Can only be called by the current owner. NOTE: Renouncing ownership will leave the contract without an owner, thereby removing any functionality that is only available to the owner."
      },
      "transferOwnership(address)": {
        "details": "Transfers ownership of the contract to a new account (`newOwner`). Can only be called by the current owner."
      }
    },
    "version": 1
  },
  "userdoc": {
    "kind": "user",
    "methods": {},
    "version": 1
  }
}