{
  "contractName": "CardFactory",
  "abi": [
    {
      "anonymous": false,
      "inputs": [
        {
          "indexed": false,
          "internalType": "uint256",
          "name": "cardId",
          "type": "uint256"
        },
        {
          "indexed": false,
          "internalType": "enum CardFactory.Type",
          "name": "cardType",
          "type": "uint8"
        }
      ],
      "name": "CardCreated",
      "type": "event"
    },
    {
      "anonymous": false,
      "inputs": [
        {
          "indexed": false,
          "internalType": "uint256",
          "name": "playerId",
          "type": "uint256"
        },
        {
          "indexed": false,
          "internalType": "string",
          "name": "name",
          "type": "string"
        }
      ],
      "name": "NewPlayer",
      "type": "event"
    },
    {
      "anonymous": false,
      "inputs": [
        {
          "indexed": true,
          "internalType": "address",
          "name": "previousOwner",
          "type": "address"
        },
        {
          "indexed": true,
          "internalType": "address",
          "name": "newOwner",
          "type": "address"
        }
      ],
      "name": "OwnershipTransferred",
      "type": "event"
    },
    {
      "inputs": [
        {
          "internalType": "uint256",
          "name": "",
          "type": "uint256"
        }
      ],
      "name": "cardIdToOwner",
      "outputs": [
        {
          "internalType": "address",
          "name": "",
          "type": "address"
        }
      ],
      "stateMutability": "view",
      "type": "function"
    },
    {
      "inputs": [
        {
          "internalType": "uint256",
          "name": "",
          "type": "uint256"
        }
      ],
      "name": "cards",
      "outputs": [
        {
          "internalType": "uint256",
          "name": "cardId",
          "type": "uint256"
        },
        {
          "internalType": "uint256",
          "name": "playerId",
          "type": "uint256"
        },
        {
          "internalType": "uint256",
          "name": "attributeHash",
          "type": "uint256"
        },
        {
          "internalType": "enum CardFactory.Type",
          "name": "cardType",
          "type": "uint8"
        }
      ],
      "stateMutability": "view",
      "type": "function"
    },
    {
      "inputs": [
        {
          "internalType": "string",
          "name": "_name",
          "type": "string"
        },
        {
          "internalType": "uint8",
          "name": "_teamId",
          "type": "uint8"
        },
        {
          "internalType": "uint8",
          "name": "_position",
          "type": "uint8"
        },
        {
          "internalType": "uint16",
          "name": "_season",
          "type": "uint16"
        }
      ],
      "name": "createPlayer",
      "outputs": [],
      "stateMutability": "nonpayable",
      "type": "function"
    },
    {
      "inputs": [],
      "name": "owner",
      "outputs": [
        {
          "internalType": "address",
          "name": "",
          "type": "address"
        }
      ],
      "stateMutability": "view",
      "type": "function"
    },
    {
      "inputs": [
        {
          "internalType": "uint256",
          "name": "",
          "type": "uint256"
        }
      ],
      "name": "playerIdToPlayer",
      "outputs": [
        {
          "internalType": "string",
          "name": "name",
          "type": "string"
        },
        {
          "internalType": "uint8",
          "name": "teamId",
          "type": "uint8"
        },
        {
          "internalType": "uint8",
          "name": "position",
          "type": "uint8"
        },
        {
          "internalType": "uint16",
          "name": "season",
          "type": "uint16"
        }
      ],
      "stateMutability": "view",
      "type": "function"
    },
    {
      "inputs": [
        {
          "internalType": "uint256",
          "name": "",
          "type": "uint256"
        }
      ],
      "name": "players",
      "outputs": [
        {
          "internalType": "string",
          "name": "name",
          "type": "string"
        },
        {
          "internalType": "uint8",
          "name": "teamId",
          "type": "uint8"
        },
        {
          "internalType": "uint8",
          "name": "position",
          "type": "uint8"
        },
        {
          "internalType": "uint16",
          "name": "season",
          "type": "uint16"
        }
      ],
      "stateMutability": "view",
      "type": "function"
    },
    {
      "inputs": [],
      "name": "renounceOwnership",
      "outputs": [],
      "stateMutability": "nonpayable",
      "type": "function"
    },
    {
      "inputs": [
        {
          "internalType": "address",
          "name": "newOwner",
          "type": "address"
        }
      ],
      "name": "transferOwnership",
      "outputs": [],
      "stateMutability": "nonpayable",
      "type": "function"
    }
  ],
  "bytecode": "0x6080604052600060055534801561001557600080fd5b5061003261002761003760201b60201c565b61003f60201b60201c565b610103565b600033905090565b60008060009054906101000a900473ffffffffffffffffffffffffffffffffffffffff169050816000806101000a81548173ffffffffffffffffffffffffffffffffffffffff021916908373ffffffffffffffffffffffffffffffffffffffff1602179055508173ffffffffffffffffffffffffffffffffffffffff168173ffffffffffffffffffffffffffffffffffffffff167f8be0079c531659141344cd1fd0a4f28419497f9722a3daafe3b4186f6b6457e060405160405180910390a35050565b611087806101126000396000f3fe608060405234801561001057600080fd5b50600436106100885760003560e01c80638dc107681161005b5780638dc1076814610101578063b53794c914610134578063f2fde38b14610167578063f71d96cb1461018357610088565b8063419941401461008d5780634ccf0174146100bd578063715018a6146100d95780638da5cb5b146100e3575b600080fd5b6100a760048036038101906100a29190610ae2565b6101b6565b6040516100b49190610c35565b60405180910390f35b6100d760048036038101906100d29190610a67565b6101e9565b005b6100e1610437565b005b6100eb6104bf565b6040516100f89190610c35565b60405180910390f35b61011b60048036038101906101169190610ae2565b6104e8565b60405161012b9493929190610d0c565b60405180910390f35b61014e60048036038101906101499190610ae2565b610535565b60405161015e9493929190610c50565b60405180910390f35b610181600480360381019061017c9190610a3e565b610615565b005b61019d60048036038101906101989190610ae2565b61070d565b6040516101ad9493929190610c50565b60405180910390f35b60076020528060005260406000206000915054906101000a900473ffffffffffffffffffffffffffffffffffffffff1681565b6101f16107fd565b73ffffffffffffffffffffffffffffffffffffffff1661020f6104bf565b73ffffffffffffffffffffffffffffffffffffffff1614610265576040517f08c379a000000000000000000000000000000000000000000000000000000000815260040161025c90610cbc565b60405180910390fd5b600060405180608001604052808681526020018560ff1681526020018460ff1681526020018361ffff168152509050600281908060018154018082558091505060019003906000526020600020906002020160009091909190915060008201518160000190805190602001906102dc9291906108df565b5060208201518160010160006101000a81548160ff021916908360ff16021790555060408201518160010160016101000a81548160ff021916908360ff16021790555060608201518160010160026101000a81548161ffff021916908361ffff16021790555050508060036000600154815260200190815260200160002060008201518160000190805190602001906103769291906108df565b5060208201518160010160006101000a81548160ff021916908360ff16021790555060408201518160010160016101000a81548160ff021916908360ff16021790555060608201518160010160026101000a81548161ffff021916908361ffff1602179055509050507fc617f3fbc3f6a35c0509a5f01fb4907e9c6e94cff260c3fe739bafd93cf2240560015486604051610412929190610cdc565b60405180910390a161042f6001805461080590919063ffffffff16565b505050505050565b61043f6107fd565b73ffffffffffffffffffffffffffffffffffffffff1661045d6104bf565b73ffffffffffffffffffffffffffffffffffffffff16146104b3576040517f08c379a00000000000000000000000000000000000000000000000000000000081526004016104aa90610cbc565b60405180910390fd5b6104bd600061081b565b565b60008060009054906101000a900473ffffffffffffffffffffffffffffffffffffffff16905090565b600681815481106104f857600080fd5b90600052602060002090600402016000915090508060000154908060010154908060020154908060030160009054906101000a900460ff16905084565b600360205280600052604060002060009150905080600001805461055890610ee2565b80601f016020809104026020016040519081016040528092919081815260200182805461058490610ee2565b80156105d15780601f106105a6576101008083540402835291602001916105d1565b820191906000526020600020905b8154815290600101906020018083116105b457829003601f168201915b5050505050908060010160009054906101000a900460ff16908060010160019054906101000a900460ff16908060010160029054906101000a900461ffff16905084565b61061d6107fd565b73ffffffffffffffffffffffffffffffffffffffff1661063b6104bf565b73ffffffffffffffffffffffffffffffffffffffff1614610691576040517f08c379a000000000000000000000000000000000000000000000000000000000815260040161068890610cbc565b60405180910390fd5b600073ffffffffffffffffffffffffffffffffffffffff168173ffffffffffffffffffffffffffffffffffffffff161415610701576040517f08c379a00000000000000000000000000000000000000000000000000000000081526004016106f890610c9c565b60405180910390fd5b61070a8161081b565b50565b6002818154811061071d57600080fd5b906000526020600020906002020160009150905080600001805461074090610ee2565b80601f016020809104026020016040519081016040528092919081815260200182805461076c90610ee2565b80156107b95780601f1061078e576101008083540402835291602001916107b9565b820191906000526020600020905b81548152906001019060200180831161079c57829003601f168201915b5050505050908060010160009054906101000a900460ff16908060010160019054906101000a900460ff16908060010160029054906101000a900461ffff16905084565b600033905090565b600081836108139190610dce565b905092915050565b60008060009054906101000a900473ffffffffffffffffffffffffffffffffffffffff169050816000806101000a81548173ffffffffffffffffffffffffffffffffffffffff021916908373ffffffffffffffffffffffffffffffffffffffff1602179055508173ffffffffffffffffffffffffffffffffffffffff168173ffffffffffffffffffffffffffffffffffffffff167f8be0079c531659141344cd1fd0a4f28419497f9722a3daafe3b4186f6b6457e060405160405180910390a35050565b8280546108eb90610ee2565b90600052602060002090601f01602090048101928261090d5760008555610954565b82601f1061092657805160ff1916838001178555610954565b82800160010185558215610954579182015b82811115610953578251825591602001919060010190610938565b5b5090506109619190610965565b5090565b5b8082111561097e576000816000905550600101610966565b5090565b600061099561099084610d82565b610d51565b9050828152602081018484840111156109ad57600080fd5b6109b8848285610ea0565b509392505050565b6000813590506109cf81610ff5565b92915050565b600082601f8301126109e657600080fd5b81356109f6848260208601610982565b91505092915050565b600081359050610a0e8161100c565b92915050565b600081359050610a2381611023565b92915050565b600081359050610a388161103a565b92915050565b600060208284031215610a5057600080fd5b6000610a5e848285016109c0565b91505092915050565b60008060008060808587031215610a7d57600080fd5b600085013567ffffffffffffffff811115610a9757600080fd5b610aa3878288016109d5565b9450506020610ab487828801610a29565b9350506040610ac587828801610a29565b9250506060610ad6878288016109ff565b91505092959194509250565b600060208284031215610af457600080fd5b6000610b0284828501610a14565b91505092915050565b610b1481610e24565b82525050565b610b2381610e8e565b82525050565b6000610b3482610db2565b610b3e8185610dbd565b9350610b4e818560208601610eaf565b610b5781610fd0565b840191505092915050565b6000610b6f602683610dbd565b91507f4f776e61626c653a206e6577206f776e657220697320746865207a65726f206160008301527f64647265737300000000000000000000000000000000000000000000000000006020830152604082019050919050565b6000610bd5602083610dbd565b91507f4f776e61626c653a2063616c6c6572206973206e6f7420746865206f776e65726000830152602082019050919050565b610c1181610e49565b82525050565b610c2081610e77565b82525050565b610c2f81610e81565b82525050565b6000602082019050610c4a6000830184610b0b565b92915050565b60006080820190508181036000830152610c6a8187610b29565b9050610c796020830186610c26565b610c866040830185610c26565b610c936060830184610c08565b95945050505050565b60006020820190508181036000830152610cb581610b62565b9050919050565b60006020820190508181036000830152610cd581610bc8565b9050919050565b6000604082019050610cf16000830185610c17565b8181036020830152610d038184610b29565b90509392505050565b6000608082019050610d216000830187610c17565b610d2e6020830186610c17565b610d3b6040830185610c17565b610d486060830184610b1a565b95945050505050565b6000604051905081810181811067ffffffffffffffff82111715610d7857610d77610fa1565b5b8060405250919050565b600067ffffffffffffffff821115610d9d57610d9c610fa1565b5b601f19601f8301169050602081019050919050565b600081519050919050565b600082825260208201905092915050565b6000610dd982610e77565b9150610de483610e77565b9250827fffffffffffffffffffffffffffffffffffffffffffffffffffffffffffffffff03821115610e1957610e18610f14565b5b828201905092915050565b6000610e2f82610e57565b9050919050565b6000819050610e4482610fe1565b919050565b600061ffff82169050919050565b600073ffffffffffffffffffffffffffffffffffffffff82169050919050565b6000819050919050565b600060ff82169050919050565b6000610e9982610e36565b9050919050565b82818337600083830152505050565b60005b83811015610ecd578082015181840152602081019050610eb2565b83811115610edc576000848401525b50505050565b60006002820490506001821680610efa57607f821691505b60208210811415610f0e57610f0d610f72565b5b50919050565b7f4e487b7100000000000000000000000000000000000000000000000000000000600052601160045260246000fd5b7f4e487b7100000000000000000000000000000000000000000000000000000000600052602160045260246000fd5b7f4e487b7100000000000000000000000000000000000000000000000000000000600052602260045260246000fd5b7f4e487b7100000000000000000000000000000000000000000000000000000000600052604160045260246000fd5b6000601f19601f8301169050919050565b60048110610ff257610ff1610f43565b5b50565b610ffe81610e24565b811461100957600080fd5b50565b61101581610e49565b811461102057600080fd5b50565b61102c81610e77565b811461103757600080fd5b50565b61104381610e81565b811461104e57600080fd5b5056fea2646970667358221220206350304feb11091115ded8c078b7852e4238ae47c9cd27900c913475a59e9c64736f6c63430008000033",
  "immutableReferences": {},
  "source": "// SPDX-License-Identifier: UNLICENSED\npragma solidity ^0.8.0;\n\nimport \"./player-factory.sol\";\n\ncontract CardFactory is PlayerFactory {\n\n    using SafeMath for uint256;\n    uint private _tokenId;\n    uint private _randNonce = 0;\n    Card[] public cards;\n\n    mapping (uint => address) public cardIdToOwner;\n\n    enum Type { COMMON, RARE, EXOTIC, LEGENDARY }\n\n    event CardCreated(uint cardId, Type cardType);\n    \n    struct Card {\n        uint cardId;\n        uint playerId;\n        uint attributeHash;\n        Type cardType;\n    }\n\n    function createCard(uint _playerId, Type _type) internal {\n        uint attrHash = _generateRandomNumber();\n        Card memory card = Card(_tokenId, _playerId, attrHash, _type);\n        cards.push(card);\n        emit CardCreated(_tokenId, _type);\n        _tokenId.add(1);\n    }\n\n    function createCustomCard(uint _playerId, Type _type, uint _attribute) internal returns(uint) {\n        Card memory card = Card(_tokenId, _playerId, _attribute, _type);\n        cards.push(card);\n        emit CardCreated(_tokenId, _type);\n        return _tokenId.add(1);\n    }\n\n    function createNonCommonCard(uint _divisor, uint _cardCount, Type _type) internal returns(uint) {\n        uint cardCount = _cardCount;\n\n        if(_generateRandomNumber() % _divisor == 0) {\n            uint playerId = _generateRandomNumber() % players.length;\n            createCard(playerId, _type);\n            cardIdToOwner[_tokenId] = msg.sender;\n            cardCount = _cardCount.add(1);\n        }\n\n        return cardCount;\n    }\n\n    function createCommonCards(uint _cardsCreated, uint _cardPackQuantity) internal {\n        for(uint i = _cardsCreated; i < _cardPackQuantity; i++) {\n            uint playerId = _generateRandomNumber() % players.length;\n            createCard(playerId, Type.COMMON);\n            cardIdToOwner[_tokenId] = msg.sender;\n        }\n    }\n\n    function _generateRandomNumber() internal view returns (uint) {\n        _randNonce.add(1);\n        return uint(keccak256(abi.encodePacked(block.difficulty, block.timestamp, _randNonce)));\n    }\n}",
  "sourcePath": "/Users/tkma4fr/Development/solidity-app/contracts/card-factory.sol",
  "compiler": {
    "name": "solc",
    "version": "0.8.0+commit.c7dfd78e.Emscripten.clang"
  },
  "schemaVersion": "3.4.2",
  "updatedAt": "2021-08-26T00:54:52.357Z",
  "devdoc": {
    "kind": "dev",
    "methods": {
      "owner()": {
        "details": "Returns the address of the current owner."
      },
      "renounceOwnership()": {
        "details": "Leaves the contract without owner. It will not be possible to call `onlyOwner` functions anymore. Can only be called by the current owner. NOTE: Renouncing ownership will leave the contract without an owner, thereby removing any functionality that is only available to the owner."
      },
      "transferOwnership(address)": {
        "details": "Transfers ownership of the contract to a new account (`newOwner`). Can only be called by the current owner."
      }
    },
    "version": 1
  },
  "userdoc": {
    "kind": "user",
    "methods": {},
    "version": 1
  }
}