{
  "contractName": "CardGame",
  "abi": [
    {
      "anonymous": false,
      "inputs": [
        {
          "indexed": true,
          "internalType": "address",
          "name": "_owner",
          "type": "address"
        },
        {
          "indexed": true,
          "internalType": "address",
          "name": "_approved",
          "type": "address"
        },
        {
          "indexed": true,
          "internalType": "uint256",
          "name": "_tokenId",
          "type": "uint256"
        }
      ],
      "name": "Approval",
      "type": "event"
    },
    {
      "anonymous": false,
      "inputs": [
        {
          "indexed": true,
          "internalType": "address",
          "name": "_owner",
          "type": "address"
        },
        {
          "indexed": true,
          "internalType": "address",
          "name": "_operator",
          "type": "address"
        },
        {
          "indexed": false,
          "internalType": "bool",
          "name": "_approved",
          "type": "bool"
        }
      ],
      "name": "ApprovalForAll",
      "type": "event"
    },
    {
      "anonymous": false,
      "inputs": [
        {
          "indexed": true,
          "internalType": "uint256",
          "name": "auctionId",
          "type": "uint256"
        },
        {
          "indexed": true,
          "internalType": "uint256",
          "name": "cardId",
          "type": "uint256"
        },
        {
          "indexed": false,
          "internalType": "uint256",
          "name": "salePrice",
          "type": "uint256"
        },
        {
          "indexed": true,
          "internalType": "address",
          "name": "to",
          "type": "address"
        },
        {
          "indexed": false,
          "internalType": "bool",
          "name": "completed",
          "type": "bool"
        }
      ],
      "name": "AuctionClosed",
      "type": "event"
    },
    {
      "anonymous": false,
      "inputs": [
        {
          "indexed": true,
          "internalType": "uint256",
          "name": "auctionId",
          "type": "uint256"
        },
        {
          "indexed": true,
          "internalType": "uint256",
          "name": "cardId",
          "type": "uint256"
        },
        {
          "indexed": false,
          "internalType": "uint256",
          "name": "startingBid",
          "type": "uint256"
        },
        {
          "indexed": false,
          "internalType": "uint256",
          "name": "expireDate",
          "type": "uint256"
        },
        {
          "indexed": true,
          "internalType": "address",
          "name": "owner",
          "type": "address"
        }
      ],
      "name": "AuctionOpened",
      "type": "event"
    },
    {
      "anonymous": false,
      "inputs": [
        {
          "indexed": true,
          "internalType": "uint256",
          "name": "auctionId",
          "type": "uint256"
        },
        {
          "indexed": true,
          "internalType": "uint256",
          "name": "cardId",
          "type": "uint256"
        },
        {
          "indexed": false,
          "internalType": "uint256",
          "name": "bid",
          "type": "uint256"
        },
        {
          "indexed": true,
          "internalType": "address",
          "name": "bidder",
          "type": "address"
        }
      ],
      "name": "BidPlaced",
      "type": "event"
    },
    {
      "anonymous": false,
      "inputs": [
        {
          "indexed": false,
          "internalType": "uint256",
          "name": "cardId",
          "type": "uint256"
        },
        {
          "indexed": false,
          "internalType": "uint256",
          "name": "cardType",
          "type": "uint256"
        },
        {
          "indexed": false,
          "internalType": "uint256",
          "name": "playerId",
          "type": "uint256"
        },
        {
          "indexed": false,
          "internalType": "uint256",
          "name": "attributeHash",
          "type": "uint256"
        },
        {
          "indexed": true,
          "internalType": "address",
          "name": "owner",
          "type": "address"
        }
      ],
      "name": "CardCreated",
      "type": "event"
    },
    {
      "anonymous": false,
      "inputs": [
        {
          "indexed": true,
          "internalType": "address",
          "name": "owner",
          "type": "address"
        }
      ],
      "name": "CardPackPurchased",
      "type": "event"
    },
    {
      "anonymous": false,
      "inputs": [
        {
          "indexed": false,
          "internalType": "uint256",
          "name": "gameId",
          "type": "uint256"
        },
        {
          "indexed": false,
          "internalType": "uint256",
          "name": "playerCount",
          "type": "uint256"
        },
        {
          "indexed": false,
          "internalType": "uint256",
          "name": "cardCount",
          "type": "uint256"
        },
        {
          "indexed": false,
          "internalType": "uint256",
          "name": "entryFee",
          "type": "uint256"
        }
      ],
      "name": "GameCreated",
      "type": "event"
    },
    {
      "anonymous": false,
      "inputs": [
        {
          "indexed": false,
          "internalType": "uint256",
          "name": "gameId",
          "type": "uint256"
        },
        {
          "indexed": true,
          "internalType": "address",
          "name": "player",
          "type": "address"
        }
      ],
      "name": "GameJoined",
      "type": "event"
    },
    {
      "anonymous": false,
      "inputs": [
        {
          "indexed": true,
          "internalType": "address",
          "name": "previousOwner",
          "type": "address"
        },
        {
          "indexed": true,
          "internalType": "address",
          "name": "newOwner",
          "type": "address"
        }
      ],
      "name": "OwnershipTransferred",
      "type": "event"
    },
    {
      "anonymous": false,
      "inputs": [
        {
          "indexed": true,
          "internalType": "address",
          "name": "_from",
          "type": "address"
        },
        {
          "indexed": true,
          "internalType": "address",
          "name": "_to",
          "type": "address"
        },
        {
          "indexed": true,
          "internalType": "uint256",
          "name": "_tokenId",
          "type": "uint256"
        }
      ],
      "name": "Transfer",
      "type": "event"
    },
    {
      "inputs": [
        {
          "internalType": "address",
          "name": "_approved",
          "type": "address"
        },
        {
          "internalType": "uint256",
          "name": "_tokenId",
          "type": "uint256"
        }
      ],
      "name": "approve",
      "outputs": [],
      "stateMutability": "payable",
      "type": "function"
    },
    {
      "inputs": [],
      "name": "auctionId",
      "outputs": [
        {
          "internalType": "uint256",
          "name": "",
          "type": "uint256"
        }
      ],
      "stateMutability": "view",
      "type": "function"
    },
    {
      "inputs": [
        {
          "internalType": "uint256",
          "name": "",
          "type": "uint256"
        }
      ],
      "name": "auctionIdToAuction",
      "outputs": [
        {
          "internalType": "uint256",
          "name": "auctionId",
          "type": "uint256"
        },
        {
          "internalType": "uint256",
          "name": "currentBid",
          "type": "uint256"
        },
        {
          "internalType": "address",
          "name": "leadingBidder",
          "type": "address"
        },
        {
          "internalType": "uint256",
          "name": "expireDate",
          "type": "uint256"
        },
        {
          "internalType": "uint256",
          "name": "cardId",
          "type": "uint256"
        },
        {
          "internalType": "uint256",
          "name": "bidCount",
          "type": "uint256"
        }
      ],
      "stateMutability": "view",
      "type": "function"
    },
    {
      "inputs": [
        {
          "internalType": "address",
          "name": "_owner",
          "type": "address"
        }
      ],
      "name": "balanceOf",
      "outputs": [
        {
          "internalType": "uint256",
          "name": "",
          "type": "uint256"
        }
      ],
      "stateMutability": "view",
      "type": "function"
    },
    {
      "inputs": [
        {
          "internalType": "uint256",
          "name": "_cardId",
          "type": "uint256"
        }
      ],
      "name": "cancelAuction",
      "outputs": [],
      "stateMutability": "nonpayable",
      "type": "function"
    },
    {
      "inputs": [
        {
          "internalType": "uint256",
          "name": "",
          "type": "uint256"
        }
      ],
      "name": "cardIdToCard",
      "outputs": [
        {
          "internalType": "uint256",
          "name": "cardId",
          "type": "uint256"
        },
        {
          "internalType": "uint256",
          "name": "playerId",
          "type": "uint256"
        },
        {
          "internalType": "uint256",
          "name": "attributeHash",
          "type": "uint256"
        },
        {
          "internalType": "uint256",
          "name": "cardType",
          "type": "uint256"
        },
        {
          "internalType": "bool",
          "name": "inUse",
          "type": "bool"
        }
      ],
      "stateMutability": "view",
      "type": "function"
    },
    {
      "inputs": [
        {
          "internalType": "uint256",
          "name": "",
          "type": "uint256"
        }
      ],
      "name": "cardIdToOwner",
      "outputs": [
        {
          "internalType": "address",
          "name": "",
          "type": "address"
        }
      ],
      "stateMutability": "view",
      "type": "function"
    },
    {
      "inputs": [
        {
          "internalType": "uint256",
          "name": "",
          "type": "uint256"
        }
      ],
      "name": "cardIsAtIndex",
      "outputs": [
        {
          "internalType": "uint256",
          "name": "",
          "type": "uint256"
        }
      ],
      "stateMutability": "view",
      "type": "function"
    },
    {
      "inputs": [
        {
          "internalType": "uint256",
          "name": "",
          "type": "uint256"
        }
      ],
      "name": "cardIsForSale",
      "outputs": [
        {
          "internalType": "bool",
          "name": "",
          "type": "bool"
        }
      ],
      "stateMutability": "view",
      "type": "function"
    },
    {
      "inputs": [
        {
          "internalType": "uint256",
          "name": "",
          "type": "uint256"
        }
      ],
      "name": "cardToAuctionId",
      "outputs": [
        {
          "internalType": "uint256",
          "name": "",
          "type": "uint256"
        }
      ],
      "stateMutability": "view",
      "type": "function"
    },
    {
      "inputs": [
        {
          "internalType": "uint256",
          "name": "_cardId",
          "type": "uint256"
        },
        {
          "internalType": "uint256",
          "name": "_startingBid",
          "type": "uint256"
        },
        {
          "internalType": "uint256",
          "name": "_duration",
          "type": "uint256"
        }
      ],
      "name": "createCardAuction",
      "outputs": [],
      "stateMutability": "nonpayable",
      "type": "function"
    },
    {
      "inputs": [
        {
          "internalType": "uint256",
          "name": "_cardId",
          "type": "uint256"
        }
      ],
      "name": "endAuction",
      "outputs": [],
      "stateMutability": "nonpayable",
      "type": "function"
    },
    {
      "inputs": [
        {
          "internalType": "address",
          "name": "",
          "type": "address"
        }
      ],
      "name": "existingUser",
      "outputs": [
        {
          "internalType": "bool",
          "name": "",
          "type": "bool"
        }
      ],
      "stateMutability": "view",
      "type": "function"
    },
    {
      "inputs": [],
      "name": "gameId",
      "outputs": [
        {
          "internalType": "uint256",
          "name": "",
          "type": "uint256"
        }
      ],
      "stateMutability": "view",
      "type": "function"
    },
    {
      "inputs": [
        {
          "internalType": "uint256",
          "name": "",
          "type": "uint256"
        }
      ],
      "name": "gameIdToGame",
      "outputs": [
        {
          "internalType": "uint256",
          "name": "gameId",
          "type": "uint256"
        },
        {
          "internalType": "uint256",
          "name": "numberOfPlayers",
          "type": "uint256"
        },
        {
          "internalType": "uint256",
          "name": "numberOfCardsPerPlayer",
          "type": "uint256"
        },
        {
          "internalType": "uint256",
          "name": "entryFee",
          "type": "uint256"
        },
        {
          "internalType": "bool",
          "name": "open",
          "type": "bool"
        },
        {
          "internalType": "bool",
          "name": "active",
          "type": "bool"
        },
        {
          "internalType": "address",
          "name": "winner",
          "type": "address"
        }
      ],
      "stateMutability": "view",
      "type": "function"
    },
    {
      "inputs": [
        {
          "internalType": "uint256",
          "name": "_tokenId",
          "type": "uint256"
        }
      ],
      "name": "getApproved",
      "outputs": [
        {
          "internalType": "address",
          "name": "",
          "type": "address"
        }
      ],
      "stateMutability": "view",
      "type": "function"
    },
    {
      "inputs": [
        {
          "internalType": "address",
          "name": "_address",
          "type": "address"
        }
      ],
      "name": "getUserOwnedCards",
      "outputs": [
        {
          "internalType": "uint256[]",
          "name": "",
          "type": "uint256[]"
        }
      ],
      "stateMutability": "view",
      "type": "function"
    },
    {
      "inputs": [
        {
          "internalType": "address",
          "name": "_owner",
          "type": "address"
        },
        {
          "internalType": "address",
          "name": "_operator",
          "type": "address"
        }
      ],
      "name": "isApprovedForAll",
      "outputs": [
        {
          "internalType": "bool",
          "name": "",
          "type": "bool"
        }
      ],
      "stateMutability": "view",
      "type": "function"
    },
    {
      "inputs": [],
      "name": "maxAuctionDuration",
      "outputs": [
        {
          "internalType": "uint256",
          "name": "",
          "type": "uint256"
        }
      ],
      "stateMutability": "view",
      "type": "function"
    },
    {
      "inputs": [
        {
          "internalType": "address",
          "name": "_to",
          "type": "address"
        },
        {
          "internalType": "uint256",
          "name": "_playerId",
          "type": "uint256"
        },
        {
          "internalType": "uint256",
          "name": "_type",
          "type": "uint256"
        },
        {
          "internalType": "uint256",
          "name": "_attributes",
          "type": "uint256"
        }
      ],
      "name": "mintCustomCard",
      "outputs": [],
      "stateMutability": "nonpayable",
      "type": "function"
    },
    {
      "inputs": [],
      "name": "owner",
      "outputs": [
        {
          "internalType": "address",
          "name": "",
          "type": "address"
        }
      ],
      "stateMutability": "view",
      "type": "function"
    },
    {
      "inputs": [
        {
          "internalType": "address",
          "name": "",
          "type": "address"
        }
      ],
      "name": "ownerCardCount",
      "outputs": [
        {
          "internalType": "uint256",
          "name": "",
          "type": "uint256"
        }
      ],
      "stateMutability": "view",
      "type": "function"
    },
    {
      "inputs": [
        {
          "internalType": "uint256",
          "name": "_tokenId",
          "type": "uint256"
        }
      ],
      "name": "ownerOf",
      "outputs": [
        {
          "internalType": "address",
          "name": "",
          "type": "address"
        }
      ],
      "stateMutability": "view",
      "type": "function"
    },
    {
      "inputs": [
        {
          "internalType": "uint256",
          "name": "_cardId",
          "type": "uint256"
        }
      ],
      "name": "placeBid",
      "outputs": [],
      "stateMutability": "payable",
      "type": "function"
    },
    {
      "inputs": [],
      "name": "purchaseCardPack",
      "outputs": [],
      "stateMutability": "payable",
      "type": "function"
    },
    {
      "inputs": [],
      "name": "renounceOwnership",
      "outputs": [],
      "stateMutability": "nonpayable",
      "type": "function"
    },
    {
      "inputs": [
        {
          "internalType": "address",
          "name": "_from",
          "type": "address"
        },
        {
          "internalType": "address",
          "name": "_to",
          "type": "address"
        },
        {
          "internalType": "uint256",
          "name": "_tokenId",
          "type": "uint256"
        }
      ],
      "name": "safeTransferFrom",
      "outputs": [],
      "stateMutability": "payable",
      "type": "function"
    },
    {
      "inputs": [
        {
          "internalType": "address",
          "name": "_from",
          "type": "address"
        },
        {
          "internalType": "address",
          "name": "_to",
          "type": "address"
        },
        {
          "internalType": "uint256",
          "name": "_tokenId",
          "type": "uint256"
        },
        {
          "internalType": "bytes",
          "name": "_data",
          "type": "bytes"
        }
      ],
      "name": "safeTransferFrom",
      "outputs": [],
      "stateMutability": "payable",
      "type": "function"
    },
    {
      "inputs": [
        {
          "internalType": "address",
          "name": "_operator",
          "type": "address"
        },
        {
          "internalType": "bool",
          "name": "_approved",
          "type": "bool"
        }
      ],
      "name": "setApprovalForAll",
      "outputs": [],
      "stateMutability": "nonpayable",
      "type": "function"
    },
    {
      "inputs": [
        {
          "internalType": "uint256",
          "name": "_fee",
          "type": "uint256"
        }
      ],
      "name": "setCardPackFee",
      "outputs": [],
      "stateMutability": "nonpayable",
      "type": "function"
    },
    {
      "inputs": [
        {
          "internalType": "uint256",
          "name": "_quantity",
          "type": "uint256"
        }
      ],
      "name": "setCardPackQuantity",
      "outputs": [],
      "stateMutability": "nonpayable",
      "type": "function"
    },
    {
      "inputs": [
        {
          "internalType": "uint256",
          "name": "_newOdds",
          "type": "uint256"
        }
      ],
      "name": "setExotixCardOdds",
      "outputs": [],
      "stateMutability": "nonpayable",
      "type": "function"
    },
    {
      "inputs": [
        {
          "internalType": "uint256",
          "name": "_newOdds",
          "type": "uint256"
        }
      ],
      "name": "setLegendaryCardOdds",
      "outputs": [],
      "stateMutability": "nonpayable",
      "type": "function"
    },
    {
      "inputs": [
        {
          "internalType": "address",
          "name": "_newOwner",
          "type": "address"
        }
      ],
      "name": "setOwner",
      "outputs": [],
      "stateMutability": "nonpayable",
      "type": "function"
    },
    {
      "inputs": [
        {
          "internalType": "uint256",
          "name": "_newOdds",
          "type": "uint256"
        }
      ],
      "name": "setRareCardOdds",
      "outputs": [],
      "stateMutability": "nonpayable",
      "type": "function"
    },
    {
      "inputs": [
        {
          "internalType": "uint256",
          "name": "_count",
          "type": "uint256"
        }
      ],
      "name": "setTotalPlayers",
      "outputs": [],
      "stateMutability": "nonpayable",
      "type": "function"
    },
    {
      "inputs": [
        {
          "internalType": "address",
          "name": "_from",
          "type": "address"
        },
        {
          "internalType": "address",
          "name": "_to",
          "type": "address"
        },
        {
          "internalType": "uint256",
          "name": "_tokenId",
          "type": "uint256"
        }
      ],
      "name": "transferFrom",
      "outputs": [],
      "stateMutability": "payable",
      "type": "function"
    },
    {
      "inputs": [
        {
          "internalType": "address",
          "name": "newOwner",
          "type": "address"
        }
      ],
      "name": "transferOwnership",
      "outputs": [],
      "stateMutability": "nonpayable",
      "type": "function"
    },
    {
      "inputs": [
        {
          "internalType": "address",
          "name": "",
          "type": "address"
        },
        {
          "internalType": "uint256",
          "name": "",
          "type": "uint256"
        }
      ],
      "name": "userOwnedCards",
      "outputs": [
        {
          "internalType": "uint256",
          "name": "",
          "type": "uint256"
        }
      ],
      "stateMutability": "view",
      "type": "function"
    },
    {
      "inputs": [
        {
          "internalType": "uint256",
          "name": "amount",
          "type": "uint256"
        }
      ],
      "name": "withdraw",
      "outputs": [],
      "stateMutability": "nonpayable",
      "type": "function"
    },
    {
      "inputs": [
        {
          "internalType": "uint256",
          "name": "_playerCount",
          "type": "uint256"
        },
        {
          "internalType": "uint256",
          "name": "_cardCount",
          "type": "uint256"
        },
        {
          "internalType": "uint256",
          "name": "_entryFee",
          "type": "uint256"
        }
      ],
      "name": "createGame",
      "outputs": [],
      "stateMutability": "nonpayable",
      "type": "function"
    },
    {
      "inputs": [
        {
          "internalType": "uint256",
          "name": "_gameId",
          "type": "uint256"
        },
        {
          "internalType": "uint256[]",
          "name": "_cardIds",
          "type": "uint256[]"
        }
      ],
      "name": "joinGame",
      "outputs": [],
      "stateMutability": "payable",
      "type": "function"
    },
    {
      "inputs": [
        {
          "internalType": "uint256[]",
          "name": "_gameIds",
          "type": "uint256[]"
        }
      ],
      "name": "closeGames",
      "outputs": [],
      "stateMutability": "nonpayable",
      "type": "function"
    },
    {
      "inputs": [
        {
          "internalType": "uint256[]",
          "name": "_gameIds",
          "type": "uint256[]"
        }
      ],
      "name": "endGames",
      "outputs": [],
      "stateMutability": "nonpayable",
      "type": "function"
    },
    {
      "inputs": [
        {
          "internalType": "uint256",
          "name": "_gameId",
          "type": "uint256"
        }
      ],
      "name": "getPlayersByGameId",
      "outputs": [
        {
          "internalType": "address[]",
          "name": "",
          "type": "address[]"
        }
      ],
      "stateMutability": "view",
      "type": "function"
    },
    {
      "inputs": [
        {
          "internalType": "uint256",
          "name": "_gameId",
          "type": "uint256"
        },
        {
          "internalType": "address",
          "name": "_user",
          "type": "address"
        }
      ],
      "name": "getCardEntriesByPlayer",
      "outputs": [
        {
          "internalType": "uint256[]",
          "name": "",
          "type": "uint256[]"
        }
      ],
      "stateMutability": "view",
      "type": "function"
    }
  ],
  "bytecode": "0x6080604052600060025560bd6003556611c37937e08000600855600a6009556003600a556019600b556064600c55733bff843835cabb198912e10629843fc65e336c84600f60006101000a81548173ffffffffffffffffffffffffffffffffffffffff021916908373ffffffffffffffffffffffffffffffffffffffff16021790555062093a8060125560016013553480156200009b57600080fd5b50620000bc620000b0620000c260201b60201c565b620000ca60201b60201c565b6200018e565b600033905090565b60008060009054906101000a900473ffffffffffffffffffffffffffffffffffffffff169050816000806101000a81548173ffffffffffffffffffffffffffffffffffffffff021916908373ffffffffffffffffffffffffffffffffffffffff1602179055508173ffffffffffffffffffffffffffffffffffffffff168173ffffffffffffffffffffffffffffffffffffffff167f8be0079c531659141344cd1fd0a4f28419497f9722a3daafe3b4186f6b6457e060405160405180910390a35050565b615d8e806200019e6000396000f3fe60806040526004361061027d5760003560e01c80638da5cb5b1161014f578063b780acc5116100c1578063d7c81b551161007a578063d7c81b55146109c0578063d82d6301146109eb578063e25d13a814610a14578063e985e9c514610a3d578063f2fde38b14610a7a578063feb2c4df14610aa35761027d565b8063b780acc5146108c3578063b88d4fde146108ec578063b9a2de3a14610908578063c274152114610931578063c44d503d1461095a578063c75f384b146109975761027d565b80639bf822e3116101135780639bf822e314610765578063a0dd6b34146107a2578063a22cb465146107e3578063a3d2065f1461080c578063a6e156c614610849578063b3df5268146108865761027d565b80638da5cb5b1461067b57806396b5a755146106a65780639979ef45146106cf5780639aa6c9ff146106eb5780639b3ce46e146107285761027d565b806336185bdf116101f3578063552788da116101ac578063552788da1461055b5780636352211e1461058457806370a08231146105c1578063715018a6146105fe578063804c4b2514610615578063828c730c146106525761027d565b806336185bdf146104425780633727dbf91461046b57806341845a14146104ae57806341994140146104d757806342842e0e1461051457806348c9581e146105305761027d565b806319a355671161024557806319a35567146103715780631b94a04e146103ae57806323b872dd146103ca578063245767fa146103e65780632cfae8d31461040f5780632e1a7d4d146104195761027d565b80630254837614610282578063081812fc146102c4578063095ea7b31461030157806310782f8f1461031d57806313af403514610348575b600080fd5b34801561028e57600080fd5b506102a960048036038101906102a49190614b82565b610acc565b6040516102bb96959493929190615845565b60405180910390f35b3480156102d057600080fd5b506102eb60048036038101906102e69190614b82565b610b28565b6040516102f89190615472565b60405180910390f35b61031b60048036038101906103169190614a79565b610c0a565b005b34801561032957600080fd5b50610332610f05565b60405161033f91906157d8565b60405180910390f35b34801561035457600080fd5b5061036f600480360381019061036a9190614909565b610f0b565b005b34801561037d57600080fd5b5061039860048036038101906103939190614909565b610fcb565b6040516103a591906154fb565b60405180910390f35b6103c860048036038101906103c39190614be7565b611062565b005b6103e460048036038101906103df919061496e565b611537565b005b3480156103f257600080fd5b5061040d60048036038101906104089190614b18565b611759565b005b610417611867565b005b34801561042557600080fd5b50610440600480360381019061043b9190614b82565b6118f8565b005b34801561044e57600080fd5b5061046960048036038101906104649190614b82565b6119e6565b005b34801561047757600080fd5b50610492600480360381019061048d9190614b82565b611a6c565b6040516104a5979695949392919061593e565b60405180910390f35b3480156104ba57600080fd5b506104d560048036038101906104d09190614b82565b611ae8565b005b3480156104e357600080fd5b506104fe60048036038101906104f99190614b82565b611b6e565b60405161050b9190615472565b60405180910390f35b61052e6004803603810190610529919061496e565b611ba1565b005b34801561053c57600080fd5b50610545611bc1565b60405161055291906157d8565b60405180910390f35b34801561056757600080fd5b50610582600480360381019061057d9190614b82565b611bc7565b005b34801561059057600080fd5b506105ab60048036038101906105a69190614b82565b611c4d565b6040516105b89190615472565b60405180910390f35b3480156105cd57600080fd5b506105e860048036038101906105e39190614909565b611c8a565b6040516105f591906157d8565b60405180910390f35b34801561060a57600080fd5b50610613611cd3565b005b34801561062157600080fd5b5061063c60048036038101906106379190614909565b611d5b565b60405161064991906157d8565b60405180910390f35b34801561065e57600080fd5b5061067960048036038101906106749190614ab5565b611d73565b005b34801561068757600080fd5b50610690611e23565b60405161069d9190615472565b60405180910390f35b3480156106b257600080fd5b506106cd60048036038101906106c89190614b82565b611e4c565b005b6106e960048036038101906106e49190614b82565b6120b4565b005b3480156106f757600080fd5b50610712600480360381019061070d9190614b82565b61245c565b60405161071f91906157d8565b60405180910390f35b34801561073457600080fd5b5061074f600480360381019061074a9190614a79565b612474565b60405161075c91906157d8565b60405180910390f35b34801561077157600080fd5b5061078c60048036038101906107879190614b82565b6124a5565b60405161079991906157d8565b60405180910390f35b3480156107ae57600080fd5b506107c960048036038101906107c49190614b82565b6124bd565b6040516107da9594939291906158eb565b60405180910390f35b3480156107ef57600080fd5b5061080a60048036038101906108059190614a3d565b612500565b005b34801561081857600080fd5b50610833600480360381019061082e9190614909565b6125fd565b604051610840919061551d565b60405180910390f35b34801561085557600080fd5b50610870600480360381019061086b9190614b82565b61261d565b60405161087d919061551d565b60405180910390f35b34801561089257600080fd5b506108ad60048036038101906108a89190614bab565b61263d565b6040516108ba91906154fb565b60405180910390f35b3480156108cf57600080fd5b506108ea60048036038101906108e59190614b82565b6126e6565b005b610906600480360381019061090191906149bd565b61276c565b005b34801561091457600080fd5b5061092f600480360381019061092a9190614b82565b6127c3565b005b34801561093d57600080fd5b5061095860048036038101906109539190614c3b565b612aca565b005b34801561096657600080fd5b50610981600480360381019061097c9190614b82565b612d4a565b60405161098e91906154d9565b60405180910390f35b3480156109a357600080fd5b506109be60048036038101906109b99190614b82565b612dee565b005b3480156109cc57600080fd5b506109d5612e74565b6040516109e291906157d8565b60405180910390f35b3480156109f757600080fd5b50610a126004803603810190610a0d9190614b18565b612e7a565b005b348015610a2057600080fd5b50610a3b6004803603810190610a369190614b82565b612f88565b005b348015610a4957600080fd5b50610a646004803603810190610a5f9190614932565b61300e565b604051610a71919061551d565b60405180910390f35b348015610a8657600080fd5b50610aa16004803603810190610a9c9190614909565b6130a2565b005b348015610aaf57600080fd5b50610aca6004803603810190610ac59190614c3b565b61319a565b005b60166020528060005260406000206000915090508060000154908060010154908060020160009054906101000a900473ffffffffffffffffffffffffffffffffffffffff16908060030154908060040154908060050154905086565b600081600073ffffffffffffffffffffffffffffffffffffffff166004600083815260200190815260200160002060009054906101000a900473ffffffffffffffffffffffffffffffffffffffff1673ffffffffffffffffffffffffffffffffffffffff161415610bce576040517f08c379a0000000000000000000000000000000000000000000000000000000008152600401610bc590615598565b60405180910390fd5b6010600084815260200190815260200160002060009054906101000a900473ffffffffffffffffffffffffffffffffffffffff16915050919050565b8060006004600083815260200190815260200160002060009054906101000a900473ffffffffffffffffffffffffffffffffffffffff1690503373ffffffffffffffffffffffffffffffffffffffff168173ffffffffffffffffffffffffffffffffffffffff161480610d035750601160008273ffffffffffffffffffffffffffffffffffffffff1673ffffffffffffffffffffffffffffffffffffffff16815260200190815260200160002060003373ffffffffffffffffffffffffffffffffffffffff1673ffffffffffffffffffffffffffffffffffffffff16815260200190815260200160002060009054906101000a900460ff165b610d0c57600080fd5b82600073ffffffffffffffffffffffffffffffffffffffff166004600083815260200190815260200160002060009054906101000a900473ffffffffffffffffffffffffffffffffffffffff1673ffffffffffffffffffffffffffffffffffffffff161415610db0576040517f08c379a0000000000000000000000000000000000000000000000000000000008152600401610da790615598565b60405180910390fd5b6004600085815260200190815260200160002060009054906101000a900473ffffffffffffffffffffffffffffffffffffffff1673ffffffffffffffffffffffffffffffffffffffff163373ffffffffffffffffffffffffffffffffffffffff1614610e51576040517f08c379a0000000000000000000000000000000000000000000000000000000008152600401610e4890615778565b60405180910390fd5b846010600086815260200190815260200160002060006101000a81548173ffffffffffffffffffffffffffffffffffffffff021916908373ffffffffffffffffffffffffffffffffffffffff160217905550838573ffffffffffffffffffffffffffffffffffffffff163373ffffffffffffffffffffffffffffffffffffffff167f8c5be1e5ebec7d5bd14f71427d1e84f3dd0314c0f7b2291e5b200ac8c7c3b92560405160405180910390a45050505050565b60135481565b610f13613526565b73ffffffffffffffffffffffffffffffffffffffff16610f31611e23565b73ffffffffffffffffffffffffffffffffffffffff1614610f87576040517f08c379a0000000000000000000000000000000000000000000000000000000008152600401610f7e906156d8565b60405180910390fd5b80600f60006101000a81548173ffffffffffffffffffffffffffffffffffffffff021916908373ffffffffffffffffffffffffffffffffffffffff16021790555050565b6060600560008373ffffffffffffffffffffffffffffffffffffffff1673ffffffffffffffffffffffffffffffffffffffff16815260200190815260200160002080548060200260200160405190810160405280929190818152602001828054801561105657602002820191906000526020600020905b815481526020019060010190808311611042575b50505050509050919050565b8133600080601860008581526020019081526020016000206004018054806020026020016040519081016040528092919081815260200182805480156110fd57602002820191906000526020600020905b8160009054906101000a900473ffffffffffffffffffffffffffffffffffffffff1673ffffffffffffffffffffffffffffffffffffffff16815260200190600101908083116110b3575b5050505050905060005b815181101561119c578373ffffffffffffffffffffffffffffffffffffffff16828281518110611160577f4e487b7100000000000000000000000000000000000000000000000000000000600052603260045260246000fd5b602002602001015173ffffffffffffffffffffffffffffffffffffffff16141561118957600192505b808061119490615bda565b915050611107565b5081156111de576040517f08c379a00000000000000000000000000000000000000000000000000000000081526004016111d590615698565b60405180910390fd5b843360006001905060005b8351811015611273576007600085838151811061122f577f4e487b7100000000000000000000000000000000000000000000000000000000600052603260045260246000fd5b6020026020010151815260200190815260200160002060040160009054906101000a900460ff161561126057600091505b808061126b90615bda565b9150506111e9565b50806112b4576040517f08c379a00000000000000000000000000000000000000000000000000000000081526004016112ab90615618565b60405180910390fd5b34601860008b8152602001908152602001600020600301541461130c576040517f08c379a0000000000000000000000000000000000000000000000000000000008152600401611303906155b8565b60405180910390fd5b87601960008b815260200190815260200160002060003373ffffffffffffffffffffffffffffffffffffffff1673ffffffffffffffffffffffffffffffffffffffff16815260200190815260200160002090805190602001906113709291906146e1565b5060005b88518110156113ff576001600760008b84815181106113bc577f4e487b7100000000000000000000000000000000000000000000000000000000600052603260045260246000fd5b6020026020010151815260200190815260200160002060040160006101000a81548160ff02191690831515021790555080806113f790615bda565b915050611374565b50601860008a8152602001908152602001600020600401339080600181540180825580915050600190039060005260206000200160009091909190916101000a81548173ffffffffffffffffffffffffffffffffffffffff021916908373ffffffffffffffffffffffffffffffffffffffff160217905550601860008a815260200190815260200160002060010154601860008b81526020019081526020016000206004018054905014156114de576000601860008b815260200190815260200160002060050160006101000a81548160ff0219169083151502179055505b3373ffffffffffffffffffffffffffffffffffffffff167f45c4f9cbafe186141862608c493f28b823fde4c2142bedc3f5169961a73fdd228a60405161152491906157d8565b60405180910390a2505050505050505050565b8060006004600083815260200190815260200160002060009054906101000a900473ffffffffffffffffffffffffffffffffffffffff1690503373ffffffffffffffffffffffffffffffffffffffff168173ffffffffffffffffffffffffffffffffffffffff16148061160857503373ffffffffffffffffffffffffffffffffffffffff166010600084815260200190815260200160002060009054906101000a900473ffffffffffffffffffffffffffffffffffffffff1673ffffffffffffffffffffffffffffffffffffffff16145b806116995750601160008273ffffffffffffffffffffffffffffffffffffffff1673ffffffffffffffffffffffffffffffffffffffff16815260200190815260200160002060003373ffffffffffffffffffffffffffffffffffffffff1673ffffffffffffffffffffffffffffffffffffffff16815260200190815260200160002060009054906101000a900460ff165b6116a257600080fd5b82600073ffffffffffffffffffffffffffffffffffffffff166004600083815260200190815260200160002060009054906101000a900473ffffffffffffffffffffffffffffffffffffffff1673ffffffffffffffffffffffffffffffffffffffff161415611746576040517f08c379a000000000000000000000000000000000000000000000000000000000815260040161173d90615598565b60405180910390fd5b61175186868661352e565b505050505050565b611761613526565b73ffffffffffffffffffffffffffffffffffffffff1661177f611e23565b73ffffffffffffffffffffffffffffffffffffffff16146117d5576040517f08c379a00000000000000000000000000000000000000000000000000000000081526004016117cc906156d8565b60405180910390fd5b60005b815181101561186357600060186000848481518110611820577f4e487b7100000000000000000000000000000000000000000000000000000000600052603260045260246000fd5b6020026020010151815260200190815260200160002060050160016101000a81548160ff021916908315150217905550808061185b90615bda565b9150506117d8565b5050565b60085434146118ab576040517f08c379a00000000000000000000000000000000000000000000000000000000081526004016118a2906155d8565b60405180910390fd5b6118b36137bb565b3373ffffffffffffffffffffffffffffffffffffffff167f1c3899f94ecc08f5f95b67284618b3ca13d80b66fbc5b7f07c6b8bd30f61fcbf60405160405180910390a2565b611900613526565b73ffffffffffffffffffffffffffffffffffffffff1661191e611e23565b73ffffffffffffffffffffffffffffffffffffffff1614611974576040517f08c379a000000000000000000000000000000000000000000000000000000000815260040161196b906156d8565b60405180910390fd5b6000600f60009054906101000a900473ffffffffffffffffffffffffffffffffffffffff1690508073ffffffffffffffffffffffffffffffffffffffff166108fc839081150290604051600060405180830381858888f193505050501580156119e1573d6000803e3d6000fd5b505050565b6119ee613526565b73ffffffffffffffffffffffffffffffffffffffff16611a0c611e23565b73ffffffffffffffffffffffffffffffffffffffff1614611a62576040517f08c379a0000000000000000000000000000000000000000000000000000000008152600401611a59906156d8565b60405180910390fd5b80600b8190555050565b60186020528060005260406000206000915090508060000154908060010154908060020154908060030154908060050160009054906101000a900460ff16908060050160019054906101000a900460ff16908060050160029054906101000a900473ffffffffffffffffffffffffffffffffffffffff16905087565b611af0613526565b73ffffffffffffffffffffffffffffffffffffffff16611b0e611e23565b73ffffffffffffffffffffffffffffffffffffffff1614611b64576040517f08c379a0000000000000000000000000000000000000000000000000000000008152600401611b5b906156d8565b60405180910390fd5b80600a8190555050565b60046020528060005260406000206000915054906101000a900473ffffffffffffffffffffffffffffffffffffffff1681565b611bbc8383836040518060200160405280600081525061388c565b505050565b60125481565b611bcf613526565b73ffffffffffffffffffffffffffffffffffffffff16611bed611e23565b73ffffffffffffffffffffffffffffffffffffffff1614611c43576040517f08c379a0000000000000000000000000000000000000000000000000000000008152600401611c3a906156d8565b60405180910390fd5b8060088190555050565b60006004600083815260200190815260200160002060009054906101000a900473ffffffffffffffffffffffffffffffffffffffff169050919050565b6000600d60008373ffffffffffffffffffffffffffffffffffffffff1673ffffffffffffffffffffffffffffffffffffffff168152602001908152602001600020549050919050565b611cdb613526565b73ffffffffffffffffffffffffffffffffffffffff16611cf9611e23565b73ffffffffffffffffffffffffffffffffffffffff1614611d4f576040517f08c379a0000000000000000000000000000000000000000000000000000000008152600401611d46906156d8565b60405180910390fd5b611d596000613c61565b565b600d6020528060005260406000206000915090505481565b611d7b613526565b73ffffffffffffffffffffffffffffffffffffffff16611d99611e23565b73ffffffffffffffffffffffffffffffffffffffff1614611def576040517f08c379a0000000000000000000000000000000000000000000000000000000008152600401611de6906156d8565b60405180910390fd5b6000611dfc848484613d25565b9050611e088582613e1a565b60018054611e169190615aa9565b6001819055505050505050565b60008060009054906101000a900473ffffffffffffffffffffffffffffffffffffffff16905090565b8060006004600083815260200190815260200160002060009054906101000a900473ffffffffffffffffffffffffffffffffffffffff1690503373ffffffffffffffffffffffffffffffffffffffff168173ffffffffffffffffffffffffffffffffffffffff1614611ef3576040517f08c379a0000000000000000000000000000000000000000000000000000000008152600401611eea90615758565b60405180910390fd5b600060166000601560008781526020019081526020016000205481526020019081526020016000206040518060c001604052908160008201548152602001600182015481526020016002820160009054906101000a900473ffffffffffffffffffffffffffffffffffffffff1673ffffffffffffffffffffffffffffffffffffffff1673ffffffffffffffffffffffffffffffffffffffff16815260200160038201548152602001600482015481526020016005820154815250509050600073ffffffffffffffffffffffffffffffffffffffff16816040015173ffffffffffffffffffffffffffffffffffffffff1614612023576040517f08c379a000000000000000000000000000000000000000000000000000000000815260040161201a90615558565b60405180910390fd5b42816060015111612069576040517f08c379a0000000000000000000000000000000000000000000000000000000008152600401612060906157b8565b60405180910390fd5b60006014600086815260200190815260200160002060006101000a81548160ff0219169083151502179055506000601560008681526020019081526020016000208190555050505050565b600060166000601560008581526020019081526020016000205481526020019081526020016000206040518060c001604052908160008201548152602001600182015481526020016002820160009054906101000a900473ffffffffffffffffffffffffffffffffffffffff1673ffffffffffffffffffffffffffffffffffffffff1673ffffffffffffffffffffffffffffffffffffffff168152602001600382015481526020016004820154815260200160058201548152505090503373ffffffffffffffffffffffffffffffffffffffff166004600084815260200190815260200160002060009054906101000a900473ffffffffffffffffffffffffffffffffffffffff1673ffffffffffffffffffffffffffffffffffffffff161415612213576040517f08c379a000000000000000000000000000000000000000000000000000000000815260040161220a906156b8565b60405180910390fd5b6014600083815260200190815260200160002060009054906101000a900460ff16612273576040517f08c379a000000000000000000000000000000000000000000000000000000000815260040161226a90615638565b60405180910390fd5b806020015134116122b9576040517f08c379a00000000000000000000000000000000000000000000000000000000081526004016122b0906155f8565b60405180910390fd5b600081604001519050600073ffffffffffffffffffffffffffffffffffffffff168173ffffffffffffffffffffffffffffffffffffffff1614612342578073ffffffffffffffffffffffffffffffffffffffff166108fc83602001519081150290604051600060405180830381858888f19350505050158015612340573d6000803e3d6000fd5b505b33601660008460000151815260200190815260200160002060020160006101000a81548173ffffffffffffffffffffffffffffffffffffffff021916908373ffffffffffffffffffffffffffffffffffffffff1602179055503460166000846000015181526020019081526020016000206001018190555060016016600084600001518152602001908152602001600020600501546123e19190615aa9565b6016600084600001518152602001908152602001600020600501819055503373ffffffffffffffffffffffffffffffffffffffff16826080015183600001517f379fe8bc550443c6867a021184bb0e5a961f3fcd271160873847410c7bdd0e283460405161244f91906157d8565b60405180910390a4505050565b60156020528060005260406000206000915090505481565b6005602052816000526040600020818154811061249057600080fd5b90600052602060002001600091509150505481565b60066020528060005260406000206000915090505481565b60076020528060005260406000206000915090508060000154908060010154908060020154908060030154908060040160009054906101000a900460ff16905085565b80601160003373ffffffffffffffffffffffffffffffffffffffff1673ffffffffffffffffffffffffffffffffffffffff16815260200190815260200160002060008473ffffffffffffffffffffffffffffffffffffffff1673ffffffffffffffffffffffffffffffffffffffff16815260200190815260200160002060006101000a81548160ff0219169083151502179055508173ffffffffffffffffffffffffffffffffffffffff163373ffffffffffffffffffffffffffffffffffffffff167f17307eab39ab6107e8899845ad3d59bd9653f200f220920489ca2b5937696c31836040516125f1919061551d565b60405180910390a35050565b600e6020528060005260406000206000915054906101000a900460ff1681565b60146020528060005260406000206000915054906101000a900460ff1681565b60606019600084815260200190815260200160002060008373ffffffffffffffffffffffffffffffffffffffff1673ffffffffffffffffffffffffffffffffffffffff1681526020019081526020016000208054806020026020016040519081016040528092919081815260200182805480156126d957602002820191906000526020600020905b8154815260200190600101908083116126c5575b5050505050905092915050565b6126ee613526565b73ffffffffffffffffffffffffffffffffffffffff1661270c611e23565b73ffffffffffffffffffffffffffffffffffffffff1614612762576040517f08c379a0000000000000000000000000000000000000000000000000000000008152600401612759906156d8565b60405180910390fd5b8060038190555050565b6127bc85858585858080601f016020809104026020016040519081016040528093929190818152602001838380828437600081840152601f19601f8201169050808301925050505050505061388c565b5050505050565b8060006004600083815260200190815260200160002060009054906101000a900473ffffffffffffffffffffffffffffffffffffffff1690503373ffffffffffffffffffffffffffffffffffffffff168173ffffffffffffffffffffffffffffffffffffffff161461286a576040517f08c379a000000000000000000000000000000000000000000000000000000000815260040161286190615758565b60405180910390fd5b600060166000601560008781526020019081526020016000205481526020019081526020016000206040518060c001604052908160008201548152602001600182015481526020016002820160009054906101000a900473ffffffffffffffffffffffffffffffffffffffff1673ffffffffffffffffffffffffffffffffffffffff1673ffffffffffffffffffffffffffffffffffffffff16815260200160038201548152602001600482015481526020016005820154815250509050428160600151111561296e576040517f08c379a000000000000000000000000000000000000000000000000000000000815260040161296590615538565b60405180910390fd5b600073ffffffffffffffffffffffffffffffffffffffff16816040015173ffffffffffffffffffffffffffffffffffffffff16146129ba576129b984826040015183602001516140dd565b5b806040015173ffffffffffffffffffffffffffffffffffffffff16816080015182600001517f774455444039da9400b7ba984f8cc1d8ac5e70c742d01a325cc97979802c15248460200151600073ffffffffffffffffffffffffffffffffffffffff16866040015173ffffffffffffffffffffffffffffffffffffffff161415604051612a489291906157f3565b60405180910390a460006014600086815260200190815260200160002060006101000a81548160ff02191690831515021790555060006007600086815260200190815260200160002060040160006101000a81548160ff0219169083151502179055506000601560008681526020019081526020016000208190555050505050565b612ad2613526565b73ffffffffffffffffffffffffffffffffffffffff16612af0611e23565b73ffffffffffffffffffffffffffffffffffffffff1614612b46576040517f08c379a0000000000000000000000000000000000000000000000000000000008152600401612b3d906156d8565b60405180910390fd5b60405180610100016040528060175481526020018481526020018381526020018281526020018467ffffffffffffffff811115612bac577f4e487b7100000000000000000000000000000000000000000000000000000000600052604160045260246000fd5b604051908082528060200260200182016040528015612bda5781602001602082028036833780820191505090505b508152602001600115158152602001600115158152602001600073ffffffffffffffffffffffffffffffffffffffff16815250601860006017548152602001908152602001600020600082015181600001556020820151816001015560408201518160020155606082015181600301556080820151816004019080519060200190612c6692919061472e565b5060a08201518160050160006101000a81548160ff02191690831515021790555060c08201518160050160016101000a81548160ff02191690831515021790555060e08201518160050160026101000a81548173ffffffffffffffffffffffffffffffffffffffff021916908373ffffffffffffffffffffffffffffffffffffffff1602179055509050507f80b55cf2f646df8d85b80ac067c88c4aa6354a860d6cb55c7e234cf23861627f601754848484604051612d2894939291906158a6565b60405180910390a16001601754612d3f9190615aa9565b601781905550505050565b606060186000838152602001908152602001600020600401805480602002602001604051908101604052809291908181526020018280548015612de257602002820191906000526020600020905b8160009054906101000a900473ffffffffffffffffffffffffffffffffffffffff1673ffffffffffffffffffffffffffffffffffffffff1681526020019060010190808311612d98575b50505050509050919050565b612df6613526565b73ffffffffffffffffffffffffffffffffffffffff16612e14611e23565b73ffffffffffffffffffffffffffffffffffffffff1614612e6a576040517f08c379a0000000000000000000000000000000000000000000000000000000008152600401612e61906156d8565b60405180910390fd5b80600c8190555050565b60175481565b612e82613526565b73ffffffffffffffffffffffffffffffffffffffff16612ea0611e23565b73ffffffffffffffffffffffffffffffffffffffff1614612ef6576040517f08c379a0000000000000000000000000000000000000000000000000000000008152600401612eed906156d8565b60405180910390fd5b60005b8151811015612f8457600060186000848481518110612f41577f4e487b7100000000000000000000000000000000000000000000000000000000600052603260045260246000fd5b6020026020010151815260200190815260200160002060050160006101000a81548160ff0219169083151502179055508080612f7c90615bda565b915050612ef9565b5050565b612f90613526565b73ffffffffffffffffffffffffffffffffffffffff16612fae611e23565b73ffffffffffffffffffffffffffffffffffffffff1614613004576040517f08c379a0000000000000000000000000000000000000000000000000000000008152600401612ffb906156d8565b60405180910390fd5b8060098190555050565b6000601160008473ffffffffffffffffffffffffffffffffffffffff1673ffffffffffffffffffffffffffffffffffffffff16815260200190815260200160002060008373ffffffffffffffffffffffffffffffffffffffff1673ffffffffffffffffffffffffffffffffffffffff16815260200190815260200160002060009054906101000a900460ff16905092915050565b6130aa613526565b73ffffffffffffffffffffffffffffffffffffffff166130c8611e23565b73ffffffffffffffffffffffffffffffffffffffff161461311e576040517f08c379a0000000000000000000000000000000000000000000000000000000008152600401613115906156d8565b60405180910390fd5b600073ffffffffffffffffffffffffffffffffffffffff168173ffffffffffffffffffffffffffffffffffffffff16141561318e576040517f08c379a000000000000000000000000000000000000000000000000000000000815260040161318590615578565b60405180910390fd5b61319781613c61565b50565b806012548111156131e0576040517f08c379a00000000000000000000000000000000000000000000000000000000081526004016131d7906156f8565b60405180910390fd5b8360006004600083815260200190815260200160002060009054906101000a900473ffffffffffffffffffffffffffffffffffffffff1690503373ffffffffffffffffffffffffffffffffffffffff168173ffffffffffffffffffffffffffffffffffffffff1614613287576040517f08c379a000000000000000000000000000000000000000000000000000000000815260040161327e90615758565b60405180910390fd5b6014600087815260200190815260200160002060009054906101000a900460ff16156132e8576040517f08c379a00000000000000000000000000000000000000000000000000000000081526004016132df90615718565b60405180910390fd5b6007600087815260200190815260200160002060040160009054906101000a900460ff161561334c576040517f08c379a000000000000000000000000000000000000000000000000000000000815260040161334390615798565b60405180910390fd5b60006040518060c001604052806013548152602001878152602001600073ffffffffffffffffffffffffffffffffffffffff16815260200186426133909190615aa9565b81526020018881526020016000815250905080601660006013548152602001908152602001600020600082015181600001556020820151816001015560408201518160020160006101000a81548173ffffffffffffffffffffffffffffffffffffffff021916908373ffffffffffffffffffffffffffffffffffffffff160217905550606082015181600301556080820151816004015560a0820151816005015590505060016007600089815260200190815260200160002060040160006101000a81548160ff021916908315150217905550601354601560008981526020019081526020016000208190555060016014600089815260200190815260200160002060006101000a81548160ff0219169083151502179055503373ffffffffffffffffffffffffffffffffffffffff16876013547f7dfee34cc48a7ad6a025da536d05885e750c439dbd20d390192dec1f2f4c04708989426134f29190615aa9565b60405161350092919061581c565b60405180910390a460016013546135179190615aa9565b60138190555050505050505050565b600033905090565b6010600082815260200190815260200160002060006101000a81549073ffffffffffffffffffffffffffffffffffffffff021916905560006006600083815260200190815260200160002054905066038d7ea4c67fff600560006004600086815260200190815260200160002060009054906101000a900473ffffffffffffffffffffffffffffffffffffffff1673ffffffffffffffffffffffffffffffffffffffff1673ffffffffffffffffffffffffffffffffffffffff168152602001908152602001600020828154811061362e577f4e487b7100000000000000000000000000000000000000000000000000000000600052603260045260246000fd5b9060005260206000200181905550826004600084815260200190815260200160002060006101000a81548173ffffffffffffffffffffffffffffffffffffffff021916908373ffffffffffffffffffffffffffffffffffffffff160217905550600560008473ffffffffffffffffffffffffffffffffffffffff1673ffffffffffffffffffffffffffffffffffffffff1681526020019081526020016000208290806001815401808255809150506001900390600052602060002001600090919091909150556001600560008573ffffffffffffffffffffffffffffffffffffffff1673ffffffffffffffffffffffffffffffffffffffff168152602001908152602001600020805490506137439190615aff565b6006600084815260200190815260200160002081905550818373ffffffffffffffffffffffffffffffffffffffff168573ffffffffffffffffffffffffffffffffffffffff167fddf252ad1be2c89b69c2b068fc378daa952ba7f163c4a11628f55a4df523b3ef60405160405180910390a450505050565b60006137cb600c54826003614359565b90506137db600b54826002614359565b90506137eb600a54826001614359565b90506137f9816009546143ce565b600954600d60003373ffffffffffffffffffffffffffffffffffffffff1673ffffffffffffffffffffffffffffffffffffffff168152602001908152602001600020546138469190615aa9565b600d60003373ffffffffffffffffffffffffffffffffffffffff1673ffffffffffffffffffffffffffffffffffffffff1681526020019081526020016000208190555050565b8160006004600083815260200190815260200160002060009054906101000a900473ffffffffffffffffffffffffffffffffffffffff1690503373ffffffffffffffffffffffffffffffffffffffff168173ffffffffffffffffffffffffffffffffffffffff16148061395d57503373ffffffffffffffffffffffffffffffffffffffff166010600084815260200190815260200160002060009054906101000a900473ffffffffffffffffffffffffffffffffffffffff1673ffffffffffffffffffffffffffffffffffffffff16145b806139ee5750601160008273ffffffffffffffffffffffffffffffffffffffff1673ffffffffffffffffffffffffffffffffffffffff16815260200190815260200160002060003373ffffffffffffffffffffffffffffffffffffffff1673ffffffffffffffffffffffffffffffffffffffff16815260200190815260200160002060009054906101000a900460ff165b6139f757600080fd5b83600073ffffffffffffffffffffffffffffffffffffffff166004600083815260200190815260200160002060009054906101000a900473ffffffffffffffffffffffffffffffffffffffff1673ffffffffffffffffffffffffffffffffffffffff161415613a9b576040517f08c379a0000000000000000000000000000000000000000000000000000000008152600401613a9290615598565b60405180910390fd5b600073ffffffffffffffffffffffffffffffffffffffff168673ffffffffffffffffffffffffffffffffffffffff161415613b0b576040517f08c379a0000000000000000000000000000000000000000000000000000000008152600401613b0290615738565b60405180910390fd5b613b1687878761352e565b613b358673ffffffffffffffffffffffffffffffffffffffff1661442e565b15613c585760008673ffffffffffffffffffffffffffffffffffffffff1663150b7a02338a89896040518563ffffffff1660e01b8152600401613b7b949392919061548d565b602060405180830381600087803b158015613b9557600080fd5b505af1158015613ba9573d6000803e3d6000fd5b505050506040513d601f19601f82011682018060405250810190613bcd9190614b59565b905063150b7a0260e01b7bffffffffffffffffffffffffffffffffffffffffffffffffffffffff1916817bffffffffffffffffffffffffffffffffffffffffffffffffffffffff191614613c56576040517f08c379a0000000000000000000000000000000000000000000000000000000008152600401613c4d90615678565b60405180910390fd5b505b50505050505050565b60008060009054906101000a900473ffffffffffffffffffffffffffffffffffffffff169050816000806101000a81548173ffffffffffffffffffffffffffffffffffffffff021916908373ffffffffffffffffffffffffffffffffffffffff1602179055508173ffffffffffffffffffffffffffffffffffffffff168173ffffffffffffffffffffffffffffffffffffffff167f8be0079c531659141344cd1fd0a4f28419497f9722a3daafe3b4186f6b6457e060405160405180910390a35050565b6000806040518060a001604052806001548152602001868152602001848152602001858152602001600015158152509050806007600060015481526020019081526020016000206000820151816000015560208201518160010155604082015181600201556060820151816003015560808201518160040160006101000a81548160ff0219169083151502179055509050503373ffffffffffffffffffffffffffffffffffffffff167fa47f2b648fe6fee6023b9227628b751649f165f204c8a6e75d3146aca5b1b8a6600154868887604051613e0594939291906158a6565b60405180910390a26001549150509392505050565b600073ffffffffffffffffffffffffffffffffffffffff168273ffffffffffffffffffffffffffffffffffffffff161415613e8a576040517f08c379a0000000000000000000000000000000000000000000000000000000008152600401613e8190615738565b60405180910390fd5b600073ffffffffffffffffffffffffffffffffffffffff166004600083815260200190815260200160002060009054906101000a900473ffffffffffffffffffffffffffffffffffffffff1673ffffffffffffffffffffffffffffffffffffffff1614613f2c576040517f08c379a0000000000000000000000000000000000000000000000000000000008152600401613f2390615658565b60405180910390fd5b816004600083815260200190815260200160002060006101000a81548173ffffffffffffffffffffffffffffffffffffffff021916908373ffffffffffffffffffffffffffffffffffffffff160217905550600560008373ffffffffffffffffffffffffffffffffffffffff1673ffffffffffffffffffffffffffffffffffffffff1681526020019081526020016000208190806001815401808255809150506001900390600052602060002001600090919091909150556001600560008473ffffffffffffffffffffffffffffffffffffffff1673ffffffffffffffffffffffffffffffffffffffff168152602001908152602001600020805490506140339190615aff565b60066000838152602001908152602001600020819055506001600d60008473ffffffffffffffffffffffffffffffffffffffff1673ffffffffffffffffffffffffffffffffffffffff168152602001908152602001600020546140969190615aa9565b600d60008473ffffffffffffffffffffffffffffffffffffffff1673ffffffffffffffffffffffffffffffffffffffff168152602001908152602001600020819055505050565b60006004600085815260200190815260200160002060009054906101000a900473ffffffffffffffffffffffffffffffffffffffff16905060006006600086815260200190815260200160002054905066038d7ea4c67fff600560006004600089815260200190815260200160002060009054906101000a900473ffffffffffffffffffffffffffffffffffffffff1673ffffffffffffffffffffffffffffffffffffffff1673ffffffffffffffffffffffffffffffffffffffff16815260200190815260200160002082815481106141df577f4e487b7100000000000000000000000000000000000000000000000000000000600052603260045260246000fd5b9060005260206000200181905550600560008573ffffffffffffffffffffffffffffffffffffffff1673ffffffffffffffffffffffffffffffffffffffff1681526020019081526020016000208590806001815401808255809150506001900390600052602060002001600090919091909150556001600560008673ffffffffffffffffffffffffffffffffffffffff1673ffffffffffffffffffffffffffffffffffffffff168152602001908152602001600020805490506142a29190615aff565b6006600087815260200190815260200160002081905550836004600087815260200190815260200160002060006101000a81548173ffffffffffffffffffffffffffffffffffffffff021916908373ffffffffffffffffffffffffffffffffffffffff1602179055508173ffffffffffffffffffffffffffffffffffffffff166108fc849081150290604051600060405180830381858888f19350505050158015614351573d6000803e3d6000fd5b505050505050565b60008083905060008561436a614479565b6143749190615c2d565b14156143c3576000600354614387614479565b6143919190615c2d565b905060016002546143a29190615aa9565b6002819055506143b281856144b0565b6001856143bf9190615aa9565b9150505b809150509392505050565b60008290505b818110156144295760006003546143e9614479565b6143f39190615c2d565b905060016002546144049190615aa9565b6002819055506144158160006144b0565b50808061442190615bda565b9150506143d4565b505050565b60008060007fc5d2460186f7233c927e7db2dcc703c0e500b653ca82273b7bfad8045d85a47060001b9050833f91506000801b82141580156144705750808214155b92505050919050565b6000444260025460405160200161449293929190615435565b6040516020818303038152906040528051906020012060001c905090565b60006144ba614479565b905060006040518060a001604052806001548152602001858152602001838152602001848152602001600015158152509050806007600060015481526020019081526020016000206000820151816000015560208201518160010155604082015181600201556060820151816003015560808201518160040160006101000a81548160ff0219169083151502179055509050503373ffffffffffffffffffffffffffffffffffffffff167fa47f2b648fe6fee6023b9227628b751649f165f204c8a6e75d3146aca5b1b8a660015485878660405161459b94939291906158a6565b60405180910390a23360046000600154815260200190815260200160002060006101000a81548173ffffffffffffffffffffffffffffffffffffffff021916908373ffffffffffffffffffffffffffffffffffffffff160217905550600560003373ffffffffffffffffffffffffffffffffffffffff1673ffffffffffffffffffffffffffffffffffffffff16815260200190815260200160002060015490806001815401808255809150506001900390600052602060002001600090919091909150556001600560003373ffffffffffffffffffffffffffffffffffffffff1673ffffffffffffffffffffffffffffffffffffffff168152602001908152602001600020805490506146ae9190615aff565b60066000600154815260200190815260200160002081905550600180546146d59190615aa9565b60018190555050505050565b82805482825590600052602060002090810192821561471d579160200282015b8281111561471c578251825591602001919060010190614701565b5b50905061472a91906147b8565b5090565b8280548282559060005260206000209081019282156147a7579160200282015b828111156147a65782518260006101000a81548173ffffffffffffffffffffffffffffffffffffffff021916908373ffffffffffffffffffffffffffffffffffffffff1602179055509160200191906001019061474e565b5b5090506147b491906147b8565b5090565b5b808211156147d15760008160009055506001016147b9565b5090565b60006147e86147e3846159de565b6159ad565b9050808382526020820190508285602086028201111561480757600080fd5b60005b85811015614837578161481d88826148f4565b84526020840193506020830192505060018101905061480a565b5050509392505050565b60008135905061485081615cfc565b92915050565b600082601f83011261486757600080fd5b81356148778482602086016147d5565b91505092915050565b60008135905061488f81615d13565b92915050565b6000815190506148a481615d2a565b92915050565b60008083601f8401126148bc57600080fd5b8235905067ffffffffffffffff8111156148d557600080fd5b6020830191508360018202830111156148ed57600080fd5b9250929050565b60008135905061490381615d41565b92915050565b60006020828403121561491b57600080fd5b600061492984828501614841565b91505092915050565b6000806040838503121561494557600080fd5b600061495385828601614841565b925050602061496485828601614841565b9150509250929050565b60008060006060848603121561498357600080fd5b600061499186828701614841565b93505060206149a286828701614841565b92505060406149b3868287016148f4565b9150509250925092565b6000806000806000608086880312156149d557600080fd5b60006149e388828901614841565b95505060206149f488828901614841565b9450506040614a05888289016148f4565b935050606086013567ffffffffffffffff811115614a2257600080fd5b614a2e888289016148aa565b92509250509295509295909350565b60008060408385031215614a5057600080fd5b6000614a5e85828601614841565b9250506020614a6f85828601614880565b9150509250929050565b60008060408385031215614a8c57600080fd5b6000614a9a85828601614841565b9250506020614aab858286016148f4565b9150509250929050565b60008060008060808587031215614acb57600080fd5b6000614ad987828801614841565b9450506020614aea878288016148f4565b9350506040614afb878288016148f4565b9250506060614b0c878288016148f4565b91505092959194509250565b600060208284031215614b2a57600080fd5b600082013567ffffffffffffffff811115614b4457600080fd5b614b5084828501614856565b91505092915050565b600060208284031215614b6b57600080fd5b6000614b7984828501614895565b91505092915050565b600060208284031215614b9457600080fd5b6000614ba2848285016148f4565b91505092915050565b60008060408385031215614bbe57600080fd5b6000614bcc858286016148f4565b9250506020614bdd85828601614841565b9150509250929050565b60008060408385031215614bfa57600080fd5b6000614c08858286016148f4565b925050602083013567ffffffffffffffff811115614c2557600080fd5b614c3185828601614856565b9150509250929050565b600080600060608486031215614c5057600080fd5b6000614c5e868287016148f4565b9350506020614c6f868287016148f4565b9250506040614c80868287016148f4565b9150509250925092565b6000614c968383614cba565b60208301905092915050565b6000614cae8383615400565b60208301905092915050565b614cc381615b33565b82525050565b614cd281615b33565b82525050565b6000614ce382615a2a565b614ced8185615a65565b9350614cf883615a0a565b8060005b83811015614d29578151614d108882614c8a565b9750614d1b83615a4b565b925050600181019050614cfc565b5085935050505092915050565b6000614d4182615a35565b614d4b8185615a76565b9350614d5683615a1a565b8060005b83811015614d87578151614d6e8882614ca2565b9750614d7983615a58565b925050600181019050614d5a565b5085935050505092915050565b614d9d81615b45565b82525050565b6000614dae82615a40565b614db88185615a87565b9350614dc8818560208601615ba7565b614dd181615ceb565b840191505092915050565b6000614de9601883615a98565b91507f41554354494f4e204e4f54205945542046494e495348454400000000000000006000830152602082019050919050565b6000614e29602683615a98565b91507f43414e4e4f542043414e43454c20414e2041554354494f4e205448415420484160008301527f53204249445300000000000000000000000000000000000000000000000000006020830152604082019050919050565b6000614e8f602683615a98565b91507f4f776e61626c653a206e6577206f776e657220697320746865207a65726f206160008301527f64647265737300000000000000000000000000000000000000000000000000006020830152604082019050919050565b6000614ef5600c83615a98565b91507f494e56414c4944204341524400000000000000000000000000000000000000006000830152602082019050919050565b6000614f35601183615a98565b91507f494e56414c494420454e545259204645450000000000000000000000000000006000830152602082019050919050565b6000614f75602083615a98565b91507f56414c55452053454e54204e4f5420455155414c20544f2043415244204645456000830152602082019050919050565b6000614fb5601a83615a98565b91507f424944204c4f574552205448414e2043555252454e54204249440000000000006000830152602082019050919050565b6000614ff5603183615a98565b91507f594f55204841564520454e54455245442041204341524420544841542049532060008301527f414c524541445920494e20412047414d450000000000000000000000000000006020830152604082019050919050565b600061505b601183615a98565b91507f43415244204e4f5420464f522053414c450000000000000000000000000000006000830152602082019050919050565b600061509b601383615a98565b91507f4341524420414c524541445920455849535453000000000000000000000000006000830152602082019050919050565b60006150db601283615a98565b91507f43414e4e4f542052454345495645204e465400000000000000000000000000006000830152602082019050919050565b600061511b602183615a98565b91507f594f55204841564520414c5245414459204a4f494e454420544849532047414d60008301527f45000000000000000000000000000000000000000000000000000000000000006020830152604082019050919050565b6000615181601c83615a98565b91507f43414e204e4f5420424944204f4e20434152445320594f55204f574e000000006000830152602082019050919050565b60006151c1602083615a98565b91507f4f776e61626c653a2063616c6c6572206973206e6f7420746865206f776e65726000830152602082019050919050565b6000615201601883615a98565b91507f424944204455524154494f4e204e4f5420414c4c4f57454400000000000000006000830152602082019050919050565b6000615241602083615a98565b91507f434152442049532043555252454e544c5920555020464f522041554354494f4e6000830152602082019050919050565b6000615281600c83615a98565b91507f5a45524f204144445245535300000000000000000000000000000000000000006000830152602082019050919050565b60006152c1602783615a98565b91507f4f4e4c592043415244204f574e45522043414e20504f535420495420464f522060008301527f41554354494f4e000000000000000000000000000000000000000000000000006020830152604082019050919050565b6000615327601783615a98565b91507f4e4f542043555252454e5420544f4b454e204f574e45520000000000000000006000830152602082019050919050565b6000615367601883615a98565b91507f434152442049532043555252454e544c5920494e2055534500000000000000006000830152602082019050919050565b60006153a7602c83615a98565b91507f43414e4e4f542043414e43454c20414e2041554354494f4e204146544552204960008301527f54204953204558504952454400000000000000000000000000000000000000006020830152604082019050919050565b61540981615b9d565b82525050565b61541881615b9d565b82525050565b61542f61542a82615b9d565b615c23565b82525050565b6000615441828661541e565b602082019150615451828561541e565b602082019150615461828461541e565b602082019150819050949350505050565b60006020820190506154876000830184614cc9565b92915050565b60006080820190506154a26000830187614cc9565b6154af6020830186614cc9565b6154bc604083018561540f565b81810360608301526154ce8184614da3565b905095945050505050565b600060208201905081810360008301526154f38184614cd8565b905092915050565b600060208201905081810360008301526155158184614d36565b905092915050565b60006020820190506155326000830184614d94565b92915050565b6000602082019050818103600083015261555181614ddc565b9050919050565b6000602082019050818103600083015261557181614e1c565b9050919050565b6000602082019050818103600083015261559181614e82565b9050919050565b600060208201905081810360008301526155b181614ee8565b9050919050565b600060208201905081810360008301526155d181614f28565b9050919050565b600060208201905081810360008301526155f181614f68565b9050919050565b6000602082019050818103600083015261561181614fa8565b9050919050565b6000602082019050818103600083015261563181614fe8565b9050919050565b600060208201905081810360008301526156518161504e565b9050919050565b600060208201905081810360008301526156718161508e565b9050919050565b60006020820190508181036000830152615691816150ce565b9050919050565b600060208201905081810360008301526156b18161510e565b9050919050565b600060208201905081810360008301526156d181615174565b9050919050565b600060208201905081810360008301526156f1816151b4565b9050919050565b60006020820190508181036000830152615711816151f4565b9050919050565b6000602082019050818103600083015261573181615234565b9050919050565b6000602082019050818103600083015261575181615274565b9050919050565b60006020820190508181036000830152615771816152b4565b9050919050565b600060208201905081810360008301526157918161531a565b9050919050565b600060208201905081810360008301526157b18161535a565b9050919050565b600060208201905081810360008301526157d18161539a565b9050919050565b60006020820190506157ed600083018461540f565b92915050565b6000604082019050615808600083018561540f565b6158156020830184614d94565b9392505050565b6000604082019050615831600083018561540f565b61583e602083018461540f565b9392505050565b600060c08201905061585a600083018961540f565b615867602083018861540f565b6158746040830187614cc9565b615881606083018661540f565b61588e608083018561540f565b61589b60a083018461540f565b979650505050505050565b60006080820190506158bb600083018761540f565b6158c8602083018661540f565b6158d5604083018561540f565b6158e2606083018461540f565b95945050505050565b600060a082019050615900600083018861540f565b61590d602083018761540f565b61591a604083018661540f565b615927606083018561540f565b6159346080830184614d94565b9695505050505050565b600060e082019050615953600083018a61540f565b615960602083018961540f565b61596d604083018861540f565b61597a606083018761540f565b6159876080830186614d94565b61599460a0830185614d94565b6159a160c0830184614cc9565b98975050505050505050565b6000604051905081810181811067ffffffffffffffff821117156159d4576159d3615cbc565b5b8060405250919050565b600067ffffffffffffffff8211156159f9576159f8615cbc565b5b602082029050602081019050919050565b6000819050602082019050919050565b6000819050602082019050919050565b600081519050919050565b600081519050919050565b600081519050919050565b6000602082019050919050565b6000602082019050919050565b600082825260208201905092915050565b600082825260208201905092915050565b600082825260208201905092915050565b600082825260208201905092915050565b6000615ab482615b9d565b9150615abf83615b9d565b9250827fffffffffffffffffffffffffffffffffffffffffffffffffffffffffffffffff03821115615af457615af3615c5e565b5b828201905092915050565b6000615b0a82615b9d565b9150615b1583615b9d565b925082821015615b2857615b27615c5e565b5b828203905092915050565b6000615b3e82615b7d565b9050919050565b60008115159050919050565b60007fffffffff0000000000000000000000000000000000000000000000000000000082169050919050565b600073ffffffffffffffffffffffffffffffffffffffff82169050919050565b6000819050919050565b60005b83811015615bc5578082015181840152602081019050615baa565b83811115615bd4576000848401525b50505050565b6000615be582615b9d565b91507fffffffffffffffffffffffffffffffffffffffffffffffffffffffffffffffff821415615c1857615c17615c5e565b5b600182019050919050565b6000819050919050565b6000615c3882615b9d565b9150615c4383615b9d565b925082615c5357615c52615c8d565b5b828206905092915050565b7f4e487b7100000000000000000000000000000000000000000000000000000000600052601160045260246000fd5b7f4e487b7100000000000000000000000000000000000000000000000000000000600052601260045260246000fd5b7f4e487b7100000000000000000000000000000000000000000000000000000000600052604160045260246000fd5b6000601f19601f8301169050919050565b615d0581615b33565b8114615d1057600080fd5b50565b615d1c81615b45565b8114615d2757600080fd5b50565b615d3381615b51565b8114615d3e57600080fd5b50565b615d4a81615b9d565b8114615d5557600080fd5b5056fea2646970667358221220ae11cf121d0b3f6c3cf4bab2493af80ebdb307de0fc80dd7db9384fc3eeb8f1e64736f6c63430008000033",
  "immutableReferences": {},
  "source": "// SPDX-License-Identifier: UNLICENSED\npragma solidity ^0.8.0;\n\nimport \"./card-auction.sol\";\n\ncontract CardGame is CardAuction {\n\n    uint public gameId;\n    mapping(uint => Game) public gameIdToGame;\n    mapping(uint => mapping(address => uint[])) gameIdToPlayerCards;\n    mapping(uint => bool) cardIsPlayable;\n\n    struct Game {\n        uint gameId;\n        uint numberOfPlayers;\n        uint numberOfCardsPerPlayer;\n        uint entryFee;\n        address[] players;\n        bool open;\n        bool active; \n        address winner;\n    }\n\n    event GameCreated(uint gameId, uint playerCount, uint cardCount, uint entryFee);\n    event GameJoined(uint gameId, address indexed player);\n\n    modifier checkPlayersInGame(uint _gameId, address _player) {\n        bool playerInGame = false;\n        address[] memory players = gameIdToGame[_gameId].players;\n        for(uint i = 0; i < players.length; i++){\n            if(players[i] == _player) {\n                playerInGame = true;\n            }\n        }\n        require(!playerInGame, \"YOU HAVE ALREADY JOINED THIS GAME\");\n        _;\n    }\n\n    modifier checkCardAvailability(uint[] memory _cardIds, address _player) {\n        bool canPlay = true;\n        for(uint i = 0; i < _cardIds.length; i++) {\n            if(cardIdToCard[_cardIds[i]].inUse) {\n                canPlay = false;\n            }\n        }\n        require(canPlay, \"YOU HAVE ENTERED A CARD THAT IS ALREADY IN A GAME\");\n        _;\n    }\n\n    function createGame(uint _playerCount, uint _cardCount, uint _entryFee) external onlyOwner {\n        gameIdToGame[gameId] = Game(gameId, _playerCount, _cardCount, _entryFee, new address[](_playerCount), true, true, address(0));\n        emit GameCreated(gameId, _playerCount, _cardCount, _entryFee);\n        gameId = gameId + 1;\n    }\n\n    function joinGame(uint _gameId, uint[] memory _cardIds) external payable checkPlayersInGame(_gameId, msg.sender) checkCardAvailability(_cardIds, msg.sender) {\n        require(gameIdToGame[_gameId].entryFee == msg.value, \"INVALID ENTRY FEE\");\n\n        gameIdToPlayerCards[_gameId][msg.sender] = _cardIds;\n        for(uint i = 0; i < _cardIds.length; i++) {\n            cardIdToCard[_cardIds[i]].inUse = true;\n        }\n        gameIdToGame[_gameId].players.push(msg.sender);\n        if(gameIdToGame[_gameId].players.length == gameIdToGame[_gameId].numberOfPlayers) {\n            gameIdToGame[_gameId].open = false;\n        }\n        emit GameJoined(_gameId, msg.sender);\n    }\n\n    function closeGames(uint[] memory _gameIds) external onlyOwner {\n        for(uint i = 0; i < _gameIds.length; i++) {\n            gameIdToGame[_gameIds[i]].open = false;\n        }\n    }\n\n    function endGames(uint[] memory _gameIds) external onlyOwner {\n        for(uint i = 0; i < _gameIds.length; i++) {\n            gameIdToGame[_gameIds[i]].active = false;\n        }\n    }\n\n    function getPlayersByGameId(uint _gameId) external view returns(address[] memory) {\n        return gameIdToGame[_gameId].players;\n    }\n\n    function getCardEntriesByPlayer(uint _gameId, address _user) external view returns(uint[] memory) {\n        return gameIdToPlayerCards[_gameId][_user];\n    }\n}",
  "sourcePath": "/Users/tkma4fr/Development/solidity-app/contracts/card-game.sol",
  "compiler": {
    "name": "solc",
    "version": "0.8.0+commit.c7dfd78e.Emscripten.clang"
  },
  "schemaVersion": "3.4.2",
  "updatedAt": "2021-10-19T16:59:10.109Z",
  "devdoc": {
    "kind": "dev",
    "methods": {
      "approve(address,uint256)": {
        "details": "The zero address indicates there is no approved address.  Throws unless `msg.sender` is the current NFT owner, or an authorized  operator of the current owner.",
        "params": {
          "_approved": "The new approved NFT controller",
          "_tokenId": "The NFT to approve"
        }
      },
      "balanceOf(address)": {
        "details": "NFTs assigned to the zero address are considered invalid, and this  function throws for queries about the zero address.",
        "params": {
          "_owner": "An address for whom to query the balance"
        },
        "returns": {
          "_0": "The number of NFTs owned by `_owner`, possibly zero"
        }
      },
      "getApproved(uint256)": {
        "details": "Throws if `_tokenId` is not a valid NFT.",
        "params": {
          "_tokenId": "The NFT to find the approved address for"
        },
        "returns": {
          "_0": "The approved address for this NFT, or the zero address if there is none"
        }
      },
      "isApprovedForAll(address,address)": {
        "params": {
          "_operator": "The address that acts on behalf of the owner",
          "_owner": "The address that owns the NFTs"
        },
        "returns": {
          "_0": "True if `_operator` is an approved operator for `_owner`, false otherwise"
        }
      },
      "owner()": {
        "details": "Returns the address of the current owner."
      },
      "ownerOf(uint256)": {
        "details": "NFTs assigned to zero address are considered invalid, and queries  about them do throw.",
        "params": {
          "_tokenId": "The identifier for an NFT"
        },
        "returns": {
          "_0": "The address of the owner of the NFT"
        }
      },
      "renounceOwnership()": {
        "details": "Leaves the contract without owner. It will not be possible to call `onlyOwner` functions anymore. Can only be called by the current owner. NOTE: Renouncing ownership will leave the contract without an owner, thereby removing any functionality that is only available to the owner."
      },
      "safeTransferFrom(address,address,uint256)": {
        "details": "This works identically to the other function with an extra data parameter,  except this function just sets data to \"\".",
        "params": {
          "_from": "The current owner of the NFT",
          "_to": "The new owner",
          "_tokenId": "The NFT to transfer"
        }
      },
      "setApprovalForAll(address,bool)": {
        "details": "Emits the ApprovalForAll event. The contract MUST allow  multiple operators per owner.",
        "params": {
          "_approved": "True if the operator is approved, false to revoke approval",
          "_operator": "Address to add to the set of authorized operators"
        }
      },
      "transferFrom(address,address,uint256)": {
        "details": "Throws unless `msg.sender` is the current owner, an authorized  operator, or the approved address for this NFT. Throws if `_from` is  not the current owner. Throws if `_to` is the zero address. Throws if  `_tokenId` is not a valid NFT.",
        "params": {
          "_from": "The current owner of the NFT",
          "_to": "The new owner",
          "_tokenId": "The NFT to transfer"
        }
      },
      "transferOwnership(address)": {
        "details": "Transfers ownership of the contract to a new account (`newOwner`). Can only be called by the current owner."
      }
    },
    "version": 1
  },
  "userdoc": {
    "kind": "user",
    "methods": {
      "approve(address,uint256)": {
        "notice": "Change or reaffirm the approved address for an NFT"
      },
      "balanceOf(address)": {
        "notice": "Count all NFTs assigned to an owner"
      },
      "getApproved(uint256)": {
        "notice": "Get the approved address for a single NFT"
      },
      "isApprovedForAll(address,address)": {
        "notice": "Query if an address is an authorized operator for another address"
      },
      "ownerOf(uint256)": {
        "notice": "Find the owner of an NFT"
      },
      "safeTransferFrom(address,address,uint256)": {
        "notice": "Transfers the ownership of an NFT from one address to another address"
      },
      "setApprovalForAll(address,bool)": {
        "notice": "Enable or disable approval for a third party (\"operator\") to manage  all of `msg.sender`'s assets"
      },
      "transferFrom(address,address,uint256)": {
        "notice": "Transfer ownership of an NFT -- THE CALLER IS RESPONSIBLE  TO CONFIRM THAT `_to` IS CAPABLE OF RECEIVING NFTS OR ELSE  THEY MAY BE PERMANENTLY LOST"
      }
    },
    "version": 1
  }
}