{
  "contractName": "CardFactory",
  "abi": [
    {
      "anonymous": false,
      "inputs": [
        {
          "indexed": false,
          "internalType": "uint256",
          "name": "cardId",
          "type": "uint256"
        },
        {
          "indexed": false,
          "internalType": "uint256",
          "name": "cardType",
          "type": "uint256"
        },
        {
          "indexed": false,
          "internalType": "uint256",
          "name": "playerId",
          "type": "uint256"
        },
        {
          "indexed": false,
          "internalType": "uint256",
          "name": "attributeHash",
          "type": "uint256"
        },
        {
          "indexed": true,
          "internalType": "address",
          "name": "owner",
          "type": "address"
        }
      ],
      "name": "CardCreated",
      "type": "event"
    },
    {
      "anonymous": false,
      "inputs": [
        {
          "indexed": true,
          "internalType": "address",
          "name": "previousOwner",
          "type": "address"
        },
        {
          "indexed": true,
          "internalType": "address",
          "name": "newOwner",
          "type": "address"
        }
      ],
      "name": "OwnershipTransferred",
      "type": "event"
    },
    {
      "inputs": [
        {
          "internalType": "uint256",
          "name": "",
          "type": "uint256"
        }
      ],
      "name": "cardIdToOwner",
      "outputs": [
        {
          "internalType": "address",
          "name": "",
          "type": "address"
        }
      ],
      "stateMutability": "view",
      "type": "function"
    },
    {
      "inputs": [
        {
          "internalType": "uint256",
          "name": "",
          "type": "uint256"
        }
      ],
      "name": "cardIsAtIndex",
      "outputs": [
        {
          "internalType": "uint256",
          "name": "",
          "type": "uint256"
        }
      ],
      "stateMutability": "view",
      "type": "function"
    },
    {
      "inputs": [
        {
          "internalType": "uint256",
          "name": "",
          "type": "uint256"
        }
      ],
      "name": "cards",
      "outputs": [
        {
          "internalType": "uint256",
          "name": "cardId",
          "type": "uint256"
        },
        {
          "internalType": "uint256",
          "name": "playerId",
          "type": "uint256"
        },
        {
          "internalType": "uint256",
          "name": "attributeHash",
          "type": "uint256"
        },
        {
          "internalType": "uint256",
          "name": "cardType",
          "type": "uint256"
        }
      ],
      "stateMutability": "view",
      "type": "function"
    },
    {
      "inputs": [],
      "name": "owner",
      "outputs": [
        {
          "internalType": "address",
          "name": "",
          "type": "address"
        }
      ],
      "stateMutability": "view",
      "type": "function"
    },
    {
      "inputs": [],
      "name": "renounceOwnership",
      "outputs": [],
      "stateMutability": "nonpayable",
      "type": "function"
    },
    {
      "inputs": [
        {
          "internalType": "address",
          "name": "newOwner",
          "type": "address"
        }
      ],
      "name": "transferOwnership",
      "outputs": [],
      "stateMutability": "nonpayable",
      "type": "function"
    },
    {
      "inputs": [
        {
          "internalType": "address",
          "name": "",
          "type": "address"
        },
        {
          "internalType": "uint256",
          "name": "",
          "type": "uint256"
        }
      ],
      "name": "userOwnedCards",
      "outputs": [
        {
          "internalType": "uint256",
          "name": "",
          "type": "uint256"
        }
      ],
      "stateMutability": "view",
      "type": "function"
    },
    {
      "inputs": [
        {
          "internalType": "uint256",
          "name": "_count",
          "type": "uint256"
        }
      ],
      "name": "setTotalPlayers",
      "outputs": [],
      "stateMutability": "nonpayable",
      "type": "function"
    },
    {
      "inputs": [
        {
          "internalType": "address",
          "name": "_address",
          "type": "address"
        }
      ],
      "name": "getUserOwnedCards",
      "outputs": [
        {
          "internalType": "uint256[]",
          "name": "",
          "type": "uint256[]"
        }
      ],
      "stateMutability": "view",
      "type": "function"
    }
  ],
  "bytecode": "0x6080604052600060025560bd60035534801561001a57600080fd5b5061003761002c61003c60201b60201c565b61004460201b60201c565b610108565b600033905090565b60008060009054906101000a900473ffffffffffffffffffffffffffffffffffffffff169050816000806101000a81548173ffffffffffffffffffffffffffffffffffffffff021916908373ffffffffffffffffffffffffffffffffffffffff1602179055508173ffffffffffffffffffffffffffffffffffffffff168173ffffffffffffffffffffffffffffffffffffffff167f8be0079c531659141344cd1fd0a4f28419497f9722a3daafe3b4186f6b6457e060405160405180910390a35050565b610a01806101176000396000f3fe608060405234801561001057600080fd5b50600436106100935760003560e01c80638dc10768116100665780638dc10768146101205780639b3ce46e146101535780639bf822e314610183578063b780acc5146101b3578063f2fde38b146101cf57610093565b806319a355671461009857806341994140146100c8578063715018a6146100f85780638da5cb5b14610102575b600080fd5b6100b260048036038101906100ad9190610663565b6101eb565b6040516100bf9190610855565b60405180910390f35b6100e260048036038101906100dd91906106c8565b610282565b6040516100ef919061083a565b60405180910390f35b6101006102b5565b005b61010a61033d565b604051610117919061083a565b60405180910390f35b61013a600480360381019061013591906106c8565b610366565b60405161014a94939291906108d2565b60405180910390f35b61016d6004803603810190610168919061068c565b6103a6565b60405161017a91906108b7565b60405180910390f35b61019d600480360381019061019891906106c8565b6103d7565b6040516101aa91906108b7565b60405180910390f35b6101cd60048036038101906101c891906106c8565b6103ef565b005b6101e960048036038101906101e49190610663565b610475565b005b6060600660008373ffffffffffffffffffffffffffffffffffffffff1673ffffffffffffffffffffffffffffffffffffffff16815260200190815260200160002080548060200260200160405190810160405280929190818152602001828054801561027657602002820191906000526020600020905b815481526020019060010190808311610262575b50505050509050919050565b60056020528060005260406000206000915054906101000a900473ffffffffffffffffffffffffffffffffffffffff1681565b6102bd61056d565b73ffffffffffffffffffffffffffffffffffffffff166102db61033d565b73ffffffffffffffffffffffffffffffffffffffff1614610331576040517f08c379a000000000000000000000000000000000000000000000000000000000815260040161032890610897565b60405180910390fd5b61033b6000610575565b565b60008060009054906101000a900473ffffffffffffffffffffffffffffffffffffffff16905090565b6004818154811061037657600080fd5b90600052602060002090600402016000915090508060000154908060010154908060020154908060030154905084565b600660205281600052604060002081815481106103c257600080fd5b90600052602060002001600091509150505481565b60076020528060005260406000206000915090505481565b6103f761056d565b73ffffffffffffffffffffffffffffffffffffffff1661041561033d565b73ffffffffffffffffffffffffffffffffffffffff161461046b576040517f08c379a000000000000000000000000000000000000000000000000000000000815260040161046290610897565b60405180910390fd5b8060038190555050565b61047d61056d565b73ffffffffffffffffffffffffffffffffffffffff1661049b61033d565b73ffffffffffffffffffffffffffffffffffffffff16146104f1576040517f08c379a00000000000000000000000000000000000000000000000000000000081526004016104e890610897565b60405180910390fd5b600073ffffffffffffffffffffffffffffffffffffffff168173ffffffffffffffffffffffffffffffffffffffff161415610561576040517f08c379a000000000000000000000000000000000000000000000000000000000815260040161055890610877565b60405180910390fd5b61056a81610575565b50565b600033905090565b60008060009054906101000a900473ffffffffffffffffffffffffffffffffffffffff169050816000806101000a81548173ffffffffffffffffffffffffffffffffffffffff021916908373ffffffffffffffffffffffffffffffffffffffff1602179055508173ffffffffffffffffffffffffffffffffffffffff168173ffffffffffffffffffffffffffffffffffffffff167f8be0079c531659141344cd1fd0a4f28419497f9722a3daafe3b4186f6b6457e060405160405180910390a35050565b6000813590506106488161099d565b92915050565b60008135905061065d816109b4565b92915050565b60006020828403121561067557600080fd5b600061068384828501610639565b91505092915050565b6000806040838503121561069f57600080fd5b60006106ad85828601610639565b92505060206106be8582860161064e565b9150509250929050565b6000602082840312156106da57600080fd5b60006106e88482850161064e565b91505092915050565b60006106fd838361081c565b60208301905092915050565b61071281610961565b82525050565b600061072382610927565b61072d818561093f565b935061073883610917565b8060005b8381101561076957815161075088826106f1565b975061075b83610932565b92505060018101905061073c565b5085935050505092915050565b6000610783602683610950565b91507f4f776e61626c653a206e6577206f776e657220697320746865207a65726f206160008301527f64647265737300000000000000000000000000000000000000000000000000006020830152604082019050919050565b60006107e9602083610950565b91507f4f776e61626c653a2063616c6c6572206973206e6f7420746865206f776e65726000830152602082019050919050565b61082581610993565b82525050565b61083481610993565b82525050565b600060208201905061084f6000830184610709565b92915050565b6000602082019050818103600083015261086f8184610718565b905092915050565b6000602082019050818103600083015261089081610776565b9050919050565b600060208201905081810360008301526108b0816107dc565b9050919050565b60006020820190506108cc600083018461082b565b92915050565b60006080820190506108e7600083018761082b565b6108f4602083018661082b565b610901604083018561082b565b61090e606083018461082b565b95945050505050565b6000819050602082019050919050565b600081519050919050565b6000602082019050919050565b600082825260208201905092915050565b600082825260208201905092915050565b600061096c82610973565b9050919050565b600073ffffffffffffffffffffffffffffffffffffffff82169050919050565b6000819050919050565b6109a681610961565b81146109b157600080fd5b50565b6109bd81610993565b81146109c857600080fd5b5056fea264697066735822122014ee30b50f441bdd8be6ce0d8c750c81121b25662f397c36108a680c721d652e64736f6c63430008000033",
  "immutableReferences": {},
  "source": "// SPDX-License-Identifier: UNLICENSED\npragma solidity ^0.8.0;\n\nimport \"@openzeppelin/contracts/access/Ownable.sol\";\n\ncontract CardFactory is Ownable {\n\n    uint _tokenId;\n    uint private _randNonce = 0;\n    uint totalPlayers = 189;\n    Card[] public cards;\n\n    mapping (uint => address) public cardIdToOwner;\n    mapping (address => uint[]) public userOwnedCards;\n    mapping (uint => uint) public cardIsAtIndex;\n\n    event CardCreated(uint cardId, uint cardType, uint playerId, uint attributeHash, address indexed owner);\n    \n    struct Card {\n        uint cardId;\n        uint playerId;\n        uint attributeHash;\n        uint cardType;\n    }\n\n    function createCard(uint _playerId, uint _type) internal {\n        uint attrHash = _generateRandomNumber();\n        Card memory card = Card(_tokenId, _playerId, attrHash, _type);\n        cards.push(card);\n        emit CardCreated(_tokenId, _type, _playerId, attrHash, msg.sender);\n        cardIdToOwner[_tokenId] = msg.sender;\n        userOwnedCards[msg.sender].push(_tokenId);\n        cardIsAtIndex[_tokenId] = userOwnedCards[msg.sender].length - 1;\n        _tokenId = _tokenId + 1;\n    }\n\n    function createCustomCard(uint _playerId, uint _type, uint _attribute) internal returns(uint) {\n        Card memory card = Card(_tokenId, _playerId, _attribute, _type);\n        cards.push(card);\n        emit CardCreated(_tokenId, _type, _playerId, _attribute, msg.sender);\n        return _tokenId;\n    }\n\n    function createNonCommonCard(uint _divisor, uint _cardCount, uint _type) internal returns(uint) {\n        uint cardCount = _cardCount;\n\n        if(_generateRandomNumber() % _divisor == 0) {\n            uint playerId = _generateRandomNumber() % totalPlayers;\n            _randNonce = _randNonce + 1;\n            createCard(playerId, _type);\n            cardCount = _cardCount + 1;\n        }\n\n        return cardCount;\n    }\n\n    function createCommonCards(uint _cardsCreated, uint _cardPackQuantity) internal {\n        for(uint i = _cardsCreated; i < _cardPackQuantity; i++) {\n            uint playerId = _generateRandomNumber() % totalPlayers;\n            _randNonce = _randNonce + 1;\n            createCard(playerId, 0);\n        }\n    }\n\n    function _generateRandomNumber() internal view returns (uint) {\n        return uint(keccak256(abi.encodePacked(block.difficulty, block.timestamp, _randNonce)));\n    }\n\n    function setTotalPlayers(uint _count) external onlyOwner {\n        totalPlayers = _count;\n    }\n\n    function getUserOwnedCards(address _address) external view returns(uint[] memory) {\n        return userOwnedCards[_address];\n    }\n}",
  "sourcePath": "/Users/tkma4fr/Development/solidity-app/contracts/card-factory.sol",
  "compiler": {
    "name": "solc",
    "version": "0.8.0+commit.c7dfd78e.Emscripten.clang"
  },
  "schemaVersion": "3.4.2",
  "updatedAt": "2021-10-12T21:11:24.443Z",
  "devdoc": {
    "kind": "dev",
    "methods": {
      "owner()": {
        "details": "Returns the address of the current owner."
      },
      "renounceOwnership()": {
        "details": "Leaves the contract without owner. It will not be possible to call `onlyOwner` functions anymore. Can only be called by the current owner. NOTE: Renouncing ownership will leave the contract without an owner, thereby removing any functionality that is only available to the owner."
      },
      "transferOwnership(address)": {
        "details": "Transfers ownership of the contract to a new account (`newOwner`). Can only be called by the current owner."
      }
    },
    "version": 1
  },
  "userdoc": {
    "kind": "user",
    "methods": {},
    "version": 1
  }
}