{
  "contractName": "CardFactory",
  "abi": [
    {
      "anonymous": false,
      "inputs": [
        {
          "indexed": false,
          "internalType": "uint256",
          "name": "cardId",
          "type": "uint256"
        },
        {
          "indexed": false,
          "internalType": "uint256",
          "name": "cardType",
          "type": "uint256"
        },
        {
          "indexed": false,
          "internalType": "uint256",
          "name": "playerId",
          "type": "uint256"
        },
        {
          "indexed": false,
          "internalType": "uint256",
          "name": "attributeHash",
          "type": "uint256"
        },
        {
          "indexed": false,
          "internalType": "address",
          "name": "owner",
          "type": "address"
        }
      ],
      "name": "CardCreated",
      "type": "event"
    },
    {
      "anonymous": false,
      "inputs": [
        {
          "indexed": false,
          "internalType": "uint256",
          "name": "playerId",
          "type": "uint256"
        },
        {
          "indexed": false,
          "internalType": "string",
          "name": "name",
          "type": "string"
        }
      ],
      "name": "NewPlayer",
      "type": "event"
    },
    {
      "anonymous": false,
      "inputs": [
        {
          "indexed": true,
          "internalType": "address",
          "name": "previousOwner",
          "type": "address"
        },
        {
          "indexed": true,
          "internalType": "address",
          "name": "newOwner",
          "type": "address"
        }
      ],
      "name": "OwnershipTransferred",
      "type": "event"
    },
    {
      "inputs": [
        {
          "internalType": "uint256",
          "name": "",
          "type": "uint256"
        }
      ],
      "name": "cardIdToOwner",
      "outputs": [
        {
          "internalType": "address",
          "name": "",
          "type": "address"
        }
      ],
      "stateMutability": "view",
      "type": "function"
    },
    {
      "inputs": [
        {
          "internalType": "uint256",
          "name": "",
          "type": "uint256"
        }
      ],
      "name": "cards",
      "outputs": [
        {
          "internalType": "uint256",
          "name": "cardId",
          "type": "uint256"
        },
        {
          "internalType": "uint256",
          "name": "playerId",
          "type": "uint256"
        },
        {
          "internalType": "uint256",
          "name": "attributeHash",
          "type": "uint256"
        },
        {
          "internalType": "uint256",
          "name": "cardType",
          "type": "uint256"
        }
      ],
      "stateMutability": "view",
      "type": "function"
    },
    {
      "inputs": [
        {
          "internalType": "string",
          "name": "_name",
          "type": "string"
        },
        {
          "internalType": "uint8",
          "name": "_teamId",
          "type": "uint8"
        },
        {
          "internalType": "uint8",
          "name": "_position",
          "type": "uint8"
        },
        {
          "internalType": "uint16",
          "name": "_season",
          "type": "uint16"
        }
      ],
      "name": "createPlayer",
      "outputs": [],
      "stateMutability": "nonpayable",
      "type": "function"
    },
    {
      "inputs": [],
      "name": "owner",
      "outputs": [
        {
          "internalType": "address",
          "name": "",
          "type": "address"
        }
      ],
      "stateMutability": "view",
      "type": "function"
    },
    {
      "inputs": [
        {
          "internalType": "uint256",
          "name": "",
          "type": "uint256"
        }
      ],
      "name": "playerIdToPlayer",
      "outputs": [
        {
          "internalType": "string",
          "name": "name",
          "type": "string"
        },
        {
          "internalType": "uint8",
          "name": "teamId",
          "type": "uint8"
        },
        {
          "internalType": "uint8",
          "name": "position",
          "type": "uint8"
        },
        {
          "internalType": "uint16",
          "name": "season",
          "type": "uint16"
        }
      ],
      "stateMutability": "view",
      "type": "function"
    },
    {
      "inputs": [
        {
          "internalType": "uint256",
          "name": "",
          "type": "uint256"
        }
      ],
      "name": "players",
      "outputs": [
        {
          "internalType": "string",
          "name": "name",
          "type": "string"
        },
        {
          "internalType": "uint8",
          "name": "teamId",
          "type": "uint8"
        },
        {
          "internalType": "uint8",
          "name": "position",
          "type": "uint8"
        },
        {
          "internalType": "uint16",
          "name": "season",
          "type": "uint16"
        }
      ],
      "stateMutability": "view",
      "type": "function"
    },
    {
      "inputs": [],
      "name": "renounceOwnership",
      "outputs": [],
      "stateMutability": "nonpayable",
      "type": "function"
    },
    {
      "inputs": [
        {
          "internalType": "address",
          "name": "newOwner",
          "type": "address"
        }
      ],
      "name": "transferOwnership",
      "outputs": [],
      "stateMutability": "nonpayable",
      "type": "function"
    },
    {
      "inputs": [
        {
          "internalType": "uint256",
          "name": "_count",
          "type": "uint256"
        }
      ],
      "name": "setTotalPlayers",
      "outputs": [],
      "stateMutability": "nonpayable",
      "type": "function"
    }
  ],
  "bytecode": "0x60806040526000600455600060055560bd60065534801561001f57600080fd5b5061003c61003161004160201b60201c565b61004960201b60201c565b61010d565b600033905090565b60008060009054906101000a900473ffffffffffffffffffffffffffffffffffffffff169050816000806101000a81548173ffffffffffffffffffffffffffffffffffffffff021916908373ffffffffffffffffffffffffffffffffffffffff1602179055508173ffffffffffffffffffffffffffffffffffffffff168173ffffffffffffffffffffffffffffffffffffffff167f8be0079c531659141344cd1fd0a4f28419497f9722a3daafe3b4186f6b6457e060405160405180910390a35050565b6110988061011c6000396000f3fe608060405234801561001057600080fd5b50600436106100935760003560e01c80638dc10768116100665780638dc107681461010c578063b53794c91461013f578063b780acc514610172578063f2fde38b1461018e578063f71d96cb146101aa57610093565b806341994140146100985780634ccf0174146100c8578063715018a6146100e45780638da5cb5b146100ee575b600080fd5b6100b260048036038101906100ad9190610b6a565b6101dd565b6040516100bf9190610cae565b60405180910390f35b6100e260048036038101906100dd9190610aef565b610210565b005b6100ec61045c565b005b6100f66104e4565b6040516101039190610cae565b60405180910390f35b61012660048036038101906101219190610b6a565b61050d565b6040516101369493929190610d85565b60405180910390f35b61015960048036038101906101549190610b6a565b61054d565b6040516101699493929190610cc9565b60405180910390f35b61018c60048036038101906101879190610b6a565b61062d565b005b6101a860048036038101906101a39190610ac6565b6106b3565b005b6101c460048036038101906101bf9190610b6a565b6107ab565b6040516101d49493929190610cc9565b60405180910390f35b60086020528060005260406000206000915054906101000a900473ffffffffffffffffffffffffffffffffffffffff1681565b61021861089b565b73ffffffffffffffffffffffffffffffffffffffff166102366104e4565b73ffffffffffffffffffffffffffffffffffffffff161461028c576040517f08c379a000000000000000000000000000000000000000000000000000000000815260040161028390610d35565b60405180910390fd5b600060405180608001604052808681526020018560ff1681526020018460ff1681526020018361ffff16815250905060028190806001815401808255809150506001900390600052602060002090600202016000909190919091506000820151816000019080519060200190610303929190610967565b5060208201518160010160006101000a81548160ff021916908360ff16021790555060408201518160010160016101000a81548160ff021916908360ff16021790555060608201518160010160026101000a81548161ffff021916908361ffff160217905550505080600360006001548152602001908152602001600020600082015181600001908051906020019061039d929190610967565b5060208201518160010160006101000a81548160ff021916908360ff16021790555060408201518160010160016101000a81548160ff021916908360ff16021790555060608201518160010160026101000a81548161ffff021916908361ffff1602179055509050507fc617f3fbc3f6a35c0509a5f01fb4907e9c6e94cff260c3fe739bafd93cf2240560015486604051610439929190610d55565b60405180910390a16001805461044f9190610e47565b6001819055505050505050565b61046461089b565b73ffffffffffffffffffffffffffffffffffffffff166104826104e4565b73ffffffffffffffffffffffffffffffffffffffff16146104d8576040517f08c379a00000000000000000000000000000000000000000000000000000000081526004016104cf90610d35565b60405180910390fd5b6104e260006108a3565b565b60008060009054906101000a900473ffffffffffffffffffffffffffffffffffffffff16905090565b6007818154811061051d57600080fd5b90600052602060002090600402016000915090508060000154908060010154908060020154908060030154905084565b600360205280600052604060002060009150905080600001805461057090610f36565b80601f016020809104026020016040519081016040528092919081815260200182805461059c90610f36565b80156105e95780601f106105be576101008083540402835291602001916105e9565b820191906000526020600020905b8154815290600101906020018083116105cc57829003601f168201915b5050505050908060010160009054906101000a900460ff16908060010160019054906101000a900460ff16908060010160029054906101000a900461ffff16905084565b61063561089b565b73ffffffffffffffffffffffffffffffffffffffff166106536104e4565b73ffffffffffffffffffffffffffffffffffffffff16146106a9576040517f08c379a00000000000000000000000000000000000000000000000000000000081526004016106a090610d35565b60405180910390fd5b8060068190555050565b6106bb61089b565b73ffffffffffffffffffffffffffffffffffffffff166106d96104e4565b73ffffffffffffffffffffffffffffffffffffffff161461072f576040517f08c379a000000000000000000000000000000000000000000000000000000000815260040161072690610d35565b60405180910390fd5b600073ffffffffffffffffffffffffffffffffffffffff168173ffffffffffffffffffffffffffffffffffffffff16141561079f576040517f08c379a000000000000000000000000000000000000000000000000000000000815260040161079690610d15565b60405180910390fd5b6107a8816108a3565b50565b600281815481106107bb57600080fd5b90600052602060002090600202016000915090508060000180546107de90610f36565b80601f016020809104026020016040519081016040528092919081815260200182805461080a90610f36565b80156108575780601f1061082c57610100808354040283529160200191610857565b820191906000526020600020905b81548152906001019060200180831161083a57829003601f168201915b5050505050908060010160009054906101000a900460ff16908060010160019054906101000a900460ff16908060010160029054906101000a900461ffff16905084565b600033905090565b60008060009054906101000a900473ffffffffffffffffffffffffffffffffffffffff169050816000806101000a81548173ffffffffffffffffffffffffffffffffffffffff021916908373ffffffffffffffffffffffffffffffffffffffff1602179055508173ffffffffffffffffffffffffffffffffffffffff168173ffffffffffffffffffffffffffffffffffffffff167f8be0079c531659141344cd1fd0a4f28419497f9722a3daafe3b4186f6b6457e060405160405180910390a35050565b82805461097390610f36565b90600052602060002090601f01602090048101928261099557600085556109dc565b82601f106109ae57805160ff19168380011785556109dc565b828001600101855582156109dc579182015b828111156109db5782518255916020019190600101906109c0565b5b5090506109e991906109ed565b5090565b5b80821115610a065760008160009055506001016109ee565b5090565b6000610a1d610a1884610dfb565b610dca565b905082815260208101848484011115610a3557600080fd5b610a40848285610ef4565b509392505050565b600081359050610a5781611006565b92915050565b600082601f830112610a6e57600080fd5b8135610a7e848260208601610a0a565b91505092915050565b600081359050610a968161101d565b92915050565b600081359050610aab81611034565b92915050565b600081359050610ac08161104b565b92915050565b600060208284031215610ad857600080fd5b6000610ae684828501610a48565b91505092915050565b60008060008060808587031215610b0557600080fd5b600085013567ffffffffffffffff811115610b1f57600080fd5b610b2b87828801610a5d565b9450506020610b3c87828801610ab1565b9350506040610b4d87828801610ab1565b9250506060610b5e87828801610a87565b91505092959194509250565b600060208284031215610b7c57600080fd5b6000610b8a84828501610a9c565b91505092915050565b610b9c81610e9d565b82525050565b6000610bad82610e2b565b610bb78185610e36565b9350610bc7818560208601610f03565b610bd081610ff5565b840191505092915050565b6000610be8602683610e36565b91507f4f776e61626c653a206e6577206f776e657220697320746865207a65726f206160008301527f64647265737300000000000000000000000000000000000000000000000000006020830152604082019050919050565b6000610c4e602083610e36565b91507f4f776e61626c653a2063616c6c6572206973206e6f7420746865206f776e65726000830152602082019050919050565b610c8a81610eaf565b82525050565b610c9981610edd565b82525050565b610ca881610ee7565b82525050565b6000602082019050610cc36000830184610b93565b92915050565b60006080820190508181036000830152610ce38187610ba2565b9050610cf26020830186610c9f565b610cff6040830185610c9f565b610d0c6060830184610c81565b95945050505050565b60006020820190508181036000830152610d2e81610bdb565b9050919050565b60006020820190508181036000830152610d4e81610c41565b9050919050565b6000604082019050610d6a6000830185610c90565b8181036020830152610d7c8184610ba2565b90509392505050565b6000608082019050610d9a6000830187610c90565b610da76020830186610c90565b610db46040830185610c90565b610dc16060830184610c90565b95945050505050565b6000604051905081810181811067ffffffffffffffff82111715610df157610df0610fc6565b5b8060405250919050565b600067ffffffffffffffff821115610e1657610e15610fc6565b5b601f19601f8301169050602081019050919050565b600081519050919050565b600082825260208201905092915050565b6000610e5282610edd565b9150610e5d83610edd565b9250827fffffffffffffffffffffffffffffffffffffffffffffffffffffffffffffffff03821115610e9257610e91610f68565b5b828201905092915050565b6000610ea882610ebd565b9050919050565b600061ffff82169050919050565b600073ffffffffffffffffffffffffffffffffffffffff82169050919050565b6000819050919050565b600060ff82169050919050565b82818337600083830152505050565b60005b83811015610f21578082015181840152602081019050610f06565b83811115610f30576000848401525b50505050565b60006002820490506001821680610f4e57607f821691505b60208210811415610f6257610f61610f97565b5b50919050565b7f4e487b7100000000000000000000000000000000000000000000000000000000600052601160045260246000fd5b7f4e487b7100000000000000000000000000000000000000000000000000000000600052602260045260246000fd5b7f4e487b7100000000000000000000000000000000000000000000000000000000600052604160045260246000fd5b6000601f19601f8301169050919050565b61100f81610e9d565b811461101a57600080fd5b50565b61102681610eaf565b811461103157600080fd5b50565b61103d81610edd565b811461104857600080fd5b50565b61105481610ee7565b811461105f57600080fd5b5056fea26469706673582212201de758e4d194cb7dbd91117ac9e8b364e866dfd2b9f2e58eb66eed4b5be0986864736f6c63430008000033",
  "immutableReferences": {},
  "source": "// SPDX-License-Identifier: UNLICENSED\npragma solidity ^0.8.0;\n\nimport \"./player-factory.sol\";\n\ncontract CardFactory is PlayerFactory {\n\n    uint _tokenId = 0;\n    uint private _randNonce = 0;\n    uint totalPlayers = 189;\n    Card[] public cards;\n\n    mapping (uint => address) public cardIdToOwner;\n\n    event CardCreated(uint cardId, uint cardType, uint playerId, uint attributeHash, address owner);\n    \n    struct Card {\n        uint cardId;\n        uint playerId;\n        uint attributeHash;\n        uint cardType;\n    }\n\n    function createCard(uint _playerId, uint _type) internal {\n        uint attrHash = _generateRandomNumber();\n        Card memory card = Card(_tokenId, _playerId, attrHash, _type);\n        cards.push(card);\n        emit CardCreated(_tokenId, _type, _playerId, attrHash, msg.sender);\n        cardIdToOwner[_tokenId] = msg.sender;\n        _tokenId = _tokenId + 1;\n    }\n\n    function createCustomCard(uint _playerId, uint _type, uint _attribute) internal returns(uint) {\n        Card memory card = Card(_tokenId, _playerId, _attribute, _type);\n        cards.push(card);\n        emit CardCreated(_tokenId, _type, _playerId, _attribute, msg.sender);\n        return _tokenId;\n    }\n\n    function createNonCommonCard(uint _divisor, uint _cardCount, uint _type) internal returns(uint) {\n        uint cardCount = _cardCount;\n\n        if(_generateRandomNumber() % _divisor == 0) {\n            uint playerId = _generateRandomNumber() % totalPlayers;\n            _randNonce = _randNonce + 1;\n            createCard(playerId, _type);\n            cardCount = _cardCount + 1;\n        }\n\n        return cardCount;\n    }\n\n    function createCommonCards(uint _cardsCreated, uint _cardPackQuantity) internal {\n        for(uint i = _cardsCreated; i < _cardPackQuantity; i++) {\n            uint playerId = _generateRandomNumber() % totalPlayers;\n            _randNonce = _randNonce + 1;\n            createCard(playerId, 0);\n        }\n    }\n\n    function _generateRandomNumber() internal view returns (uint) {\n        return uint(keccak256(abi.encodePacked(block.difficulty, block.timestamp, _randNonce)));\n    }\n\n    function setTotalPlayers(uint _count) external onlyOwner {\n        totalPlayers = _count;\n    }\n}",
  "sourcePath": "/Users/tkma4fr/Development/solidity-app/contracts/card-factory.sol",
  "compiler": {
    "name": "solc",
    "version": "0.8.0+commit.c7dfd78e.Emscripten.clang"
  },
  "schemaVersion": "3.4.2",
  "updatedAt": "2021-09-30T01:04:31.250Z",
  "devdoc": {
    "kind": "dev",
    "methods": {
      "owner()": {
        "details": "Returns the address of the current owner."
      },
      "renounceOwnership()": {
        "details": "Leaves the contract without owner. It will not be possible to call `onlyOwner` functions anymore. Can only be called by the current owner. NOTE: Renouncing ownership will leave the contract without an owner, thereby removing any functionality that is only available to the owner."
      },
      "transferOwnership(address)": {
        "details": "Transfers ownership of the contract to a new account (`newOwner`). Can only be called by the current owner."
      }
    },
    "version": 1
  },
  "userdoc": {
    "kind": "user",
    "methods": {},
    "version": 1
  }
}