{
  "contractName": "CardPackFactory",
  "abi": [
    {
      "anonymous": false,
      "inputs": [
        {
          "indexed": false,
          "internalType": "uint256",
          "name": "cardId",
          "type": "uint256"
        },
        {
          "indexed": false,
          "internalType": "uint256",
          "name": "cardType",
          "type": "uint256"
        },
        {
          "indexed": false,
          "internalType": "uint256",
          "name": "playerId",
          "type": "uint256"
        },
        {
          "indexed": false,
          "internalType": "uint256",
          "name": "attributeHash",
          "type": "uint256"
        },
        {
          "indexed": true,
          "internalType": "address",
          "name": "owner",
          "type": "address"
        }
      ],
      "name": "CardCreated",
      "type": "event"
    },
    {
      "anonymous": false,
      "inputs": [
        {
          "indexed": true,
          "internalType": "address",
          "name": "owner",
          "type": "address"
        }
      ],
      "name": "CardPackPurchased",
      "type": "event"
    },
    {
      "anonymous": false,
      "inputs": [
        {
          "indexed": true,
          "internalType": "address",
          "name": "previousOwner",
          "type": "address"
        },
        {
          "indexed": true,
          "internalType": "address",
          "name": "newOwner",
          "type": "address"
        }
      ],
      "name": "OwnershipTransferred",
      "type": "event"
    },
    {
      "inputs": [
        {
          "internalType": "uint256",
          "name": "",
          "type": "uint256"
        }
      ],
      "name": "cardIdToOwner",
      "outputs": [
        {
          "internalType": "address",
          "name": "",
          "type": "address"
        }
      ],
      "stateMutability": "view",
      "type": "function"
    },
    {
      "inputs": [
        {
          "internalType": "uint256",
          "name": "",
          "type": "uint256"
        }
      ],
      "name": "cardIsAtIndex",
      "outputs": [
        {
          "internalType": "uint256",
          "name": "",
          "type": "uint256"
        }
      ],
      "stateMutability": "view",
      "type": "function"
    },
    {
      "inputs": [
        {
          "internalType": "uint256",
          "name": "",
          "type": "uint256"
        }
      ],
      "name": "cards",
      "outputs": [
        {
          "internalType": "uint256",
          "name": "cardId",
          "type": "uint256"
        },
        {
          "internalType": "uint256",
          "name": "playerId",
          "type": "uint256"
        },
        {
          "internalType": "uint256",
          "name": "attributeHash",
          "type": "uint256"
        },
        {
          "internalType": "uint256",
          "name": "cardType",
          "type": "uint256"
        }
      ],
      "stateMutability": "view",
      "type": "function"
    },
    {
      "inputs": [
        {
          "internalType": "address",
          "name": "",
          "type": "address"
        }
      ],
      "name": "existingUser",
      "outputs": [
        {
          "internalType": "bool",
          "name": "",
          "type": "bool"
        }
      ],
      "stateMutability": "view",
      "type": "function"
    },
    {
      "inputs": [
        {
          "internalType": "address",
          "name": "_address",
          "type": "address"
        }
      ],
      "name": "getUserOwnedCards",
      "outputs": [
        {
          "internalType": "uint256[]",
          "name": "",
          "type": "uint256[]"
        }
      ],
      "stateMutability": "view",
      "type": "function"
    },
    {
      "inputs": [],
      "name": "owner",
      "outputs": [
        {
          "internalType": "address",
          "name": "",
          "type": "address"
        }
      ],
      "stateMutability": "view",
      "type": "function"
    },
    {
      "inputs": [
        {
          "internalType": "address",
          "name": "",
          "type": "address"
        }
      ],
      "name": "ownerCardCount",
      "outputs": [
        {
          "internalType": "uint256",
          "name": "",
          "type": "uint256"
        }
      ],
      "stateMutability": "view",
      "type": "function"
    },
    {
      "inputs": [],
      "name": "renounceOwnership",
      "outputs": [],
      "stateMutability": "nonpayable",
      "type": "function"
    },
    {
      "inputs": [
        {
          "internalType": "uint256",
          "name": "_count",
          "type": "uint256"
        }
      ],
      "name": "setTotalPlayers",
      "outputs": [],
      "stateMutability": "nonpayable",
      "type": "function"
    },
    {
      "inputs": [
        {
          "internalType": "address",
          "name": "newOwner",
          "type": "address"
        }
      ],
      "name": "transferOwnership",
      "outputs": [],
      "stateMutability": "nonpayable",
      "type": "function"
    },
    {
      "inputs": [
        {
          "internalType": "address",
          "name": "",
          "type": "address"
        },
        {
          "internalType": "uint256",
          "name": "",
          "type": "uint256"
        }
      ],
      "name": "userOwnedCards",
      "outputs": [
        {
          "internalType": "uint256",
          "name": "",
          "type": "uint256"
        }
      ],
      "stateMutability": "view",
      "type": "function"
    },
    {
      "inputs": [],
      "name": "purchaseCardPack",
      "outputs": [],
      "stateMutability": "payable",
      "type": "function"
    },
    {
      "inputs": [
        {
          "internalType": "uint256",
          "name": "_quantity",
          "type": "uint256"
        }
      ],
      "name": "setCardPackQuantity",
      "outputs": [],
      "stateMutability": "nonpayable",
      "type": "function"
    },
    {
      "inputs": [
        {
          "internalType": "uint256",
          "name": "_fee",
          "type": "uint256"
        }
      ],
      "name": "setCardPackFee",
      "outputs": [],
      "stateMutability": "nonpayable",
      "type": "function"
    },
    {
      "inputs": [
        {
          "internalType": "uint256",
          "name": "_newOdds",
          "type": "uint256"
        }
      ],
      "name": "setRareCardOdds",
      "outputs": [],
      "stateMutability": "nonpayable",
      "type": "function"
    },
    {
      "inputs": [
        {
          "internalType": "uint256",
          "name": "_newOdds",
          "type": "uint256"
        }
      ],
      "name": "setExotixCardOdds",
      "outputs": [],
      "stateMutability": "nonpayable",
      "type": "function"
    },
    {
      "inputs": [
        {
          "internalType": "uint256",
          "name": "_newOdds",
          "type": "uint256"
        }
      ],
      "name": "setLegendaryCardOdds",
      "outputs": [],
      "stateMutability": "nonpayable",
      "type": "function"
    }
  ],
  "bytecode": "0x6080604052600060025560bd6003556611c37937e08000600855600a6009556003600a556019600b556064600c5534801561003957600080fd5b5061005661004b61005b60201b60201c565b61006360201b60201c565b610127565b600033905090565b60008060009054906101000a900473ffffffffffffffffffffffffffffffffffffffff169050816000806101000a81548173ffffffffffffffffffffffffffffffffffffffff021916908373ffffffffffffffffffffffffffffffffffffffff1602179055508173ffffffffffffffffffffffffffffffffffffffff168173ffffffffffffffffffffffffffffffffffffffff167f8be0079c531659141344cd1fd0a4f28419497f9722a3daafe3b4186f6b6457e060405160405180910390a35050565b6115e9806101366000396000f3fe6080604052600436106100fe5760003560e01c80638da5cb5b11610095578063a3d2065f11610064578063a3d2065f1461033b578063b780acc514610378578063c75f384b146103a1578063e25d13a8146103ca578063f2fde38b146103f3576100fe565b80638da5cb5b146102565780638dc10768146102815780639b3ce46e146102c15780639bf822e3146102fe576100fe565b806341994140116100d1578063419941401461019c578063552788da146101d9578063715018a614610202578063804c4b2514610219576100fe565b806319a35567146101035780632cfae8d31461014057806336185bdf1461014a57806341845a1414610173575b600080fd5b34801561010f57600080fd5b5061012a60048036038101906101259190610ff5565b61041c565b604051610137919061128a565b60405180910390f35b6101486104b3565b005b34801561015657600080fd5b50610171600480360381019061016c919061105a565b610544565b005b34801561017f57600080fd5b5061019a6004803603810190610195919061105a565b6105ca565b005b3480156101a857600080fd5b506101c360048036038101906101be919061105a565b610650565b6040516101d0919061126f565b60405180910390f35b3480156101e557600080fd5b5061020060048036038101906101fb919061105a565b610683565b005b34801561020e57600080fd5b50610217610709565b005b34801561022557600080fd5b50610240600480360381019061023b9190610ff5565b610791565b60405161024d9190611327565b60405180910390f35b34801561026257600080fd5b5061026b6107a9565b604051610278919061126f565b60405180910390f35b34801561028d57600080fd5b506102a860048036038101906102a3919061105a565b6107d2565b6040516102b89493929190611342565b60405180910390f35b3480156102cd57600080fd5b506102e860048036038101906102e3919061101e565b610812565b6040516102f59190611327565b60405180910390f35b34801561030a57600080fd5b506103256004803603810190610320919061105a565b610843565b6040516103329190611327565b60405180910390f35b34801561034757600080fd5b50610362600480360381019061035d9190610ff5565b61085b565b60405161036f91906112ac565b60405180910390f35b34801561038457600080fd5b5061039f600480360381019061039a919061105a565b61087b565b005b3480156103ad57600080fd5b506103c860048036038101906103c3919061105a565b610901565b005b3480156103d657600080fd5b506103f160048036038101906103ec919061105a565b610987565b005b3480156103ff57600080fd5b5061041a60048036038101906104159190610ff5565b610a0d565b005b6060600660008373ffffffffffffffffffffffffffffffffffffffff1673ffffffffffffffffffffffffffffffffffffffff1681526020019081526020016000208054806020026020016040519081016040528092919081815260200182805480156104a757602002820191906000526020600020905b815481526020019060010190808311610493575b50505050509050919050565b60085434146104f7576040517f08c379a00000000000000000000000000000000000000000000000000000000081526004016104ee906112e7565b60405180910390fd5b6104ff610b05565b3373ffffffffffffffffffffffffffffffffffffffff167f1c3899f94ecc08f5f95b67284618b3ca13d80b66fbc5b7f07c6b8bd30f61fcbf60405160405180910390a2565b61054c610bd6565b73ffffffffffffffffffffffffffffffffffffffff1661056a6107a9565b73ffffffffffffffffffffffffffffffffffffffff16146105c0576040517f08c379a00000000000000000000000000000000000000000000000000000000081526004016105b790611307565b60405180910390fd5b80600b8190555050565b6105d2610bd6565b73ffffffffffffffffffffffffffffffffffffffff166105f06107a9565b73ffffffffffffffffffffffffffffffffffffffff1614610646576040517f08c379a000000000000000000000000000000000000000000000000000000000815260040161063d90611307565b60405180910390fd5b80600a8190555050565b60056020528060005260406000206000915054906101000a900473ffffffffffffffffffffffffffffffffffffffff1681565b61068b610bd6565b73ffffffffffffffffffffffffffffffffffffffff166106a96107a9565b73ffffffffffffffffffffffffffffffffffffffff16146106ff576040517f08c379a00000000000000000000000000000000000000000000000000000000081526004016106f690611307565b60405180910390fd5b8060088190555050565b610711610bd6565b73ffffffffffffffffffffffffffffffffffffffff1661072f6107a9565b73ffffffffffffffffffffffffffffffffffffffff1614610785576040517f08c379a000000000000000000000000000000000000000000000000000000000815260040161077c90611307565b60405180910390fd5b61078f6000610bde565b565b600d6020528060005260406000206000915090505481565b60008060009054906101000a900473ffffffffffffffffffffffffffffffffffffffff16905090565b600481815481106107e257600080fd5b90600052602060002090600402016000915090508060000154908060010154908060020154908060030154905084565b6006602052816000526040600020818154811061082e57600080fd5b90600052602060002001600091509150505481565b60076020528060005260406000206000915090505481565b600e6020528060005260406000206000915054906101000a900460ff1681565b610883610bd6565b73ffffffffffffffffffffffffffffffffffffffff166108a16107a9565b73ffffffffffffffffffffffffffffffffffffffff16146108f7576040517f08c379a00000000000000000000000000000000000000000000000000000000081526004016108ee90611307565b60405180910390fd5b8060038190555050565b610909610bd6565b73ffffffffffffffffffffffffffffffffffffffff166109276107a9565b73ffffffffffffffffffffffffffffffffffffffff161461097d576040517f08c379a000000000000000000000000000000000000000000000000000000000815260040161097490611307565b60405180910390fd5b80600c8190555050565b61098f610bd6565b73ffffffffffffffffffffffffffffffffffffffff166109ad6107a9565b73ffffffffffffffffffffffffffffffffffffffff1614610a03576040517f08c379a00000000000000000000000000000000000000000000000000000000081526004016109fa90611307565b60405180910390fd5b8060098190555050565b610a15610bd6565b73ffffffffffffffffffffffffffffffffffffffff16610a336107a9565b73ffffffffffffffffffffffffffffffffffffffff1614610a89576040517f08c379a0000000000000000000000000000000000000000000000000000000008152600401610a8090611307565b60405180910390fd5b600073ffffffffffffffffffffffffffffffffffffffff168173ffffffffffffffffffffffffffffffffffffffff161415610af9576040517f08c379a0000000000000000000000000000000000000000000000000000000008152600401610af0906112c7565b60405180910390fd5b610b0281610bde565b50565b6000610b15600c54826003610ca2565b9050610b25600b54826002610ca2565b9050610b35600a54826001610ca2565b9050610b4381600954610d17565b600954600d60003373ffffffffffffffffffffffffffffffffffffffff1673ffffffffffffffffffffffffffffffffffffffff16815260200190815260200160002054610b9091906113d1565b600d60003373ffffffffffffffffffffffffffffffffffffffff1673ffffffffffffffffffffffffffffffffffffffff1681526020019081526020016000208190555050565b600033905090565b60008060009054906101000a900473ffffffffffffffffffffffffffffffffffffffff169050816000806101000a81548173ffffffffffffffffffffffffffffffffffffffff021916908373ffffffffffffffffffffffffffffffffffffffff1602179055508173ffffffffffffffffffffffffffffffffffffffff168173ffffffffffffffffffffffffffffffffffffffff167f8be0079c531659141344cd1fd0a4f28419497f9722a3daafe3b4186f6b6457e060405160405180910390a35050565b600080839050600085610cb3610d77565b610cbd91906114f6565b1415610d0c576000600354610cd0610d77565b610cda91906114f6565b90506001600254610ceb91906113d1565b600281905550610cfb8185610dae565b600185610d0891906113d1565b9150505b809150509392505050565b60008290505b81811015610d72576000600354610d32610d77565b610d3c91906114f6565b90506001600254610d4d91906113d1565b600281905550610d5e816000610dae565b508080610d6a906114a3565b915050610d1d565b505050565b60004442600254604051602001610d9093929190611232565b6040516020818303038152906040528051906020012060001c905090565b6000610db8610d77565b905060006040518060800160405280600154815260200185815260200183815260200184815250905060048190806001815401808255809150506001900390600052602060002090600402016000909190919091506000820151816000015560208201518160010155604082015181600201556060820151816003015550503373ffffffffffffffffffffffffffffffffffffffff167fa47f2b648fe6fee6023b9227628b751649f165f204c8a6e75d3146aca5b1b8a6600154858786604051610e859493929190611342565b60405180910390a23360056000600154815260200190815260200160002060006101000a81548173ffffffffffffffffffffffffffffffffffffffff021916908373ffffffffffffffffffffffffffffffffffffffff160217905550600660003373ffffffffffffffffffffffffffffffffffffffff1673ffffffffffffffffffffffffffffffffffffffff16815260200190815260200160002060015490806001815401808255809150506001900390600052602060002001600090919091909150556001600660003373ffffffffffffffffffffffffffffffffffffffff1673ffffffffffffffffffffffffffffffffffffffff16815260200190815260200160002080549050610f989190611427565b6007600060015481526020019081526020016000208190555060018054610fbf91906113d1565b60018190555050505050565b600081359050610fda81611585565b92915050565b600081359050610fef8161159c565b92915050565b60006020828403121561100757600080fd5b600061101584828501610fcb565b91505092915050565b6000806040838503121561103157600080fd5b600061103f85828601610fcb565b925050602061105085828601610fe0565b9150509250929050565b60006020828403121561106c57600080fd5b600061107a84828501610fe0565b91505092915050565b600061108f83836111fd565b60208301905092915050565b6110a48161145b565b82525050565b60006110b582611397565b6110bf81856113af565b93506110ca83611387565b8060005b838110156110fb5781516110e28882611083565b97506110ed836113a2565b9250506001810190506110ce565b5085935050505092915050565b6111118161146d565b82525050565b60006111246026836113c0565b91507f4f776e61626c653a206e6577206f776e657220697320746865207a65726f206160008301527f64647265737300000000000000000000000000000000000000000000000000006020830152604082019050919050565b600061118a6020836113c0565b91507f56414c55452053454e54204e4f5420455155414c20544f2043415244204645456000830152602082019050919050565b60006111ca6020836113c0565b91507f4f776e61626c653a2063616c6c6572206973206e6f7420746865206f776e65726000830152602082019050919050565b61120681611499565b82525050565b61121581611499565b82525050565b61122c61122782611499565b6114ec565b82525050565b600061123e828661121b565b60208201915061124e828561121b565b60208201915061125e828461121b565b602082019150819050949350505050565b6000602082019050611284600083018461109b565b92915050565b600060208201905081810360008301526112a481846110aa565b905092915050565b60006020820190506112c16000830184611108565b92915050565b600060208201905081810360008301526112e081611117565b9050919050565b600060208201905081810360008301526113008161117d565b9050919050565b60006020820190508181036000830152611320816111bd565b9050919050565b600060208201905061133c600083018461120c565b92915050565b6000608082019050611357600083018761120c565b611364602083018661120c565b611371604083018561120c565b61137e606083018461120c565b95945050505050565b6000819050602082019050919050565b600081519050919050565b6000602082019050919050565b600082825260208201905092915050565b600082825260208201905092915050565b60006113dc82611499565b91506113e783611499565b9250827fffffffffffffffffffffffffffffffffffffffffffffffffffffffffffffffff0382111561141c5761141b611527565b5b828201905092915050565b600061143282611499565b915061143d83611499565b9250828210156114505761144f611527565b5b828203905092915050565b600061146682611479565b9050919050565b60008115159050919050565b600073ffffffffffffffffffffffffffffffffffffffff82169050919050565b6000819050919050565b60006114ae82611499565b91507fffffffffffffffffffffffffffffffffffffffffffffffffffffffffffffffff8214156114e1576114e0611527565b5b600182019050919050565b6000819050919050565b600061150182611499565b915061150c83611499565b92508261151c5761151b611556565b5b828206905092915050565b7f4e487b7100000000000000000000000000000000000000000000000000000000600052601160045260246000fd5b7f4e487b7100000000000000000000000000000000000000000000000000000000600052601260045260246000fd5b61158e8161145b565b811461159957600080fd5b50565b6115a581611499565b81146115b057600080fd5b5056fea26469706673582212208541968c68898c7f02717849eaf4674fc460a40bd96c3248ab20d78a3b371b4a64736f6c63430008000033",
  "immutableReferences": {},
  "source": "// SPDX-License-Identifier: UNLICENSED\npragma solidity ^0.8.0;\n\nimport \"./card-factory.sol\";\n\ncontract CardPackFactory is CardFactory {\n\n    uint cardPackFee = 0.005 ether;\n    uint cardPackQuantity = 10;\n    uint rareCardOdds = 3;\n    uint exoticCardOdds = 25;\n    uint legendaryCardOdds = 100;\n\n    mapping (address => uint) public ownerCardCount;\n    mapping (address => bool) public existingUser;\n\n    event CardPackPurchased(address indexed owner);\n\n    function purchaseCardPack() external payable {\n        require(msg.value == cardPackFee, \"VALUE SENT NOT EQUAL TO CARD FEE\");\n        _createCardPack();\n        emit CardPackPurchased(msg.sender);\n    }\n\n    function _createCardPack() internal {\n        uint cardCount = 0;\n\n        cardCount = createNonCommonCard(legendaryCardOdds, cardCount, 3);\n        cardCount = createNonCommonCard(exoticCardOdds, cardCount, 2);\n        cardCount = createNonCommonCard(rareCardOdds, cardCount, 1);\n        createCommonCards(cardCount, cardPackQuantity);\n\n        ownerCardCount[msg.sender] = ownerCardCount[msg.sender] + cardPackQuantity;\n    }\n\n    function setCardPackQuantity(uint _quantity) external onlyOwner {\n        cardPackQuantity = _quantity;\n    }\n\n    function setCardPackFee(uint _fee) external onlyOwner {\n        cardPackFee = _fee;\n    }\n\n    function setRareCardOdds(uint _newOdds) external onlyOwner {\n        rareCardOdds = _newOdds;\n    }\n\n    function setExotixCardOdds(uint _newOdds) external onlyOwner {\n        exoticCardOdds = _newOdds;\n    }\n\n    function setLegendaryCardOdds(uint _newOdds) external onlyOwner {\n        legendaryCardOdds = _newOdds;\n    }\n}",
  "sourcePath": "/Users/tkma4fr/Development/solidity-app/contracts/card-pack-factory.sol",
  "compiler": {
    "name": "solc",
    "version": "0.8.0+commit.c7dfd78e.Emscripten.clang"
  },
  "schemaVersion": "3.4.2",
  "updatedAt": "2021-10-12T21:11:24.467Z",
  "devdoc": {
    "kind": "dev",
    "methods": {
      "owner()": {
        "details": "Returns the address of the current owner."
      },
      "renounceOwnership()": {
        "details": "Leaves the contract without owner. It will not be possible to call `onlyOwner` functions anymore. Can only be called by the current owner. NOTE: Renouncing ownership will leave the contract without an owner, thereby removing any functionality that is only available to the owner."
      },
      "transferOwnership(address)": {
        "details": "Transfers ownership of the contract to a new account (`newOwner`). Can only be called by the current owner."
      }
    },
    "version": 1
  },
  "userdoc": {
    "kind": "user",
    "methods": {},
    "version": 1
  }
}