{
  "contractName": "CardFactory",
  "abi": [
    {
      "anonymous": false,
      "inputs": [
        {
          "indexed": false,
          "internalType": "uint256",
          "name": "cardId",
          "type": "uint256"
        },
        {
          "indexed": false,
          "internalType": "uint256",
          "name": "cardType",
          "type": "uint256"
        },
        {
          "indexed": false,
          "internalType": "uint256",
          "name": "playerId",
          "type": "uint256"
        },
        {
          "indexed": false,
          "internalType": "uint256",
          "name": "attributeHash",
          "type": "uint256"
        },
        {
          "indexed": true,
          "internalType": "address",
          "name": "owner",
          "type": "address"
        }
      ],
      "name": "CardCreated",
      "type": "event"
    },
    {
      "anonymous": false,
      "inputs": [
        {
          "indexed": true,
          "internalType": "address",
          "name": "previousOwner",
          "type": "address"
        },
        {
          "indexed": true,
          "internalType": "address",
          "name": "newOwner",
          "type": "address"
        }
      ],
      "name": "OwnershipTransferred",
      "type": "event"
    },
    {
      "inputs": [
        {
          "internalType": "uint256",
          "name": "",
          "type": "uint256"
        }
      ],
      "name": "cardIdToCard",
      "outputs": [
        {
          "internalType": "uint256",
          "name": "cardId",
          "type": "uint256"
        },
        {
          "internalType": "uint256",
          "name": "playerId",
          "type": "uint256"
        },
        {
          "internalType": "uint256",
          "name": "attributeHash",
          "type": "uint256"
        },
        {
          "internalType": "uint256",
          "name": "cardType",
          "type": "uint256"
        },
        {
          "internalType": "bool",
          "name": "inUse",
          "type": "bool"
        }
      ],
      "stateMutability": "view",
      "type": "function"
    },
    {
      "inputs": [
        {
          "internalType": "uint256",
          "name": "",
          "type": "uint256"
        }
      ],
      "name": "cardIdToOwner",
      "outputs": [
        {
          "internalType": "address",
          "name": "",
          "type": "address"
        }
      ],
      "stateMutability": "view",
      "type": "function"
    },
    {
      "inputs": [
        {
          "internalType": "uint256",
          "name": "",
          "type": "uint256"
        }
      ],
      "name": "cardIsAtIndex",
      "outputs": [
        {
          "internalType": "uint256",
          "name": "",
          "type": "uint256"
        }
      ],
      "stateMutability": "view",
      "type": "function"
    },
    {
      "inputs": [],
      "name": "owner",
      "outputs": [
        {
          "internalType": "address",
          "name": "",
          "type": "address"
        }
      ],
      "stateMutability": "view",
      "type": "function"
    },
    {
      "inputs": [],
      "name": "renounceOwnership",
      "outputs": [],
      "stateMutability": "nonpayable",
      "type": "function"
    },
    {
      "inputs": [
        {
          "internalType": "address",
          "name": "newOwner",
          "type": "address"
        }
      ],
      "name": "transferOwnership",
      "outputs": [],
      "stateMutability": "nonpayable",
      "type": "function"
    },
    {
      "inputs": [
        {
          "internalType": "address",
          "name": "",
          "type": "address"
        },
        {
          "internalType": "uint256",
          "name": "",
          "type": "uint256"
        }
      ],
      "name": "userOwnedCards",
      "outputs": [
        {
          "internalType": "uint256",
          "name": "",
          "type": "uint256"
        }
      ],
      "stateMutability": "view",
      "type": "function"
    },
    {
      "inputs": [
        {
          "internalType": "uint256",
          "name": "_count",
          "type": "uint256"
        }
      ],
      "name": "setTotalPlayers",
      "outputs": [],
      "stateMutability": "nonpayable",
      "type": "function"
    },
    {
      "inputs": [
        {
          "internalType": "address",
          "name": "_address",
          "type": "address"
        }
      ],
      "name": "getUserOwnedCards",
      "outputs": [
        {
          "internalType": "uint256[]",
          "name": "",
          "type": "uint256[]"
        }
      ],
      "stateMutability": "view",
      "type": "function"
    },
    {
      "inputs": [
        {
          "internalType": "uint256",
          "name": "_newOdds",
          "type": "uint256"
        }
      ],
      "name": "setRareCardOdds",
      "outputs": [],
      "stateMutability": "nonpayable",
      "type": "function"
    },
    {
      "inputs": [
        {
          "internalType": "uint256",
          "name": "_newOdds",
          "type": "uint256"
        }
      ],
      "name": "setExotixCardOdds",
      "outputs": [],
      "stateMutability": "nonpayable",
      "type": "function"
    },
    {
      "inputs": [
        {
          "internalType": "uint256",
          "name": "_newOdds",
          "type": "uint256"
        }
      ],
      "name": "setLegendaryCardOdds",
      "outputs": [],
      "stateMutability": "nonpayable",
      "type": "function"
    }
  ],
  "bytecode": "0x6080604052600060025560be60035560096004556027600555606360065534801561002957600080fd5b5061004661003b61004b60201b60201c565b61005360201b60201c565b610117565b600033905090565b60008060009054906101000a900473ffffffffffffffffffffffffffffffffffffffff169050816000806101000a81548173ffffffffffffffffffffffffffffffffffffffff021916908373ffffffffffffffffffffffffffffffffffffffff1602179055508173ffffffffffffffffffffffffffffffffffffffff168173ffffffffffffffffffffffffffffffffffffffff167f8be0079c531659141344cd1fd0a4f28419497f9722a3daafe3b4186f6b6457e060405160405180910390a35050565b610c35806101266000396000f3fe608060405234801561001057600080fd5b50600436106100b45760003560e01c80639b3ce46e116100715780639b3ce46e146101795780639bf822e3146101a9578063a0dd6b34146101d9578063b780acc51461020d578063c75f384b14610229578063f2fde38b14610245576100b4565b806319a35567146100b957806336185bdf146100e957806341845a14146101055780634199414014610121578063715018a6146101515780638da5cb5b1461015b575b600080fd5b6100d360048036038101906100ce919061086e565b610261565b6040516100e09190610a6f565b60405180910390f35b61010360048036038101906100fe91906108d3565b6102f8565b005b61011f600480360381019061011a91906108d3565b61037e565b005b61013b600480360381019061013691906108d3565b610404565b6040516101489190610a54565b60405180910390f35b610159610437565b005b6101636104bf565b6040516101709190610a54565b60405180910390f35b610193600480360381019061018e9190610897565b6104e8565b6040516101a09190610ad1565b60405180910390f35b6101c360048036038101906101be91906108d3565b610519565b6040516101d09190610ad1565b60405180910390f35b6101f360048036038101906101ee91906108d3565b610531565b604051610204959493929190610aec565b60405180910390f35b610227600480360381019061022291906108d3565b610574565b005b610243600480360381019061023e91906108d3565b6105fa565b005b61025f600480360381019061025a919061086e565b610680565b005b6060600860008373ffffffffffffffffffffffffffffffffffffffff1673ffffffffffffffffffffffffffffffffffffffff1681526020019081526020016000208054806020026020016040519081016040528092919081815260200182805480156102ec57602002820191906000526020600020905b8154815260200190600101908083116102d8575b50505050509050919050565b610300610778565b73ffffffffffffffffffffffffffffffffffffffff1661031e6104bf565b73ffffffffffffffffffffffffffffffffffffffff1614610374576040517f08c379a000000000000000000000000000000000000000000000000000000000815260040161036b90610ab1565b60405180910390fd5b8060058190555050565b610386610778565b73ffffffffffffffffffffffffffffffffffffffff166103a46104bf565b73ffffffffffffffffffffffffffffffffffffffff16146103fa576040517f08c379a00000000000000000000000000000000000000000000000000000000081526004016103f190610ab1565b60405180910390fd5b8060048190555050565b60076020528060005260406000206000915054906101000a900473ffffffffffffffffffffffffffffffffffffffff1681565b61043f610778565b73ffffffffffffffffffffffffffffffffffffffff1661045d6104bf565b73ffffffffffffffffffffffffffffffffffffffff16146104b3576040517f08c379a00000000000000000000000000000000000000000000000000000000081526004016104aa90610ab1565b60405180910390fd5b6104bd6000610780565b565b60008060009054906101000a900473ffffffffffffffffffffffffffffffffffffffff16905090565b6008602052816000526040600020818154811061050457600080fd5b90600052602060002001600091509150505481565b60096020528060005260406000206000915090505481565b600a6020528060005260406000206000915090508060000154908060010154908060020154908060030154908060040160009054906101000a900460ff16905085565b61057c610778565b73ffffffffffffffffffffffffffffffffffffffff1661059a6104bf565b73ffffffffffffffffffffffffffffffffffffffff16146105f0576040517f08c379a00000000000000000000000000000000000000000000000000000000081526004016105e790610ab1565b60405180910390fd5b8060038190555050565b610602610778565b73ffffffffffffffffffffffffffffffffffffffff166106206104bf565b73ffffffffffffffffffffffffffffffffffffffff1614610676576040517f08c379a000000000000000000000000000000000000000000000000000000000815260040161066d90610ab1565b60405180910390fd5b8060068190555050565b610688610778565b73ffffffffffffffffffffffffffffffffffffffff166106a66104bf565b73ffffffffffffffffffffffffffffffffffffffff16146106fc576040517f08c379a00000000000000000000000000000000000000000000000000000000081526004016106f390610ab1565b60405180910390fd5b600073ffffffffffffffffffffffffffffffffffffffff168173ffffffffffffffffffffffffffffffffffffffff16141561076c576040517f08c379a000000000000000000000000000000000000000000000000000000000815260040161076390610a91565b60405180910390fd5b61077581610780565b50565b600033905090565b60008060009054906101000a900473ffffffffffffffffffffffffffffffffffffffff169050816000806101000a81548173ffffffffffffffffffffffffffffffffffffffff021916908373ffffffffffffffffffffffffffffffffffffffff1602179055508173ffffffffffffffffffffffffffffffffffffffff168173ffffffffffffffffffffffffffffffffffffffff167f8be0079c531659141344cd1fd0a4f28419497f9722a3daafe3b4186f6b6457e060405160405180910390a35050565b60008135905061085381610bd1565b92915050565b60008135905061086881610be8565b92915050565b60006020828403121561088057600080fd5b600061088e84828501610844565b91505092915050565b600080604083850312156108aa57600080fd5b60006108b885828601610844565b92505060206108c985828601610859565b9150509250929050565b6000602082840312156108e557600080fd5b60006108f384828501610859565b91505092915050565b60006109088383610a36565b60208301905092915050565b61091d81610b89565b82525050565b600061092e82610b4f565b6109388185610b67565b935061094383610b3f565b8060005b8381101561097457815161095b88826108fc565b975061096683610b5a565b925050600181019050610947565b5085935050505092915050565b61098a81610b9b565b82525050565b600061099d602683610b78565b91507f4f776e61626c653a206e6577206f776e657220697320746865207a65726f206160008301527f64647265737300000000000000000000000000000000000000000000000000006020830152604082019050919050565b6000610a03602083610b78565b91507f4f776e61626c653a2063616c6c6572206973206e6f7420746865206f776e65726000830152602082019050919050565b610a3f81610bc7565b82525050565b610a4e81610bc7565b82525050565b6000602082019050610a696000830184610914565b92915050565b60006020820190508181036000830152610a898184610923565b905092915050565b60006020820190508181036000830152610aaa81610990565b9050919050565b60006020820190508181036000830152610aca816109f6565b9050919050565b6000602082019050610ae66000830184610a45565b92915050565b600060a082019050610b016000830188610a45565b610b0e6020830187610a45565b610b1b6040830186610a45565b610b286060830185610a45565b610b356080830184610981565b9695505050505050565b6000819050602082019050919050565b600081519050919050565b6000602082019050919050565b600082825260208201905092915050565b600082825260208201905092915050565b6000610b9482610ba7565b9050919050565b60008115159050919050565b600073ffffffffffffffffffffffffffffffffffffffff82169050919050565b6000819050919050565b610bda81610b89565b8114610be557600080fd5b50565b610bf181610bc7565b8114610bfc57600080fd5b5056fea26469706673582212208e3d2df5f1d82a67ca2ab75c15f8dff2b0745cedb60cd743a0b5bfed647c94be64736f6c63430008000033",
  "immutableReferences": {},
  "source": "// SPDX-License-Identifier: UNLICENSED\npragma solidity ^0.8.0;\n\nimport \"@openzeppelin/contracts/access/Ownable.sol\";\n\ncontract CardFactory is Ownable {\n\n    uint _tokenId;\n    uint private _randNonce = 0;\n    uint totalPlayers = 190;\n    uint rareCardOdds = 9;\n    uint exoticCardOdds = 39;\n    uint legendaryCardOdds = 99;\n\n    mapping (uint => address) public cardIdToOwner;\n    mapping (address => uint[]) public userOwnedCards;\n    mapping (uint => uint) public cardIsAtIndex;\n    mapping (uint => Card) public cardIdToCard;\n\n    event CardCreated(uint cardId, uint cardType, uint playerId, uint attributeHash, address indexed owner);\n    \n    struct Card {\n        uint cardId;\n        uint playerId;\n        uint attributeHash;\n        uint cardType;\n        bool inUse;\n    }\n\n    function createCard(uint _index) internal {\n        uint randHash = _generateRandomNumber(_index);\n        uint attrHash = randHash;\n        uint playerId = randHash % totalPlayers;\n        uint cardType = getCardType(randHash);\n        Card memory card = Card(_tokenId, playerId, attrHash, cardType, false);\n        cardIdToCard[_tokenId] = card;\n        emit CardCreated(_tokenId, cardType, playerId, attrHash, msg.sender);\n        cardIdToOwner[_tokenId] = msg.sender;\n        userOwnedCards[msg.sender].push(_tokenId);\n        cardIsAtIndex[_tokenId] = userOwnedCards[msg.sender].length - 1;\n        _tokenId = _tokenId + 1;\n    }\n\n    function getCardType(uint _randInt) private view returns(uint) {\n        if(_randInt % legendaryCardOdds == 0) {\n            return 3;\n        } else if(_randInt % exoticCardOdds == 0) {\n            return 2;\n        } else if(_randInt % rareCardOdds == 0) {\n            return 1;\n        } else {\n            return 0;\n        }\n    }\n\n    function createCustomCard(uint _playerId, uint _type, uint _attribute) internal returns(uint) {\n        Card memory card = Card(_tokenId, _playerId, _attribute, _type, false);\n        cardIdToCard[_tokenId] = card;\n        emit CardCreated(_tokenId, _type, _playerId, _attribute, msg.sender);\n        return _tokenId;\n    }\n\n    function _generateRandomNumber(uint _int) internal view returns (uint) {\n        return uint(keccak256(abi.encodePacked(block.difficulty, block.timestamp, _randNonce, _int)));\n    }\n\n    function setTotalPlayers(uint _count) external onlyOwner {\n        totalPlayers = _count;\n    }\n\n    function getUserOwnedCards(address _address) external view returns(uint[] memory) {\n        return userOwnedCards[_address];\n    }\n\n    function setRareCardOdds(uint _newOdds) external onlyOwner {\n        rareCardOdds = _newOdds;\n    }\n\n    function setExotixCardOdds(uint _newOdds) external onlyOwner {\n        exoticCardOdds = _newOdds;\n    }\n\n    function setLegendaryCardOdds(uint _newOdds) external onlyOwner {\n        legendaryCardOdds = _newOdds;\n    }\n}",
  "sourcePath": "/Users/tkma4fr/Development/solidity-app/contracts/card-factory.sol",
  "compiler": {
    "name": "solc",
    "version": "0.8.0+commit.c7dfd78e.Emscripten.clang"
  },
  "schemaVersion": "3.4.2",
  "updatedAt": "2021-10-22T17:56:47.305Z",
  "devdoc": {
    "kind": "dev",
    "methods": {
      "owner()": {
        "details": "Returns the address of the current owner."
      },
      "renounceOwnership()": {
        "details": "Leaves the contract without owner. It will not be possible to call `onlyOwner` functions anymore. Can only be called by the current owner. NOTE: Renouncing ownership will leave the contract without an owner, thereby removing any functionality that is only available to the owner."
      },
      "transferOwnership(address)": {
        "details": "Transfers ownership of the contract to a new account (`newOwner`). Can only be called by the current owner."
      }
    },
    "version": 1
  },
  "userdoc": {
    "kind": "user",
    "methods": {},
    "version": 1
  }
}