{
  "contractName": "CardOwnership",
  "abi": [
    {
      "anonymous": false,
      "inputs": [
        {
          "indexed": true,
          "internalType": "address",
          "name": "_owner",
          "type": "address"
        },
        {
          "indexed": true,
          "internalType": "address",
          "name": "_approved",
          "type": "address"
        },
        {
          "indexed": true,
          "internalType": "uint256",
          "name": "_tokenId",
          "type": "uint256"
        }
      ],
      "name": "Approval",
      "type": "event"
    },
    {
      "anonymous": false,
      "inputs": [
        {
          "indexed": true,
          "internalType": "address",
          "name": "_owner",
          "type": "address"
        },
        {
          "indexed": true,
          "internalType": "address",
          "name": "_operator",
          "type": "address"
        },
        {
          "indexed": false,
          "internalType": "bool",
          "name": "_approved",
          "type": "bool"
        }
      ],
      "name": "ApprovalForAll",
      "type": "event"
    },
    {
      "anonymous": false,
      "inputs": [
        {
          "indexed": false,
          "internalType": "uint256",
          "name": "cardId",
          "type": "uint256"
        },
        {
          "indexed": false,
          "internalType": "uint256",
          "name": "cardType",
          "type": "uint256"
        },
        {
          "indexed": false,
          "internalType": "uint256",
          "name": "playerId",
          "type": "uint256"
        },
        {
          "indexed": false,
          "internalType": "uint256",
          "name": "attributeHash",
          "type": "uint256"
        },
        {
          "indexed": true,
          "internalType": "address",
          "name": "owner",
          "type": "address"
        }
      ],
      "name": "CardCreated",
      "type": "event"
    },
    {
      "anonymous": false,
      "inputs": [
        {
          "indexed": true,
          "internalType": "address",
          "name": "owner",
          "type": "address"
        }
      ],
      "name": "CardPackPurchased",
      "type": "event"
    },
    {
      "anonymous": false,
      "inputs": [
        {
          "indexed": true,
          "internalType": "address",
          "name": "previousOwner",
          "type": "address"
        },
        {
          "indexed": true,
          "internalType": "address",
          "name": "newOwner",
          "type": "address"
        }
      ],
      "name": "OwnershipTransferred",
      "type": "event"
    },
    {
      "anonymous": false,
      "inputs": [
        {
          "indexed": true,
          "internalType": "address",
          "name": "_from",
          "type": "address"
        },
        {
          "indexed": true,
          "internalType": "address",
          "name": "_to",
          "type": "address"
        },
        {
          "indexed": true,
          "internalType": "uint256",
          "name": "_tokenId",
          "type": "uint256"
        }
      ],
      "name": "Transfer",
      "type": "event"
    },
    {
      "inputs": [
        {
          "internalType": "uint256",
          "name": "",
          "type": "uint256"
        }
      ],
      "name": "cardIdToCard",
      "outputs": [
        {
          "internalType": "uint256",
          "name": "cardId",
          "type": "uint256"
        },
        {
          "internalType": "uint256",
          "name": "playerId",
          "type": "uint256"
        },
        {
          "internalType": "uint256",
          "name": "attributeHash",
          "type": "uint256"
        },
        {
          "internalType": "uint256",
          "name": "cardType",
          "type": "uint256"
        },
        {
          "internalType": "bool",
          "name": "inUse",
          "type": "bool"
        }
      ],
      "stateMutability": "view",
      "type": "function"
    },
    {
      "inputs": [
        {
          "internalType": "uint256",
          "name": "",
          "type": "uint256"
        }
      ],
      "name": "cardIdToOwner",
      "outputs": [
        {
          "internalType": "address",
          "name": "",
          "type": "address"
        }
      ],
      "stateMutability": "view",
      "type": "function"
    },
    {
      "inputs": [
        {
          "internalType": "uint256",
          "name": "",
          "type": "uint256"
        }
      ],
      "name": "cardIsAtIndex",
      "outputs": [
        {
          "internalType": "uint256",
          "name": "",
          "type": "uint256"
        }
      ],
      "stateMutability": "view",
      "type": "function"
    },
    {
      "inputs": [
        {
          "internalType": "address",
          "name": "",
          "type": "address"
        }
      ],
      "name": "existingUser",
      "outputs": [
        {
          "internalType": "bool",
          "name": "",
          "type": "bool"
        }
      ],
      "stateMutability": "view",
      "type": "function"
    },
    {
      "inputs": [
        {
          "internalType": "address",
          "name": "_address",
          "type": "address"
        }
      ],
      "name": "getUserOwnedCards",
      "outputs": [
        {
          "internalType": "uint256[]",
          "name": "",
          "type": "uint256[]"
        }
      ],
      "stateMutability": "view",
      "type": "function"
    },
    {
      "inputs": [],
      "name": "owner",
      "outputs": [
        {
          "internalType": "address",
          "name": "",
          "type": "address"
        }
      ],
      "stateMutability": "view",
      "type": "function"
    },
    {
      "inputs": [
        {
          "internalType": "address",
          "name": "",
          "type": "address"
        }
      ],
      "name": "ownerCardCount",
      "outputs": [
        {
          "internalType": "uint256",
          "name": "",
          "type": "uint256"
        }
      ],
      "stateMutability": "view",
      "type": "function"
    },
    {
      "inputs": [],
      "name": "purchaseCardPack",
      "outputs": [],
      "stateMutability": "payable",
      "type": "function"
    },
    {
      "inputs": [],
      "name": "renounceOwnership",
      "outputs": [],
      "stateMutability": "nonpayable",
      "type": "function"
    },
    {
      "inputs": [
        {
          "internalType": "uint256",
          "name": "_fee",
          "type": "uint256"
        }
      ],
      "name": "setCardPackFee",
      "outputs": [],
      "stateMutability": "nonpayable",
      "type": "function"
    },
    {
      "inputs": [
        {
          "internalType": "uint256",
          "name": "_quantity",
          "type": "uint256"
        }
      ],
      "name": "setCardPackQuantity",
      "outputs": [],
      "stateMutability": "nonpayable",
      "type": "function"
    },
    {
      "inputs": [
        {
          "internalType": "uint256",
          "name": "_newOdds",
          "type": "uint256"
        }
      ],
      "name": "setExotixCardOdds",
      "outputs": [],
      "stateMutability": "nonpayable",
      "type": "function"
    },
    {
      "inputs": [
        {
          "internalType": "uint256",
          "name": "_newOdds",
          "type": "uint256"
        }
      ],
      "name": "setLegendaryCardOdds",
      "outputs": [],
      "stateMutability": "nonpayable",
      "type": "function"
    },
    {
      "inputs": [
        {
          "internalType": "uint256",
          "name": "_newOdds",
          "type": "uint256"
        }
      ],
      "name": "setRareCardOdds",
      "outputs": [],
      "stateMutability": "nonpayable",
      "type": "function"
    },
    {
      "inputs": [
        {
          "internalType": "uint256",
          "name": "_count",
          "type": "uint256"
        }
      ],
      "name": "setTotalPlayers",
      "outputs": [],
      "stateMutability": "nonpayable",
      "type": "function"
    },
    {
      "inputs": [
        {
          "internalType": "address",
          "name": "newOwner",
          "type": "address"
        }
      ],
      "name": "transferOwnership",
      "outputs": [],
      "stateMutability": "nonpayable",
      "type": "function"
    },
    {
      "inputs": [
        {
          "internalType": "address",
          "name": "",
          "type": "address"
        },
        {
          "internalType": "uint256",
          "name": "",
          "type": "uint256"
        }
      ],
      "name": "userOwnedCards",
      "outputs": [
        {
          "internalType": "uint256",
          "name": "",
          "type": "uint256"
        }
      ],
      "stateMutability": "view",
      "type": "function"
    },
    {
      "inputs": [
        {
          "internalType": "address",
          "name": "_owner",
          "type": "address"
        }
      ],
      "name": "balanceOf",
      "outputs": [
        {
          "internalType": "uint256",
          "name": "",
          "type": "uint256"
        }
      ],
      "stateMutability": "view",
      "type": "function"
    },
    {
      "inputs": [
        {
          "internalType": "uint256",
          "name": "_tokenId",
          "type": "uint256"
        }
      ],
      "name": "ownerOf",
      "outputs": [
        {
          "internalType": "address",
          "name": "",
          "type": "address"
        }
      ],
      "stateMutability": "view",
      "type": "function"
    },
    {
      "inputs": [
        {
          "internalType": "address",
          "name": "_from",
          "type": "address"
        },
        {
          "internalType": "address",
          "name": "_to",
          "type": "address"
        },
        {
          "internalType": "uint256",
          "name": "_tokenId",
          "type": "uint256"
        }
      ],
      "name": "safeTransferFrom",
      "outputs": [],
      "stateMutability": "payable",
      "type": "function"
    },
    {
      "inputs": [
        {
          "internalType": "address",
          "name": "_from",
          "type": "address"
        },
        {
          "internalType": "address",
          "name": "_to",
          "type": "address"
        },
        {
          "internalType": "uint256",
          "name": "_tokenId",
          "type": "uint256"
        },
        {
          "internalType": "bytes",
          "name": "_data",
          "type": "bytes"
        }
      ],
      "name": "safeTransferFrom",
      "outputs": [],
      "stateMutability": "payable",
      "type": "function"
    },
    {
      "inputs": [
        {
          "internalType": "address",
          "name": "_from",
          "type": "address"
        },
        {
          "internalType": "address",
          "name": "_to",
          "type": "address"
        },
        {
          "internalType": "uint256",
          "name": "_tokenId",
          "type": "uint256"
        }
      ],
      "name": "transferFrom",
      "outputs": [],
      "stateMutability": "payable",
      "type": "function"
    },
    {
      "inputs": [
        {
          "internalType": "address",
          "name": "_approved",
          "type": "address"
        },
        {
          "internalType": "uint256",
          "name": "_tokenId",
          "type": "uint256"
        }
      ],
      "name": "approve",
      "outputs": [],
      "stateMutability": "payable",
      "type": "function"
    },
    {
      "inputs": [
        {
          "internalType": "address",
          "name": "_operator",
          "type": "address"
        },
        {
          "internalType": "bool",
          "name": "_approved",
          "type": "bool"
        }
      ],
      "name": "setApprovalForAll",
      "outputs": [],
      "stateMutability": "nonpayable",
      "type": "function"
    },
    {
      "inputs": [
        {
          "internalType": "uint256",
          "name": "_tokenId",
          "type": "uint256"
        }
      ],
      "name": "getApproved",
      "outputs": [
        {
          "internalType": "address",
          "name": "",
          "type": "address"
        }
      ],
      "stateMutability": "view",
      "type": "function"
    },
    {
      "inputs": [
        {
          "internalType": "address",
          "name": "_owner",
          "type": "address"
        },
        {
          "internalType": "address",
          "name": "_operator",
          "type": "address"
        }
      ],
      "name": "isApprovedForAll",
      "outputs": [
        {
          "internalType": "bool",
          "name": "",
          "type": "bool"
        }
      ],
      "stateMutability": "view",
      "type": "function"
    },
    {
      "inputs": [
        {
          "internalType": "address",
          "name": "_to",
          "type": "address"
        },
        {
          "internalType": "uint256",
          "name": "_playerId",
          "type": "uint256"
        },
        {
          "internalType": "uint256",
          "name": "_type",
          "type": "uint256"
        },
        {
          "internalType": "uint256",
          "name": "_attributes",
          "type": "uint256"
        }
      ],
      "name": "mintCustomCard",
      "outputs": [],
      "stateMutability": "nonpayable",
      "type": "function"
    },
    {
      "inputs": [
        {
          "internalType": "uint256",
          "name": "amount",
          "type": "uint256"
        }
      ],
      "name": "withdraw",
      "outputs": [],
      "stateMutability": "nonpayable",
      "type": "function"
    },
    {
      "inputs": [
        {
          "internalType": "address",
          "name": "_newOwner",
          "type": "address"
        }
      ],
      "name": "setOwner",
      "outputs": [],
      "stateMutability": "nonpayable",
      "type": "function"
    }
  ],
  "bytecode": "0x6080604052600060025560bd6003556611c37937e08000600855600a6009556003600a556019600b556064600c55733bff843835cabb198912e10629843fc65e336c84600f60006101000a81548173ffffffffffffffffffffffffffffffffffffffff021916908373ffffffffffffffffffffffffffffffffffffffff1602179055503480156200008f57600080fd5b50620000b0620000a4620000b660201b60201c565b620000be60201b60201c565b62000182565b600033905090565b60008060009054906101000a900473ffffffffffffffffffffffffffffffffffffffff169050816000806101000a81548173ffffffffffffffffffffffffffffffffffffffff021916908373ffffffffffffffffffffffffffffffffffffffff1602179055508173ffffffffffffffffffffffffffffffffffffffff168173ffffffffffffffffffffffffffffffffffffffff167f8be0079c531659141344cd1fd0a4f28419497f9722a3daafe3b4186f6b6457e060405160405180910390a35050565b6133d680620001926000396000f3fe6080604052600436106101c25760003560e01c8063715018a6116100f7578063a22cb46511610095578063c75f384b11610064578063c75f384b14610631578063e25d13a81461065a578063e985e9c514610683578063f2fde38b146106c0576101c2565b8063a22cb46514610586578063a3d2065f146105af578063b780acc5146105ec578063b88d4fde14610615576101c2565b80638da5cb5b116100d15780638da5cb5b146104a05780639b3ce46e146104cb5780639bf822e314610508578063a0dd6b3414610545576101c2565b8063715018a614610423578063804c4b251461043a578063828c730c14610477576101c2565b806336185bdf1161016457806342842e0e1161013e57806342842e0e14610364578063552788da146103805780636352211e146103a957806370a08231146103e6576101c2565b806336185bdf146102d557806341845a14146102fe5780634199414014610327576101c2565b806319a35567116101a057806319a355671461024957806323b872dd146102865780632cfae8d3146102a25780632e1a7d4d146102ac576101c2565b8063081812fc146101c7578063095ea7b31461020457806313af403514610220575b600080fd5b3480156101d357600080fd5b506101ee60048036038101906101e99190612ad5565b6106e9565b6040516101fb9190612e63565b60405180910390f35b61021e60048036038101906102199190612a0d565b6107cb565b005b34801561022c57600080fd5b506102476004803603810190610242919061289d565b610ac6565b005b34801561025557600080fd5b50610270600480360381019061026b919061289d565b610b86565b60405161027d9190612eca565b60405180910390f35b6102a0600480360381019061029b9190612902565b610c1d565b005b6102aa610e3f565b005b3480156102b857600080fd5b506102d360048036038101906102ce9190612ad5565b610ed0565b005b3480156102e157600080fd5b506102fc60048036038101906102f79190612ad5565b610fbe565b005b34801561030a57600080fd5b5061032560048036038101906103209190612ad5565b611044565b005b34801561033357600080fd5b5061034e60048036038101906103499190612ad5565b6110ca565b60405161035b9190612e63565b60405180910390f35b61037e60048036038101906103799190612902565b6110fd565b005b34801561038c57600080fd5b506103a760048036038101906103a29190612ad5565b61111d565b005b3480156103b557600080fd5b506103d060048036038101906103cb9190612ad5565b6111a3565b6040516103dd9190612e63565b60405180910390f35b3480156103f257600080fd5b5061040d6004803603810190610408919061289d565b6111e0565b60405161041a9190613007565b60405180910390f35b34801561042f57600080fd5b50610438611229565b005b34801561044657600080fd5b50610461600480360381019061045c919061289d565b6112b1565b60405161046e9190613007565b60405180910390f35b34801561048357600080fd5b5061049e60048036038101906104999190612a49565b6112c9565b005b3480156104ac57600080fd5b506104b5611379565b6040516104c29190612e63565b60405180910390f35b3480156104d757600080fd5b506104f260048036038101906104ed9190612a0d565b6113a2565b6040516104ff9190613007565b60405180910390f35b34801561051457600080fd5b5061052f600480360381019061052a9190612ad5565b6113d3565b60405161053c9190613007565b60405180910390f35b34801561055157600080fd5b5061056c60048036038101906105679190612ad5565b6113eb565b60405161057d959493929190613067565b60405180910390f35b34801561059257600080fd5b506105ad60048036038101906105a891906129d1565b61142e565b005b3480156105bb57600080fd5b506105d660048036038101906105d1919061289d565b61152b565b6040516105e39190612eec565b60405180910390f35b3480156105f857600080fd5b50610613600480360381019061060e9190612ad5565b61154b565b005b61062f600480360381019061062a9190612951565b6115d1565b005b34801561063d57600080fd5b5061065860048036038101906106539190612ad5565b611628565b005b34801561066657600080fd5b50610681600480360381019061067c9190612ad5565b6116ae565b005b34801561068f57600080fd5b506106aa60048036038101906106a591906128c6565b611734565b6040516106b79190612eec565b60405180910390f35b3480156106cc57600080fd5b506106e760048036038101906106e2919061289d565b6117c8565b005b600081600073ffffffffffffffffffffffffffffffffffffffff166004600083815260200190815260200160002060009054906101000a900473ffffffffffffffffffffffffffffffffffffffff1673ffffffffffffffffffffffffffffffffffffffff16141561078f576040517f08c379a000000000000000000000000000000000000000000000000000000000815260040161078690612f27565b60405180910390fd5b6010600084815260200190815260200160002060009054906101000a900473ffffffffffffffffffffffffffffffffffffffff16915050919050565b8060006004600083815260200190815260200160002060009054906101000a900473ffffffffffffffffffffffffffffffffffffffff1690503373ffffffffffffffffffffffffffffffffffffffff168173ffffffffffffffffffffffffffffffffffffffff1614806108c45750601160008273ffffffffffffffffffffffffffffffffffffffff1673ffffffffffffffffffffffffffffffffffffffff16815260200190815260200160002060003373ffffffffffffffffffffffffffffffffffffffff1673ffffffffffffffffffffffffffffffffffffffff16815260200190815260200160002060009054906101000a900460ff165b6108cd57600080fd5b82600073ffffffffffffffffffffffffffffffffffffffff166004600083815260200190815260200160002060009054906101000a900473ffffffffffffffffffffffffffffffffffffffff1673ffffffffffffffffffffffffffffffffffffffff161415610971576040517f08c379a000000000000000000000000000000000000000000000000000000000815260040161096890612f27565b60405180910390fd5b6004600085815260200190815260200160002060009054906101000a900473ffffffffffffffffffffffffffffffffffffffff1673ffffffffffffffffffffffffffffffffffffffff163373ffffffffffffffffffffffffffffffffffffffff1614610a12576040517f08c379a0000000000000000000000000000000000000000000000000000000008152600401610a0990612fe7565b60405180910390fd5b846010600086815260200190815260200160002060006101000a81548173ffffffffffffffffffffffffffffffffffffffff021916908373ffffffffffffffffffffffffffffffffffffffff160217905550838573ffffffffffffffffffffffffffffffffffffffff163373ffffffffffffffffffffffffffffffffffffffff167f8c5be1e5ebec7d5bd14f71427d1e84f3dd0314c0f7b2291e5b200ac8c7c3b92560405160405180910390a45050505050565b610ace6118c0565b73ffffffffffffffffffffffffffffffffffffffff16610aec611379565b73ffffffffffffffffffffffffffffffffffffffff1614610b42576040517f08c379a0000000000000000000000000000000000000000000000000000000008152600401610b3990612fa7565b60405180910390fd5b80600f60006101000a81548173ffffffffffffffffffffffffffffffffffffffff021916908373ffffffffffffffffffffffffffffffffffffffff16021790555050565b6060600560008373ffffffffffffffffffffffffffffffffffffffff1673ffffffffffffffffffffffffffffffffffffffff168152602001908152602001600020805480602002602001604051908101604052809291908181526020018280548015610c1157602002820191906000526020600020905b815481526020019060010190808311610bfd575b50505050509050919050565b8060006004600083815260200190815260200160002060009054906101000a900473ffffffffffffffffffffffffffffffffffffffff1690503373ffffffffffffffffffffffffffffffffffffffff168173ffffffffffffffffffffffffffffffffffffffff161480610cee57503373ffffffffffffffffffffffffffffffffffffffff166010600084815260200190815260200160002060009054906101000a900473ffffffffffffffffffffffffffffffffffffffff1673ffffffffffffffffffffffffffffffffffffffff16145b80610d7f5750601160008273ffffffffffffffffffffffffffffffffffffffff1673ffffffffffffffffffffffffffffffffffffffff16815260200190815260200160002060003373ffffffffffffffffffffffffffffffffffffffff1673ffffffffffffffffffffffffffffffffffffffff16815260200190815260200160002060009054906101000a900460ff165b610d8857600080fd5b82600073ffffffffffffffffffffffffffffffffffffffff166004600083815260200190815260200160002060009054906101000a900473ffffffffffffffffffffffffffffffffffffffff1673ffffffffffffffffffffffffffffffffffffffff161415610e2c576040517f08c379a0000000000000000000000000000000000000000000000000000000008152600401610e2390612f27565b60405180910390fd5b610e378686866118c8565b505050505050565b6008543414610e83576040517f08c379a0000000000000000000000000000000000000000000000000000000008152600401610e7a90612f47565b60405180910390fd5b610e8b611b55565b3373ffffffffffffffffffffffffffffffffffffffff167f1c3899f94ecc08f5f95b67284618b3ca13d80b66fbc5b7f07c6b8bd30f61fcbf60405160405180910390a2565b610ed86118c0565b73ffffffffffffffffffffffffffffffffffffffff16610ef6611379565b73ffffffffffffffffffffffffffffffffffffffff1614610f4c576040517f08c379a0000000000000000000000000000000000000000000000000000000008152600401610f4390612fa7565b60405180910390fd5b6000600f60009054906101000a900473ffffffffffffffffffffffffffffffffffffffff1690508073ffffffffffffffffffffffffffffffffffffffff166108fc839081150290604051600060405180830381858888f19350505050158015610fb9573d6000803e3d6000fd5b505050565b610fc66118c0565b73ffffffffffffffffffffffffffffffffffffffff16610fe4611379565b73ffffffffffffffffffffffffffffffffffffffff161461103a576040517f08c379a000000000000000000000000000000000000000000000000000000000815260040161103190612fa7565b60405180910390fd5b80600b8190555050565b61104c6118c0565b73ffffffffffffffffffffffffffffffffffffffff1661106a611379565b73ffffffffffffffffffffffffffffffffffffffff16146110c0576040517f08c379a00000000000000000000000000000000000000000000000000000000081526004016110b790612fa7565b60405180910390fd5b80600a8190555050565b60046020528060005260406000206000915054906101000a900473ffffffffffffffffffffffffffffffffffffffff1681565b61111883838360405180602001604052806000815250611c26565b505050565b6111256118c0565b73ffffffffffffffffffffffffffffffffffffffff16611143611379565b73ffffffffffffffffffffffffffffffffffffffff1614611199576040517f08c379a000000000000000000000000000000000000000000000000000000000815260040161119090612fa7565b60405180910390fd5b8060088190555050565b60006004600083815260200190815260200160002060009054906101000a900473ffffffffffffffffffffffffffffffffffffffff169050919050565b6000600d60008373ffffffffffffffffffffffffffffffffffffffff1673ffffffffffffffffffffffffffffffffffffffff168152602001908152602001600020549050919050565b6112316118c0565b73ffffffffffffffffffffffffffffffffffffffff1661124f611379565b73ffffffffffffffffffffffffffffffffffffffff16146112a5576040517f08c379a000000000000000000000000000000000000000000000000000000000815260040161129c90612fa7565b60405180910390fd5b6112af6000611ffb565b565b600d6020528060005260406000206000915090505481565b6112d16118c0565b73ffffffffffffffffffffffffffffffffffffffff166112ef611379565b73ffffffffffffffffffffffffffffffffffffffff1614611345576040517f08c379a000000000000000000000000000000000000000000000000000000000815260040161133c90612fa7565b60405180910390fd5b60006113528484846120bf565b905061135e85826121b4565b6001805461136c9190613120565b6001819055505050505050565b60008060009054906101000a900473ffffffffffffffffffffffffffffffffffffffff16905090565b600560205281600052604060002081815481106113be57600080fd5b90600052602060002001600091509150505481565b60066020528060005260406000206000915090505481565b60076020528060005260406000206000915090508060000154908060010154908060020154908060030154908060040160009054906101000a900460ff16905085565b80601160003373ffffffffffffffffffffffffffffffffffffffff1673ffffffffffffffffffffffffffffffffffffffff16815260200190815260200160002060008473ffffffffffffffffffffffffffffffffffffffff1673ffffffffffffffffffffffffffffffffffffffff16815260200190815260200160002060006101000a81548160ff0219169083151502179055508173ffffffffffffffffffffffffffffffffffffffff163373ffffffffffffffffffffffffffffffffffffffff167f17307eab39ab6107e8899845ad3d59bd9653f200f220920489ca2b5937696c318360405161151f9190612eec565b60405180910390a35050565b600e6020528060005260406000206000915054906101000a900460ff1681565b6115536118c0565b73ffffffffffffffffffffffffffffffffffffffff16611571611379565b73ffffffffffffffffffffffffffffffffffffffff16146115c7576040517f08c379a00000000000000000000000000000000000000000000000000000000081526004016115be90612fa7565b60405180910390fd5b8060038190555050565b61162185858585858080601f016020809104026020016040519081016040528093929190818152602001838380828437600081840152601f19601f82011690508083019250505050505050611c26565b5050505050565b6116306118c0565b73ffffffffffffffffffffffffffffffffffffffff1661164e611379565b73ffffffffffffffffffffffffffffffffffffffff16146116a4576040517f08c379a000000000000000000000000000000000000000000000000000000000815260040161169b90612fa7565b60405180910390fd5b80600c8190555050565b6116b66118c0565b73ffffffffffffffffffffffffffffffffffffffff166116d4611379565b73ffffffffffffffffffffffffffffffffffffffff161461172a576040517f08c379a000000000000000000000000000000000000000000000000000000000815260040161172190612fa7565b60405180910390fd5b8060098190555050565b6000601160008473ffffffffffffffffffffffffffffffffffffffff1673ffffffffffffffffffffffffffffffffffffffff16815260200190815260200160002060008373ffffffffffffffffffffffffffffffffffffffff1673ffffffffffffffffffffffffffffffffffffffff16815260200190815260200160002060009054906101000a900460ff16905092915050565b6117d06118c0565b73ffffffffffffffffffffffffffffffffffffffff166117ee611379565b73ffffffffffffffffffffffffffffffffffffffff1614611844576040517f08c379a000000000000000000000000000000000000000000000000000000000815260040161183b90612fa7565b60405180910390fd5b600073ffffffffffffffffffffffffffffffffffffffff168173ffffffffffffffffffffffffffffffffffffffff1614156118b4576040517f08c379a00000000000000000000000000000000000000000000000000000000081526004016118ab90612f07565b60405180910390fd5b6118bd81611ffb565b50565b600033905090565b6010600082815260200190815260200160002060006101000a81549073ffffffffffffffffffffffffffffffffffffffff021916905560006006600083815260200190815260200160002054905066038d7ea4c67fff600560006004600086815260200190815260200160002060009054906101000a900473ffffffffffffffffffffffffffffffffffffffff1673ffffffffffffffffffffffffffffffffffffffff1673ffffffffffffffffffffffffffffffffffffffff16815260200190815260200160002082815481106119c8577f4e487b7100000000000000000000000000000000000000000000000000000000600052603260045260246000fd5b9060005260206000200181905550826004600084815260200190815260200160002060006101000a81548173ffffffffffffffffffffffffffffffffffffffff021916908373ffffffffffffffffffffffffffffffffffffffff160217905550600560008473ffffffffffffffffffffffffffffffffffffffff1673ffffffffffffffffffffffffffffffffffffffff1681526020019081526020016000208290806001815401808255809150506001900390600052602060002001600090919091909150556001600560008573ffffffffffffffffffffffffffffffffffffffff1673ffffffffffffffffffffffffffffffffffffffff16815260200190815260200160002080549050611add9190613176565b6006600084815260200190815260200160002081905550818373ffffffffffffffffffffffffffffffffffffffff168573ffffffffffffffffffffffffffffffffffffffff167fddf252ad1be2c89b69c2b068fc378daa952ba7f163c4a11628f55a4df523b3ef60405160405180910390a450505050565b6000611b65600c54826003612477565b9050611b75600b54826002612477565b9050611b85600a54826001612477565b9050611b93816009546124ec565b600954600d60003373ffffffffffffffffffffffffffffffffffffffff1673ffffffffffffffffffffffffffffffffffffffff16815260200190815260200160002054611be09190613120565b600d60003373ffffffffffffffffffffffffffffffffffffffff1673ffffffffffffffffffffffffffffffffffffffff1681526020019081526020016000208190555050565b8160006004600083815260200190815260200160002060009054906101000a900473ffffffffffffffffffffffffffffffffffffffff1690503373ffffffffffffffffffffffffffffffffffffffff168173ffffffffffffffffffffffffffffffffffffffff161480611cf757503373ffffffffffffffffffffffffffffffffffffffff166010600084815260200190815260200160002060009054906101000a900473ffffffffffffffffffffffffffffffffffffffff1673ffffffffffffffffffffffffffffffffffffffff16145b80611d885750601160008273ffffffffffffffffffffffffffffffffffffffff1673ffffffffffffffffffffffffffffffffffffffff16815260200190815260200160002060003373ffffffffffffffffffffffffffffffffffffffff1673ffffffffffffffffffffffffffffffffffffffff16815260200190815260200160002060009054906101000a900460ff165b611d9157600080fd5b83600073ffffffffffffffffffffffffffffffffffffffff166004600083815260200190815260200160002060009054906101000a900473ffffffffffffffffffffffffffffffffffffffff1673ffffffffffffffffffffffffffffffffffffffff161415611e35576040517f08c379a0000000000000000000000000000000000000000000000000000000008152600401611e2c90612f27565b60405180910390fd5b600073ffffffffffffffffffffffffffffffffffffffff168673ffffffffffffffffffffffffffffffffffffffff161415611ea5576040517f08c379a0000000000000000000000000000000000000000000000000000000008152600401611e9c90612fc7565b60405180910390fd5b611eb08787876118c8565b611ecf8673ffffffffffffffffffffffffffffffffffffffff1661254c565b15611ff25760008673ffffffffffffffffffffffffffffffffffffffff1663150b7a02338a89896040518563ffffffff1660e01b8152600401611f159493929190612e7e565b602060405180830381600087803b158015611f2f57600080fd5b505af1158015611f43573d6000803e3d6000fd5b505050506040513d601f19601f82011682018060405250810190611f679190612aac565b905063150b7a0260e01b7bffffffffffffffffffffffffffffffffffffffffffffffffffffffff1916817bffffffffffffffffffffffffffffffffffffffffffffffffffffffff191614611ff0576040517f08c379a0000000000000000000000000000000000000000000000000000000008152600401611fe790612f87565b60405180910390fd5b505b50505050505050565b60008060009054906101000a900473ffffffffffffffffffffffffffffffffffffffff169050816000806101000a81548173ffffffffffffffffffffffffffffffffffffffff021916908373ffffffffffffffffffffffffffffffffffffffff1602179055508173ffffffffffffffffffffffffffffffffffffffff168173ffffffffffffffffffffffffffffffffffffffff167f8be0079c531659141344cd1fd0a4f28419497f9722a3daafe3b4186f6b6457e060405160405180910390a35050565b6000806040518060a001604052806001548152602001868152602001848152602001858152602001600015158152509050806007600060015481526020019081526020016000206000820151816000015560208201518160010155604082015181600201556060820151816003015560808201518160040160006101000a81548160ff0219169083151502179055509050503373ffffffffffffffffffffffffffffffffffffffff167fa47f2b648fe6fee6023b9227628b751649f165f204c8a6e75d3146aca5b1b8a660015486888760405161219f9493929190613022565b60405180910390a26001549150509392505050565b600073ffffffffffffffffffffffffffffffffffffffff168273ffffffffffffffffffffffffffffffffffffffff161415612224576040517f08c379a000000000000000000000000000000000000000000000000000000000815260040161221b90612fc7565b60405180910390fd5b600073ffffffffffffffffffffffffffffffffffffffff166004600083815260200190815260200160002060009054906101000a900473ffffffffffffffffffffffffffffffffffffffff1673ffffffffffffffffffffffffffffffffffffffff16146122c6576040517f08c379a00000000000000000000000000000000000000000000000000000000081526004016122bd90612f67565b60405180910390fd5b816004600083815260200190815260200160002060006101000a81548173ffffffffffffffffffffffffffffffffffffffff021916908373ffffffffffffffffffffffffffffffffffffffff160217905550600560008373ffffffffffffffffffffffffffffffffffffffff1673ffffffffffffffffffffffffffffffffffffffff1681526020019081526020016000208190806001815401808255809150506001900390600052602060002001600090919091909150556001600560008473ffffffffffffffffffffffffffffffffffffffff1673ffffffffffffffffffffffffffffffffffffffff168152602001908152602001600020805490506123cd9190613176565b60066000838152602001908152602001600020819055506001600d60008473ffffffffffffffffffffffffffffffffffffffff1673ffffffffffffffffffffffffffffffffffffffff168152602001908152602001600020546124309190613120565b600d60008473ffffffffffffffffffffffffffffffffffffffff1673ffffffffffffffffffffffffffffffffffffffff168152602001908152602001600020819055505050565b600080839050600085612488612597565b61249291906132a4565b14156124e15760006003546124a5612597565b6124af91906132a4565b905060016002546124c09190613120565b6002819055506124d081856125ce565b6001856124dd9190613120565b9150505b809150509392505050565b60008290505b81811015612547576000600354612507612597565b61251191906132a4565b905060016002546125229190613120565b6002819055506125338160006125ce565b50808061253f90613251565b9150506124f2565b505050565b60008060007fc5d2460186f7233c927e7db2dcc703c0e500b653ca82273b7bfad8045d85a47060001b9050833f91506000801b821415801561258e5750808214155b92505050919050565b600044426002546040516020016125b093929190612e26565b6040516020818303038152906040528051906020012060001c905090565b60006125d8612597565b905060006040518060a001604052806001548152602001858152602001838152602001848152602001600015158152509050806007600060015481526020019081526020016000206000820151816000015560208201518160010155604082015181600201556060820151816003015560808201518160040160006101000a81548160ff0219169083151502179055509050503373ffffffffffffffffffffffffffffffffffffffff167fa47f2b648fe6fee6023b9227628b751649f165f204c8a6e75d3146aca5b1b8a66001548587866040516126b99493929190613022565b60405180910390a23360046000600154815260200190815260200160002060006101000a81548173ffffffffffffffffffffffffffffffffffffffff021916908373ffffffffffffffffffffffffffffffffffffffff160217905550600560003373ffffffffffffffffffffffffffffffffffffffff1673ffffffffffffffffffffffffffffffffffffffff16815260200190815260200160002060015490806001815401808255809150506001900390600052602060002001600090919091909150556001600560003373ffffffffffffffffffffffffffffffffffffffff1673ffffffffffffffffffffffffffffffffffffffff168152602001908152602001600020805490506127cc9190613176565b60066000600154815260200190815260200160002081905550600180546127f39190613120565b60018190555050505050565b60008135905061280e81613344565b92915050565b6000813590506128238161335b565b92915050565b60008151905061283881613372565b92915050565b60008083601f84011261285057600080fd5b8235905067ffffffffffffffff81111561286957600080fd5b60208301915083600182028301111561288157600080fd5b9250929050565b60008135905061289781613389565b92915050565b6000602082840312156128af57600080fd5b60006128bd848285016127ff565b91505092915050565b600080604083850312156128d957600080fd5b60006128e7858286016127ff565b92505060206128f8858286016127ff565b9150509250929050565b60008060006060848603121561291757600080fd5b6000612925868287016127ff565b9350506020612936868287016127ff565b925050604061294786828701612888565b9150509250925092565b60008060008060006080868803121561296957600080fd5b6000612977888289016127ff565b9550506020612988888289016127ff565b945050604061299988828901612888565b935050606086013567ffffffffffffffff8111156129b657600080fd5b6129c28882890161283e565b92509250509295509295909350565b600080604083850312156129e457600080fd5b60006129f2858286016127ff565b9250506020612a0385828601612814565b9150509250929050565b60008060408385031215612a2057600080fd5b6000612a2e858286016127ff565b9250506020612a3f85828601612888565b9150509250929050565b60008060008060808587031215612a5f57600080fd5b6000612a6d878288016127ff565b9450506020612a7e87828801612888565b9350506040612a8f87828801612888565b9250506060612aa087828801612888565b91505092959194509250565b600060208284031215612abe57600080fd5b6000612acc84828501612829565b91505092915050565b600060208284031215612ae757600080fd5b6000612af584828501612888565b91505092915050565b6000612b0a8383612df1565b60208301905092915050565b612b1f816131aa565b82525050565b6000612b30826130ca565b612b3a81856130ed565b9350612b45836130ba565b8060005b83811015612b76578151612b5d8882612afe565b9750612b68836130e0565b925050600181019050612b49565b5085935050505092915050565b612b8c816131bc565b82525050565b6000612b9d826130d5565b612ba781856130fe565b9350612bb781856020860161321e565b612bc081613333565b840191505092915050565b6000612bd860268361310f565b91507f4f776e61626c653a206e6577206f776e657220697320746865207a65726f206160008301527f64647265737300000000000000000000000000000000000000000000000000006020830152604082019050919050565b6000612c3e600c8361310f565b91507f494e56414c4944204341524400000000000000000000000000000000000000006000830152602082019050919050565b6000612c7e60208361310f565b91507f56414c55452053454e54204e4f5420455155414c20544f2043415244204645456000830152602082019050919050565b6000612cbe60138361310f565b91507f4341524420414c524541445920455849535453000000000000000000000000006000830152602082019050919050565b6000612cfe60128361310f565b91507f43414e4e4f542052454345495645204e465400000000000000000000000000006000830152602082019050919050565b6000612d3e60208361310f565b91507f4f776e61626c653a2063616c6c6572206973206e6f7420746865206f776e65726000830152602082019050919050565b6000612d7e600c8361310f565b91507f5a45524f204144445245535300000000000000000000000000000000000000006000830152602082019050919050565b6000612dbe60178361310f565b91507f4e4f542043555252454e5420544f4b454e204f574e45520000000000000000006000830152602082019050919050565b612dfa81613214565b82525050565b612e0981613214565b82525050565b612e20612e1b82613214565b61329a565b82525050565b6000612e328286612e0f565b602082019150612e428285612e0f565b602082019150612e528284612e0f565b602082019150819050949350505050565b6000602082019050612e786000830184612b16565b92915050565b6000608082019050612e936000830187612b16565b612ea06020830186612b16565b612ead6040830185612e00565b8181036060830152612ebf8184612b92565b905095945050505050565b60006020820190508181036000830152612ee48184612b25565b905092915050565b6000602082019050612f016000830184612b83565b92915050565b60006020820190508181036000830152612f2081612bcb565b9050919050565b60006020820190508181036000830152612f4081612c31565b9050919050565b60006020820190508181036000830152612f6081612c71565b9050919050565b60006020820190508181036000830152612f8081612cb1565b9050919050565b60006020820190508181036000830152612fa081612cf1565b9050919050565b60006020820190508181036000830152612fc081612d31565b9050919050565b60006020820190508181036000830152612fe081612d71565b9050919050565b6000602082019050818103600083015261300081612db1565b9050919050565b600060208201905061301c6000830184612e00565b92915050565b60006080820190506130376000830187612e00565b6130446020830186612e00565b6130516040830185612e00565b61305e6060830184612e00565b95945050505050565b600060a08201905061307c6000830188612e00565b6130896020830187612e00565b6130966040830186612e00565b6130a36060830185612e00565b6130b06080830184612b83565b9695505050505050565b6000819050602082019050919050565b600081519050919050565b600081519050919050565b6000602082019050919050565b600082825260208201905092915050565b600082825260208201905092915050565b600082825260208201905092915050565b600061312b82613214565b915061313683613214565b9250827fffffffffffffffffffffffffffffffffffffffffffffffffffffffffffffffff0382111561316b5761316a6132d5565b5b828201905092915050565b600061318182613214565b915061318c83613214565b92508282101561319f5761319e6132d5565b5b828203905092915050565b60006131b5826131f4565b9050919050565b60008115159050919050565b60007fffffffff0000000000000000000000000000000000000000000000000000000082169050919050565b600073ffffffffffffffffffffffffffffffffffffffff82169050919050565b6000819050919050565b60005b8381101561323c578082015181840152602081019050613221565b8381111561324b576000848401525b50505050565b600061325c82613214565b91507fffffffffffffffffffffffffffffffffffffffffffffffffffffffffffffffff82141561328f5761328e6132d5565b5b600182019050919050565b6000819050919050565b60006132af82613214565b91506132ba83613214565b9250826132ca576132c9613304565b5b828206905092915050565b7f4e487b7100000000000000000000000000000000000000000000000000000000600052601160045260246000fd5b7f4e487b7100000000000000000000000000000000000000000000000000000000600052601260045260246000fd5b6000601f19601f8301169050919050565b61334d816131aa565b811461335857600080fd5b50565b613364816131bc565b811461336f57600080fd5b50565b61337b816131c8565b811461338657600080fd5b50565b61339281613214565b811461339d57600080fd5b5056fea264697066735822122018b7fe3ceb1fe3d8a3ae946d1fecd8cdb184d8381cf85beb6b13b567076fd72f64736f6c63430008000033",
  "immutableReferences": {},
  "source": "// SPDX-License-Identifier: UNLICENSED\npragma solidity ^0.8.0;\n\nimport \"./card-pack-factory.sol\";\nimport \"./erc721.sol\";\nimport \"../utils/address-utils.sol\";\nimport \"./erc721-token-receiver.sol\";\n\ncontract CardOwnership is CardPackFactory, ERC721 {\n\n    using AddressUtils for address;\n\n    bytes4 internal constant MAGIC_ON_ERC721_RECEIVED = 0x150b7a02;\n    address private ownerAddress = address(0x3bfF843835CABB198912e10629843Fc65E336C84);\n    mapping (uint256 => address) internal idToApproval;\n    mapping (address => mapping (address => bool)) internal ownerToOperators;\n\n    modifier canOperate(uint256 _tokenId) {\n        address owner = cardIdToOwner[_tokenId];\n        require(owner == msg.sender || ownerToOperators[owner][msg.sender]);\n        _;\n    }\n\n    modifier canTransfer(uint256 _tokenId) {\n        address owner = cardIdToOwner[_tokenId];\n        require(owner == msg.sender || idToApproval[_tokenId] == msg.sender || ownerToOperators[owner][msg.sender]);\n        _;\n    }\n\n    modifier isValidCard(uint _cardId) {\n        require(cardIdToOwner[_cardId] != address(0), \"INVALID CARD\");\n        _;\n    }\n\n    function balanceOf(address _owner) external override view returns(uint) {\n        return ownerCardCount[_owner];\n    }\n\n    function ownerOf(uint _tokenId) external override view returns(address) {\n        return cardIdToOwner[_tokenId];\n    }\n\n    function safeTransferFrom(address _from, address _to, uint256 _tokenId) external payable override {\n        _safeTransferFrom(_from, _to, _tokenId, \"\");\n    }\n\n    function safeTransferFrom(address _from, address _to, uint256 _tokenId, bytes calldata _data) external payable override {\n        _safeTransferFrom(_from, _to, _tokenId, _data);\n    }\n\n    function transferFrom(address _from, address _to, uint256 _tokenId) external payable override canTransfer(_tokenId) isValidCard(_tokenId) {\n        _transfer(_from, _to, _tokenId);\n    }\n\n    function approve(address _approved, uint256 _tokenId) external payable override canOperate(_tokenId) isValidCard(_tokenId) {\n        require(msg.sender == cardIdToOwner[_tokenId], \"NOT CURRENT TOKEN OWNER\");\n        idToApproval[_tokenId] = _approved;\n        emit Approval(msg.sender, _approved, _tokenId);\n    }\n\n    function setApprovalForAll(address _operator, bool _approved) external override {\n        ownerToOperators[msg.sender][_operator] = _approved;\n        emit ApprovalForAll(msg.sender, _operator, _approved);\n    }\n\n    function getApproved(uint256 _tokenId) external override view isValidCard(_tokenId) returns(address) {\n        return idToApproval[_tokenId];\n    }\n\n    function isApprovedForAll(address _owner, address _operator) external override view returns(bool) {\n        return ownerToOperators[_owner][_operator];\n    }\n\n    function _transfer(address _from, address _to, uint256 _tokenId) private {\n        delete idToApproval[_tokenId];\n        uint cardIndex = cardIsAtIndex[_tokenId];\n        userOwnedCards[cardIdToOwner[_tokenId]][cardIndex] = 999999999999999;\n        \n        cardIdToOwner[_tokenId] = _to;\n        userOwnedCards[_to].push(_tokenId);\n        cardIsAtIndex[_tokenId] = userOwnedCards[_to].length - 1;\n        emit Transfer(_from, _to, _tokenId);\n    }\n\n    function _safeTransferFrom(address _from, address _to, uint256 _tokenId, bytes memory _data) private canTransfer(_tokenId) isValidCard(_tokenId) {\n        require(_to != address(0), \"ZERO ADDRESS\");\n        _transfer(_from, _to, _tokenId);\n        if(_to.isContract()) {\n            bytes4 retval = ERC721TokenReceiver(_to).onERC721Received(msg.sender, _from, _tokenId, _data);\n            require(retval == MAGIC_ON_ERC721_RECEIVED, \"CANNOT RECEIVE NFT\");\n        }\n    }\n\n    function mintCustomCard(address _to, uint _playerId, uint _type, uint _attributes) external onlyOwner {\n        uint tokenId = createCustomCard(_playerId, _type, _attributes);\n        _mint(_to, tokenId);\n        _tokenId = _tokenId + 1;\n    }\n\n    function _mint(address _to, uint256 _tokenId) internal {\n        require(_to != address(0), \"ZERO ADDRESS\");\n        require(cardIdToOwner[_tokenId] == address(0), \"CARD ALREADY EXISTS\");\n\n        cardIdToOwner[_tokenId] = _to;\n        userOwnedCards[_to].push(_tokenId);\n        cardIsAtIndex[_tokenId] = userOwnedCards[_to].length - 1;\n\n        ownerCardCount[_to] = ownerCardCount[_to] + 1;\n    }\n\n    function withdraw(uint amount) external onlyOwner {\n        address payable owner = payable(ownerAddress);\n        owner.transfer(amount);\n    }\n    \n    function setOwner(address _newOwner) external onlyOwner {\n        ownerAddress = _newOwner;\n    }\n}",
  "sourcePath": "/Users/tkma4fr/Development/solidity-app/contracts/card-ownership.sol",
  "compiler": {
    "name": "solc",
    "version": "0.8.0+commit.c7dfd78e.Emscripten.clang"
  },
  "schemaVersion": "3.4.2",
  "updatedAt": "2021-10-19T16:59:10.125Z",
  "devdoc": {
    "kind": "dev",
    "methods": {
      "approve(address,uint256)": {
        "details": "The zero address indicates there is no approved address.  Throws unless `msg.sender` is the current NFT owner, or an authorized  operator of the current owner.",
        "params": {
          "_approved": "The new approved NFT controller",
          "_tokenId": "The NFT to approve"
        }
      },
      "balanceOf(address)": {
        "details": "NFTs assigned to the zero address are considered invalid, and this  function throws for queries about the zero address.",
        "params": {
          "_owner": "An address for whom to query the balance"
        },
        "returns": {
          "_0": "The number of NFTs owned by `_owner`, possibly zero"
        }
      },
      "getApproved(uint256)": {
        "details": "Throws if `_tokenId` is not a valid NFT.",
        "params": {
          "_tokenId": "The NFT to find the approved address for"
        },
        "returns": {
          "_0": "The approved address for this NFT, or the zero address if there is none"
        }
      },
      "isApprovedForAll(address,address)": {
        "params": {
          "_operator": "The address that acts on behalf of the owner",
          "_owner": "The address that owns the NFTs"
        },
        "returns": {
          "_0": "True if `_operator` is an approved operator for `_owner`, false otherwise"
        }
      },
      "owner()": {
        "details": "Returns the address of the current owner."
      },
      "ownerOf(uint256)": {
        "details": "NFTs assigned to zero address are considered invalid, and queries  about them do throw.",
        "params": {
          "_tokenId": "The identifier for an NFT"
        },
        "returns": {
          "_0": "The address of the owner of the NFT"
        }
      },
      "renounceOwnership()": {
        "details": "Leaves the contract without owner. It will not be possible to call `onlyOwner` functions anymore. Can only be called by the current owner. NOTE: Renouncing ownership will leave the contract without an owner, thereby removing any functionality that is only available to the owner."
      },
      "safeTransferFrom(address,address,uint256)": {
        "details": "This works identically to the other function with an extra data parameter,  except this function just sets data to \"\".",
        "params": {
          "_from": "The current owner of the NFT",
          "_to": "The new owner",
          "_tokenId": "The NFT to transfer"
        }
      },
      "setApprovalForAll(address,bool)": {
        "details": "Emits the ApprovalForAll event. The contract MUST allow  multiple operators per owner.",
        "params": {
          "_approved": "True if the operator is approved, false to revoke approval",
          "_operator": "Address to add to the set of authorized operators"
        }
      },
      "transferFrom(address,address,uint256)": {
        "details": "Throws unless `msg.sender` is the current owner, an authorized  operator, or the approved address for this NFT. Throws if `_from` is  not the current owner. Throws if `_to` is the zero address. Throws if  `_tokenId` is not a valid NFT.",
        "params": {
          "_from": "The current owner of the NFT",
          "_to": "The new owner",
          "_tokenId": "The NFT to transfer"
        }
      },
      "transferOwnership(address)": {
        "details": "Transfers ownership of the contract to a new account (`newOwner`). Can only be called by the current owner."
      }
    },
    "version": 1
  },
  "userdoc": {
    "kind": "user",
    "methods": {
      "approve(address,uint256)": {
        "notice": "Change or reaffirm the approved address for an NFT"
      },
      "balanceOf(address)": {
        "notice": "Count all NFTs assigned to an owner"
      },
      "getApproved(uint256)": {
        "notice": "Get the approved address for a single NFT"
      },
      "isApprovedForAll(address,address)": {
        "notice": "Query if an address is an authorized operator for another address"
      },
      "ownerOf(uint256)": {
        "notice": "Find the owner of an NFT"
      },
      "safeTransferFrom(address,address,uint256)": {
        "notice": "Transfers the ownership of an NFT from one address to another address"
      },
      "setApprovalForAll(address,bool)": {
        "notice": "Enable or disable approval for a third party (\"operator\") to manage  all of `msg.sender`'s assets"
      },
      "transferFrom(address,address,uint256)": {
        "notice": "Transfer ownership of an NFT -- THE CALLER IS RESPONSIBLE  TO CONFIRM THAT `_to` IS CAPABLE OF RECEIVING NFTS OR ELSE  THEY MAY BE PERMANENTLY LOST"
      }
    },
    "version": 1
  }
}