{
  "contractName": "CardPackFactory",
  "abi": [
    {
      "anonymous": false,
      "inputs": [
        {
          "indexed": false,
          "internalType": "uint256",
          "name": "cardId",
          "type": "uint256"
        },
        {
          "indexed": false,
          "internalType": "uint256",
          "name": "cardType",
          "type": "uint256"
        },
        {
          "indexed": false,
          "internalType": "uint256",
          "name": "playerId",
          "type": "uint256"
        },
        {
          "indexed": false,
          "internalType": "uint256",
          "name": "attributeHash",
          "type": "uint256"
        },
        {
          "indexed": true,
          "internalType": "address",
          "name": "owner",
          "type": "address"
        }
      ],
      "name": "CardCreated",
      "type": "event"
    },
    {
      "anonymous": false,
      "inputs": [
        {
          "indexed": true,
          "internalType": "address",
          "name": "owner",
          "type": "address"
        }
      ],
      "name": "CardPackPurchased",
      "type": "event"
    },
    {
      "anonymous": false,
      "inputs": [
        {
          "indexed": true,
          "internalType": "address",
          "name": "previousOwner",
          "type": "address"
        },
        {
          "indexed": true,
          "internalType": "address",
          "name": "newOwner",
          "type": "address"
        }
      ],
      "name": "OwnershipTransferred",
      "type": "event"
    },
    {
      "inputs": [
        {
          "internalType": "uint256",
          "name": "",
          "type": "uint256"
        }
      ],
      "name": "cardIdToCard",
      "outputs": [
        {
          "internalType": "uint256",
          "name": "cardId",
          "type": "uint256"
        },
        {
          "internalType": "uint256",
          "name": "playerId",
          "type": "uint256"
        },
        {
          "internalType": "uint256",
          "name": "attributeHash",
          "type": "uint256"
        },
        {
          "internalType": "uint256",
          "name": "cardType",
          "type": "uint256"
        },
        {
          "internalType": "bool",
          "name": "inUse",
          "type": "bool"
        }
      ],
      "stateMutability": "view",
      "type": "function"
    },
    {
      "inputs": [
        {
          "internalType": "uint256",
          "name": "",
          "type": "uint256"
        }
      ],
      "name": "cardIdToOwner",
      "outputs": [
        {
          "internalType": "address",
          "name": "",
          "type": "address"
        }
      ],
      "stateMutability": "view",
      "type": "function"
    },
    {
      "inputs": [
        {
          "internalType": "uint256",
          "name": "",
          "type": "uint256"
        }
      ],
      "name": "cardIsAtIndex",
      "outputs": [
        {
          "internalType": "uint256",
          "name": "",
          "type": "uint256"
        }
      ],
      "stateMutability": "view",
      "type": "function"
    },
    {
      "inputs": [
        {
          "internalType": "address",
          "name": "",
          "type": "address"
        }
      ],
      "name": "existingUser",
      "outputs": [
        {
          "internalType": "bool",
          "name": "",
          "type": "bool"
        }
      ],
      "stateMutability": "view",
      "type": "function"
    },
    {
      "inputs": [
        {
          "internalType": "address",
          "name": "_address",
          "type": "address"
        }
      ],
      "name": "getUserOwnedCards",
      "outputs": [
        {
          "internalType": "uint256[]",
          "name": "",
          "type": "uint256[]"
        }
      ],
      "stateMutability": "view",
      "type": "function"
    },
    {
      "inputs": [],
      "name": "owner",
      "outputs": [
        {
          "internalType": "address",
          "name": "",
          "type": "address"
        }
      ],
      "stateMutability": "view",
      "type": "function"
    },
    {
      "inputs": [
        {
          "internalType": "address",
          "name": "",
          "type": "address"
        }
      ],
      "name": "ownerCardCount",
      "outputs": [
        {
          "internalType": "uint256",
          "name": "",
          "type": "uint256"
        }
      ],
      "stateMutability": "view",
      "type": "function"
    },
    {
      "inputs": [],
      "name": "renounceOwnership",
      "outputs": [],
      "stateMutability": "nonpayable",
      "type": "function"
    },
    {
      "inputs": [
        {
          "internalType": "uint256",
          "name": "_newOdds",
          "type": "uint256"
        }
      ],
      "name": "setExotixCardOdds",
      "outputs": [],
      "stateMutability": "nonpayable",
      "type": "function"
    },
    {
      "inputs": [
        {
          "internalType": "uint256",
          "name": "_newOdds",
          "type": "uint256"
        }
      ],
      "name": "setLegendaryCardOdds",
      "outputs": [],
      "stateMutability": "nonpayable",
      "type": "function"
    },
    {
      "inputs": [
        {
          "internalType": "uint256",
          "name": "_newOdds",
          "type": "uint256"
        }
      ],
      "name": "setRareCardOdds",
      "outputs": [],
      "stateMutability": "nonpayable",
      "type": "function"
    },
    {
      "inputs": [
        {
          "internalType": "uint256",
          "name": "_count",
          "type": "uint256"
        }
      ],
      "name": "setTotalPlayers",
      "outputs": [],
      "stateMutability": "nonpayable",
      "type": "function"
    },
    {
      "inputs": [
        {
          "internalType": "address",
          "name": "newOwner",
          "type": "address"
        }
      ],
      "name": "transferOwnership",
      "outputs": [],
      "stateMutability": "nonpayable",
      "type": "function"
    },
    {
      "inputs": [
        {
          "internalType": "address",
          "name": "",
          "type": "address"
        },
        {
          "internalType": "uint256",
          "name": "",
          "type": "uint256"
        }
      ],
      "name": "userOwnedCards",
      "outputs": [
        {
          "internalType": "uint256",
          "name": "",
          "type": "uint256"
        }
      ],
      "stateMutability": "view",
      "type": "function"
    },
    {
      "inputs": [],
      "name": "purchaseCardPack",
      "outputs": [],
      "stateMutability": "payable",
      "type": "function"
    },
    {
      "inputs": [
        {
          "internalType": "uint256",
          "name": "_quantity",
          "type": "uint256"
        }
      ],
      "name": "setCardPackQuantity",
      "outputs": [],
      "stateMutability": "nonpayable",
      "type": "function"
    },
    {
      "inputs": [
        {
          "internalType": "uint256",
          "name": "_fee",
          "type": "uint256"
        }
      ],
      "name": "setCardPackFee",
      "outputs": [],
      "stateMutability": "nonpayable",
      "type": "function"
    }
  ],
  "bytecode": "0x6080604052600060025560be6003556008600455602860055560646006556611c37937e08000600b55600a600c5534801561003957600080fd5b5061005661004b61005b60201b60201c565b61006360201b60201c565b610127565b600033905090565b60008060009054906101000a900473ffffffffffffffffffffffffffffffffffffffff169050816000806101000a81548173ffffffffffffffffffffffffffffffffffffffff021916908373ffffffffffffffffffffffffffffffffffffffff1602179055508173ffffffffffffffffffffffffffffffffffffffff168173ffffffffffffffffffffffffffffffffffffffff167f8be0079c531659141344cd1fd0a4f28419497f9722a3daafe3b4186f6b6457e060405160405180910390a35050565b61160e806101366000396000f3fe6080604052600436106100fe5760003560e01c80638da5cb5b11610095578063a3d2065f11610064578063a3d2065f1461033c578063b780acc514610379578063c75f384b146103a2578063e25d13a8146103cb578063f2fde38b146103f4576100fe565b80638da5cb5b146102565780639b3ce46e146102815780639bf822e3146102be578063a0dd6b34146102fb576100fe565b806341994140116100d1578063419941401461019c578063552788da146101d9578063715018a614610202578063804c4b2514610219576100fe565b806319a35567146101035780632cfae8d31461014057806336185bdf1461014a57806341845a1414610173575b600080fd5b34801561010f57600080fd5b5061012a60048036038101906101259190610fb6565b61041d565b604051610137919061125c565b60405180910390f35b6101486104b4565b005b34801561015657600080fd5b50610171600480360381019061016c919061101b565b610545565b005b34801561017f57600080fd5b5061019a6004803603810190610195919061101b565b6105cb565b005b3480156101a857600080fd5b506101c360048036038101906101be919061101b565b610651565b6040516101d09190611241565b60405180910390f35b3480156101e557600080fd5b5061020060048036038101906101fb919061101b565b610684565b005b34801561020e57600080fd5b5061021761070a565b005b34801561022557600080fd5b50610240600480360381019061023b9190610fb6565b610792565b60405161024d91906112f9565b60405180910390f35b34801561026257600080fd5b5061026b6107aa565b6040516102789190611241565b60405180910390f35b34801561028d57600080fd5b506102a860048036038101906102a39190610fdf565b6107d3565b6040516102b591906112f9565b60405180910390f35b3480156102ca57600080fd5b506102e560048036038101906102e0919061101b565b610804565b6040516102f291906112f9565b60405180910390f35b34801561030757600080fd5b50610322600480360381019061031d919061101b565b61081c565b604051610333959493929190611359565b60405180910390f35b34801561034857600080fd5b50610363600480360381019061035e9190610fb6565b61085f565b604051610370919061127e565b60405180910390f35b34801561038557600080fd5b506103a0600480360381019061039b919061101b565b61087f565b005b3480156103ae57600080fd5b506103c960048036038101906103c4919061101b565b610905565b005b3480156103d757600080fd5b506103f260048036038101906103ed919061101b565b61098b565b005b34801561040057600080fd5b5061041b60048036038101906104169190610fb6565b610a11565b005b6060600860008373ffffffffffffffffffffffffffffffffffffffff1673ffffffffffffffffffffffffffffffffffffffff1681526020019081526020016000208054806020026020016040519081016040528092919081815260200182805480156104a857602002820191906000526020600020905b815481526020019060010190808311610494575b50505050509050919050565b600b5434146104f8576040517f08c379a00000000000000000000000000000000000000000000000000000000081526004016104ef906112b9565b60405180910390fd5b610500610b09565b3373ffffffffffffffffffffffffffffffffffffffff167f1c3899f94ecc08f5f95b67284618b3ca13d80b66fbc5b7f07c6b8bd30f61fcbf60405160405180910390a2565b61054d610bc5565b73ffffffffffffffffffffffffffffffffffffffff1661056b6107aa565b73ffffffffffffffffffffffffffffffffffffffff16146105c1576040517f08c379a00000000000000000000000000000000000000000000000000000000081526004016105b8906112d9565b60405180910390fd5b8060058190555050565b6105d3610bc5565b73ffffffffffffffffffffffffffffffffffffffff166105f16107aa565b73ffffffffffffffffffffffffffffffffffffffff1614610647576040517f08c379a000000000000000000000000000000000000000000000000000000000815260040161063e906112d9565b60405180910390fd5b8060048190555050565b60076020528060005260406000206000915054906101000a900473ffffffffffffffffffffffffffffffffffffffff1681565b61068c610bc5565b73ffffffffffffffffffffffffffffffffffffffff166106aa6107aa565b73ffffffffffffffffffffffffffffffffffffffff1614610700576040517f08c379a00000000000000000000000000000000000000000000000000000000081526004016106f7906112d9565b60405180910390fd5b80600b8190555050565b610712610bc5565b73ffffffffffffffffffffffffffffffffffffffff166107306107aa565b73ffffffffffffffffffffffffffffffffffffffff1614610786576040517f08c379a000000000000000000000000000000000000000000000000000000000815260040161077d906112d9565b60405180910390fd5b6107906000610bcd565b565b600d6020528060005260406000206000915090505481565b60008060009054906101000a900473ffffffffffffffffffffffffffffffffffffffff16905090565b600860205281600052604060002081815481106107ef57600080fd5b90600052602060002001600091509150505481565b60096020528060005260406000206000915090505481565b600a6020528060005260406000206000915090508060000154908060010154908060020154908060030154908060040160009054906101000a900460ff16905085565b600e6020528060005260406000206000915054906101000a900460ff1681565b610887610bc5565b73ffffffffffffffffffffffffffffffffffffffff166108a56107aa565b73ffffffffffffffffffffffffffffffffffffffff16146108fb576040517f08c379a00000000000000000000000000000000000000000000000000000000081526004016108f2906112d9565b60405180910390fd5b8060038190555050565b61090d610bc5565b73ffffffffffffffffffffffffffffffffffffffff1661092b6107aa565b73ffffffffffffffffffffffffffffffffffffffff1614610981576040517f08c379a0000000000000000000000000000000000000000000000000000000008152600401610978906112d9565b60405180910390fd5b8060068190555050565b610993610bc5565b73ffffffffffffffffffffffffffffffffffffffff166109b16107aa565b73ffffffffffffffffffffffffffffffffffffffff1614610a07576040517f08c379a00000000000000000000000000000000000000000000000000000000081526004016109fe906112d9565b60405180910390fd5b80600c8190555050565b610a19610bc5565b73ffffffffffffffffffffffffffffffffffffffff16610a376107aa565b73ffffffffffffffffffffffffffffffffffffffff1614610a8d576040517f08c379a0000000000000000000000000000000000000000000000000000000008152600401610a84906112d9565b60405180910390fd5b600073ffffffffffffffffffffffffffffffffffffffff168173ffffffffffffffffffffffffffffffffffffffff161415610afd576040517f08c379a0000000000000000000000000000000000000000000000000000000008152600401610af490611299565b60405180910390fd5b610b0681610bcd565b50565b60005b600c54811015610b3257610b1f81610c91565b8080610b2a906114c8565b915050610b0c565b50600c54600d60003373ffffffffffffffffffffffffffffffffffffffff1673ffffffffffffffffffffffffffffffffffffffff16815260200190815260200160002054610b8091906113f6565b600d60003373ffffffffffffffffffffffffffffffffffffffff1673ffffffffffffffffffffffffffffffffffffffff16815260200190815260200160002081905550565b600033905090565b60008060009054906101000a900473ffffffffffffffffffffffffffffffffffffffff169050816000806101000a81548173ffffffffffffffffffffffffffffffffffffffff021916908373ffffffffffffffffffffffffffffffffffffffff1602179055508173ffffffffffffffffffffffffffffffffffffffff168173ffffffffffffffffffffffffffffffffffffffff167f8be0079c531659141344cd1fd0a4f28419497f9722a3daafe3b4186f6b6457e060405160405180910390a35050565b6000610c9c82610ee9565b90506000819050600060035483610cb3919061151b565b90506000610cc084610f24565b905060006040518060a00160405280600154815260200184815260200185815260200183815260200160001515815250905080600a600060015481526020019081526020016000206000820151816000015560208201518160010155604082015181600201556060820151816003015560808201518160040160006101000a81548160ff0219169083151502179055509050503373ffffffffffffffffffffffffffffffffffffffff167fa47f2b648fe6fee6023b9227628b751649f165f204c8a6e75d3146aca5b1b8a6600154848688604051610da19493929190611314565b60405180910390a23360076000600154815260200190815260200160002060006101000a81548173ffffffffffffffffffffffffffffffffffffffff021916908373ffffffffffffffffffffffffffffffffffffffff160217905550600860003373ffffffffffffffffffffffffffffffffffffffff1673ffffffffffffffffffffffffffffffffffffffff16815260200190815260200160002060015490806001815401808255809150506001900390600052602060002001600090919091909150556001600860003373ffffffffffffffffffffffffffffffffffffffff1673ffffffffffffffffffffffffffffffffffffffff16815260200190815260200160002080549050610eb4919061144c565b6009600060015481526020019081526020016000208190555060018054610edb91906113f6565b600181905550505050505050565b6000444260025484604051602001610f0494939291906111f3565b6040516020818303038152906040528051906020012060001c9050919050565b60008060065483610f35919061151b565b1415610f445760039050610f87565b600060055483610f54919061151b565b1415610f635760029050610f87565b600060045483610f73919061151b565b1415610f825760019050610f87565b600090505b919050565b600081359050610f9b816115aa565b92915050565b600081359050610fb0816115c1565b92915050565b600060208284031215610fc857600080fd5b6000610fd684828501610f8c565b91505092915050565b60008060408385031215610ff257600080fd5b600061100085828601610f8c565b925050602061101185828601610fa1565b9150509250929050565b60006020828403121561102d57600080fd5b600061103b84828501610fa1565b91505092915050565b600061105083836111be565b60208301905092915050565b61106581611480565b82525050565b6000611076826113bc565b61108081856113d4565b935061108b836113ac565b8060005b838110156110bc5781516110a38882611044565b97506110ae836113c7565b92505060018101905061108f565b5085935050505092915050565b6110d281611492565b82525050565b60006110e56026836113e5565b91507f4f776e61626c653a206e6577206f776e657220697320746865207a65726f206160008301527f64647265737300000000000000000000000000000000000000000000000000006020830152604082019050919050565b600061114b6020836113e5565b91507f56414c55452053454e54204e4f5420455155414c20544f2043415244204645456000830152602082019050919050565b600061118b6020836113e5565b91507f4f776e61626c653a2063616c6c6572206973206e6f7420746865206f776e65726000830152602082019050919050565b6111c7816114be565b82525050565b6111d6816114be565b82525050565b6111ed6111e8826114be565b611511565b82525050565b60006111ff82876111dc565b60208201915061120f82866111dc565b60208201915061121f82856111dc565b60208201915061122f82846111dc565b60208201915081905095945050505050565b6000602082019050611256600083018461105c565b92915050565b60006020820190508181036000830152611276818461106b565b905092915050565b600060208201905061129360008301846110c9565b92915050565b600060208201905081810360008301526112b2816110d8565b9050919050565b600060208201905081810360008301526112d28161113e565b9050919050565b600060208201905081810360008301526112f28161117e565b9050919050565b600060208201905061130e60008301846111cd565b92915050565b600060808201905061132960008301876111cd565b61133660208301866111cd565b61134360408301856111cd565b61135060608301846111cd565b95945050505050565b600060a08201905061136e60008301886111cd565b61137b60208301876111cd565b61138860408301866111cd565b61139560608301856111cd565b6113a260808301846110c9565b9695505050505050565b6000819050602082019050919050565b600081519050919050565b6000602082019050919050565b600082825260208201905092915050565b600082825260208201905092915050565b6000611401826114be565b915061140c836114be565b9250827fffffffffffffffffffffffffffffffffffffffffffffffffffffffffffffffff038211156114415761144061154c565b5b828201905092915050565b6000611457826114be565b9150611462836114be565b9250828210156114755761147461154c565b5b828203905092915050565b600061148b8261149e565b9050919050565b60008115159050919050565b600073ffffffffffffffffffffffffffffffffffffffff82169050919050565b6000819050919050565b60006114d3826114be565b91507fffffffffffffffffffffffffffffffffffffffffffffffffffffffffffffffff8214156115065761150561154c565b5b600182019050919050565b6000819050919050565b6000611526826114be565b9150611531836114be565b9250826115415761154061157b565b5b828206905092915050565b7f4e487b7100000000000000000000000000000000000000000000000000000000600052601160045260246000fd5b7f4e487b7100000000000000000000000000000000000000000000000000000000600052601260045260246000fd5b6115b381611480565b81146115be57600080fd5b50565b6115ca816114be565b81146115d557600080fd5b5056fea2646970667358221220e3bc72ceac2698c3f0ff51ec69015f8a3caedaa39c66cd74a879b650094c70f164736f6c63430008000033",
  "immutableReferences": {},
  "source": "// SPDX-License-Identifier: UNLICENSED\npragma solidity ^0.8.0;\n\nimport \"./card-factory.sol\";\n\ncontract CardPackFactory is CardFactory {\n\n    uint cardPackFee = 0.005 ether;\n    uint cardPackQuantity = 10;\n\n    mapping (address => uint) public ownerCardCount;\n    mapping (address => bool) public existingUser;\n\n    event CardPackPurchased(address indexed owner);\n\n    function purchaseCardPack() external payable {\n        require(msg.value == cardPackFee, \"VALUE SENT NOT EQUAL TO CARD FEE\");\n        _createCardPack();\n        emit CardPackPurchased(msg.sender);\n    }\n\n    function _createCardPack() internal {\n        for(uint i = 0; i < cardPackQuantity; i++) {\n            createCard(i);\n        }\n        ownerCardCount[msg.sender] = ownerCardCount[msg.sender] + cardPackQuantity;\n    }\n\n    function setCardPackQuantity(uint _quantity) external onlyOwner {\n        cardPackQuantity = _quantity;\n    }\n\n    function setCardPackFee(uint _fee) external onlyOwner {\n        cardPackFee = _fee;\n    }\n}",
  "sourcePath": "/Users/tkma4fr/Development/solidity-app/contracts/card-pack-factory.sol",
  "compiler": {
    "name": "solc",
    "version": "0.8.0+commit.c7dfd78e.Emscripten.clang"
  },
  "schemaVersion": "3.4.2",
  "updatedAt": "2021-10-20T23:01:02.888Z",
  "devdoc": {
    "kind": "dev",
    "methods": {
      "owner()": {
        "details": "Returns the address of the current owner."
      },
      "renounceOwnership()": {
        "details": "Leaves the contract without owner. It will not be possible to call `onlyOwner` functions anymore. Can only be called by the current owner. NOTE: Renouncing ownership will leave the contract without an owner, thereby removing any functionality that is only available to the owner."
      },
      "transferOwnership(address)": {
        "details": "Transfers ownership of the contract to a new account (`newOwner`). Can only be called by the current owner."
      }
    },
    "version": 1
  },
  "userdoc": {
    "kind": "user",
    "methods": {},
    "version": 1
  }
}