{
  "contractName": "CardAuction",
  "abi": [
    {
      "anonymous": false,
      "inputs": [
        {
          "indexed": true,
          "internalType": "address",
          "name": "_owner",
          "type": "address"
        },
        {
          "indexed": true,
          "internalType": "address",
          "name": "_approved",
          "type": "address"
        },
        {
          "indexed": true,
          "internalType": "uint256",
          "name": "_tokenId",
          "type": "uint256"
        }
      ],
      "name": "Approval",
      "type": "event"
    },
    {
      "anonymous": false,
      "inputs": [
        {
          "indexed": true,
          "internalType": "address",
          "name": "_owner",
          "type": "address"
        },
        {
          "indexed": true,
          "internalType": "address",
          "name": "_operator",
          "type": "address"
        },
        {
          "indexed": false,
          "internalType": "bool",
          "name": "_approved",
          "type": "bool"
        }
      ],
      "name": "ApprovalForAll",
      "type": "event"
    },
    {
      "anonymous": false,
      "inputs": [
        {
          "indexed": true,
          "internalType": "uint256",
          "name": "auctionId",
          "type": "uint256"
        },
        {
          "indexed": true,
          "internalType": "uint256",
          "name": "cardId",
          "type": "uint256"
        },
        {
          "indexed": false,
          "internalType": "uint256",
          "name": "salePrice",
          "type": "uint256"
        },
        {
          "indexed": true,
          "internalType": "address",
          "name": "to",
          "type": "address"
        },
        {
          "indexed": false,
          "internalType": "bool",
          "name": "completed",
          "type": "bool"
        }
      ],
      "name": "AuctionClosed",
      "type": "event"
    },
    {
      "anonymous": false,
      "inputs": [
        {
          "indexed": true,
          "internalType": "uint256",
          "name": "auctionId",
          "type": "uint256"
        },
        {
          "indexed": true,
          "internalType": "uint256",
          "name": "cardId",
          "type": "uint256"
        },
        {
          "indexed": false,
          "internalType": "uint256",
          "name": "startingBid",
          "type": "uint256"
        },
        {
          "indexed": false,
          "internalType": "uint256",
          "name": "expireDate",
          "type": "uint256"
        },
        {
          "indexed": true,
          "internalType": "address",
          "name": "owner",
          "type": "address"
        }
      ],
      "name": "AuctionOpened",
      "type": "event"
    },
    {
      "anonymous": false,
      "inputs": [
        {
          "indexed": true,
          "internalType": "uint256",
          "name": "auctionId",
          "type": "uint256"
        },
        {
          "indexed": true,
          "internalType": "uint256",
          "name": "cardId",
          "type": "uint256"
        },
        {
          "indexed": false,
          "internalType": "uint256",
          "name": "bid",
          "type": "uint256"
        },
        {
          "indexed": true,
          "internalType": "address",
          "name": "bidder",
          "type": "address"
        }
      ],
      "name": "BidPlaced",
      "type": "event"
    },
    {
      "anonymous": false,
      "inputs": [
        {
          "indexed": false,
          "internalType": "uint256",
          "name": "cardId",
          "type": "uint256"
        },
        {
          "indexed": false,
          "internalType": "uint256",
          "name": "cardType",
          "type": "uint256"
        },
        {
          "indexed": false,
          "internalType": "uint256",
          "name": "playerId",
          "type": "uint256"
        },
        {
          "indexed": false,
          "internalType": "uint256",
          "name": "attributeHash",
          "type": "uint256"
        },
        {
          "indexed": true,
          "internalType": "address",
          "name": "owner",
          "type": "address"
        }
      ],
      "name": "CardCreated",
      "type": "event"
    },
    {
      "anonymous": false,
      "inputs": [
        {
          "indexed": true,
          "internalType": "address",
          "name": "owner",
          "type": "address"
        }
      ],
      "name": "CardPackPurchased",
      "type": "event"
    },
    {
      "anonymous": false,
      "inputs": [
        {
          "indexed": true,
          "internalType": "address",
          "name": "previousOwner",
          "type": "address"
        },
        {
          "indexed": true,
          "internalType": "address",
          "name": "newOwner",
          "type": "address"
        }
      ],
      "name": "OwnershipTransferred",
      "type": "event"
    },
    {
      "anonymous": false,
      "inputs": [
        {
          "indexed": true,
          "internalType": "address",
          "name": "_from",
          "type": "address"
        },
        {
          "indexed": true,
          "internalType": "address",
          "name": "_to",
          "type": "address"
        },
        {
          "indexed": true,
          "internalType": "uint256",
          "name": "_tokenId",
          "type": "uint256"
        }
      ],
      "name": "Transfer",
      "type": "event"
    },
    {
      "inputs": [
        {
          "internalType": "address",
          "name": "_approved",
          "type": "address"
        },
        {
          "internalType": "uint256",
          "name": "_tokenId",
          "type": "uint256"
        }
      ],
      "name": "approve",
      "outputs": [],
      "stateMutability": "payable",
      "type": "function"
    },
    {
      "inputs": [],
      "name": "auctionId",
      "outputs": [
        {
          "internalType": "uint256",
          "name": "",
          "type": "uint256"
        }
      ],
      "stateMutability": "view",
      "type": "function"
    },
    {
      "inputs": [
        {
          "internalType": "uint256",
          "name": "",
          "type": "uint256"
        }
      ],
      "name": "auctionIdToAuction",
      "outputs": [
        {
          "internalType": "uint256",
          "name": "auctionId",
          "type": "uint256"
        },
        {
          "internalType": "uint256",
          "name": "currentBid",
          "type": "uint256"
        },
        {
          "internalType": "address",
          "name": "leadingBidder",
          "type": "address"
        },
        {
          "internalType": "uint256",
          "name": "expireDate",
          "type": "uint256"
        },
        {
          "internalType": "uint256",
          "name": "cardId",
          "type": "uint256"
        },
        {
          "internalType": "uint256",
          "name": "bidCount",
          "type": "uint256"
        }
      ],
      "stateMutability": "view",
      "type": "function"
    },
    {
      "inputs": [
        {
          "internalType": "address",
          "name": "_owner",
          "type": "address"
        }
      ],
      "name": "balanceOf",
      "outputs": [
        {
          "internalType": "uint256",
          "name": "",
          "type": "uint256"
        }
      ],
      "stateMutability": "view",
      "type": "function"
    },
    {
      "inputs": [
        {
          "internalType": "uint256",
          "name": "",
          "type": "uint256"
        }
      ],
      "name": "cardIdToCard",
      "outputs": [
        {
          "internalType": "uint256",
          "name": "cardId",
          "type": "uint256"
        },
        {
          "internalType": "uint256",
          "name": "playerId",
          "type": "uint256"
        },
        {
          "internalType": "uint256",
          "name": "attributeHash",
          "type": "uint256"
        },
        {
          "internalType": "uint256",
          "name": "cardType",
          "type": "uint256"
        },
        {
          "internalType": "bool",
          "name": "inUse",
          "type": "bool"
        }
      ],
      "stateMutability": "view",
      "type": "function"
    },
    {
      "inputs": [
        {
          "internalType": "uint256",
          "name": "",
          "type": "uint256"
        }
      ],
      "name": "cardIdToOwner",
      "outputs": [
        {
          "internalType": "address",
          "name": "",
          "type": "address"
        }
      ],
      "stateMutability": "view",
      "type": "function"
    },
    {
      "inputs": [
        {
          "internalType": "uint256",
          "name": "",
          "type": "uint256"
        }
      ],
      "name": "cardIsAtIndex",
      "outputs": [
        {
          "internalType": "uint256",
          "name": "",
          "type": "uint256"
        }
      ],
      "stateMutability": "view",
      "type": "function"
    },
    {
      "inputs": [
        {
          "internalType": "uint256",
          "name": "",
          "type": "uint256"
        }
      ],
      "name": "cardIsForSale",
      "outputs": [
        {
          "internalType": "bool",
          "name": "",
          "type": "bool"
        }
      ],
      "stateMutability": "view",
      "type": "function"
    },
    {
      "inputs": [
        {
          "internalType": "uint256",
          "name": "",
          "type": "uint256"
        }
      ],
      "name": "cardToAuctionId",
      "outputs": [
        {
          "internalType": "uint256",
          "name": "",
          "type": "uint256"
        }
      ],
      "stateMutability": "view",
      "type": "function"
    },
    {
      "inputs": [
        {
          "internalType": "address",
          "name": "",
          "type": "address"
        }
      ],
      "name": "existingUser",
      "outputs": [
        {
          "internalType": "bool",
          "name": "",
          "type": "bool"
        }
      ],
      "stateMutability": "view",
      "type": "function"
    },
    {
      "inputs": [
        {
          "internalType": "uint256",
          "name": "_tokenId",
          "type": "uint256"
        }
      ],
      "name": "getApproved",
      "outputs": [
        {
          "internalType": "address",
          "name": "",
          "type": "address"
        }
      ],
      "stateMutability": "view",
      "type": "function"
    },
    {
      "inputs": [
        {
          "internalType": "address",
          "name": "_address",
          "type": "address"
        }
      ],
      "name": "getUserOwnedCards",
      "outputs": [
        {
          "internalType": "uint256[]",
          "name": "",
          "type": "uint256[]"
        }
      ],
      "stateMutability": "view",
      "type": "function"
    },
    {
      "inputs": [
        {
          "internalType": "address",
          "name": "_owner",
          "type": "address"
        },
        {
          "internalType": "address",
          "name": "_operator",
          "type": "address"
        }
      ],
      "name": "isApprovedForAll",
      "outputs": [
        {
          "internalType": "bool",
          "name": "",
          "type": "bool"
        }
      ],
      "stateMutability": "view",
      "type": "function"
    },
    {
      "inputs": [],
      "name": "maxAuctionDuration",
      "outputs": [
        {
          "internalType": "uint256",
          "name": "",
          "type": "uint256"
        }
      ],
      "stateMutability": "view",
      "type": "function"
    },
    {
      "inputs": [
        {
          "internalType": "address",
          "name": "_to",
          "type": "address"
        },
        {
          "internalType": "uint256",
          "name": "_playerId",
          "type": "uint256"
        },
        {
          "internalType": "uint256",
          "name": "_type",
          "type": "uint256"
        },
        {
          "internalType": "uint256",
          "name": "_attributes",
          "type": "uint256"
        }
      ],
      "name": "mintCustomCard",
      "outputs": [],
      "stateMutability": "nonpayable",
      "type": "function"
    },
    {
      "inputs": [],
      "name": "owner",
      "outputs": [
        {
          "internalType": "address",
          "name": "",
          "type": "address"
        }
      ],
      "stateMutability": "view",
      "type": "function"
    },
    {
      "inputs": [
        {
          "internalType": "address",
          "name": "",
          "type": "address"
        }
      ],
      "name": "ownerCardCount",
      "outputs": [
        {
          "internalType": "uint256",
          "name": "",
          "type": "uint256"
        }
      ],
      "stateMutability": "view",
      "type": "function"
    },
    {
      "inputs": [
        {
          "internalType": "uint256",
          "name": "_tokenId",
          "type": "uint256"
        }
      ],
      "name": "ownerOf",
      "outputs": [
        {
          "internalType": "address",
          "name": "",
          "type": "address"
        }
      ],
      "stateMutability": "view",
      "type": "function"
    },
    {
      "inputs": [],
      "name": "purchaseCardPack",
      "outputs": [],
      "stateMutability": "payable",
      "type": "function"
    },
    {
      "inputs": [],
      "name": "renounceOwnership",
      "outputs": [],
      "stateMutability": "nonpayable",
      "type": "function"
    },
    {
      "inputs": [
        {
          "internalType": "address",
          "name": "_from",
          "type": "address"
        },
        {
          "internalType": "address",
          "name": "_to",
          "type": "address"
        },
        {
          "internalType": "uint256",
          "name": "_tokenId",
          "type": "uint256"
        }
      ],
      "name": "safeTransferFrom",
      "outputs": [],
      "stateMutability": "payable",
      "type": "function"
    },
    {
      "inputs": [
        {
          "internalType": "address",
          "name": "_from",
          "type": "address"
        },
        {
          "internalType": "address",
          "name": "_to",
          "type": "address"
        },
        {
          "internalType": "uint256",
          "name": "_tokenId",
          "type": "uint256"
        },
        {
          "internalType": "bytes",
          "name": "_data",
          "type": "bytes"
        }
      ],
      "name": "safeTransferFrom",
      "outputs": [],
      "stateMutability": "payable",
      "type": "function"
    },
    {
      "inputs": [
        {
          "internalType": "address",
          "name": "_operator",
          "type": "address"
        },
        {
          "internalType": "bool",
          "name": "_approved",
          "type": "bool"
        }
      ],
      "name": "setApprovalForAll",
      "outputs": [],
      "stateMutability": "nonpayable",
      "type": "function"
    },
    {
      "inputs": [
        {
          "internalType": "uint256",
          "name": "_fee",
          "type": "uint256"
        }
      ],
      "name": "setCardPackFee",
      "outputs": [],
      "stateMutability": "nonpayable",
      "type": "function"
    },
    {
      "inputs": [
        {
          "internalType": "uint256",
          "name": "_quantity",
          "type": "uint256"
        }
      ],
      "name": "setCardPackQuantity",
      "outputs": [],
      "stateMutability": "nonpayable",
      "type": "function"
    },
    {
      "inputs": [
        {
          "internalType": "uint256",
          "name": "_newOdds",
          "type": "uint256"
        }
      ],
      "name": "setExotixCardOdds",
      "outputs": [],
      "stateMutability": "nonpayable",
      "type": "function"
    },
    {
      "inputs": [
        {
          "internalType": "uint256",
          "name": "_newOdds",
          "type": "uint256"
        }
      ],
      "name": "setLegendaryCardOdds",
      "outputs": [],
      "stateMutability": "nonpayable",
      "type": "function"
    },
    {
      "inputs": [
        {
          "internalType": "address",
          "name": "_newOwner",
          "type": "address"
        }
      ],
      "name": "setOwner",
      "outputs": [],
      "stateMutability": "nonpayable",
      "type": "function"
    },
    {
      "inputs": [
        {
          "internalType": "uint256",
          "name": "_newOdds",
          "type": "uint256"
        }
      ],
      "name": "setRareCardOdds",
      "outputs": [],
      "stateMutability": "nonpayable",
      "type": "function"
    },
    {
      "inputs": [
        {
          "internalType": "uint256",
          "name": "_count",
          "type": "uint256"
        }
      ],
      "name": "setTotalPlayers",
      "outputs": [],
      "stateMutability": "nonpayable",
      "type": "function"
    },
    {
      "inputs": [
        {
          "internalType": "address",
          "name": "_from",
          "type": "address"
        },
        {
          "internalType": "address",
          "name": "_to",
          "type": "address"
        },
        {
          "internalType": "uint256",
          "name": "_tokenId",
          "type": "uint256"
        }
      ],
      "name": "transferFrom",
      "outputs": [],
      "stateMutability": "payable",
      "type": "function"
    },
    {
      "inputs": [
        {
          "internalType": "address",
          "name": "newOwner",
          "type": "address"
        }
      ],
      "name": "transferOwnership",
      "outputs": [],
      "stateMutability": "nonpayable",
      "type": "function"
    },
    {
      "inputs": [
        {
          "internalType": "address",
          "name": "",
          "type": "address"
        },
        {
          "internalType": "uint256",
          "name": "",
          "type": "uint256"
        }
      ],
      "name": "userOwnedCards",
      "outputs": [
        {
          "internalType": "uint256",
          "name": "",
          "type": "uint256"
        }
      ],
      "stateMutability": "view",
      "type": "function"
    },
    {
      "inputs": [
        {
          "internalType": "uint256",
          "name": "amount",
          "type": "uint256"
        }
      ],
      "name": "withdraw",
      "outputs": [],
      "stateMutability": "nonpayable",
      "type": "function"
    },
    {
      "inputs": [
        {
          "internalType": "uint256",
          "name": "_cardId",
          "type": "uint256"
        },
        {
          "internalType": "uint256",
          "name": "_startingBid",
          "type": "uint256"
        },
        {
          "internalType": "uint256",
          "name": "_duration",
          "type": "uint256"
        }
      ],
      "name": "createCardAuction",
      "outputs": [],
      "stateMutability": "nonpayable",
      "type": "function"
    },
    {
      "inputs": [
        {
          "internalType": "uint256",
          "name": "_cardId",
          "type": "uint256"
        }
      ],
      "name": "placeBid",
      "outputs": [],
      "stateMutability": "payable",
      "type": "function"
    },
    {
      "inputs": [
        {
          "internalType": "uint256",
          "name": "_cardId",
          "type": "uint256"
        }
      ],
      "name": "endAuction",
      "outputs": [],
      "stateMutability": "nonpayable",
      "type": "function"
    },
    {
      "inputs": [
        {
          "internalType": "uint256",
          "name": "_cardId",
          "type": "uint256"
        }
      ],
      "name": "cancelAuction",
      "outputs": [],
      "stateMutability": "nonpayable",
      "type": "function"
    }
  ],
  "bytecode": "0x6080604052600060025560bd6003556611c37937e08000600855600a6009556003600a556019600b556064600c55733bff843835cabb198912e10629843fc65e336c84600f60006101000a81548173ffffffffffffffffffffffffffffffffffffffff021916908373ffffffffffffffffffffffffffffffffffffffff16021790555062093a8060125560016013553480156200009b57600080fd5b50620000bc620000b0620000c260201b60201c565b620000ca60201b60201c565b6200018e565b600033905090565b60008060009054906101000a900473ffffffffffffffffffffffffffffffffffffffff169050816000806101000a81548173ffffffffffffffffffffffffffffffffffffffff021916908373ffffffffffffffffffffffffffffffffffffffff1602179055508173ffffffffffffffffffffffffffffffffffffffff168173ffffffffffffffffffffffffffffffffffffffff167f8be0079c531659141344cd1fd0a4f28419497f9722a3daafe3b4186f6b6457e060405160405180910390a35050565b614ad5806200019e6000396000f3fe6080604052600436106102255760003560e01c8063828c730c11610123578063a3d2065f116100ab578063c75f384b1161006f578063c75f384b14610814578063e25d13a81461083d578063e985e9c514610866578063f2fde38b146108a3578063feb2c4df146108cc57610225565b8063a3d2065f1461072c578063a6e156c614610769578063b780acc5146107a6578063b88d4fde146107cf578063b9a2de3a146107eb57610225565b80639aa6c9ff116100f25780639aa6c9ff1461060b5780639b3ce46e146106485780639bf822e314610685578063a0dd6b34146106c2578063a22cb4651461070357610225565b8063828c730c146105725780638da5cb5b1461059b57806396b5a755146105c65780639979ef45146105ef57610225565b806336185bdf116101b1578063552788da11610175578063552788da1461047b5780636352211e146104a457806370a08231146104e1578063715018a61461051e578063804c4b251461053557610225565b806336185bdf146103a557806341845a14146103ce57806341994140146103f757806342842e0e1461043457806348c9581e1461045057610225565b806313af4035116101f857806313af4035146102f057806319a355671461031957806323b872dd146103565780632cfae8d3146103725780632e1a7d4d1461037c57610225565b8063025483761461022a578063081812fc1461026c578063095ea7b3146102a957806310782f8f146102c5575b600080fd5b34801561023657600080fd5b50610251600480360381019061024c9190613ca0565b6108f5565b604051610263969594939291906146c0565b60405180910390f35b34801561027857600080fd5b50610293600480360381019061028e9190613ca0565b610951565b6040516102a0919061436f565b60405180910390f35b6102c360048036038101906102be9190613bd8565b610a33565b005b3480156102d157600080fd5b506102da610d2e565b6040516102e79190614653565b60405180910390f35b3480156102fc57600080fd5b5061031760048036038101906103129190613a68565b610d34565b005b34801561032557600080fd5b50610340600480360381019061033b9190613a68565b610df4565b60405161034d91906143d6565b60405180910390f35b610370600480360381019061036b9190613acd565b610e8b565b005b61037a6110ad565b005b34801561038857600080fd5b506103a3600480360381019061039e9190613ca0565b61113e565b005b3480156103b157600080fd5b506103cc60048036038101906103c79190613ca0565b61122c565b005b3480156103da57600080fd5b506103f560048036038101906103f09190613ca0565b6112b2565b005b34801561040357600080fd5b5061041e60048036038101906104199190613ca0565b611338565b60405161042b919061436f565b60405180910390f35b61044e60048036038101906104499190613acd565b61136b565b005b34801561045c57600080fd5b5061046561138b565b6040516104729190614653565b60405180910390f35b34801561048757600080fd5b506104a2600480360381019061049d9190613ca0565b611391565b005b3480156104b057600080fd5b506104cb60048036038101906104c69190613ca0565b611417565b6040516104d8919061436f565b60405180910390f35b3480156104ed57600080fd5b5061050860048036038101906105039190613a68565b611454565b6040516105159190614653565b60405180910390f35b34801561052a57600080fd5b5061053361149d565b005b34801561054157600080fd5b5061055c60048036038101906105579190613a68565b611525565b6040516105699190614653565b60405180910390f35b34801561057e57600080fd5b5061059960048036038101906105949190613c14565b61153d565b005b3480156105a757600080fd5b506105b06115ed565b6040516105bd919061436f565b60405180910390f35b3480156105d257600080fd5b506105ed60048036038101906105e89190613ca0565b611616565b005b61060960048036038101906106049190613ca0565b61187e565b005b34801561061757600080fd5b50610632600480360381019061062d9190613ca0565b611c26565b60405161063f9190614653565b60405180910390f35b34801561065457600080fd5b5061066f600480360381019061066a9190613bd8565b611c3e565b60405161067c9190614653565b60405180910390f35b34801561069157600080fd5b506106ac60048036038101906106a79190613ca0565b611c6f565b6040516106b99190614653565b60405180910390f35b3480156106ce57600080fd5b506106e960048036038101906106e49190613ca0565b611c87565b6040516106fa959493929190614766565b60405180910390f35b34801561070f57600080fd5b5061072a60048036038101906107259190613b9c565b611cca565b005b34801561073857600080fd5b50610753600480360381019061074e9190613a68565b611dc7565b60405161076091906143f8565b60405180910390f35b34801561077557600080fd5b50610790600480360381019061078b9190613ca0565b611de7565b60405161079d91906143f8565b60405180910390f35b3480156107b257600080fd5b506107cd60048036038101906107c89190613ca0565b611e07565b005b6107e960048036038101906107e49190613b1c565b611e8d565b005b3480156107f757600080fd5b50610812600480360381019061080d9190613ca0565b611ee4565b005b34801561082057600080fd5b5061083b60048036038101906108369190613ca0565b6121eb565b005b34801561084957600080fd5b50610864600480360381019061085f9190613ca0565b612271565b005b34801561087257600080fd5b5061088d60048036038101906108889190613a91565b6122f7565b60405161089a91906143f8565b60405180910390f35b3480156108af57600080fd5b506108ca60048036038101906108c59190613a68565b61238b565b005b3480156108d857600080fd5b506108f360048036038101906108ee9190613cc9565b612483565b005b60166020528060005260406000206000915090508060000154908060010154908060020160009054906101000a900473ffffffffffffffffffffffffffffffffffffffff16908060030154908060040154908060050154905086565b600081600073ffffffffffffffffffffffffffffffffffffffff166004600083815260200190815260200160002060009054906101000a900473ffffffffffffffffffffffffffffffffffffffff1673ffffffffffffffffffffffffffffffffffffffff1614156109f7576040517f08c379a00000000000000000000000000000000000000000000000000000000081526004016109ee90614473565b60405180910390fd5b6010600084815260200190815260200160002060009054906101000a900473ffffffffffffffffffffffffffffffffffffffff16915050919050565b8060006004600083815260200190815260200160002060009054906101000a900473ffffffffffffffffffffffffffffffffffffffff1690503373ffffffffffffffffffffffffffffffffffffffff168173ffffffffffffffffffffffffffffffffffffffff161480610b2c5750601160008273ffffffffffffffffffffffffffffffffffffffff1673ffffffffffffffffffffffffffffffffffffffff16815260200190815260200160002060003373ffffffffffffffffffffffffffffffffffffffff1673ffffffffffffffffffffffffffffffffffffffff16815260200190815260200160002060009054906101000a900460ff165b610b3557600080fd5b82600073ffffffffffffffffffffffffffffffffffffffff166004600083815260200190815260200160002060009054906101000a900473ffffffffffffffffffffffffffffffffffffffff1673ffffffffffffffffffffffffffffffffffffffff161415610bd9576040517f08c379a0000000000000000000000000000000000000000000000000000000008152600401610bd090614473565b60405180910390fd5b6004600085815260200190815260200160002060009054906101000a900473ffffffffffffffffffffffffffffffffffffffff1673ffffffffffffffffffffffffffffffffffffffff163373ffffffffffffffffffffffffffffffffffffffff1614610c7a576040517f08c379a0000000000000000000000000000000000000000000000000000000008152600401610c71906145f3565b60405180910390fd5b846010600086815260200190815260200160002060006101000a81548173ffffffffffffffffffffffffffffffffffffffff021916908373ffffffffffffffffffffffffffffffffffffffff160217905550838573ffffffffffffffffffffffffffffffffffffffff163373ffffffffffffffffffffffffffffffffffffffff167f8c5be1e5ebec7d5bd14f71427d1e84f3dd0314c0f7b2291e5b200ac8c7c3b92560405160405180910390a45050505050565b60135481565b610d3c61280f565b73ffffffffffffffffffffffffffffffffffffffff16610d5a6115ed565b73ffffffffffffffffffffffffffffffffffffffff1614610db0576040517f08c379a0000000000000000000000000000000000000000000000000000000008152600401610da790614553565b60405180910390fd5b80600f60006101000a81548173ffffffffffffffffffffffffffffffffffffffff021916908373ffffffffffffffffffffffffffffffffffffffff16021790555050565b6060600560008373ffffffffffffffffffffffffffffffffffffffff1673ffffffffffffffffffffffffffffffffffffffff168152602001908152602001600020805480602002602001604051908101604052809291908181526020018280548015610e7f57602002820191906000526020600020905b815481526020019060010190808311610e6b575b50505050509050919050565b8060006004600083815260200190815260200160002060009054906101000a900473ffffffffffffffffffffffffffffffffffffffff1690503373ffffffffffffffffffffffffffffffffffffffff168173ffffffffffffffffffffffffffffffffffffffff161480610f5c57503373ffffffffffffffffffffffffffffffffffffffff166010600084815260200190815260200160002060009054906101000a900473ffffffffffffffffffffffffffffffffffffffff1673ffffffffffffffffffffffffffffffffffffffff16145b80610fed5750601160008273ffffffffffffffffffffffffffffffffffffffff1673ffffffffffffffffffffffffffffffffffffffff16815260200190815260200160002060003373ffffffffffffffffffffffffffffffffffffffff1673ffffffffffffffffffffffffffffffffffffffff16815260200190815260200160002060009054906101000a900460ff165b610ff657600080fd5b82600073ffffffffffffffffffffffffffffffffffffffff166004600083815260200190815260200160002060009054906101000a900473ffffffffffffffffffffffffffffffffffffffff1673ffffffffffffffffffffffffffffffffffffffff16141561109a576040517f08c379a000000000000000000000000000000000000000000000000000000000815260040161109190614473565b60405180910390fd5b6110a5868686612817565b505050505050565b60085434146110f1576040517f08c379a00000000000000000000000000000000000000000000000000000000081526004016110e890614493565b60405180910390fd5b6110f9612aa4565b3373ffffffffffffffffffffffffffffffffffffffff167f1c3899f94ecc08f5f95b67284618b3ca13d80b66fbc5b7f07c6b8bd30f61fcbf60405160405180910390a2565b61114661280f565b73ffffffffffffffffffffffffffffffffffffffff166111646115ed565b73ffffffffffffffffffffffffffffffffffffffff16146111ba576040517f08c379a00000000000000000000000000000000000000000000000000000000081526004016111b190614553565b60405180910390fd5b6000600f60009054906101000a900473ffffffffffffffffffffffffffffffffffffffff1690508073ffffffffffffffffffffffffffffffffffffffff166108fc839081150290604051600060405180830381858888f19350505050158015611227573d6000803e3d6000fd5b505050565b61123461280f565b73ffffffffffffffffffffffffffffffffffffffff166112526115ed565b73ffffffffffffffffffffffffffffffffffffffff16146112a8576040517f08c379a000000000000000000000000000000000000000000000000000000000815260040161129f90614553565b60405180910390fd5b80600b8190555050565b6112ba61280f565b73ffffffffffffffffffffffffffffffffffffffff166112d86115ed565b73ffffffffffffffffffffffffffffffffffffffff161461132e576040517f08c379a000000000000000000000000000000000000000000000000000000000815260040161132590614553565b60405180910390fd5b80600a8190555050565b60046020528060005260406000206000915054906101000a900473ffffffffffffffffffffffffffffffffffffffff1681565b61138683838360405180602001604052806000815250612b75565b505050565b60125481565b61139961280f565b73ffffffffffffffffffffffffffffffffffffffff166113b76115ed565b73ffffffffffffffffffffffffffffffffffffffff161461140d576040517f08c379a000000000000000000000000000000000000000000000000000000000815260040161140490614553565b60405180910390fd5b8060088190555050565b60006004600083815260200190815260200160002060009054906101000a900473ffffffffffffffffffffffffffffffffffffffff169050919050565b6000600d60008373ffffffffffffffffffffffffffffffffffffffff1673ffffffffffffffffffffffffffffffffffffffff168152602001908152602001600020549050919050565b6114a561280f565b73ffffffffffffffffffffffffffffffffffffffff166114c36115ed565b73ffffffffffffffffffffffffffffffffffffffff1614611519576040517f08c379a000000000000000000000000000000000000000000000000000000000815260040161151090614553565b60405180910390fd5b6115236000612f4a565b565b600d6020528060005260406000206000915090505481565b61154561280f565b73ffffffffffffffffffffffffffffffffffffffff166115636115ed565b73ffffffffffffffffffffffffffffffffffffffff16146115b9576040517f08c379a00000000000000000000000000000000000000000000000000000000081526004016115b090614553565b60405180910390fd5b60006115c684848461300e565b90506115d28582613103565b600180546115e0919061481f565b6001819055505050505050565b60008060009054906101000a900473ffffffffffffffffffffffffffffffffffffffff16905090565b8060006004600083815260200190815260200160002060009054906101000a900473ffffffffffffffffffffffffffffffffffffffff1690503373ffffffffffffffffffffffffffffffffffffffff168173ffffffffffffffffffffffffffffffffffffffff16146116bd576040517f08c379a00000000000000000000000000000000000000000000000000000000081526004016116b4906145d3565b60405180910390fd5b600060166000601560008781526020019081526020016000205481526020019081526020016000206040518060c001604052908160008201548152602001600182015481526020016002820160009054906101000a900473ffffffffffffffffffffffffffffffffffffffff1673ffffffffffffffffffffffffffffffffffffffff1673ffffffffffffffffffffffffffffffffffffffff16815260200160038201548152602001600482015481526020016005820154815250509050600073ffffffffffffffffffffffffffffffffffffffff16816040015173ffffffffffffffffffffffffffffffffffffffff16146117ed576040517f08c379a00000000000000000000000000000000000000000000000000000000081526004016117e490614433565b60405180910390fd5b42816060015111611833576040517f08c379a000000000000000000000000000000000000000000000000000000000815260040161182a90614633565b60405180910390fd5b60006014600086815260200190815260200160002060006101000a81548160ff0219169083151502179055506000601560008681526020019081526020016000208190555050505050565b600060166000601560008581526020019081526020016000205481526020019081526020016000206040518060c001604052908160008201548152602001600182015481526020016002820160009054906101000a900473ffffffffffffffffffffffffffffffffffffffff1673ffffffffffffffffffffffffffffffffffffffff1673ffffffffffffffffffffffffffffffffffffffff168152602001600382015481526020016004820154815260200160058201548152505090503373ffffffffffffffffffffffffffffffffffffffff166004600084815260200190815260200160002060009054906101000a900473ffffffffffffffffffffffffffffffffffffffff1673ffffffffffffffffffffffffffffffffffffffff1614156119dd576040517f08c379a00000000000000000000000000000000000000000000000000000000081526004016119d490614533565b60405180910390fd5b6014600083815260200190815260200160002060009054906101000a900460ff16611a3d576040517f08c379a0000000000000000000000000000000000000000000000000000000008152600401611a34906144d3565b60405180910390fd5b80602001513411611a83576040517f08c379a0000000000000000000000000000000000000000000000000000000008152600401611a7a906144b3565b60405180910390fd5b600081604001519050600073ffffffffffffffffffffffffffffffffffffffff168173ffffffffffffffffffffffffffffffffffffffff1614611b0c578073ffffffffffffffffffffffffffffffffffffffff166108fc83602001519081150290604051600060405180830381858888f19350505050158015611b0a573d6000803e3d6000fd5b505b33601660008460000151815260200190815260200160002060020160006101000a81548173ffffffffffffffffffffffffffffffffffffffff021916908373ffffffffffffffffffffffffffffffffffffffff160217905550346016600084600001518152602001908152602001600020600101819055506001601660008460000151815260200190815260200160002060050154611bab919061481f565b6016600084600001518152602001908152602001600020600501819055503373ffffffffffffffffffffffffffffffffffffffff16826080015183600001517f379fe8bc550443c6867a021184bb0e5a961f3fcd271160873847410c7bdd0e2834604051611c199190614653565b60405180910390a4505050565b60156020528060005260406000206000915090505481565b60056020528160005260406000208181548110611c5a57600080fd5b90600052602060002001600091509150505481565b60066020528060005260406000206000915090505481565b60076020528060005260406000206000915090508060000154908060010154908060020154908060030154908060040160009054906101000a900460ff16905085565b80601160003373ffffffffffffffffffffffffffffffffffffffff1673ffffffffffffffffffffffffffffffffffffffff16815260200190815260200160002060008473ffffffffffffffffffffffffffffffffffffffff1673ffffffffffffffffffffffffffffffffffffffff16815260200190815260200160002060006101000a81548160ff0219169083151502179055508173ffffffffffffffffffffffffffffffffffffffff163373ffffffffffffffffffffffffffffffffffffffff167f17307eab39ab6107e8899845ad3d59bd9653f200f220920489ca2b5937696c3183604051611dbb91906143f8565b60405180910390a35050565b600e6020528060005260406000206000915054906101000a900460ff1681565b60146020528060005260406000206000915054906101000a900460ff1681565b611e0f61280f565b73ffffffffffffffffffffffffffffffffffffffff16611e2d6115ed565b73ffffffffffffffffffffffffffffffffffffffff1614611e83576040517f08c379a0000000000000000000000000000000000000000000000000000000008152600401611e7a90614553565b60405180910390fd5b8060038190555050565b611edd85858585858080601f016020809104026020016040519081016040528093929190818152602001838380828437600081840152601f19601f82011690508083019250505050505050612b75565b5050505050565b8060006004600083815260200190815260200160002060009054906101000a900473ffffffffffffffffffffffffffffffffffffffff1690503373ffffffffffffffffffffffffffffffffffffffff168173ffffffffffffffffffffffffffffffffffffffff1614611f8b576040517f08c379a0000000000000000000000000000000000000000000000000000000008152600401611f82906145d3565b60405180910390fd5b600060166000601560008781526020019081526020016000205481526020019081526020016000206040518060c001604052908160008201548152602001600182015481526020016002820160009054906101000a900473ffffffffffffffffffffffffffffffffffffffff1673ffffffffffffffffffffffffffffffffffffffff1673ffffffffffffffffffffffffffffffffffffffff16815260200160038201548152602001600482015481526020016005820154815250509050428160600151111561208f576040517f08c379a000000000000000000000000000000000000000000000000000000000815260040161208690614413565b60405180910390fd5b600073ffffffffffffffffffffffffffffffffffffffff16816040015173ffffffffffffffffffffffffffffffffffffffff16146120db576120da84826040015183602001516133c6565b5b806040015173ffffffffffffffffffffffffffffffffffffffff16816080015182600001517f774455444039da9400b7ba984f8cc1d8ac5e70c742d01a325cc97979802c15248460200151600073ffffffffffffffffffffffffffffffffffffffff16866040015173ffffffffffffffffffffffffffffffffffffffff16141560405161216992919061466e565b60405180910390a460006014600086815260200190815260200160002060006101000a81548160ff02191690831515021790555060006007600086815260200190815260200160002060040160006101000a81548160ff0219169083151502179055506000601560008681526020019081526020016000208190555050505050565b6121f361280f565b73ffffffffffffffffffffffffffffffffffffffff166122116115ed565b73ffffffffffffffffffffffffffffffffffffffff1614612267576040517f08c379a000000000000000000000000000000000000000000000000000000000815260040161225e90614553565b60405180910390fd5b80600c8190555050565b61227961280f565b73ffffffffffffffffffffffffffffffffffffffff166122976115ed565b73ffffffffffffffffffffffffffffffffffffffff16146122ed576040517f08c379a00000000000000000000000000000000000000000000000000000000081526004016122e490614553565b60405180910390fd5b8060098190555050565b6000601160008473ffffffffffffffffffffffffffffffffffffffff1673ffffffffffffffffffffffffffffffffffffffff16815260200190815260200160002060008373ffffffffffffffffffffffffffffffffffffffff1673ffffffffffffffffffffffffffffffffffffffff16815260200190815260200160002060009054906101000a900460ff16905092915050565b61239361280f565b73ffffffffffffffffffffffffffffffffffffffff166123b16115ed565b73ffffffffffffffffffffffffffffffffffffffff1614612407576040517f08c379a00000000000000000000000000000000000000000000000000000000081526004016123fe90614553565b60405180910390fd5b600073ffffffffffffffffffffffffffffffffffffffff168173ffffffffffffffffffffffffffffffffffffffff161415612477576040517f08c379a000000000000000000000000000000000000000000000000000000000815260040161246e90614453565b60405180910390fd5b61248081612f4a565b50565b806012548111156124c9576040517f08c379a00000000000000000000000000000000000000000000000000000000081526004016124c090614573565b60405180910390fd5b8360006004600083815260200190815260200160002060009054906101000a900473ffffffffffffffffffffffffffffffffffffffff1690503373ffffffffffffffffffffffffffffffffffffffff168173ffffffffffffffffffffffffffffffffffffffff1614612570576040517f08c379a0000000000000000000000000000000000000000000000000000000008152600401612567906145d3565b60405180910390fd5b6014600087815260200190815260200160002060009054906101000a900460ff16156125d1576040517f08c379a00000000000000000000000000000000000000000000000000000000081526004016125c890614593565b60405180910390fd5b6007600087815260200190815260200160002060040160009054906101000a900460ff1615612635576040517f08c379a000000000000000000000000000000000000000000000000000000000815260040161262c90614613565b60405180910390fd5b60006040518060c001604052806013548152602001878152602001600073ffffffffffffffffffffffffffffffffffffffff1681526020018642612679919061481f565b81526020018881526020016000815250905080601660006013548152602001908152602001600020600082015181600001556020820151816001015560408201518160020160006101000a81548173ffffffffffffffffffffffffffffffffffffffff021916908373ffffffffffffffffffffffffffffffffffffffff160217905550606082015181600301556080820151816004015560a0820151816005015590505060016007600089815260200190815260200160002060040160006101000a81548160ff021916908315150217905550601354601560008981526020019081526020016000208190555060016014600089815260200190815260200160002060006101000a81548160ff0219169083151502179055503373ffffffffffffffffffffffffffffffffffffffff16876013547f7dfee34cc48a7ad6a025da536d05885e750c439dbd20d390192dec1f2f4c04708989426127db919061481f565b6040516127e9929190614697565b60405180910390a46001601354612800919061481f565b60138190555050505050505050565b600033905090565b6010600082815260200190815260200160002060006101000a81549073ffffffffffffffffffffffffffffffffffffffff021916905560006006600083815260200190815260200160002054905066038d7ea4c67fff600560006004600086815260200190815260200160002060009054906101000a900473ffffffffffffffffffffffffffffffffffffffff1673ffffffffffffffffffffffffffffffffffffffff1673ffffffffffffffffffffffffffffffffffffffff1681526020019081526020016000208281548110612917577f4e487b7100000000000000000000000000000000000000000000000000000000600052603260045260246000fd5b9060005260206000200181905550826004600084815260200190815260200160002060006101000a81548173ffffffffffffffffffffffffffffffffffffffff021916908373ffffffffffffffffffffffffffffffffffffffff160217905550600560008473ffffffffffffffffffffffffffffffffffffffff1673ffffffffffffffffffffffffffffffffffffffff1681526020019081526020016000208290806001815401808255809150506001900390600052602060002001600090919091909150556001600560008573ffffffffffffffffffffffffffffffffffffffff1673ffffffffffffffffffffffffffffffffffffffff16815260200190815260200160002080549050612a2c9190614875565b6006600084815260200190815260200160002081905550818373ffffffffffffffffffffffffffffffffffffffff168573ffffffffffffffffffffffffffffffffffffffff167fddf252ad1be2c89b69c2b068fc378daa952ba7f163c4a11628f55a4df523b3ef60405160405180910390a450505050565b6000612ab4600c54826003613642565b9050612ac4600b54826002613642565b9050612ad4600a54826001613642565b9050612ae2816009546136b7565b600954600d60003373ffffffffffffffffffffffffffffffffffffffff1673ffffffffffffffffffffffffffffffffffffffff16815260200190815260200160002054612b2f919061481f565b600d60003373ffffffffffffffffffffffffffffffffffffffff1673ffffffffffffffffffffffffffffffffffffffff1681526020019081526020016000208190555050565b8160006004600083815260200190815260200160002060009054906101000a900473ffffffffffffffffffffffffffffffffffffffff1690503373ffffffffffffffffffffffffffffffffffffffff168173ffffffffffffffffffffffffffffffffffffffff161480612c4657503373ffffffffffffffffffffffffffffffffffffffff166010600084815260200190815260200160002060009054906101000a900473ffffffffffffffffffffffffffffffffffffffff1673ffffffffffffffffffffffffffffffffffffffff16145b80612cd75750601160008273ffffffffffffffffffffffffffffffffffffffff1673ffffffffffffffffffffffffffffffffffffffff16815260200190815260200160002060003373ffffffffffffffffffffffffffffffffffffffff1673ffffffffffffffffffffffffffffffffffffffff16815260200190815260200160002060009054906101000a900460ff165b612ce057600080fd5b83600073ffffffffffffffffffffffffffffffffffffffff166004600083815260200190815260200160002060009054906101000a900473ffffffffffffffffffffffffffffffffffffffff1673ffffffffffffffffffffffffffffffffffffffff161415612d84576040517f08c379a0000000000000000000000000000000000000000000000000000000008152600401612d7b90614473565b60405180910390fd5b600073ffffffffffffffffffffffffffffffffffffffff168673ffffffffffffffffffffffffffffffffffffffff161415612df4576040517f08c379a0000000000000000000000000000000000000000000000000000000008152600401612deb906145b3565b60405180910390fd5b612dff878787612817565b612e1e8673ffffffffffffffffffffffffffffffffffffffff16613717565b15612f415760008673ffffffffffffffffffffffffffffffffffffffff1663150b7a02338a89896040518563ffffffff1660e01b8152600401612e64949392919061438a565b602060405180830381600087803b158015612e7e57600080fd5b505af1158015612e92573d6000803e3d6000fd5b505050506040513d601f19601f82011682018060405250810190612eb69190613c77565b905063150b7a0260e01b7bffffffffffffffffffffffffffffffffffffffffffffffffffffffff1916817bffffffffffffffffffffffffffffffffffffffffffffffffffffffff191614612f3f576040517f08c379a0000000000000000000000000000000000000000000000000000000008152600401612f3690614513565b60405180910390fd5b505b50505050505050565b60008060009054906101000a900473ffffffffffffffffffffffffffffffffffffffff169050816000806101000a81548173ffffffffffffffffffffffffffffffffffffffff021916908373ffffffffffffffffffffffffffffffffffffffff1602179055508173ffffffffffffffffffffffffffffffffffffffff168173ffffffffffffffffffffffffffffffffffffffff167f8be0079c531659141344cd1fd0a4f28419497f9722a3daafe3b4186f6b6457e060405160405180910390a35050565b6000806040518060a001604052806001548152602001868152602001848152602001858152602001600015158152509050806007600060015481526020019081526020016000206000820151816000015560208201518160010155604082015181600201556060820151816003015560808201518160040160006101000a81548160ff0219169083151502179055509050503373ffffffffffffffffffffffffffffffffffffffff167fa47f2b648fe6fee6023b9227628b751649f165f204c8a6e75d3146aca5b1b8a66001548688876040516130ee9493929190614721565b60405180910390a26001549150509392505050565b600073ffffffffffffffffffffffffffffffffffffffff168273ffffffffffffffffffffffffffffffffffffffff161415613173576040517f08c379a000000000000000000000000000000000000000000000000000000000815260040161316a906145b3565b60405180910390fd5b600073ffffffffffffffffffffffffffffffffffffffff166004600083815260200190815260200160002060009054906101000a900473ffffffffffffffffffffffffffffffffffffffff1673ffffffffffffffffffffffffffffffffffffffff1614613215576040517f08c379a000000000000000000000000000000000000000000000000000000000815260040161320c906144f3565b60405180910390fd5b816004600083815260200190815260200160002060006101000a81548173ffffffffffffffffffffffffffffffffffffffff021916908373ffffffffffffffffffffffffffffffffffffffff160217905550600560008373ffffffffffffffffffffffffffffffffffffffff1673ffffffffffffffffffffffffffffffffffffffff1681526020019081526020016000208190806001815401808255809150506001900390600052602060002001600090919091909150556001600560008473ffffffffffffffffffffffffffffffffffffffff1673ffffffffffffffffffffffffffffffffffffffff1681526020019081526020016000208054905061331c9190614875565b60066000838152602001908152602001600020819055506001600d60008473ffffffffffffffffffffffffffffffffffffffff1673ffffffffffffffffffffffffffffffffffffffff1681526020019081526020016000205461337f919061481f565b600d60008473ffffffffffffffffffffffffffffffffffffffff1673ffffffffffffffffffffffffffffffffffffffff168152602001908152602001600020819055505050565b60006004600085815260200190815260200160002060009054906101000a900473ffffffffffffffffffffffffffffffffffffffff16905060006006600086815260200190815260200160002054905066038d7ea4c67fff600560006004600089815260200190815260200160002060009054906101000a900473ffffffffffffffffffffffffffffffffffffffff1673ffffffffffffffffffffffffffffffffffffffff1673ffffffffffffffffffffffffffffffffffffffff16815260200190815260200160002082815481106134c8577f4e487b7100000000000000000000000000000000000000000000000000000000600052603260045260246000fd5b9060005260206000200181905550600560008573ffffffffffffffffffffffffffffffffffffffff1673ffffffffffffffffffffffffffffffffffffffff1681526020019081526020016000208590806001815401808255809150506001900390600052602060002001600090919091909150556001600560008673ffffffffffffffffffffffffffffffffffffffff1673ffffffffffffffffffffffffffffffffffffffff1681526020019081526020016000208054905061358b9190614875565b6006600087815260200190815260200160002081905550836004600087815260200190815260200160002060006101000a81548173ffffffffffffffffffffffffffffffffffffffff021916908373ffffffffffffffffffffffffffffffffffffffff1602179055508173ffffffffffffffffffffffffffffffffffffffff166108fc849081150290604051600060405180830381858888f1935050505015801561363a573d6000803e3d6000fd5b505050505050565b600080839050600085613653613762565b61365d91906149a3565b14156136ac576000600354613670613762565b61367a91906149a3565b9050600160025461368b919061481f565b60028190555061369b8185613799565b6001856136a8919061481f565b9150505b809150509392505050565b60008290505b818110156137125760006003546136d2613762565b6136dc91906149a3565b905060016002546136ed919061481f565b6002819055506136fe816000613799565b50808061370a90614950565b9150506136bd565b505050565b60008060007fc5d2460186f7233c927e7db2dcc703c0e500b653ca82273b7bfad8045d85a47060001b9050833f91506000801b82141580156137595750808214155b92505050919050565b6000444260025460405160200161377b93929190614332565b6040516020818303038152906040528051906020012060001c905090565b60006137a3613762565b905060006040518060a001604052806001548152602001858152602001838152602001848152602001600015158152509050806007600060015481526020019081526020016000206000820151816000015560208201518160010155604082015181600201556060820151816003015560808201518160040160006101000a81548160ff0219169083151502179055509050503373ffffffffffffffffffffffffffffffffffffffff167fa47f2b648fe6fee6023b9227628b751649f165f204c8a6e75d3146aca5b1b8a66001548587866040516138849493929190614721565b60405180910390a23360046000600154815260200190815260200160002060006101000a81548173ffffffffffffffffffffffffffffffffffffffff021916908373ffffffffffffffffffffffffffffffffffffffff160217905550600560003373ffffffffffffffffffffffffffffffffffffffff1673ffffffffffffffffffffffffffffffffffffffff16815260200190815260200160002060015490806001815401808255809150506001900390600052602060002001600090919091909150556001600560003373ffffffffffffffffffffffffffffffffffffffff1673ffffffffffffffffffffffffffffffffffffffff168152602001908152602001600020805490506139979190614875565b60066000600154815260200190815260200160002081905550600180546139be919061481f565b60018190555050505050565b6000813590506139d981614a43565b92915050565b6000813590506139ee81614a5a565b92915050565b600081519050613a0381614a71565b92915050565b60008083601f840112613a1b57600080fd5b8235905067ffffffffffffffff811115613a3457600080fd5b602083019150836001820283011115613a4c57600080fd5b9250929050565b600081359050613a6281614a88565b92915050565b600060208284031215613a7a57600080fd5b6000613a88848285016139ca565b91505092915050565b60008060408385031215613aa457600080fd5b6000613ab2858286016139ca565b9250506020613ac3858286016139ca565b9150509250929050565b600080600060608486031215613ae257600080fd5b6000613af0868287016139ca565b9350506020613b01868287016139ca565b9250506040613b1286828701613a53565b9150509250925092565b600080600080600060808688031215613b3457600080fd5b6000613b42888289016139ca565b9550506020613b53888289016139ca565b9450506040613b6488828901613a53565b935050606086013567ffffffffffffffff811115613b8157600080fd5b613b8d88828901613a09565b92509250509295509295909350565b60008060408385031215613baf57600080fd5b6000613bbd858286016139ca565b9250506020613bce858286016139df565b9150509250929050565b60008060408385031215613beb57600080fd5b6000613bf9858286016139ca565b9250506020613c0a85828601613a53565b9150509250929050565b60008060008060808587031215613c2a57600080fd5b6000613c38878288016139ca565b9450506020613c4987828801613a53565b9350506040613c5a87828801613a53565b9250506060613c6b87828801613a53565b91505092959194509250565b600060208284031215613c8957600080fd5b6000613c97848285016139f4565b91505092915050565b600060208284031215613cb257600080fd5b6000613cc084828501613a53565b91505092915050565b600080600060608486031215613cde57600080fd5b6000613cec86828701613a53565b9350506020613cfd86828701613a53565b9250506040613d0e86828701613a53565b9150509250925092565b6000613d2483836142fd565b60208301905092915050565b613d39816148a9565b82525050565b6000613d4a826147c9565b613d5481856147ec565b9350613d5f836147b9565b8060005b83811015613d90578151613d778882613d18565b9750613d82836147df565b925050600181019050613d63565b5085935050505092915050565b613da6816148bb565b82525050565b6000613db7826147d4565b613dc181856147fd565b9350613dd181856020860161491d565b613dda81614a32565b840191505092915050565b6000613df260188361480e565b91507f41554354494f4e204e4f54205945542046494e495348454400000000000000006000830152602082019050919050565b6000613e3260268361480e565b91507f43414e4e4f542043414e43454c20414e2041554354494f4e205448415420484160008301527f53204249445300000000000000000000000000000000000000000000000000006020830152604082019050919050565b6000613e9860268361480e565b91507f4f776e61626c653a206e6577206f776e657220697320746865207a65726f206160008301527f64647265737300000000000000000000000000000000000000000000000000006020830152604082019050919050565b6000613efe600c8361480e565b91507f494e56414c4944204341524400000000000000000000000000000000000000006000830152602082019050919050565b6000613f3e60208361480e565b91507f56414c55452053454e54204e4f5420455155414c20544f2043415244204645456000830152602082019050919050565b6000613f7e601a8361480e565b91507f424944204c4f574552205448414e2043555252454e54204249440000000000006000830152602082019050919050565b6000613fbe60118361480e565b91507f43415244204e4f5420464f522053414c450000000000000000000000000000006000830152602082019050919050565b6000613ffe60138361480e565b91507f4341524420414c524541445920455849535453000000000000000000000000006000830152602082019050919050565b600061403e60128361480e565b91507f43414e4e4f542052454345495645204e465400000000000000000000000000006000830152602082019050919050565b600061407e601c8361480e565b91507f43414e204e4f5420424944204f4e20434152445320594f55204f574e000000006000830152602082019050919050565b60006140be60208361480e565b91507f4f776e61626c653a2063616c6c6572206973206e6f7420746865206f776e65726000830152602082019050919050565b60006140fe60188361480e565b91507f424944204455524154494f4e204e4f5420414c4c4f57454400000000000000006000830152602082019050919050565b600061413e60208361480e565b91507f434152442049532043555252454e544c5920555020464f522041554354494f4e6000830152602082019050919050565b600061417e600c8361480e565b91507f5a45524f204144445245535300000000000000000000000000000000000000006000830152602082019050919050565b60006141be60278361480e565b91507f4f4e4c592043415244204f574e45522043414e20504f535420495420464f522060008301527f41554354494f4e000000000000000000000000000000000000000000000000006020830152604082019050919050565b600061422460178361480e565b91507f4e4f542043555252454e5420544f4b454e204f574e45520000000000000000006000830152602082019050919050565b600061426460188361480e565b91507f434152442049532043555252454e544c5920494e2055534500000000000000006000830152602082019050919050565b60006142a4602c8361480e565b91507f43414e4e4f542043414e43454c20414e2041554354494f4e204146544552204960008301527f54204953204558504952454400000000000000000000000000000000000000006020830152604082019050919050565b61430681614913565b82525050565b61431581614913565b82525050565b61432c61432782614913565b614999565b82525050565b600061433e828661431b565b60208201915061434e828561431b565b60208201915061435e828461431b565b602082019150819050949350505050565b60006020820190506143846000830184613d30565b92915050565b600060808201905061439f6000830187613d30565b6143ac6020830186613d30565b6143b9604083018561430c565b81810360608301526143cb8184613dac565b905095945050505050565b600060208201905081810360008301526143f08184613d3f565b905092915050565b600060208201905061440d6000830184613d9d565b92915050565b6000602082019050818103600083015261442c81613de5565b9050919050565b6000602082019050818103600083015261444c81613e25565b9050919050565b6000602082019050818103600083015261446c81613e8b565b9050919050565b6000602082019050818103600083015261448c81613ef1565b9050919050565b600060208201905081810360008301526144ac81613f31565b9050919050565b600060208201905081810360008301526144cc81613f71565b9050919050565b600060208201905081810360008301526144ec81613fb1565b9050919050565b6000602082019050818103600083015261450c81613ff1565b9050919050565b6000602082019050818103600083015261452c81614031565b9050919050565b6000602082019050818103600083015261454c81614071565b9050919050565b6000602082019050818103600083015261456c816140b1565b9050919050565b6000602082019050818103600083015261458c816140f1565b9050919050565b600060208201905081810360008301526145ac81614131565b9050919050565b600060208201905081810360008301526145cc81614171565b9050919050565b600060208201905081810360008301526145ec816141b1565b9050919050565b6000602082019050818103600083015261460c81614217565b9050919050565b6000602082019050818103600083015261462c81614257565b9050919050565b6000602082019050818103600083015261464c81614297565b9050919050565b6000602082019050614668600083018461430c565b92915050565b6000604082019050614683600083018561430c565b6146906020830184613d9d565b9392505050565b60006040820190506146ac600083018561430c565b6146b9602083018461430c565b9392505050565b600060c0820190506146d5600083018961430c565b6146e2602083018861430c565b6146ef6040830187613d30565b6146fc606083018661430c565b614709608083018561430c565b61471660a083018461430c565b979650505050505050565b6000608082019050614736600083018761430c565b614743602083018661430c565b614750604083018561430c565b61475d606083018461430c565b95945050505050565b600060a08201905061477b600083018861430c565b614788602083018761430c565b614795604083018661430c565b6147a2606083018561430c565b6147af6080830184613d9d565b9695505050505050565b6000819050602082019050919050565b600081519050919050565b600081519050919050565b6000602082019050919050565b600082825260208201905092915050565b600082825260208201905092915050565b600082825260208201905092915050565b600061482a82614913565b915061483583614913565b9250827fffffffffffffffffffffffffffffffffffffffffffffffffffffffffffffffff0382111561486a576148696149d4565b5b828201905092915050565b600061488082614913565b915061488b83614913565b92508282101561489e5761489d6149d4565b5b828203905092915050565b60006148b4826148f3565b9050919050565b60008115159050919050565b60007fffffffff0000000000000000000000000000000000000000000000000000000082169050919050565b600073ffffffffffffffffffffffffffffffffffffffff82169050919050565b6000819050919050565b60005b8381101561493b578082015181840152602081019050614920565b8381111561494a576000848401525b50505050565b600061495b82614913565b91507fffffffffffffffffffffffffffffffffffffffffffffffffffffffffffffffff82141561498e5761498d6149d4565b5b600182019050919050565b6000819050919050565b60006149ae82614913565b91506149b983614913565b9250826149c9576149c8614a03565b5b828206905092915050565b7f4e487b7100000000000000000000000000000000000000000000000000000000600052601160045260246000fd5b7f4e487b7100000000000000000000000000000000000000000000000000000000600052601260045260246000fd5b6000601f19601f8301169050919050565b614a4c816148a9565b8114614a5757600080fd5b50565b614a63816148bb565b8114614a6e57600080fd5b50565b614a7a816148c7565b8114614a8557600080fd5b50565b614a9181614913565b8114614a9c57600080fd5b5056fea2646970667358221220fe885f28856dc9a4135ca4781cea4e170d7937b4075e8a8dc6bc23d228c461c764736f6c63430008000033",
  "immutableReferences": {},
  "source": "// SPDX-License-Identifier: UNLICENSED\npragma solidity ^0.8.0;\n\nimport \"./card-ownership.sol\";\n\n// abstract contract Aion {\n//     uint256 public serviceFee;\n//     function ScheduleCall(uint256 blocknumber, address to, uint256 value, uint256 gaslimit, uint256 gasprice, bytes memory data, bool schedType) virtual public payable returns (uint,address);\n//     function cancellScheduledTx(uint256 blocknumber, address from, address to, uint256 value, uint256 gaslimit, uint256 gasprice, uint256 fee, bytes memory data, uint256 aionId, bool schedType) virtual public payable returns(bool);\n// }\n\ncontract CardAuction is CardOwnership {\n\n    // Aion aion;\n    uint public maxAuctionDuration = 604800;\n    uint public auctionId = 1;\n    mapping(uint => bool) public cardIsForSale;\n    mapping(uint => uint) public cardToAuctionId;\n    mapping(uint => Auction) public auctionIdToAuction;\n\n    struct Auction {\n        uint auctionId;\n        uint currentBid;\n        address leadingBidder;\n        uint expireDate;\n        uint cardId;\n        uint bidCount;\n    }\n    \n    event AuctionOpened(uint indexed auctionId, uint indexed cardId, uint startingBid, uint expireDate, address indexed owner);\n    event BidPlaced(uint indexed auctionId, uint indexed cardId, uint bid, address indexed bidder);\n    event AuctionClosed(uint indexed auctionId, uint indexed cardId, uint salePrice, address indexed to, bool completed);\n\n    modifier onlyCardOwner(uint _cardId) {\n        address owner = cardIdToOwner[_cardId];\n        require(owner == msg.sender, 'ONLY CARD OWNER CAN POST IT FOR AUCTION');\n        _;\n    }\n\n    modifier checkAuctionDuration(uint _duration) {\n        require(_duration <= maxAuctionDuration, 'BID DURATION NOT ALLOWED');\n        _;\n    }\n\n    // Keeping for possible scheduler integration\n    //\n    // function createCardAuction(uint _cardId, uint _startingBid, uint _duration) external checkAuctionDuration(_duration) onlyCardOwner(_cardId) {\n    //     require(!cardIsForSale[_cardId], 'CARD ALREADY UP FOR AUCTION');\n    //     aion = Aion(0xFcFB45679539667f7ed55FA59A15c8Cad73d9a4E);\n    //     bytes memory data = abi.encodeWithSelector(bytes4(keccak256('endAuction(uint)')), _cardId);\n    //     uint callCost = 500000*1e9 + aion.serviceFee();\n    //     aion.ScheduleCall{value: callCost}(block.timestamp + _duration, address(this), 0, 500000, 1e9, data, true);        \n\n    //     cardIsForSale[_cardId] = true;\n    //     cardToCurrentBid[_cardId] = _startingBid;\n    //     auctionExpireDate[_cardId] = block.timestamp + _duration;\n    //     // emit AuctionOpened(_cardId, _startingBid, block.timestamp + _duration);\n    //     AuctionOpened(auctionId, _cardId, _startingBid, block.timestamp + _duration, msg.sender);\n    // }\n\n    function createCardAuction(uint _cardId, uint _startingBid, uint _duration) external checkAuctionDuration(_duration) onlyCardOwner(_cardId) {\n        require(!cardIsForSale[_cardId], 'CARD IS CURRENTLY UP FOR AUCTION');\n        require(!cardIdToCard[_cardId].inUse, \"CARD IS CURRENTLY IN USE\");\n\n        Auction memory auction = Auction(auctionId, _startingBid, address(0), block.timestamp + _duration, _cardId, 0);\n        auctionIdToAuction[auctionId] = auction;\n\n        cardIdToCard[_cardId].inUse = true;\n        cardToAuctionId[_cardId] = auctionId;\n        cardIsForSale[_cardId] = true;\n        emit AuctionOpened(auctionId, _cardId, _startingBid, block.timestamp + _duration, msg.sender);\n        auctionId = auctionId + 1;\n    }\n\n    function placeBid(uint _cardId) external payable {\n        Auction memory auction = auctionIdToAuction[cardToAuctionId[_cardId]];\n        require(cardIdToOwner[_cardId] != msg.sender, 'CAN NOT BID ON CARDS YOU OWN');\n        require(cardIsForSale[_cardId], 'CARD NOT FOR SALE');\n        require(msg.value > auction.currentBid, 'BID LOWER THAN CURRENT BID');\n\n        address payable outbidAddress = payable(auction.leadingBidder);\n\n        if(outbidAddress != address(0)){\n            outbidAddress.transfer(auction.currentBid);\n        }\n\n        auctionIdToAuction[auction.auctionId].leadingBidder = msg.sender;\n        auctionIdToAuction[auction.auctionId].currentBid = msg.value;\n        auctionIdToAuction[auction.auctionId].bidCount = auctionIdToAuction[auction.auctionId].bidCount + 1;\n\n        emit BidPlaced(auction.auctionId, auction.cardId, msg.value, msg.sender);\n    }\n\n    function endAuction(uint _cardId) public onlyCardOwner(_cardId) {\n        Auction memory auction = auctionIdToAuction[cardToAuctionId[_cardId]];\n        require(auction.expireDate <= block.timestamp, \"AUCTION NOT YET FINISHED\");\n\n        if(auction.leadingBidder != address(0)) {\n            transferCard(_cardId, auction.leadingBidder, auction.currentBid);\n        }\n\n        AuctionClosed(auction.auctionId, auction.cardId, auction.currentBid, auction.leadingBidder, auction.leadingBidder != address(0));\n        cardIsForSale[_cardId] = false;\n        cardIdToCard[_cardId].inUse = false;\n        cardToAuctionId[_cardId] = 0;\n    }\n\n    function cancelAuction(uint _cardId) public onlyCardOwner(_cardId) {\n        Auction memory auction = auctionIdToAuction[cardToAuctionId[_cardId]];\n        require(auction.leadingBidder == address(0), \"CANNOT CANCEL AN AUCTION THAT HAS BIDS\");\n        require(auction.expireDate > block.timestamp, \"CANNOT CANCEL AN AUCTION AFTER IT IS EXPIRED\");\n\n        cardIsForSale[_cardId] = false;\n        cardToAuctionId[_cardId] = 0;\n    }\n\n    function transferCard(uint _cardId, address _winner, uint _price) private {\n        address payable beneficiary = payable(cardIdToOwner[_cardId]);\n\n        uint cardIndex = cardIsAtIndex[_cardId];\n        userOwnedCards[cardIdToOwner[_cardId]][cardIndex] = 999999999999999;\n\n        userOwnedCards[_winner].push(_cardId);\n        cardIsAtIndex[_cardId] = userOwnedCards[_winner].length - 1;\n        cardIdToOwner[_cardId] = _winner;\n        beneficiary.transfer(_price);\n    }\n}",
  "sourcePath": "/Users/tkma4fr/Development/solidity-app/contracts/card-auction.sol",
  "compiler": {
    "name": "solc",
    "version": "0.8.0+commit.c7dfd78e.Emscripten.clang"
  },
  "schemaVersion": "3.4.2",
  "updatedAt": "2021-10-19T16:59:10.090Z",
  "devdoc": {
    "kind": "dev",
    "methods": {
      "approve(address,uint256)": {
        "details": "The zero address indicates there is no approved address.  Throws unless `msg.sender` is the current NFT owner, or an authorized  operator of the current owner.",
        "params": {
          "_approved": "The new approved NFT controller",
          "_tokenId": "The NFT to approve"
        }
      },
      "balanceOf(address)": {
        "details": "NFTs assigned to the zero address are considered invalid, and this  function throws for queries about the zero address.",
        "params": {
          "_owner": "An address for whom to query the balance"
        },
        "returns": {
          "_0": "The number of NFTs owned by `_owner`, possibly zero"
        }
      },
      "getApproved(uint256)": {
        "details": "Throws if `_tokenId` is not a valid NFT.",
        "params": {
          "_tokenId": "The NFT to find the approved address for"
        },
        "returns": {
          "_0": "The approved address for this NFT, or the zero address if there is none"
        }
      },
      "isApprovedForAll(address,address)": {
        "params": {
          "_operator": "The address that acts on behalf of the owner",
          "_owner": "The address that owns the NFTs"
        },
        "returns": {
          "_0": "True if `_operator` is an approved operator for `_owner`, false otherwise"
        }
      },
      "owner()": {
        "details": "Returns the address of the current owner."
      },
      "ownerOf(uint256)": {
        "details": "NFTs assigned to zero address are considered invalid, and queries  about them do throw.",
        "params": {
          "_tokenId": "The identifier for an NFT"
        },
        "returns": {
          "_0": "The address of the owner of the NFT"
        }
      },
      "renounceOwnership()": {
        "details": "Leaves the contract without owner. It will not be possible to call `onlyOwner` functions anymore. Can only be called by the current owner. NOTE: Renouncing ownership will leave the contract without an owner, thereby removing any functionality that is only available to the owner."
      },
      "safeTransferFrom(address,address,uint256)": {
        "details": "This works identically to the other function with an extra data parameter,  except this function just sets data to \"\".",
        "params": {
          "_from": "The current owner of the NFT",
          "_to": "The new owner",
          "_tokenId": "The NFT to transfer"
        }
      },
      "setApprovalForAll(address,bool)": {
        "details": "Emits the ApprovalForAll event. The contract MUST allow  multiple operators per owner.",
        "params": {
          "_approved": "True if the operator is approved, false to revoke approval",
          "_operator": "Address to add to the set of authorized operators"
        }
      },
      "transferFrom(address,address,uint256)": {
        "details": "Throws unless `msg.sender` is the current owner, an authorized  operator, or the approved address for this NFT. Throws if `_from` is  not the current owner. Throws if `_to` is the zero address. Throws if  `_tokenId` is not a valid NFT.",
        "params": {
          "_from": "The current owner of the NFT",
          "_to": "The new owner",
          "_tokenId": "The NFT to transfer"
        }
      },
      "transferOwnership(address)": {
        "details": "Transfers ownership of the contract to a new account (`newOwner`). Can only be called by the current owner."
      }
    },
    "version": 1
  },
  "userdoc": {
    "kind": "user",
    "methods": {
      "approve(address,uint256)": {
        "notice": "Change or reaffirm the approved address for an NFT"
      },
      "balanceOf(address)": {
        "notice": "Count all NFTs assigned to an owner"
      },
      "getApproved(uint256)": {
        "notice": "Get the approved address for a single NFT"
      },
      "isApprovedForAll(address,address)": {
        "notice": "Query if an address is an authorized operator for another address"
      },
      "ownerOf(uint256)": {
        "notice": "Find the owner of an NFT"
      },
      "safeTransferFrom(address,address,uint256)": {
        "notice": "Transfers the ownership of an NFT from one address to another address"
      },
      "setApprovalForAll(address,bool)": {
        "notice": "Enable or disable approval for a third party (\"operator\") to manage  all of `msg.sender`'s assets"
      },
      "transferFrom(address,address,uint256)": {
        "notice": "Transfer ownership of an NFT -- THE CALLER IS RESPONSIBLE  TO CONFIRM THAT `_to` IS CAPABLE OF RECEIVING NFTS OR ELSE  THEY MAY BE PERMANENTLY LOST"
      }
    },
    "version": 1
  }
}