{
  "contractName": "CardPackFactory",
  "abi": [
    {
      "anonymous": false,
      "inputs": [
        {
          "indexed": false,
          "internalType": "uint256",
          "name": "cardId",
          "type": "uint256"
        },
        {
          "indexed": false,
          "internalType": "enum CardFactory.Type",
          "name": "cardType",
          "type": "uint8"
        }
      ],
      "name": "CardCreated",
      "type": "event"
    },
    {
      "anonymous": false,
      "inputs": [
        {
          "indexed": false,
          "internalType": "uint256",
          "name": "playerId",
          "type": "uint256"
        },
        {
          "indexed": false,
          "internalType": "string",
          "name": "name",
          "type": "string"
        }
      ],
      "name": "NewPlayer",
      "type": "event"
    },
    {
      "anonymous": false,
      "inputs": [
        {
          "indexed": true,
          "internalType": "address",
          "name": "previousOwner",
          "type": "address"
        },
        {
          "indexed": true,
          "internalType": "address",
          "name": "newOwner",
          "type": "address"
        }
      ],
      "name": "OwnershipTransferred",
      "type": "event"
    },
    {
      "inputs": [
        {
          "internalType": "uint256",
          "name": "",
          "type": "uint256"
        }
      ],
      "name": "cardIdToOwner",
      "outputs": [
        {
          "internalType": "address",
          "name": "",
          "type": "address"
        }
      ],
      "stateMutability": "view",
      "type": "function"
    },
    {
      "inputs": [
        {
          "internalType": "uint256",
          "name": "",
          "type": "uint256"
        }
      ],
      "name": "cards",
      "outputs": [
        {
          "internalType": "uint256",
          "name": "cardId",
          "type": "uint256"
        },
        {
          "internalType": "uint256",
          "name": "playerId",
          "type": "uint256"
        },
        {
          "internalType": "uint256",
          "name": "attributeHash",
          "type": "uint256"
        },
        {
          "internalType": "enum CardFactory.Type",
          "name": "cardType",
          "type": "uint8"
        }
      ],
      "stateMutability": "view",
      "type": "function"
    },
    {
      "inputs": [
        {
          "internalType": "string",
          "name": "_name",
          "type": "string"
        },
        {
          "internalType": "uint8",
          "name": "_teamId",
          "type": "uint8"
        },
        {
          "internalType": "uint8",
          "name": "_position",
          "type": "uint8"
        },
        {
          "internalType": "uint16",
          "name": "_season",
          "type": "uint16"
        }
      ],
      "name": "createPlayer",
      "outputs": [],
      "stateMutability": "nonpayable",
      "type": "function"
    },
    {
      "inputs": [
        {
          "internalType": "address",
          "name": "",
          "type": "address"
        }
      ],
      "name": "existingUser",
      "outputs": [
        {
          "internalType": "bool",
          "name": "",
          "type": "bool"
        }
      ],
      "stateMutability": "view",
      "type": "function"
    },
    {
      "inputs": [],
      "name": "owner",
      "outputs": [
        {
          "internalType": "address",
          "name": "",
          "type": "address"
        }
      ],
      "stateMutability": "view",
      "type": "function"
    },
    {
      "inputs": [
        {
          "internalType": "address",
          "name": "",
          "type": "address"
        }
      ],
      "name": "ownerCardCount",
      "outputs": [
        {
          "internalType": "uint256",
          "name": "",
          "type": "uint256"
        }
      ],
      "stateMutability": "view",
      "type": "function"
    },
    {
      "inputs": [
        {
          "internalType": "uint256",
          "name": "",
          "type": "uint256"
        }
      ],
      "name": "playerIdToPlayer",
      "outputs": [
        {
          "internalType": "string",
          "name": "name",
          "type": "string"
        },
        {
          "internalType": "uint8",
          "name": "teamId",
          "type": "uint8"
        },
        {
          "internalType": "uint8",
          "name": "position",
          "type": "uint8"
        },
        {
          "internalType": "uint16",
          "name": "season",
          "type": "uint16"
        }
      ],
      "stateMutability": "view",
      "type": "function"
    },
    {
      "inputs": [
        {
          "internalType": "uint256",
          "name": "",
          "type": "uint256"
        }
      ],
      "name": "players",
      "outputs": [
        {
          "internalType": "string",
          "name": "name",
          "type": "string"
        },
        {
          "internalType": "uint8",
          "name": "teamId",
          "type": "uint8"
        },
        {
          "internalType": "uint8",
          "name": "position",
          "type": "uint8"
        },
        {
          "internalType": "uint16",
          "name": "season",
          "type": "uint16"
        }
      ],
      "stateMutability": "view",
      "type": "function"
    },
    {
      "inputs": [],
      "name": "renounceOwnership",
      "outputs": [],
      "stateMutability": "nonpayable",
      "type": "function"
    },
    {
      "inputs": [
        {
          "internalType": "address",
          "name": "newOwner",
          "type": "address"
        }
      ],
      "name": "transferOwnership",
      "outputs": [],
      "stateMutability": "nonpayable",
      "type": "function"
    },
    {
      "inputs": [],
      "name": "purchaseCardPack",
      "outputs": [],
      "stateMutability": "payable",
      "type": "function"
    },
    {
      "inputs": [
        {
          "internalType": "uint256",
          "name": "_quantity",
          "type": "uint256"
        }
      ],
      "name": "setCardPackQuantity",
      "outputs": [],
      "stateMutability": "nonpayable",
      "type": "function"
    },
    {
      "inputs": [
        {
          "internalType": "uint256",
          "name": "_fee",
          "type": "uint256"
        }
      ],
      "name": "setCardPackFee",
      "outputs": [],
      "stateMutability": "nonpayable",
      "type": "function"
    },
    {
      "inputs": [
        {
          "internalType": "uint256",
          "name": "_newOdds",
          "type": "uint256"
        }
      ],
      "name": "setRareCardOdds",
      "outputs": [],
      "stateMutability": "nonpayable",
      "type": "function"
    },
    {
      "inputs": [
        {
          "internalType": "uint256",
          "name": "_newOdds",
          "type": "uint256"
        }
      ],
      "name": "setExotixCardOdds",
      "outputs": [],
      "stateMutability": "nonpayable",
      "type": "function"
    },
    {
      "inputs": [
        {
          "internalType": "uint256",
          "name": "_newOdds",
          "type": "uint256"
        }
      ],
      "name": "setLegendaryCardOdds",
      "outputs": [],
      "stateMutability": "nonpayable",
      "type": "function"
    }
  ],
  "bytecode": "0x6080604052600060055566354a6ba7a18000600855600a600955600a80556064600b556103e8600c5534801561003457600080fd5b5061005161004661005660201b60201c565b61005e60201b60201c565b610122565b600033905090565b60008060009054906101000a900473ffffffffffffffffffffffffffffffffffffffff169050816000806101000a81548173ffffffffffffffffffffffffffffffffffffffff021916908373ffffffffffffffffffffffffffffffffffffffff1602179055508173ffffffffffffffffffffffffffffffffffffffff168173ffffffffffffffffffffffffffffffffffffffff167f8be0079c531659141344cd1fd0a4f28419497f9722a3daafe3b4186f6b6457e060405160405180910390a35050565b611ac3806101316000396000f3fe6080604052600436106100f35760003560e01c80638da5cb5b1161008a578063c75f384b11610059578063c75f384b1461031f578063e25d13a814610348578063f2fde38b14610371578063f71d96cb1461039a576100f3565b80638da5cb5b146102375780638dc1076814610262578063a3d2065f146102a2578063b53794c9146102df576100f3565b80634ccf0174116100c65780634ccf017414610191578063552788da146101ba578063715018a6146101e3578063804c4b25146101fa576100f3565b80632cfae8d3146100f857806336185bdf1461010257806341845a141461012b5780634199414014610154575b600080fd5b6101006103da565b005b34801561010e57600080fd5b506101296004803603810190610124919061139d565b6103f2565b005b34801561013757600080fd5b50610152600480360381019061014d919061139d565b610478565b005b34801561016057600080fd5b5061017b6004803603810190610176919061139d565b6104fe565b6040516101889190611553565b60405180910390f35b34801561019d57600080fd5b506101b860048036038101906101b39190611322565b610531565b005b3480156101c657600080fd5b506101e160048036038101906101dc919061139d565b61077f565b005b3480156101ef57600080fd5b506101f8610805565b005b34801561020657600080fd5b50610221600480360381019061021c91906112f9565b61088d565b60405161022e9190611615565b60405180910390f35b34801561024357600080fd5b5061024c6108a5565b6040516102599190611553565b60405180910390f35b34801561026e57600080fd5b506102896004803603810190610284919061139d565b6108ce565b6040516102999493929190611689565b60405180910390f35b3480156102ae57600080fd5b506102c960048036038101906102c491906112f9565b61091b565b6040516102d6919061156e565b60405180910390f35b3480156102eb57600080fd5b506103066004803603810190610301919061139d565b61093b565b6040516103169493929190611589565b60405180910390f35b34801561032b57600080fd5b506103466004803603810190610341919061139d565b610a1b565b005b34801561035457600080fd5b5061036f600480360381019061036a919061139d565b610aa1565b005b34801561037d57600080fd5b50610398600480360381019061039391906112f9565b610b27565b005b3480156103a657600080fd5b506103c160048036038101906103bc919061139d565b610c1f565b6040516103d19493929190611589565b60405180910390f35b60085434146103e857600080fd5b6103f0610d0f565b565b6103fa610da5565b73ffffffffffffffffffffffffffffffffffffffff166104186108a5565b73ffffffffffffffffffffffffffffffffffffffff161461046e576040517f08c379a0000000000000000000000000000000000000000000000000000000008152600401610465906115f5565b60405180910390fd5b80600b8190555050565b610480610da5565b73ffffffffffffffffffffffffffffffffffffffff1661049e6108a5565b73ffffffffffffffffffffffffffffffffffffffff16146104f4576040517f08c379a00000000000000000000000000000000000000000000000000000000081526004016104eb906115f5565b60405180910390fd5b80600a8190555050565b60076020528060005260406000206000915054906101000a900473ffffffffffffffffffffffffffffffffffffffff1681565b610539610da5565b73ffffffffffffffffffffffffffffffffffffffff166105576108a5565b73ffffffffffffffffffffffffffffffffffffffff16146105ad576040517f08c379a00000000000000000000000000000000000000000000000000000000081526004016105a4906115f5565b60405180910390fd5b600060405180608001604052808681526020018560ff1681526020018460ff1681526020018361ffff1681525090506002819080600181540180825580915050600190039060005260206000209060020201600090919091909150600082015181600001908051906020019061062492919061119a565b5060208201518160010160006101000a81548160ff021916908360ff16021790555060408201518160010160016101000a81548160ff021916908360ff16021790555060608201518160010160026101000a81548161ffff021916908361ffff16021790555050508060036000600154815260200190815260200160002060008201518160000190805190602001906106be92919061119a565b5060208201518160010160006101000a81548160ff021916908360ff16021790555060408201518160010160016101000a81548160ff021916908360ff16021790555060608201518160010160026101000a81548161ffff021916908361ffff1602179055509050507fc617f3fbc3f6a35c0509a5f01fb4907e9c6e94cff260c3fe739bafd93cf224056001548660405161075a929190611659565b60405180910390a161077760018054610dad90919063ffffffff16565b505050505050565b610787610da5565b73ffffffffffffffffffffffffffffffffffffffff166107a56108a5565b73ffffffffffffffffffffffffffffffffffffffff16146107fb576040517f08c379a00000000000000000000000000000000000000000000000000000000081526004016107f2906115f5565b60405180910390fd5b8060088190555050565b61080d610da5565b73ffffffffffffffffffffffffffffffffffffffff1661082b6108a5565b73ffffffffffffffffffffffffffffffffffffffff1614610881576040517f08c379a0000000000000000000000000000000000000000000000000000000008152600401610878906115f5565b60405180910390fd5b61088b6000610dc3565b565b600d6020528060005260406000206000915090505481565b60008060009054906101000a900473ffffffffffffffffffffffffffffffffffffffff16905090565b600681815481106108de57600080fd5b90600052602060002090600402016000915090508060000154908060010154908060020154908060030160009054906101000a900460ff16905084565b600e6020528060005260406000206000915054906101000a900460ff1681565b600360205280600052604060002060009150905080600001805461095e9061186b565b80601f016020809104026020016040519081016040528092919081815260200182805461098a9061186b565b80156109d75780601f106109ac576101008083540402835291602001916109d7565b820191906000526020600020905b8154815290600101906020018083116109ba57829003601f168201915b5050505050908060010160009054906101000a900460ff16908060010160019054906101000a900460ff16908060010160029054906101000a900461ffff16905084565b610a23610da5565b73ffffffffffffffffffffffffffffffffffffffff16610a416108a5565b73ffffffffffffffffffffffffffffffffffffffff1614610a97576040517f08c379a0000000000000000000000000000000000000000000000000000000008152600401610a8e906115f5565b60405180910390fd5b80600c8190555050565b610aa9610da5565b73ffffffffffffffffffffffffffffffffffffffff16610ac76108a5565b73ffffffffffffffffffffffffffffffffffffffff1614610b1d576040517f08c379a0000000000000000000000000000000000000000000000000000000008152600401610b14906115f5565b60405180910390fd5b8060098190555050565b610b2f610da5565b73ffffffffffffffffffffffffffffffffffffffff16610b4d6108a5565b73ffffffffffffffffffffffffffffffffffffffff1614610ba3576040517f08c379a0000000000000000000000000000000000000000000000000000000008152600401610b9a906115f5565b60405180910390fd5b600073ffffffffffffffffffffffffffffffffffffffff168173ffffffffffffffffffffffffffffffffffffffff161415610c13576040517f08c379a0000000000000000000000000000000000000000000000000000000008152600401610c0a906115d5565b60405180910390fd5b610c1c81610dc3565b50565b60028181548110610c2f57600080fd5b9060005260206000209060020201600091509050806000018054610c529061186b565b80601f0160208091040260200160405190810160405280929190818152602001828054610c7e9061186b565b8015610ccb5780601f10610ca057610100808354040283529160200191610ccb565b820191906000526020600020905b815481529060010190602001808311610cae57829003601f168201915b5050505050908060010160009054906101000a900460ff16908060010160019054906101000a900460ff16908060010160029054906101000a900461ffff16905084565b6000610d1f600c54826003610e87565b9050610d2f600b54826002610e87565b9050610d3f600a54826001610e87565b9050610d4d81600954610f45565b610da1600954600d60003373ffffffffffffffffffffffffffffffffffffffff1673ffffffffffffffffffffffffffffffffffffffff16815260200190815260200160002054610dad90919063ffffffff16565b5050565b600033905090565b60008183610dbb919061174b565b905092915050565b60008060009054906101000a900473ffffffffffffffffffffffffffffffffffffffff169050816000806101000a81548173ffffffffffffffffffffffffffffffffffffffff021916908373ffffffffffffffffffffffffffffffffffffffff1602179055508173ffffffffffffffffffffffffffffffffffffffff168173ffffffffffffffffffffffffffffffffffffffff167f8be0079c531659141344cd1fd0a4f28419497f9722a3daafe3b4186f6b6457e060405160405180910390a35050565b600080839050600085610e98610fe7565b610ea291906118f0565b1415610f3a576000600280549050610eb8610fe7565b610ec291906118f0565b9050610ece8185611035565b3360076000600454815260200190815260200160002060006101000a81548173ffffffffffffffffffffffffffffffffffffffff021916908373ffffffffffffffffffffffffffffffffffffffff160217905550610f36600186610dad90919063ffffffff16565b9150505b809150509392505050565b60008290505b81811015610fe2576000600280549050610f63610fe7565b610f6d91906118f0565b9050610f7a816000611035565b3360076000600454815260200190815260200160002060006101000a81548173ffffffffffffffffffffffffffffffffffffffff021916908373ffffffffffffffffffffffffffffffffffffffff160217905550508080610fda9061189d565b915050610f4b565b505050565b6000610fff6001600554610dad90919063ffffffff16565b50444260055460405160200161101793929190611516565b6040516020818303038152906040528051906020012060001c905090565b600061103f610fe7565b905060006040518060800160405280600454815260200185815260200183815260200184600381111561109b577f4e487b7100000000000000000000000000000000000000000000000000000000600052602160045260246000fd5b8152509050600681908060018154018082558091505060019003906000526020600020906004020160009091909190915060008201518160000155602082015181600101556040820151816002015560608201518160030160006101000a81548160ff0219169083600381111561113b577f4e487b7100000000000000000000000000000000000000000000000000000000600052602160045260246000fd5b021790555050507fbaea33693399ad5c8ce728912bde41320e13de305c5ca8fcd3e2b7bf943cb60960045484604051611175929190611630565b60405180910390a16111936001600454610dad90919063ffffffff16565b5050505050565b8280546111a69061186b565b90600052602060002090601f0160209004810192826111c8576000855561120f565b82601f106111e157805160ff191683800117855561120f565b8280016001018555821561120f579182015b8281111561120e5782518255916020019190600101906111f3565b5b50905061121c9190611220565b5090565b5b80821115611239576000816000905550600101611221565b5090565b600061125061124b846116ff565b6116ce565b90508281526020810184848401111561126857600080fd5b611273848285611829565b509392505050565b60008135905061128a81611a31565b92915050565b600082601f8301126112a157600080fd5b81356112b184826020860161123d565b91505092915050565b6000813590506112c981611a48565b92915050565b6000813590506112de81611a5f565b92915050565b6000813590506112f381611a76565b92915050565b60006020828403121561130b57600080fd5b60006113198482850161127b565b91505092915050565b6000806000806080858703121561133857600080fd5b600085013567ffffffffffffffff81111561135257600080fd5b61135e87828801611290565b945050602061136f878288016112e4565b9350506040611380878288016112e4565b9250506060611391878288016112ba565b91505092959194509250565b6000602082840312156113af57600080fd5b60006113bd848285016112cf565b91505092915050565b6113cf816117a1565b82525050565b6113de816117b3565b82525050565b6113ed81611817565b82525050565b60006113fe8261172f565b611408818561173a565b9350611418818560208601611838565b61142181611a0c565b840191505092915050565b600061143960268361173a565b91507f4f776e61626c653a206e6577206f776e657220697320746865207a65726f206160008301527f64647265737300000000000000000000000000000000000000000000000000006020830152604082019050919050565b600061149f60208361173a565b91507f4f776e61626c653a2063616c6c6572206973206e6f7420746865206f776e65726000830152602082019050919050565b6114db816117d2565b82525050565b6114ea81611800565b82525050565b6115016114fc82611800565b6118e6565b82525050565b6115108161180a565b82525050565b600061152282866114f0565b60208201915061153282856114f0565b60208201915061154282846114f0565b602082019150819050949350505050565b600060208201905061156860008301846113c6565b92915050565b600060208201905061158360008301846113d5565b92915050565b600060808201905081810360008301526115a381876113f3565b90506115b26020830186611507565b6115bf6040830185611507565b6115cc60608301846114d2565b95945050505050565b600060208201905081810360008301526115ee8161142c565b9050919050565b6000602082019050818103600083015261160e81611492565b9050919050565b600060208201905061162a60008301846114e1565b92915050565b600060408201905061164560008301856114e1565b61165260208301846113e4565b9392505050565b600060408201905061166e60008301856114e1565b818103602083015261168081846113f3565b90509392505050565b600060808201905061169e60008301876114e1565b6116ab60208301866114e1565b6116b860408301856114e1565b6116c560608301846113e4565b95945050505050565b6000604051905081810181811067ffffffffffffffff821117156116f5576116f46119dd565b5b8060405250919050565b600067ffffffffffffffff82111561171a576117196119dd565b5b601f19601f8301169050602081019050919050565b600081519050919050565b600082825260208201905092915050565b600061175682611800565b915061176183611800565b9250827fffffffffffffffffffffffffffffffffffffffffffffffffffffffffffffffff0382111561179657611795611921565b5b828201905092915050565b60006117ac826117e0565b9050919050565b60008115159050919050565b60008190506117cd82611a1d565b919050565b600061ffff82169050919050565b600073ffffffffffffffffffffffffffffffffffffffff82169050919050565b6000819050919050565b600060ff82169050919050565b6000611822826117bf565b9050919050565b82818337600083830152505050565b60005b8381101561185657808201518184015260208101905061183b565b83811115611865576000848401525b50505050565b6000600282049050600182168061188357607f821691505b60208210811415611897576118966119ae565b5b50919050565b60006118a882611800565b91507fffffffffffffffffffffffffffffffffffffffffffffffffffffffffffffffff8214156118db576118da611921565b5b600182019050919050565b6000819050919050565b60006118fb82611800565b915061190683611800565b92508261191657611915611950565b5b828206905092915050565b7f4e487b7100000000000000000000000000000000000000000000000000000000600052601160045260246000fd5b7f4e487b7100000000000000000000000000000000000000000000000000000000600052601260045260246000fd5b7f4e487b7100000000000000000000000000000000000000000000000000000000600052602160045260246000fd5b7f4e487b7100000000000000000000000000000000000000000000000000000000600052602260045260246000fd5b7f4e487b7100000000000000000000000000000000000000000000000000000000600052604160045260246000fd5b6000601f19601f8301169050919050565b60048110611a2e57611a2d61197f565b5b50565b611a3a816117a1565b8114611a4557600080fd5b50565b611a51816117d2565b8114611a5c57600080fd5b50565b611a6881611800565b8114611a7357600080fd5b50565b611a7f8161180a565b8114611a8a57600080fd5b5056fea2646970667358221220f2cbcb9ae71cf519625069edd17a4309952c2a05cb55dc5deb47facc8d468d3764736f6c63430008000033",
  "immutableReferences": {},
  "source": "// SPDX-License-Identifier: UNLICENSED\npragma solidity ^0.8.0;\n\nimport \"./card-factory.sol\";\n\ncontract CardPackFactory is CardFactory {\n\n    using SafeMath for uint256;\n    uint cardPackFee = 0.015 ether;\n    uint cardPackQuantity = 10;\n    uint rareCardOdds = 10;\n    uint exoticCardOdds = 100;\n    uint legendaryCardOdds = 1000;\n\n    mapping (address => uint) public ownerCardCount;\n    mapping (address => bool) public existingUser;\n\n    function purchaseCardPack() external payable {\n        require(msg.value == cardPackFee);\n        _createCardPack();\n    }\n\n    function _createCardPack() internal {\n        uint cardCount = 0;\n\n        cardCount = createNonCommonCard(legendaryCardOdds, cardCount, Type.LEGENDARY);\n        cardCount = createNonCommonCard(exoticCardOdds, cardCount, Type.EXOTIC);\n        cardCount = createNonCommonCard(rareCardOdds, cardCount, Type.RARE);\n        createCommonCards(cardCount, cardPackQuantity);\n\n        ownerCardCount[msg.sender].add(cardPackQuantity);\n    }\n\n    function setCardPackQuantity(uint _quantity) external onlyOwner {\n        cardPackQuantity = _quantity;\n    }\n\n    function setCardPackFee(uint _fee) external onlyOwner {\n        cardPackFee = _fee;\n    }\n\n    function setRareCardOdds(uint _newOdds) external onlyOwner {\n        rareCardOdds = _newOdds;\n    }\n\n    function setExotixCardOdds(uint _newOdds) external onlyOwner {\n        exoticCardOdds = _newOdds;\n    }\n\n    function setLegendaryCardOdds(uint _newOdds) external onlyOwner {\n        legendaryCardOdds = _newOdds;\n    }\n}",
  "sourcePath": "/Users/tkma4fr/Development/solidity-app/contracts/card-pack-factory.sol",
  "compiler": {
    "name": "solc",
    "version": "0.8.0+commit.c7dfd78e.Emscripten.clang"
  },
  "schemaVersion": "3.4.2",
  "updatedAt": "2021-08-26T00:54:52.385Z",
  "devdoc": {
    "kind": "dev",
    "methods": {
      "owner()": {
        "details": "Returns the address of the current owner."
      },
      "renounceOwnership()": {
        "details": "Leaves the contract without owner. It will not be possible to call `onlyOwner` functions anymore. Can only be called by the current owner. NOTE: Renouncing ownership will leave the contract without an owner, thereby removing any functionality that is only available to the owner."
      },
      "transferOwnership(address)": {
        "details": "Transfers ownership of the contract to a new account (`newOwner`). Can only be called by the current owner."
      }
    },
    "version": 1
  },
  "userdoc": {
    "kind": "user",
    "methods": {},
    "version": 1
  }
}