{
  "contractName": "CardPackFactory",
  "abi": [
    {
      "anonymous": false,
      "inputs": [
        {
          "indexed": false,
          "internalType": "uint256",
          "name": "cardId",
          "type": "uint256"
        },
        {
          "indexed": false,
          "internalType": "uint256",
          "name": "cardType",
          "type": "uint256"
        },
        {
          "indexed": false,
          "internalType": "uint256",
          "name": "playerId",
          "type": "uint256"
        },
        {
          "indexed": false,
          "internalType": "uint256",
          "name": "attributeHash",
          "type": "uint256"
        },
        {
          "indexed": false,
          "internalType": "address",
          "name": "owner",
          "type": "address"
        }
      ],
      "name": "CardCreated",
      "type": "event"
    },
    {
      "anonymous": false,
      "inputs": [
        {
          "indexed": false,
          "internalType": "uint256",
          "name": "playerId",
          "type": "uint256"
        },
        {
          "indexed": false,
          "internalType": "string",
          "name": "name",
          "type": "string"
        }
      ],
      "name": "NewPlayer",
      "type": "event"
    },
    {
      "anonymous": false,
      "inputs": [
        {
          "indexed": true,
          "internalType": "address",
          "name": "previousOwner",
          "type": "address"
        },
        {
          "indexed": true,
          "internalType": "address",
          "name": "newOwner",
          "type": "address"
        }
      ],
      "name": "OwnershipTransferred",
      "type": "event"
    },
    {
      "inputs": [
        {
          "internalType": "uint256",
          "name": "",
          "type": "uint256"
        }
      ],
      "name": "cardIdToOwner",
      "outputs": [
        {
          "internalType": "address",
          "name": "",
          "type": "address"
        }
      ],
      "stateMutability": "view",
      "type": "function"
    },
    {
      "inputs": [
        {
          "internalType": "uint256",
          "name": "",
          "type": "uint256"
        }
      ],
      "name": "cards",
      "outputs": [
        {
          "internalType": "uint256",
          "name": "cardId",
          "type": "uint256"
        },
        {
          "internalType": "uint256",
          "name": "playerId",
          "type": "uint256"
        },
        {
          "internalType": "uint256",
          "name": "attributeHash",
          "type": "uint256"
        },
        {
          "internalType": "uint256",
          "name": "cardType",
          "type": "uint256"
        }
      ],
      "stateMutability": "view",
      "type": "function"
    },
    {
      "inputs": [
        {
          "internalType": "string",
          "name": "_name",
          "type": "string"
        },
        {
          "internalType": "uint8",
          "name": "_teamId",
          "type": "uint8"
        },
        {
          "internalType": "uint8",
          "name": "_position",
          "type": "uint8"
        },
        {
          "internalType": "uint16",
          "name": "_season",
          "type": "uint16"
        }
      ],
      "name": "createPlayer",
      "outputs": [],
      "stateMutability": "nonpayable",
      "type": "function"
    },
    {
      "inputs": [
        {
          "internalType": "address",
          "name": "",
          "type": "address"
        }
      ],
      "name": "existingUser",
      "outputs": [
        {
          "internalType": "bool",
          "name": "",
          "type": "bool"
        }
      ],
      "stateMutability": "view",
      "type": "function"
    },
    {
      "inputs": [],
      "name": "owner",
      "outputs": [
        {
          "internalType": "address",
          "name": "",
          "type": "address"
        }
      ],
      "stateMutability": "view",
      "type": "function"
    },
    {
      "inputs": [
        {
          "internalType": "address",
          "name": "",
          "type": "address"
        }
      ],
      "name": "ownerCardCount",
      "outputs": [
        {
          "internalType": "uint256",
          "name": "",
          "type": "uint256"
        }
      ],
      "stateMutability": "view",
      "type": "function"
    },
    {
      "inputs": [
        {
          "internalType": "uint256",
          "name": "",
          "type": "uint256"
        }
      ],
      "name": "playerIdToPlayer",
      "outputs": [
        {
          "internalType": "string",
          "name": "name",
          "type": "string"
        },
        {
          "internalType": "uint8",
          "name": "teamId",
          "type": "uint8"
        },
        {
          "internalType": "uint8",
          "name": "position",
          "type": "uint8"
        },
        {
          "internalType": "uint16",
          "name": "season",
          "type": "uint16"
        }
      ],
      "stateMutability": "view",
      "type": "function"
    },
    {
      "inputs": [
        {
          "internalType": "uint256",
          "name": "",
          "type": "uint256"
        }
      ],
      "name": "players",
      "outputs": [
        {
          "internalType": "string",
          "name": "name",
          "type": "string"
        },
        {
          "internalType": "uint8",
          "name": "teamId",
          "type": "uint8"
        },
        {
          "internalType": "uint8",
          "name": "position",
          "type": "uint8"
        },
        {
          "internalType": "uint16",
          "name": "season",
          "type": "uint16"
        }
      ],
      "stateMutability": "view",
      "type": "function"
    },
    {
      "inputs": [],
      "name": "renounceOwnership",
      "outputs": [],
      "stateMutability": "nonpayable",
      "type": "function"
    },
    {
      "inputs": [
        {
          "internalType": "uint256",
          "name": "_count",
          "type": "uint256"
        }
      ],
      "name": "setTotalPlayers",
      "outputs": [],
      "stateMutability": "nonpayable",
      "type": "function"
    },
    {
      "inputs": [
        {
          "internalType": "address",
          "name": "newOwner",
          "type": "address"
        }
      ],
      "name": "transferOwnership",
      "outputs": [],
      "stateMutability": "nonpayable",
      "type": "function"
    },
    {
      "inputs": [],
      "name": "purchaseCardPack",
      "outputs": [],
      "stateMutability": "payable",
      "type": "function"
    },
    {
      "inputs": [
        {
          "internalType": "uint256",
          "name": "_quantity",
          "type": "uint256"
        }
      ],
      "name": "setCardPackQuantity",
      "outputs": [],
      "stateMutability": "nonpayable",
      "type": "function"
    },
    {
      "inputs": [
        {
          "internalType": "uint256",
          "name": "_fee",
          "type": "uint256"
        }
      ],
      "name": "setCardPackFee",
      "outputs": [],
      "stateMutability": "nonpayable",
      "type": "function"
    },
    {
      "inputs": [
        {
          "internalType": "uint256",
          "name": "_newOdds",
          "type": "uint256"
        }
      ],
      "name": "setRareCardOdds",
      "outputs": [],
      "stateMutability": "nonpayable",
      "type": "function"
    },
    {
      "inputs": [
        {
          "internalType": "uint256",
          "name": "_newOdds",
          "type": "uint256"
        }
      ],
      "name": "setExotixCardOdds",
      "outputs": [],
      "stateMutability": "nonpayable",
      "type": "function"
    },
    {
      "inputs": [
        {
          "internalType": "uint256",
          "name": "_newOdds",
          "type": "uint256"
        }
      ],
      "name": "setLegendaryCardOdds",
      "outputs": [],
      "stateMutability": "nonpayable",
      "type": "function"
    }
  ],
  "bytecode": "0x60806040526000600455600060055560bd6006556611c37937e08000600955600a80556003600b556019600c556064600d5534801561003d57600080fd5b5061005a61004f61005f60201b60201c565b61006760201b60201c565b61012b565b600033905090565b60008060009054906101000a900473ffffffffffffffffffffffffffffffffffffffff169050816000806101000a81548173ffffffffffffffffffffffffffffffffffffffff021916908373ffffffffffffffffffffffffffffffffffffffff1602179055508173ffffffffffffffffffffffffffffffffffffffff168173ffffffffffffffffffffffffffffffffffffffff167f8be0079c531659141344cd1fd0a4f28419497f9722a3daafe3b4186f6b6457e060405160405180910390a35050565b611b0e8061013a6000396000f3fe6080604052600436106100fe5760003560e01c80638da5cb5b11610095578063b780acc511610064578063b780acc51461032a578063c75f384b14610353578063e25d13a81461037c578063f2fde38b146103a5578063f71d96cb146103ce576100fe565b80638da5cb5b146102425780638dc107681461026d578063a3d2065f146102ad578063b53794c9146102ea576100fe565b80634ccf0174116100d15780634ccf01741461019c578063552788da146101c5578063715018a6146101ee578063804c4b2514610205576100fe565b80632cfae8d31461010357806336185bdf1461010d57806341845a1414610136578063419941401461015f575b600080fd5b61010b61040e565b005b34801561011957600080fd5b50610134600480360381019061012f91906113d5565b61045c565b005b34801561014257600080fd5b5061015d600480360381019061015891906113d5565b6104e2565b005b34801561016b57600080fd5b50610186600480360381019061018191906113d5565b610568565b60405161019391906115bc565b60405180910390f35b3480156101a857600080fd5b506101c360048036038101906101be919061135a565b61059b565b005b3480156101d157600080fd5b506101ec60048036038101906101e791906113d5565b6107e7565b005b3480156101fa57600080fd5b5061020361086d565b005b34801561021157600080fd5b5061022c60048036038101906102279190611331565b6108f5565b604051610239919061169e565b60405180910390f35b34801561024e57600080fd5b5061025761090d565b60405161026491906115bc565b60405180910390f35b34801561027957600080fd5b50610294600480360381019061028f91906113d5565b610936565b6040516102a494939291906116e9565b60405180910390f35b3480156102b957600080fd5b506102d460048036038101906102cf9190611331565b610976565b6040516102e191906115d7565b60405180910390f35b3480156102f657600080fd5b50610311600480360381019061030c91906113d5565b610996565b60405161032194939291906115f2565b60405180910390f35b34801561033657600080fd5b50610351600480360381019061034c91906113d5565b610a76565b005b34801561035f57600080fd5b5061037a600480360381019061037591906113d5565b610afc565b005b34801561038857600080fd5b506103a3600480360381019061039e91906113d5565b610b82565b005b3480156103b157600080fd5b506103cc60048036038101906103c79190611331565b610c08565b005b3480156103da57600080fd5b506103f560048036038101906103f091906113d5565b610d00565b60405161040594939291906115f2565b60405180910390f35b6009543414610452576040517f08c379a00000000000000000000000000000000000000000000000000000000081526004016104499061165e565b60405180910390fd5b61045a610df0565b565b610464610ec1565b73ffffffffffffffffffffffffffffffffffffffff1661048261090d565b73ffffffffffffffffffffffffffffffffffffffff16146104d8576040517f08c379a00000000000000000000000000000000000000000000000000000000081526004016104cf9061167e565b60405180910390fd5b80600c8190555050565b6104ea610ec1565b73ffffffffffffffffffffffffffffffffffffffff1661050861090d565b73ffffffffffffffffffffffffffffffffffffffff161461055e576040517f08c379a00000000000000000000000000000000000000000000000000000000081526004016105559061167e565b60405180910390fd5b80600b8190555050565b60086020528060005260406000206000915054906101000a900473ffffffffffffffffffffffffffffffffffffffff1681565b6105a3610ec1565b73ffffffffffffffffffffffffffffffffffffffff166105c161090d565b73ffffffffffffffffffffffffffffffffffffffff1614610617576040517f08c379a000000000000000000000000000000000000000000000000000000000815260040161060e9061167e565b60405180910390fd5b600060405180608001604052808681526020018560ff1681526020018460ff1681526020018361ffff1681525090506002819080600181540180825580915050600190039060005260206000209060020201600090919091909150600082015181600001908051906020019061068e9291906111d2565b5060208201518160010160006101000a81548160ff021916908360ff16021790555060408201518160010160016101000a81548160ff021916908360ff16021790555060608201518160010160026101000a81548161ffff021916908361ffff16021790555050508060036000600154815260200190815260200160002060008201518160000190805190602001906107289291906111d2565b5060208201518160010160006101000a81548160ff021916908360ff16021790555060408201518160010160016101000a81548160ff021916908360ff16021790555060608201518160010160026101000a81548161ffff021916908361ffff1602179055509050507fc617f3fbc3f6a35c0509a5f01fb4907e9c6e94cff260c3fe739bafd93cf22405600154866040516107c49291906116b9565b60405180910390a1600180546107da91906117fe565b6001819055505050505050565b6107ef610ec1565b73ffffffffffffffffffffffffffffffffffffffff1661080d61090d565b73ffffffffffffffffffffffffffffffffffffffff1614610863576040517f08c379a000000000000000000000000000000000000000000000000000000000815260040161085a9061167e565b60405180910390fd5b8060098190555050565b610875610ec1565b73ffffffffffffffffffffffffffffffffffffffff1661089361090d565b73ffffffffffffffffffffffffffffffffffffffff16146108e9576040517f08c379a00000000000000000000000000000000000000000000000000000000081526004016108e09061167e565b60405180910390fd5b6108f36000610ec9565b565b600e6020528060005260406000206000915090505481565b60008060009054906101000a900473ffffffffffffffffffffffffffffffffffffffff16905090565b6007818154811061094657600080fd5b90600052602060002090600402016000915090508060000154908060010154908060020154908060030154905084565b600f6020528060005260406000206000915054906101000a900460ff1681565b60036020528060005260406000206000915090508060000180546109b9906118f9565b80601f01602080910402602001604051908101604052809291908181526020018280546109e5906118f9565b8015610a325780601f10610a0757610100808354040283529160200191610a32565b820191906000526020600020905b815481529060010190602001808311610a1557829003601f168201915b5050505050908060010160009054906101000a900460ff16908060010160019054906101000a900460ff16908060010160029054906101000a900461ffff16905084565b610a7e610ec1565b73ffffffffffffffffffffffffffffffffffffffff16610a9c61090d565b73ffffffffffffffffffffffffffffffffffffffff1614610af2576040517f08c379a0000000000000000000000000000000000000000000000000000000008152600401610ae99061167e565b60405180910390fd5b8060068190555050565b610b04610ec1565b73ffffffffffffffffffffffffffffffffffffffff16610b2261090d565b73ffffffffffffffffffffffffffffffffffffffff1614610b78576040517f08c379a0000000000000000000000000000000000000000000000000000000008152600401610b6f9061167e565b60405180910390fd5b80600d8190555050565b610b8a610ec1565b73ffffffffffffffffffffffffffffffffffffffff16610ba861090d565b73ffffffffffffffffffffffffffffffffffffffff1614610bfe576040517f08c379a0000000000000000000000000000000000000000000000000000000008152600401610bf59061167e565b60405180910390fd5b80600a8190555050565b610c10610ec1565b73ffffffffffffffffffffffffffffffffffffffff16610c2e61090d565b73ffffffffffffffffffffffffffffffffffffffff1614610c84576040517f08c379a0000000000000000000000000000000000000000000000000000000008152600401610c7b9061167e565b60405180910390fd5b600073ffffffffffffffffffffffffffffffffffffffff168173ffffffffffffffffffffffffffffffffffffffff161415610cf4576040517f08c379a0000000000000000000000000000000000000000000000000000000008152600401610ceb9061163e565b60405180910390fd5b610cfd81610ec9565b50565b60028181548110610d1057600080fd5b9060005260206000209060020201600091509050806000018054610d33906118f9565b80601f0160208091040260200160405190810160405280929190818152602001828054610d5f906118f9565b8015610dac5780601f10610d8157610100808354040283529160200191610dac565b820191906000526020600020905b815481529060010190602001808311610d8f57829003601f168201915b5050505050908060010160009054906101000a900460ff16908060010160019054906101000a900460ff16908060010160029054906101000a900461ffff16905084565b6000610e00600d54826003610f8d565b9050610e10600c54826002610f8d565b9050610e20600b54826001610f8d565b9050610e2e81600a54611002565b600a54600e60003373ffffffffffffffffffffffffffffffffffffffff1673ffffffffffffffffffffffffffffffffffffffff16815260200190815260200160002054610e7b91906117fe565b600e60003373ffffffffffffffffffffffffffffffffffffffff1673ffffffffffffffffffffffffffffffffffffffff1681526020019081526020016000208190555050565b600033905090565b60008060009054906101000a900473ffffffffffffffffffffffffffffffffffffffff169050816000806101000a81548173ffffffffffffffffffffffffffffffffffffffff021916908373ffffffffffffffffffffffffffffffffffffffff1602179055508173ffffffffffffffffffffffffffffffffffffffff168173ffffffffffffffffffffffffffffffffffffffff167f8be0079c531659141344cd1fd0a4f28419497f9722a3daafe3b4186f6b6457e060405160405180910390a35050565b600080839050600085610f9e611062565b610fa8919061197e565b1415610ff7576000600654610fbb611062565b610fc5919061197e565b90506001600554610fd691906117fe565b600581905550610fe68185611099565b600185610ff391906117fe565b9150505b809150509392505050565b60008290505b8181101561105d57600060065461101d611062565b611027919061197e565b9050600160055461103891906117fe565b600581905550611049816000611099565b5080806110559061192b565b915050611008565b505050565b6000444260055460405160200161107b9392919061157f565b6040516020818303038152906040528051906020012060001c905090565b60006110a3611062565b905060006040518060800160405280600454815260200185815260200183815260200184815250905060078190806001815401808255809150506001900390600052602060002090600402016000909190919091506000820151816000015560208201518160010155604082015181600201556060820151816003015550507fa47f2b648fe6fee6023b9227628b751649f165f204c8a6e75d3146aca5b1b8a66004548486853360405161115b95949392919061172e565b60405180910390a13360086000600454815260200190815260200160002060006101000a81548173ffffffffffffffffffffffffffffffffffffffff021916908373ffffffffffffffffffffffffffffffffffffffff16021790555060016004546111c691906117fe565b60048190555050505050565b8280546111de906118f9565b90600052602060002090601f0160209004810192826112005760008555611247565b82601f1061121957805160ff1916838001178555611247565b82800160010185558215611247579182015b8281111561124657825182559160200191906001019061122b565b5b5090506112549190611258565b5090565b5b80821115611271576000816000905550600101611259565b5090565b6000611288611283846117b2565b611781565b9050828152602081018484840111156112a057600080fd5b6112ab8482856118b7565b509392505050565b6000813590506112c281611a7c565b92915050565b600082601f8301126112d957600080fd5b81356112e9848260208601611275565b91505092915050565b60008135905061130181611a93565b92915050565b60008135905061131681611aaa565b92915050565b60008135905061132b81611ac1565b92915050565b60006020828403121561134357600080fd5b6000611351848285016112b3565b91505092915050565b6000806000806080858703121561137057600080fd5b600085013567ffffffffffffffff81111561138a57600080fd5b611396878288016112c8565b94505060206113a78782880161131c565b93505060406113b88782880161131c565b92505060606113c9878288016112f2565b91505092959194509250565b6000602082840312156113e757600080fd5b60006113f584828501611307565b91505092915050565b61140781611854565b82525050565b61141681611866565b82525050565b6000611427826117e2565b61143181856117ed565b93506114418185602086016118c6565b61144a81611a6b565b840191505092915050565b60006114626026836117ed565b91507f4f776e61626c653a206e6577206f776e657220697320746865207a65726f206160008301527f64647265737300000000000000000000000000000000000000000000000000006020830152604082019050919050565b60006114c86020836117ed565b91507f56414c55452053454e54204e4f5420455155414c20544f2043415244204645456000830152602082019050919050565b60006115086020836117ed565b91507f4f776e61626c653a2063616c6c6572206973206e6f7420746865206f776e65726000830152602082019050919050565b61154481611872565b82525050565b611553816118a0565b82525050565b61156a611565826118a0565b611974565b82525050565b611579816118aa565b82525050565b600061158b8286611559565b60208201915061159b8285611559565b6020820191506115ab8284611559565b602082019150819050949350505050565b60006020820190506115d160008301846113fe565b92915050565b60006020820190506115ec600083018461140d565b92915050565b6000608082019050818103600083015261160c818761141c565b905061161b6020830186611570565b6116286040830185611570565b611635606083018461153b565b95945050505050565b6000602082019050818103600083015261165781611455565b9050919050565b60006020820190508181036000830152611677816114bb565b9050919050565b60006020820190508181036000830152611697816114fb565b9050919050565b60006020820190506116b3600083018461154a565b92915050565b60006040820190506116ce600083018561154a565b81810360208301526116e0818461141c565b90509392505050565b60006080820190506116fe600083018761154a565b61170b602083018661154a565b611718604083018561154a565b611725606083018461154a565b95945050505050565b600060a082019050611743600083018861154a565b611750602083018761154a565b61175d604083018661154a565b61176a606083018561154a565b61177760808301846113fe565b9695505050505050565b6000604051905081810181811067ffffffffffffffff821117156117a8576117a7611a3c565b5b8060405250919050565b600067ffffffffffffffff8211156117cd576117cc611a3c565b5b601f19601f8301169050602081019050919050565b600081519050919050565b600082825260208201905092915050565b6000611809826118a0565b9150611814836118a0565b9250827fffffffffffffffffffffffffffffffffffffffffffffffffffffffffffffffff03821115611849576118486119af565b5b828201905092915050565b600061185f82611880565b9050919050565b60008115159050919050565b600061ffff82169050919050565b600073ffffffffffffffffffffffffffffffffffffffff82169050919050565b6000819050919050565b600060ff82169050919050565b82818337600083830152505050565b60005b838110156118e45780820151818401526020810190506118c9565b838111156118f3576000848401525b50505050565b6000600282049050600182168061191157607f821691505b6020821081141561192557611924611a0d565b5b50919050565b6000611936826118a0565b91507fffffffffffffffffffffffffffffffffffffffffffffffffffffffffffffffff821415611969576119686119af565b5b600182019050919050565b6000819050919050565b6000611989826118a0565b9150611994836118a0565b9250826119a4576119a36119de565b5b828206905092915050565b7f4e487b7100000000000000000000000000000000000000000000000000000000600052601160045260246000fd5b7f4e487b7100000000000000000000000000000000000000000000000000000000600052601260045260246000fd5b7f4e487b7100000000000000000000000000000000000000000000000000000000600052602260045260246000fd5b7f4e487b7100000000000000000000000000000000000000000000000000000000600052604160045260246000fd5b6000601f19601f8301169050919050565b611a8581611854565b8114611a9057600080fd5b50565b611a9c81611872565b8114611aa757600080fd5b50565b611ab3816118a0565b8114611abe57600080fd5b50565b611aca816118aa565b8114611ad557600080fd5b5056fea26469706673582212200967f7907923919da1433b53a7a685f71865697afb9518ecf9543afd38e61e8964736f6c63430008000033",
  "immutableReferences": {},
  "source": "// SPDX-License-Identifier: UNLICENSED\npragma solidity ^0.8.0;\n\nimport \"./card-factory.sol\";\n\ncontract CardPackFactory is CardFactory {\n\n    uint cardPackFee = 0.005 ether;\n    uint cardPackQuantity = 10;\n    uint rareCardOdds = 3;\n    uint exoticCardOdds = 25;\n    uint legendaryCardOdds = 100;\n\n    mapping (address => uint) public ownerCardCount;\n    mapping (address => bool) public existingUser;\n\n    function purchaseCardPack() external payable {\n        require(msg.value == cardPackFee, \"VALUE SENT NOT EQUAL TO CARD FEE\");\n        _createCardPack();\n    }\n\n    function _createCardPack() internal {\n        uint cardCount = 0;\n\n        cardCount = createNonCommonCard(legendaryCardOdds, cardCount, 3);\n        cardCount = createNonCommonCard(exoticCardOdds, cardCount, 2);\n        cardCount = createNonCommonCard(rareCardOdds, cardCount, 1);\n        createCommonCards(cardCount, cardPackQuantity);\n\n        ownerCardCount[msg.sender] = ownerCardCount[msg.sender] + cardPackQuantity;\n    }\n\n    function setCardPackQuantity(uint _quantity) external onlyOwner {\n        cardPackQuantity = _quantity;\n    }\n\n    function setCardPackFee(uint _fee) external onlyOwner {\n        cardPackFee = _fee;\n    }\n\n    function setRareCardOdds(uint _newOdds) external onlyOwner {\n        rareCardOdds = _newOdds;\n    }\n\n    function setExotixCardOdds(uint _newOdds) external onlyOwner {\n        exoticCardOdds = _newOdds;\n    }\n\n    function setLegendaryCardOdds(uint _newOdds) external onlyOwner {\n        legendaryCardOdds = _newOdds;\n    }\n}",
  "sourcePath": "/Users/tkma4fr/Development/solidity-app/contracts/card-pack-factory.sol",
  "compiler": {
    "name": "solc",
    "version": "0.8.0+commit.c7dfd78e.Emscripten.clang"
  },
  "schemaVersion": "3.4.2",
  "updatedAt": "2021-09-30T01:04:31.276Z",
  "devdoc": {
    "kind": "dev",
    "methods": {
      "owner()": {
        "details": "Returns the address of the current owner."
      },
      "renounceOwnership()": {
        "details": "Leaves the contract without owner. It will not be possible to call `onlyOwner` functions anymore. Can only be called by the current owner. NOTE: Renouncing ownership will leave the contract without an owner, thereby removing any functionality that is only available to the owner."
      },
      "transferOwnership(address)": {
        "details": "Transfers ownership of the contract to a new account (`newOwner`). Can only be called by the current owner."
      }
    },
    "version": 1
  },
  "userdoc": {
    "kind": "user",
    "methods": {},
    "version": 1
  }
}