{
  "contractName": "CardFactory",
  "abi": [
    {
      "anonymous": false,
      "inputs": [
        {
          "indexed": false,
          "internalType": "uint256",
          "name": "cardId",
          "type": "uint256"
        },
        {
          "indexed": false,
          "internalType": "uint256",
          "name": "cardType",
          "type": "uint256"
        }
      ],
      "name": "CardCreated",
      "type": "event"
    },
    {
      "anonymous": false,
      "inputs": [
        {
          "indexed": false,
          "internalType": "uint256",
          "name": "playerId",
          "type": "uint256"
        },
        {
          "indexed": false,
          "internalType": "string",
          "name": "name",
          "type": "string"
        }
      ],
      "name": "NewPlayer",
      "type": "event"
    },
    {
      "anonymous": false,
      "inputs": [
        {
          "indexed": true,
          "internalType": "address",
          "name": "previousOwner",
          "type": "address"
        },
        {
          "indexed": true,
          "internalType": "address",
          "name": "newOwner",
          "type": "address"
        }
      ],
      "name": "OwnershipTransferred",
      "type": "event"
    },
    {
      "inputs": [
        {
          "internalType": "uint256",
          "name": "",
          "type": "uint256"
        }
      ],
      "name": "cardIdToOwner",
      "outputs": [
        {
          "internalType": "address",
          "name": "",
          "type": "address"
        }
      ],
      "stateMutability": "view",
      "type": "function"
    },
    {
      "inputs": [
        {
          "internalType": "uint256",
          "name": "",
          "type": "uint256"
        }
      ],
      "name": "cards",
      "outputs": [
        {
          "internalType": "uint256",
          "name": "cardId",
          "type": "uint256"
        },
        {
          "internalType": "uint256",
          "name": "playerId",
          "type": "uint256"
        },
        {
          "internalType": "uint256",
          "name": "attributeHash",
          "type": "uint256"
        },
        {
          "internalType": "uint256",
          "name": "cardType",
          "type": "uint256"
        }
      ],
      "stateMutability": "view",
      "type": "function"
    },
    {
      "inputs": [
        {
          "internalType": "string",
          "name": "_name",
          "type": "string"
        },
        {
          "internalType": "uint8",
          "name": "_teamId",
          "type": "uint8"
        },
        {
          "internalType": "uint8",
          "name": "_position",
          "type": "uint8"
        },
        {
          "internalType": "uint16",
          "name": "_season",
          "type": "uint16"
        }
      ],
      "name": "createPlayer",
      "outputs": [],
      "stateMutability": "nonpayable",
      "type": "function"
    },
    {
      "inputs": [],
      "name": "owner",
      "outputs": [
        {
          "internalType": "address",
          "name": "",
          "type": "address"
        }
      ],
      "stateMutability": "view",
      "type": "function"
    },
    {
      "inputs": [
        {
          "internalType": "uint256",
          "name": "",
          "type": "uint256"
        }
      ],
      "name": "playerIdToPlayer",
      "outputs": [
        {
          "internalType": "string",
          "name": "name",
          "type": "string"
        },
        {
          "internalType": "uint8",
          "name": "teamId",
          "type": "uint8"
        },
        {
          "internalType": "uint8",
          "name": "position",
          "type": "uint8"
        },
        {
          "internalType": "uint16",
          "name": "season",
          "type": "uint16"
        }
      ],
      "stateMutability": "view",
      "type": "function"
    },
    {
      "inputs": [
        {
          "internalType": "uint256",
          "name": "",
          "type": "uint256"
        }
      ],
      "name": "players",
      "outputs": [
        {
          "internalType": "string",
          "name": "name",
          "type": "string"
        },
        {
          "internalType": "uint8",
          "name": "teamId",
          "type": "uint8"
        },
        {
          "internalType": "uint8",
          "name": "position",
          "type": "uint8"
        },
        {
          "internalType": "uint16",
          "name": "season",
          "type": "uint16"
        }
      ],
      "stateMutability": "view",
      "type": "function"
    },
    {
      "inputs": [],
      "name": "renounceOwnership",
      "outputs": [],
      "stateMutability": "nonpayable",
      "type": "function"
    },
    {
      "inputs": [
        {
          "internalType": "address",
          "name": "newOwner",
          "type": "address"
        }
      ],
      "name": "transferOwnership",
      "outputs": [],
      "stateMutability": "nonpayable",
      "type": "function"
    }
  ],
  "bytecode": "0x6080604052600060055534801561001557600080fd5b5061003261002761003760201b60201c565b61003f60201b60201c565b610103565b600033905090565b60008060009054906101000a900473ffffffffffffffffffffffffffffffffffffffff169050816000806101000a81548173ffffffffffffffffffffffffffffffffffffffff021916908373ffffffffffffffffffffffffffffffffffffffff1602179055508173ffffffffffffffffffffffffffffffffffffffff168173ffffffffffffffffffffffffffffffffffffffff167f8be0079c531659141344cd1fd0a4f28419497f9722a3daafe3b4186f6b6457e060405160405180910390a35050565b610feb806101126000396000f3fe608060405234801561001057600080fd5b50600436106100885760003560e01c80638dc107681161005b5780638dc1076814610101578063b53794c914610134578063f2fde38b14610167578063f71d96cb1461018357610088565b8063419941401461008d5780634ccf0174146100bd578063715018a6146100d95780638da5cb5b146100e3575b600080fd5b6100a760048036038101906100a29190610abd565b6101b6565b6040516100b49190610c01565b60405180910390f35b6100d760048036038101906100d29190610a42565b6101e9565b005b6100e1610435565b005b6100eb6104bd565b6040516100f89190610c01565b60405180910390f35b61011b60048036038101906101169190610abd565b6104e6565b60405161012b9493929190610cd8565b60405180910390f35b61014e60048036038101906101499190610abd565b610526565b60405161015e9493929190610c1c565b60405180910390f35b610181600480360381019061017c9190610a19565b610606565b005b61019d60048036038101906101989190610abd565b6106fe565b6040516101ad9493929190610c1c565b60405180910390f35b60076020528060005260406000206000915054906101000a900473ffffffffffffffffffffffffffffffffffffffff1681565b6101f16107ee565b73ffffffffffffffffffffffffffffffffffffffff1661020f6104bd565b73ffffffffffffffffffffffffffffffffffffffff1614610265576040517f08c379a000000000000000000000000000000000000000000000000000000000815260040161025c90610c88565b60405180910390fd5b600060405180608001604052808681526020018560ff1681526020018460ff1681526020018361ffff168152509050600281908060018154018082558091505060019003906000526020600020906002020160009091909190915060008201518160000190805190602001906102dc9291906108ba565b5060208201518160010160006101000a81548160ff021916908360ff16021790555060408201518160010160016101000a81548160ff021916908360ff16021790555060608201518160010160026101000a81548161ffff021916908361ffff16021790555050508060036000600154815260200190815260200160002060008201518160000190805190602001906103769291906108ba565b5060208201518160010160006101000a81548160ff021916908360ff16021790555060408201518160010160016101000a81548160ff021916908360ff16021790555060608201518160010160026101000a81548161ffff021916908361ffff1602179055509050507fc617f3fbc3f6a35c0509a5f01fb4907e9c6e94cff260c3fe739bafd93cf2240560015486604051610412929190610ca8565b60405180910390a1600180546104289190610d9a565b6001819055505050505050565b61043d6107ee565b73ffffffffffffffffffffffffffffffffffffffff1661045b6104bd565b73ffffffffffffffffffffffffffffffffffffffff16146104b1576040517f08c379a00000000000000000000000000000000000000000000000000000000081526004016104a890610c88565b60405180910390fd5b6104bb60006107f6565b565b60008060009054906101000a900473ffffffffffffffffffffffffffffffffffffffff16905090565b600681815481106104f657600080fd5b90600052602060002090600402016000915090508060000154908060010154908060020154908060030154905084565b600360205280600052604060002060009150905080600001805461054990610e89565b80601f016020809104026020016040519081016040528092919081815260200182805461057590610e89565b80156105c25780601f10610597576101008083540402835291602001916105c2565b820191906000526020600020905b8154815290600101906020018083116105a557829003601f168201915b5050505050908060010160009054906101000a900460ff16908060010160019054906101000a900460ff16908060010160029054906101000a900461ffff16905084565b61060e6107ee565b73ffffffffffffffffffffffffffffffffffffffff1661062c6104bd565b73ffffffffffffffffffffffffffffffffffffffff1614610682576040517f08c379a000000000000000000000000000000000000000000000000000000000815260040161067990610c88565b60405180910390fd5b600073ffffffffffffffffffffffffffffffffffffffff168173ffffffffffffffffffffffffffffffffffffffff1614156106f2576040517f08c379a00000000000000000000000000000000000000000000000000000000081526004016106e990610c68565b60405180910390fd5b6106fb816107f6565b50565b6002818154811061070e57600080fd5b906000526020600020906002020160009150905080600001805461073190610e89565b80601f016020809104026020016040519081016040528092919081815260200182805461075d90610e89565b80156107aa5780601f1061077f576101008083540402835291602001916107aa565b820191906000526020600020905b81548152906001019060200180831161078d57829003601f168201915b5050505050908060010160009054906101000a900460ff16908060010160019054906101000a900460ff16908060010160029054906101000a900461ffff16905084565b600033905090565b60008060009054906101000a900473ffffffffffffffffffffffffffffffffffffffff169050816000806101000a81548173ffffffffffffffffffffffffffffffffffffffff021916908373ffffffffffffffffffffffffffffffffffffffff1602179055508173ffffffffffffffffffffffffffffffffffffffff168173ffffffffffffffffffffffffffffffffffffffff167f8be0079c531659141344cd1fd0a4f28419497f9722a3daafe3b4186f6b6457e060405160405180910390a35050565b8280546108c690610e89565b90600052602060002090601f0160209004810192826108e8576000855561092f565b82601f1061090157805160ff191683800117855561092f565b8280016001018555821561092f579182015b8281111561092e578251825591602001919060010190610913565b5b50905061093c9190610940565b5090565b5b80821115610959576000816000905550600101610941565b5090565b600061097061096b84610d4e565b610d1d565b90508281526020810184848401111561098857600080fd5b610993848285610e47565b509392505050565b6000813590506109aa81610f59565b92915050565b600082601f8301126109c157600080fd5b81356109d184826020860161095d565b91505092915050565b6000813590506109e981610f70565b92915050565b6000813590506109fe81610f87565b92915050565b600081359050610a1381610f9e565b92915050565b600060208284031215610a2b57600080fd5b6000610a398482850161099b565b91505092915050565b60008060008060808587031215610a5857600080fd5b600085013567ffffffffffffffff811115610a7257600080fd5b610a7e878288016109b0565b9450506020610a8f87828801610a04565b9350506040610aa087828801610a04565b9250506060610ab1878288016109da565b91505092959194509250565b600060208284031215610acf57600080fd5b6000610add848285016109ef565b91505092915050565b610aef81610df0565b82525050565b6000610b0082610d7e565b610b0a8185610d89565b9350610b1a818560208601610e56565b610b2381610f48565b840191505092915050565b6000610b3b602683610d89565b91507f4f776e61626c653a206e6577206f776e657220697320746865207a65726f206160008301527f64647265737300000000000000000000000000000000000000000000000000006020830152604082019050919050565b6000610ba1602083610d89565b91507f4f776e61626c653a2063616c6c6572206973206e6f7420746865206f776e65726000830152602082019050919050565b610bdd81610e02565b82525050565b610bec81610e30565b82525050565b610bfb81610e3a565b82525050565b6000602082019050610c166000830184610ae6565b92915050565b60006080820190508181036000830152610c368187610af5565b9050610c456020830186610bf2565b610c526040830185610bf2565b610c5f6060830184610bd4565b95945050505050565b60006020820190508181036000830152610c8181610b2e565b9050919050565b60006020820190508181036000830152610ca181610b94565b9050919050565b6000604082019050610cbd6000830185610be3565b8181036020830152610ccf8184610af5565b90509392505050565b6000608082019050610ced6000830187610be3565b610cfa6020830186610be3565b610d076040830185610be3565b610d146060830184610be3565b95945050505050565b6000604051905081810181811067ffffffffffffffff82111715610d4457610d43610f19565b5b8060405250919050565b600067ffffffffffffffff821115610d6957610d68610f19565b5b601f19601f8301169050602081019050919050565b600081519050919050565b600082825260208201905092915050565b6000610da582610e30565b9150610db083610e30565b9250827fffffffffffffffffffffffffffffffffffffffffffffffffffffffffffffffff03821115610de557610de4610ebb565b5b828201905092915050565b6000610dfb82610e10565b9050919050565b600061ffff82169050919050565b600073ffffffffffffffffffffffffffffffffffffffff82169050919050565b6000819050919050565b600060ff82169050919050565b82818337600083830152505050565b60005b83811015610e74578082015181840152602081019050610e59565b83811115610e83576000848401525b50505050565b60006002820490506001821680610ea157607f821691505b60208210811415610eb557610eb4610eea565b5b50919050565b7f4e487b7100000000000000000000000000000000000000000000000000000000600052601160045260246000fd5b7f4e487b7100000000000000000000000000000000000000000000000000000000600052602260045260246000fd5b7f4e487b7100000000000000000000000000000000000000000000000000000000600052604160045260246000fd5b6000601f19601f8301169050919050565b610f6281610df0565b8114610f6d57600080fd5b50565b610f7981610e02565b8114610f8457600080fd5b50565b610f9081610e30565b8114610f9b57600080fd5b50565b610fa781610e3a565b8114610fb257600080fd5b5056fea26469706673582212207bde6767c0385ebfeb4b936b374774f1e422bf7254a8cf249541a49e9a6820e464736f6c63430008000033",
  "immutableReferences": {},
  "source": "// SPDX-License-Identifier: UNLICENSED\npragma solidity ^0.8.0;\n\nimport \"./player-factory.sol\";\n\ncontract CardFactory is PlayerFactory {\n\n    uint private _tokenId;\n    uint private _randNonce = 0;\n    Card[] public cards;\n\n    mapping (uint => address) public cardIdToOwner;\n\n    event CardCreated(uint cardId, uint cardType);\n    \n    struct Card {\n        uint cardId;\n        uint playerId;\n        uint attributeHash;\n        uint cardType;\n    }\n\n    function createCard(uint _playerId, uint _type) internal {\n        uint attrHash = _generateRandomNumber();\n        Card memory card = Card(_tokenId, _playerId, attrHash, _type);\n        cards.push(card);\n        emit CardCreated(_tokenId, _type);\n        _tokenId = _tokenId + 1;\n    }\n\n    function createCustomCard(uint _playerId, uint _type, uint _attribute) internal returns(uint) {\n        Card memory card = Card(_tokenId, _playerId, _attribute, _type);\n        cards.push(card);\n        emit CardCreated(_tokenId, _type);\n        _tokenId = _tokenId + 1;\n        return _tokenId;\n    }\n\n    function createNonCommonCard(uint _divisor, uint _cardCount, uint _type) internal returns(uint) {\n        uint cardCount = _cardCount;\n\n        if(_generateRandomNumber() % _divisor == 0) {\n            uint playerId = _generateRandomNumber() % players.length;\n            _randNonce = _randNonce + 1;\n            createCard(playerId, _type);\n            cardIdToOwner[_tokenId] = msg.sender;\n            cardCount = _cardCount + 1;\n        }\n\n        return cardCount;\n    }\n\n    function createCommonCards(uint _cardsCreated, uint _cardPackQuantity) internal {\n        for(uint i = _cardsCreated; i < _cardPackQuantity; i++) {\n            uint playerId = _generateRandomNumber() % players.length;\n            _randNonce = _randNonce + 1;\n            createCard(playerId, 0);\n            cardIdToOwner[_tokenId] = msg.sender;\n        }\n    }\n\n    function _generateRandomNumber() internal view returns (uint) {\n        return uint(keccak256(abi.encodePacked(block.difficulty, block.timestamp, _randNonce)));\n    }\n}",
  "sourcePath": "/Users/tkma4fr/Development/solidity-app/contracts/card-factory.sol",
  "compiler": {
    "name": "solc",
    "version": "0.8.0+commit.c7dfd78e.Emscripten.clang"
  },
  "schemaVersion": "3.4.2",
  "updatedAt": "2021-09-22T00:23:44.391Z",
  "devdoc": {
    "kind": "dev",
    "methods": {
      "owner()": {
        "details": "Returns the address of the current owner."
      },
      "renounceOwnership()": {
        "details": "Leaves the contract without owner. It will not be possible to call `onlyOwner` functions anymore. Can only be called by the current owner. NOTE: Renouncing ownership will leave the contract without an owner, thereby removing any functionality that is only available to the owner."
      },
      "transferOwnership(address)": {
        "details": "Transfers ownership of the contract to a new account (`newOwner`). Can only be called by the current owner."
      }
    },
    "version": 1
  },
  "userdoc": {
    "kind": "user",
    "methods": {},
    "version": 1
  }
}