{
  "contractName": "CardPackFactory",
  "abi": [
    {
      "anonymous": false,
      "inputs": [
        {
          "indexed": false,
          "internalType": "uint256",
          "name": "cardId",
          "type": "uint256"
        },
        {
          "indexed": false,
          "internalType": "uint256",
          "name": "cardType",
          "type": "uint256"
        },
        {
          "indexed": false,
          "internalType": "uint256",
          "name": "playerId",
          "type": "uint256"
        },
        {
          "indexed": false,
          "internalType": "uint256",
          "name": "attributeHash",
          "type": "uint256"
        },
        {
          "indexed": true,
          "internalType": "address",
          "name": "owner",
          "type": "address"
        }
      ],
      "name": "CardCreated",
      "type": "event"
    },
    {
      "anonymous": false,
      "inputs": [
        {
          "indexed": true,
          "internalType": "address",
          "name": "owner",
          "type": "address"
        }
      ],
      "name": "CardPackPurchased",
      "type": "event"
    },
    {
      "anonymous": false,
      "inputs": [
        {
          "indexed": true,
          "internalType": "address",
          "name": "previousOwner",
          "type": "address"
        },
        {
          "indexed": true,
          "internalType": "address",
          "name": "newOwner",
          "type": "address"
        }
      ],
      "name": "OwnershipTransferred",
      "type": "event"
    },
    {
      "inputs": [
        {
          "internalType": "uint256",
          "name": "",
          "type": "uint256"
        }
      ],
      "name": "cardIdToOwner",
      "outputs": [
        {
          "internalType": "address",
          "name": "",
          "type": "address"
        }
      ],
      "stateMutability": "view",
      "type": "function"
    },
    {
      "inputs": [
        {
          "internalType": "uint256",
          "name": "",
          "type": "uint256"
        }
      ],
      "name": "cardIsAtIndex",
      "outputs": [
        {
          "internalType": "uint256",
          "name": "",
          "type": "uint256"
        }
      ],
      "stateMutability": "view",
      "type": "function"
    },
    {
      "inputs": [
        {
          "internalType": "uint256",
          "name": "",
          "type": "uint256"
        }
      ],
      "name": "cards",
      "outputs": [
        {
          "internalType": "uint256",
          "name": "cardId",
          "type": "uint256"
        },
        {
          "internalType": "uint256",
          "name": "playerId",
          "type": "uint256"
        },
        {
          "internalType": "uint256",
          "name": "attributeHash",
          "type": "uint256"
        },
        {
          "internalType": "uint256",
          "name": "cardType",
          "type": "uint256"
        }
      ],
      "stateMutability": "view",
      "type": "function"
    },
    {
      "inputs": [
        {
          "internalType": "address",
          "name": "",
          "type": "address"
        }
      ],
      "name": "existingUser",
      "outputs": [
        {
          "internalType": "bool",
          "name": "",
          "type": "bool"
        }
      ],
      "stateMutability": "view",
      "type": "function"
    },
    {
      "inputs": [],
      "name": "owner",
      "outputs": [
        {
          "internalType": "address",
          "name": "",
          "type": "address"
        }
      ],
      "stateMutability": "view",
      "type": "function"
    },
    {
      "inputs": [
        {
          "internalType": "address",
          "name": "",
          "type": "address"
        }
      ],
      "name": "ownerCardCount",
      "outputs": [
        {
          "internalType": "uint256",
          "name": "",
          "type": "uint256"
        }
      ],
      "stateMutability": "view",
      "type": "function"
    },
    {
      "inputs": [],
      "name": "renounceOwnership",
      "outputs": [],
      "stateMutability": "nonpayable",
      "type": "function"
    },
    {
      "inputs": [
        {
          "internalType": "uint256",
          "name": "_count",
          "type": "uint256"
        }
      ],
      "name": "setTotalPlayers",
      "outputs": [],
      "stateMutability": "nonpayable",
      "type": "function"
    },
    {
      "inputs": [
        {
          "internalType": "address",
          "name": "newOwner",
          "type": "address"
        }
      ],
      "name": "transferOwnership",
      "outputs": [],
      "stateMutability": "nonpayable",
      "type": "function"
    },
    {
      "inputs": [
        {
          "internalType": "address",
          "name": "",
          "type": "address"
        },
        {
          "internalType": "uint256",
          "name": "",
          "type": "uint256"
        }
      ],
      "name": "userOwnedCards",
      "outputs": [
        {
          "internalType": "uint256",
          "name": "",
          "type": "uint256"
        }
      ],
      "stateMutability": "view",
      "type": "function"
    },
    {
      "inputs": [],
      "name": "purchaseCardPack",
      "outputs": [],
      "stateMutability": "payable",
      "type": "function"
    },
    {
      "inputs": [
        {
          "internalType": "uint256",
          "name": "_quantity",
          "type": "uint256"
        }
      ],
      "name": "setCardPackQuantity",
      "outputs": [],
      "stateMutability": "nonpayable",
      "type": "function"
    },
    {
      "inputs": [
        {
          "internalType": "uint256",
          "name": "_fee",
          "type": "uint256"
        }
      ],
      "name": "setCardPackFee",
      "outputs": [],
      "stateMutability": "nonpayable",
      "type": "function"
    },
    {
      "inputs": [
        {
          "internalType": "uint256",
          "name": "_newOdds",
          "type": "uint256"
        }
      ],
      "name": "setRareCardOdds",
      "outputs": [],
      "stateMutability": "nonpayable",
      "type": "function"
    },
    {
      "inputs": [
        {
          "internalType": "uint256",
          "name": "_newOdds",
          "type": "uint256"
        }
      ],
      "name": "setExotixCardOdds",
      "outputs": [],
      "stateMutability": "nonpayable",
      "type": "function"
    },
    {
      "inputs": [
        {
          "internalType": "uint256",
          "name": "_newOdds",
          "type": "uint256"
        }
      ],
      "name": "setLegendaryCardOdds",
      "outputs": [],
      "stateMutability": "nonpayable",
      "type": "function"
    }
  ],
  "bytecode": "0x60806040526000600155600060025560bd6003556611c37937e08000600855600a6009556003600a556019600b556064600c5534801561003e57600080fd5b5061005b61005061006060201b60201c565b61006860201b60201c565b61012c565b600033905090565b60008060009054906101000a900473ffffffffffffffffffffffffffffffffffffffff169050816000806101000a81548173ffffffffffffffffffffffffffffffffffffffff021916908373ffffffffffffffffffffffffffffffffffffffff1602179055508173ffffffffffffffffffffffffffffffffffffffff168173ffffffffffffffffffffffffffffffffffffffff167f8be0079c531659141344cd1fd0a4f28419497f9722a3daafe3b4186f6b6457e060405160405180910390a35050565b6113ea8061013b6000396000f3fe6080604052600436106100f35760003560e01c80638dc107681161008a578063b780acc511610059578063b780acc514610330578063c75f384b14610359578063e25d13a814610382578063f2fde38b146103ab576100f3565b80638dc10768146102395780639b3ce46e146102795780639bf822e3146102b6578063a3d2065f146102f3576100f3565b8063552788da116100c6578063552788da14610191578063715018a6146101ba578063804c4b25146101d15780638da5cb5b1461020e576100f3565b80632cfae8d3146100f857806336185bdf1461010257806341845a141461012b5780634199414014610154575b600080fd5b6101006103d4565b005b34801561010e57600080fd5b5061012960048036038101906101249190610f6f565b610465565b005b34801561013757600080fd5b50610152600480360381019061014d9190610f6f565b6104eb565b005b34801561016057600080fd5b5061017b60048036038101906101769190610f6f565b610571565b60405161018891906110ff565b60405180910390f35b34801561019d57600080fd5b506101b860048036038101906101b39190610f6f565b6105a4565b005b3480156101c657600080fd5b506101cf61062a565b005b3480156101dd57600080fd5b506101f860048036038101906101f39190610f0a565b6106b2565b6040516102059190611195565b60405180910390f35b34801561021a57600080fd5b506102236106ca565b60405161023091906110ff565b60405180910390f35b34801561024557600080fd5b50610260600480360381019061025b9190610f6f565b6106f3565b60405161027094939291906111b0565b60405180910390f35b34801561028557600080fd5b506102a0600480360381019061029b9190610f33565b610733565b6040516102ad9190611195565b60405180910390f35b3480156102c257600080fd5b506102dd60048036038101906102d89190610f6f565b610764565b6040516102ea9190611195565b60405180910390f35b3480156102ff57600080fd5b5061031a60048036038101906103159190610f0a565b61077c565b604051610327919061111a565b60405180910390f35b34801561033c57600080fd5b5061035760048036038101906103529190610f6f565b61079c565b005b34801561036557600080fd5b50610380600480360381019061037b9190610f6f565b610822565b005b34801561038e57600080fd5b506103a960048036038101906103a49190610f6f565b6108a8565b005b3480156103b757600080fd5b506103d260048036038101906103cd9190610f0a565b61092e565b005b6008543414610418576040517f08c379a000000000000000000000000000000000000000000000000000000000815260040161040f90611155565b60405180910390fd5b610420610a26565b3373ffffffffffffffffffffffffffffffffffffffff167f1c3899f94ecc08f5f95b67284618b3ca13d80b66fbc5b7f07c6b8bd30f61fcbf60405160405180910390a2565b61046d610af7565b73ffffffffffffffffffffffffffffffffffffffff1661048b6106ca565b73ffffffffffffffffffffffffffffffffffffffff16146104e1576040517f08c379a00000000000000000000000000000000000000000000000000000000081526004016104d890611175565b60405180910390fd5b80600b8190555050565b6104f3610af7565b73ffffffffffffffffffffffffffffffffffffffff166105116106ca565b73ffffffffffffffffffffffffffffffffffffffff1614610567576040517f08c379a000000000000000000000000000000000000000000000000000000000815260040161055e90611175565b60405180910390fd5b80600a8190555050565b60056020528060005260406000206000915054906101000a900473ffffffffffffffffffffffffffffffffffffffff1681565b6105ac610af7565b73ffffffffffffffffffffffffffffffffffffffff166105ca6106ca565b73ffffffffffffffffffffffffffffffffffffffff1614610620576040517f08c379a000000000000000000000000000000000000000000000000000000000815260040161061790611175565b60405180910390fd5b8060088190555050565b610632610af7565b73ffffffffffffffffffffffffffffffffffffffff166106506106ca565b73ffffffffffffffffffffffffffffffffffffffff16146106a6576040517f08c379a000000000000000000000000000000000000000000000000000000000815260040161069d90611175565b60405180910390fd5b6106b06000610aff565b565b600d6020528060005260406000206000915090505481565b60008060009054906101000a900473ffffffffffffffffffffffffffffffffffffffff16905090565b6004818154811061070357600080fd5b90600052602060002090600402016000915090508060000154908060010154908060020154908060030154905084565b6006602052816000526040600020818154811061074f57600080fd5b90600052602060002001600091509150505481565b60076020528060005260406000206000915090505481565b600e6020528060005260406000206000915054906101000a900460ff1681565b6107a4610af7565b73ffffffffffffffffffffffffffffffffffffffff166107c26106ca565b73ffffffffffffffffffffffffffffffffffffffff1614610818576040517f08c379a000000000000000000000000000000000000000000000000000000000815260040161080f90611175565b60405180910390fd5b8060038190555050565b61082a610af7565b73ffffffffffffffffffffffffffffffffffffffff166108486106ca565b73ffffffffffffffffffffffffffffffffffffffff161461089e576040517f08c379a000000000000000000000000000000000000000000000000000000000815260040161089590611175565b60405180910390fd5b80600c8190555050565b6108b0610af7565b73ffffffffffffffffffffffffffffffffffffffff166108ce6106ca565b73ffffffffffffffffffffffffffffffffffffffff1614610924576040517f08c379a000000000000000000000000000000000000000000000000000000000815260040161091b90611175565b60405180910390fd5b8060098190555050565b610936610af7565b73ffffffffffffffffffffffffffffffffffffffff166109546106ca565b73ffffffffffffffffffffffffffffffffffffffff16146109aa576040517f08c379a00000000000000000000000000000000000000000000000000000000081526004016109a190611175565b60405180910390fd5b600073ffffffffffffffffffffffffffffffffffffffff168173ffffffffffffffffffffffffffffffffffffffff161415610a1a576040517f08c379a0000000000000000000000000000000000000000000000000000000008152600401610a1190611135565b60405180910390fd5b610a2381610aff565b50565b6000610a36600c54826003610bc3565b9050610a46600b54826002610bc3565b9050610a56600a54826001610bc3565b9050610a6481600954610c38565b600954600d60003373ffffffffffffffffffffffffffffffffffffffff1673ffffffffffffffffffffffffffffffffffffffff16815260200190815260200160002054610ab19190611206565b600d60003373ffffffffffffffffffffffffffffffffffffffff1673ffffffffffffffffffffffffffffffffffffffff1681526020019081526020016000208190555050565b600033905090565b60008060009054906101000a900473ffffffffffffffffffffffffffffffffffffffff169050816000806101000a81548173ffffffffffffffffffffffffffffffffffffffff021916908373ffffffffffffffffffffffffffffffffffffffff1602179055508173ffffffffffffffffffffffffffffffffffffffff168173ffffffffffffffffffffffffffffffffffffffff167f8be0079c531659141344cd1fd0a4f28419497f9722a3daafe3b4186f6b6457e060405160405180910390a35050565b600080839050600085610bd4610c98565b610bde91906112f7565b1415610c2d576000600354610bf1610c98565b610bfb91906112f7565b90506001600254610c0c9190611206565b600281905550610c1c8185610ccf565b600185610c299190611206565b9150505b809150509392505050565b60008290505b81811015610c93576000600354610c53610c98565b610c5d91906112f7565b90506001600254610c6e9190611206565b600281905550610c7f816000610ccf565b508080610c8b906112a4565b915050610c3e565b505050565b60004442600254604051602001610cb1939291906110c2565b6040516020818303038152906040528051906020012060001c905090565b6000610cd9610c98565b905060006040518060800160405280600154815260200185815260200183815260200184815250905060048190806001815401808255809150506001900390600052602060002090600402016000909190919091506000820151816000015560208201518160010155604082015181600201556060820151816003015550503373ffffffffffffffffffffffffffffffffffffffff167fa47f2b648fe6fee6023b9227628b751649f165f204c8a6e75d3146aca5b1b8a6600154858786604051610da694939291906111b0565b60405180910390a23360056000600154815260200190815260200160002060006101000a81548173ffffffffffffffffffffffffffffffffffffffff021916908373ffffffffffffffffffffffffffffffffffffffff160217905550600660003373ffffffffffffffffffffffffffffffffffffffff1673ffffffffffffffffffffffffffffffffffffffff1681526020019081526020016000206001549080600181540180825580915050600190039060005260206000200160009091909190915055600660003373ffffffffffffffffffffffffffffffffffffffff1673ffffffffffffffffffffffffffffffffffffffff168152602001908152602001600020805490506007600060015481526020019081526020016000208190555060018054610ed49190611206565b60018190555050505050565b600081359050610eef81611386565b92915050565b600081359050610f048161139d565b92915050565b600060208284031215610f1c57600080fd5b6000610f2a84828501610ee0565b91505092915050565b60008060408385031215610f4657600080fd5b6000610f5485828601610ee0565b9250506020610f6585828601610ef5565b9150509250929050565b600060208284031215610f8157600080fd5b6000610f8f84828501610ef5565b91505092915050565b610fa18161125c565b82525050565b610fb08161126e565b82525050565b6000610fc36026836111f5565b91507f4f776e61626c653a206e6577206f776e657220697320746865207a65726f206160008301527f64647265737300000000000000000000000000000000000000000000000000006020830152604082019050919050565b60006110296020836111f5565b91507f56414c55452053454e54204e4f5420455155414c20544f2043415244204645456000830152602082019050919050565b60006110696020836111f5565b91507f4f776e61626c653a2063616c6c6572206973206e6f7420746865206f776e65726000830152602082019050919050565b6110a58161129a565b82525050565b6110bc6110b78261129a565b6112ed565b82525050565b60006110ce82866110ab565b6020820191506110de82856110ab565b6020820191506110ee82846110ab565b602082019150819050949350505050565b60006020820190506111146000830184610f98565b92915050565b600060208201905061112f6000830184610fa7565b92915050565b6000602082019050818103600083015261114e81610fb6565b9050919050565b6000602082019050818103600083015261116e8161101c565b9050919050565b6000602082019050818103600083015261118e8161105c565b9050919050565b60006020820190506111aa600083018461109c565b92915050565b60006080820190506111c5600083018761109c565b6111d2602083018661109c565b6111df604083018561109c565b6111ec606083018461109c565b95945050505050565b600082825260208201905092915050565b60006112118261129a565b915061121c8361129a565b9250827fffffffffffffffffffffffffffffffffffffffffffffffffffffffffffffffff0382111561125157611250611328565b5b828201905092915050565b60006112678261127a565b9050919050565b60008115159050919050565b600073ffffffffffffffffffffffffffffffffffffffff82169050919050565b6000819050919050565b60006112af8261129a565b91507fffffffffffffffffffffffffffffffffffffffffffffffffffffffffffffffff8214156112e2576112e1611328565b5b600182019050919050565b6000819050919050565b60006113028261129a565b915061130d8361129a565b92508261131d5761131c611357565b5b828206905092915050565b7f4e487b7100000000000000000000000000000000000000000000000000000000600052601160045260246000fd5b7f4e487b7100000000000000000000000000000000000000000000000000000000600052601260045260246000fd5b61138f8161125c565b811461139a57600080fd5b50565b6113a68161129a565b81146113b157600080fd5b5056fea26469706673582212205ddd9c4e556afdc9a8d9536b853b276572bbf54a915953f35c1fe4cc4b16f2a864736f6c63430008000033",
  "immutableReferences": {},
  "source": "// SPDX-License-Identifier: UNLICENSED\npragma solidity ^0.8.0;\n\nimport \"./card-factory.sol\";\n\ncontract CardPackFactory is CardFactory {\n\n    uint cardPackFee = 0.005 ether;\n    uint cardPackQuantity = 10;\n    uint rareCardOdds = 3;\n    uint exoticCardOdds = 25;\n    uint legendaryCardOdds = 100;\n\n    mapping (address => uint) public ownerCardCount;\n    mapping (address => bool) public existingUser;\n\n    event CardPackPurchased(address indexed owner);\n\n    function purchaseCardPack() external payable {\n        require(msg.value == cardPackFee, \"VALUE SENT NOT EQUAL TO CARD FEE\");\n        _createCardPack();\n        emit CardPackPurchased(msg.sender);\n    }\n\n    function _createCardPack() internal {\n        uint cardCount = 0;\n\n        cardCount = createNonCommonCard(legendaryCardOdds, cardCount, 3);\n        cardCount = createNonCommonCard(exoticCardOdds, cardCount, 2);\n        cardCount = createNonCommonCard(rareCardOdds, cardCount, 1);\n        createCommonCards(cardCount, cardPackQuantity);\n\n        ownerCardCount[msg.sender] = ownerCardCount[msg.sender] + cardPackQuantity;\n    }\n\n    function setCardPackQuantity(uint _quantity) external onlyOwner {\n        cardPackQuantity = _quantity;\n    }\n\n    function setCardPackFee(uint _fee) external onlyOwner {\n        cardPackFee = _fee;\n    }\n\n    function setRareCardOdds(uint _newOdds) external onlyOwner {\n        rareCardOdds = _newOdds;\n    }\n\n    function setExotixCardOdds(uint _newOdds) external onlyOwner {\n        exoticCardOdds = _newOdds;\n    }\n\n    function setLegendaryCardOdds(uint _newOdds) external onlyOwner {\n        legendaryCardOdds = _newOdds;\n    }\n}",
  "sourcePath": "/Users/tkma4fr/Development/solidity-app/contracts/card-pack-factory.sol",
  "compiler": {
    "name": "solc",
    "version": "0.8.0+commit.c7dfd78e.Emscripten.clang"
  },
  "schemaVersion": "3.4.2",
  "updatedAt": "2021-10-11T19:11:12.618Z",
  "devdoc": {
    "kind": "dev",
    "methods": {
      "owner()": {
        "details": "Returns the address of the current owner."
      },
      "renounceOwnership()": {
        "details": "Leaves the contract without owner. It will not be possible to call `onlyOwner` functions anymore. Can only be called by the current owner. NOTE: Renouncing ownership will leave the contract without an owner, thereby removing any functionality that is only available to the owner."
      },
      "transferOwnership(address)": {
        "details": "Transfers ownership of the contract to a new account (`newOwner`). Can only be called by the current owner."
      }
    },
    "version": 1
  },
  "userdoc": {
    "kind": "user",
    "methods": {},
    "version": 1
  }
}