{
  "contractName": "CardOwnership",
  "abi": [
    {
      "anonymous": false,
      "inputs": [
        {
          "indexed": true,
          "internalType": "address",
          "name": "_owner",
          "type": "address"
        },
        {
          "indexed": true,
          "internalType": "address",
          "name": "_approved",
          "type": "address"
        },
        {
          "indexed": true,
          "internalType": "uint256",
          "name": "_tokenId",
          "type": "uint256"
        }
      ],
      "name": "Approval",
      "type": "event"
    },
    {
      "anonymous": false,
      "inputs": [
        {
          "indexed": true,
          "internalType": "address",
          "name": "_owner",
          "type": "address"
        },
        {
          "indexed": true,
          "internalType": "address",
          "name": "_operator",
          "type": "address"
        },
        {
          "indexed": false,
          "internalType": "bool",
          "name": "_approved",
          "type": "bool"
        }
      ],
      "name": "ApprovalForAll",
      "type": "event"
    },
    {
      "anonymous": false,
      "inputs": [
        {
          "indexed": false,
          "internalType": "uint256",
          "name": "cardId",
          "type": "uint256"
        },
        {
          "indexed": false,
          "internalType": "uint256",
          "name": "cardType",
          "type": "uint256"
        },
        {
          "indexed": false,
          "internalType": "uint256",
          "name": "playerId",
          "type": "uint256"
        },
        {
          "indexed": false,
          "internalType": "uint256",
          "name": "attributeHash",
          "type": "uint256"
        },
        {
          "indexed": true,
          "internalType": "address",
          "name": "owner",
          "type": "address"
        }
      ],
      "name": "CardCreated",
      "type": "event"
    },
    {
      "anonymous": false,
      "inputs": [
        {
          "indexed": true,
          "internalType": "address",
          "name": "previousOwner",
          "type": "address"
        },
        {
          "indexed": true,
          "internalType": "address",
          "name": "newOwner",
          "type": "address"
        }
      ],
      "name": "OwnershipTransferred",
      "type": "event"
    },
    {
      "anonymous": false,
      "inputs": [
        {
          "indexed": true,
          "internalType": "address",
          "name": "_from",
          "type": "address"
        },
        {
          "indexed": true,
          "internalType": "address",
          "name": "_to",
          "type": "address"
        },
        {
          "indexed": true,
          "internalType": "uint256",
          "name": "_tokenId",
          "type": "uint256"
        }
      ],
      "name": "Transfer",
      "type": "event"
    },
    {
      "inputs": [
        {
          "internalType": "uint256",
          "name": "",
          "type": "uint256"
        }
      ],
      "name": "cardIdToOwner",
      "outputs": [
        {
          "internalType": "address",
          "name": "",
          "type": "address"
        }
      ],
      "stateMutability": "view",
      "type": "function"
    },
    {
      "inputs": [
        {
          "internalType": "uint256",
          "name": "",
          "type": "uint256"
        }
      ],
      "name": "cards",
      "outputs": [
        {
          "internalType": "uint256",
          "name": "cardId",
          "type": "uint256"
        },
        {
          "internalType": "uint256",
          "name": "playerId",
          "type": "uint256"
        },
        {
          "internalType": "uint256",
          "name": "attributeHash",
          "type": "uint256"
        },
        {
          "internalType": "uint256",
          "name": "cardType",
          "type": "uint256"
        }
      ],
      "stateMutability": "view",
      "type": "function"
    },
    {
      "inputs": [
        {
          "internalType": "address",
          "name": "",
          "type": "address"
        }
      ],
      "name": "existingUser",
      "outputs": [
        {
          "internalType": "bool",
          "name": "",
          "type": "bool"
        }
      ],
      "stateMutability": "view",
      "type": "function"
    },
    {
      "inputs": [],
      "name": "getTotalCards",
      "outputs": [
        {
          "internalType": "uint256",
          "name": "",
          "type": "uint256"
        }
      ],
      "stateMutability": "view",
      "type": "function"
    },
    {
      "inputs": [],
      "name": "owner",
      "outputs": [
        {
          "internalType": "address",
          "name": "",
          "type": "address"
        }
      ],
      "stateMutability": "view",
      "type": "function"
    },
    {
      "inputs": [
        {
          "internalType": "address",
          "name": "",
          "type": "address"
        }
      ],
      "name": "ownerCardCount",
      "outputs": [
        {
          "internalType": "uint256",
          "name": "",
          "type": "uint256"
        }
      ],
      "stateMutability": "view",
      "type": "function"
    },
    {
      "inputs": [],
      "name": "purchaseCardPack",
      "outputs": [],
      "stateMutability": "payable",
      "type": "function"
    },
    {
      "inputs": [],
      "name": "renounceOwnership",
      "outputs": [],
      "stateMutability": "nonpayable",
      "type": "function"
    },
    {
      "inputs": [
        {
          "internalType": "uint256",
          "name": "_fee",
          "type": "uint256"
        }
      ],
      "name": "setCardPackFee",
      "outputs": [],
      "stateMutability": "nonpayable",
      "type": "function"
    },
    {
      "inputs": [
        {
          "internalType": "uint256",
          "name": "_quantity",
          "type": "uint256"
        }
      ],
      "name": "setCardPackQuantity",
      "outputs": [],
      "stateMutability": "nonpayable",
      "type": "function"
    },
    {
      "inputs": [
        {
          "internalType": "uint256",
          "name": "_newOdds",
          "type": "uint256"
        }
      ],
      "name": "setExotixCardOdds",
      "outputs": [],
      "stateMutability": "nonpayable",
      "type": "function"
    },
    {
      "inputs": [
        {
          "internalType": "uint256",
          "name": "_newOdds",
          "type": "uint256"
        }
      ],
      "name": "setLegendaryCardOdds",
      "outputs": [],
      "stateMutability": "nonpayable",
      "type": "function"
    },
    {
      "inputs": [
        {
          "internalType": "uint256",
          "name": "_newOdds",
          "type": "uint256"
        }
      ],
      "name": "setRareCardOdds",
      "outputs": [],
      "stateMutability": "nonpayable",
      "type": "function"
    },
    {
      "inputs": [
        {
          "internalType": "uint256",
          "name": "_count",
          "type": "uint256"
        }
      ],
      "name": "setTotalPlayers",
      "outputs": [],
      "stateMutability": "nonpayable",
      "type": "function"
    },
    {
      "inputs": [
        {
          "internalType": "address",
          "name": "newOwner",
          "type": "address"
        }
      ],
      "name": "transferOwnership",
      "outputs": [],
      "stateMutability": "nonpayable",
      "type": "function"
    },
    {
      "inputs": [
        {
          "internalType": "address",
          "name": "_owner",
          "type": "address"
        }
      ],
      "name": "balanceOf",
      "outputs": [
        {
          "internalType": "uint256",
          "name": "",
          "type": "uint256"
        }
      ],
      "stateMutability": "view",
      "type": "function"
    },
    {
      "inputs": [
        {
          "internalType": "uint256",
          "name": "_tokenId",
          "type": "uint256"
        }
      ],
      "name": "ownerOf",
      "outputs": [
        {
          "internalType": "address",
          "name": "",
          "type": "address"
        }
      ],
      "stateMutability": "view",
      "type": "function"
    },
    {
      "inputs": [
        {
          "internalType": "address",
          "name": "_from",
          "type": "address"
        },
        {
          "internalType": "address",
          "name": "_to",
          "type": "address"
        },
        {
          "internalType": "uint256",
          "name": "_tokenId",
          "type": "uint256"
        }
      ],
      "name": "safeTransferFrom",
      "outputs": [],
      "stateMutability": "payable",
      "type": "function"
    },
    {
      "inputs": [
        {
          "internalType": "address",
          "name": "_from",
          "type": "address"
        },
        {
          "internalType": "address",
          "name": "_to",
          "type": "address"
        },
        {
          "internalType": "uint256",
          "name": "_tokenId",
          "type": "uint256"
        },
        {
          "internalType": "bytes",
          "name": "_data",
          "type": "bytes"
        }
      ],
      "name": "safeTransferFrom",
      "outputs": [],
      "stateMutability": "payable",
      "type": "function"
    },
    {
      "inputs": [
        {
          "internalType": "address",
          "name": "_from",
          "type": "address"
        },
        {
          "internalType": "address",
          "name": "_to",
          "type": "address"
        },
        {
          "internalType": "uint256",
          "name": "_tokenId",
          "type": "uint256"
        }
      ],
      "name": "transferFrom",
      "outputs": [],
      "stateMutability": "payable",
      "type": "function"
    },
    {
      "inputs": [
        {
          "internalType": "address",
          "name": "_approved",
          "type": "address"
        },
        {
          "internalType": "uint256",
          "name": "_tokenId",
          "type": "uint256"
        }
      ],
      "name": "approve",
      "outputs": [],
      "stateMutability": "payable",
      "type": "function"
    },
    {
      "inputs": [
        {
          "internalType": "address",
          "name": "_operator",
          "type": "address"
        },
        {
          "internalType": "bool",
          "name": "_approved",
          "type": "bool"
        }
      ],
      "name": "setApprovalForAll",
      "outputs": [],
      "stateMutability": "nonpayable",
      "type": "function"
    },
    {
      "inputs": [
        {
          "internalType": "uint256",
          "name": "_tokenId",
          "type": "uint256"
        }
      ],
      "name": "getApproved",
      "outputs": [
        {
          "internalType": "address",
          "name": "",
          "type": "address"
        }
      ],
      "stateMutability": "view",
      "type": "function"
    },
    {
      "inputs": [
        {
          "internalType": "address",
          "name": "_owner",
          "type": "address"
        },
        {
          "internalType": "address",
          "name": "_operator",
          "type": "address"
        }
      ],
      "name": "isApprovedForAll",
      "outputs": [
        {
          "internalType": "bool",
          "name": "",
          "type": "bool"
        }
      ],
      "stateMutability": "view",
      "type": "function"
    },
    {
      "inputs": [
        {
          "internalType": "address",
          "name": "_to",
          "type": "address"
        },
        {
          "internalType": "uint256",
          "name": "_playerId",
          "type": "uint256"
        },
        {
          "internalType": "uint256",
          "name": "_type",
          "type": "uint256"
        },
        {
          "internalType": "uint256",
          "name": "_attributes",
          "type": "uint256"
        }
      ],
      "name": "mintCustomCard",
      "outputs": [],
      "stateMutability": "nonpayable",
      "type": "function"
    }
  ],
  "bytecode": "0x60806040526000600155600060025560bd6003556611c37937e08000600655600a600755600360085560196009556064600a553480156200003f57600080fd5b5062000060620000546200006660201b60201c565b6200006e60201b60201c565b62000132565b600033905090565b60008060009054906101000a900473ffffffffffffffffffffffffffffffffffffffff169050816000806101000a81548173ffffffffffffffffffffffffffffffffffffffff021916908373ffffffffffffffffffffffffffffffffffffffff1602179055508173ffffffffffffffffffffffffffffffffffffffff168173ffffffffffffffffffffffffffffffffffffffff167f8be0079c531659141344cd1fd0a4f28419497f9722a3daafe3b4186f6b6457e060405160405180910390a35050565b612b0480620001426000396000f3fe6080604052600436106101665760003560e01c8063804c4b25116100d1578063b780acc51161008a578063c75f384b11610064578063c75f384b146104f6578063e25d13a81461051f578063e985e9c514610548578063f2fde38b1461058557610166565b8063b780acc514610486578063b88d4fde146104af578063b8d2caee146104cb57610166565b8063804c4b251461034f578063828c730c1461038c5780638da5cb5b146103b55780638dc10768146103e0578063a22cb46514610420578063a3d2065f1461044957610166565b80634199414011610123578063419941401461023c57806342842e0e14610279578063552788da146102955780636352211e146102be57806370a08231146102fb578063715018a61461033857610166565b8063081812fc1461016b578063095ea7b3146101a857806323b872dd146101c45780632cfae8d3146101e057806336185bdf146101ea57806341845a1414610213575b600080fd5b34801561017757600080fd5b50610192600480360381019061018d919061236a565b6105ae565b60405161019f9190612673565b60405180910390f35b6101c260048036038101906101bd91906122a2565b610690565b005b6101de60048036038101906101d99190612197565b61098b565b005b6101e8610bad565b005b3480156101f657600080fd5b50610211600480360381019061020c919061236a565b610bfb565b005b34801561021f57600080fd5b5061023a6004803603810190610235919061236a565b610c81565b005b34801561024857600080fd5b50610263600480360381019061025e919061236a565b610d07565b6040516102709190612673565b60405180910390f35b610293600480360381019061028e9190612197565b610d3a565b005b3480156102a157600080fd5b506102bc60048036038101906102b7919061236a565b610d5a565b005b3480156102ca57600080fd5b506102e560048036038101906102e0919061236a565b610de0565b6040516102f29190612673565b60405180910390f35b34801561030757600080fd5b50610322600480360381019061031d9190612132565b610e1d565b60405161032f91906127f5565b60405180910390f35b34801561034457600080fd5b5061034d610e66565b005b34801561035b57600080fd5b5061037660048036038101906103719190612132565b610eee565b60405161038391906127f5565b60405180910390f35b34801561039857600080fd5b506103b360048036038101906103ae91906122de565b610f06565b005b3480156103c157600080fd5b506103ca610fb6565b6040516103d79190612673565b60405180910390f35b3480156103ec57600080fd5b506104076004803603810190610402919061236a565b610fdf565b6040516104179493929190612810565b60405180910390f35b34801561042c57600080fd5b5061044760048036038101906104429190612266565b61101f565b005b34801561045557600080fd5b50610470600480360381019061046b9190612132565b61111c565b60405161047d91906126da565b60405180910390f35b34801561049257600080fd5b506104ad60048036038101906104a8919061236a565b61113c565b005b6104c960048036038101906104c491906121e6565b6111c2565b005b3480156104d757600080fd5b506104e0611219565b6040516104ed91906127f5565b60405180910390f35b34801561050257600080fd5b5061051d6004803603810190610518919061236a565b611226565b005b34801561052b57600080fd5b506105466004803603810190610541919061236a565b6112ac565b005b34801561055457600080fd5b5061056f600480360381019061056a919061215b565b611332565b60405161057c91906126da565b60405180910390f35b34801561059157600080fd5b506105ac60048036038101906105a79190612132565b6113c6565b005b600081600073ffffffffffffffffffffffffffffffffffffffff166005600083815260200190815260200160002060009054906101000a900473ffffffffffffffffffffffffffffffffffffffff1673ffffffffffffffffffffffffffffffffffffffff161415610654576040517f08c379a000000000000000000000000000000000000000000000000000000000815260040161064b90612715565b60405180910390fd5b600d600084815260200190815260200160002060009054906101000a900473ffffffffffffffffffffffffffffffffffffffff16915050919050565b8060006005600083815260200190815260200160002060009054906101000a900473ffffffffffffffffffffffffffffffffffffffff1690503373ffffffffffffffffffffffffffffffffffffffff168173ffffffffffffffffffffffffffffffffffffffff1614806107895750600e60008273ffffffffffffffffffffffffffffffffffffffff1673ffffffffffffffffffffffffffffffffffffffff16815260200190815260200160002060003373ffffffffffffffffffffffffffffffffffffffff1673ffffffffffffffffffffffffffffffffffffffff16815260200190815260200160002060009054906101000a900460ff165b61079257600080fd5b82600073ffffffffffffffffffffffffffffffffffffffff166005600083815260200190815260200160002060009054906101000a900473ffffffffffffffffffffffffffffffffffffffff1673ffffffffffffffffffffffffffffffffffffffff161415610836576040517f08c379a000000000000000000000000000000000000000000000000000000000815260040161082d90612715565b60405180910390fd5b6005600085815260200190815260200160002060009054906101000a900473ffffffffffffffffffffffffffffffffffffffff1673ffffffffffffffffffffffffffffffffffffffff163373ffffffffffffffffffffffffffffffffffffffff16146108d7576040517f08c379a00000000000000000000000000000000000000000000000000000000081526004016108ce906127d5565b60405180910390fd5b84600d600086815260200190815260200160002060006101000a81548173ffffffffffffffffffffffffffffffffffffffff021916908373ffffffffffffffffffffffffffffffffffffffff160217905550838573ffffffffffffffffffffffffffffffffffffffff163373ffffffffffffffffffffffffffffffffffffffff167f8c5be1e5ebec7d5bd14f71427d1e84f3dd0314c0f7b2291e5b200ac8c7c3b92560405160405180910390a45050505050565b8060006005600083815260200190815260200160002060009054906101000a900473ffffffffffffffffffffffffffffffffffffffff1690503373ffffffffffffffffffffffffffffffffffffffff168173ffffffffffffffffffffffffffffffffffffffff161480610a5c57503373ffffffffffffffffffffffffffffffffffffffff16600d600084815260200190815260200160002060009054906101000a900473ffffffffffffffffffffffffffffffffffffffff1673ffffffffffffffffffffffffffffffffffffffff16145b80610aed5750600e60008273ffffffffffffffffffffffffffffffffffffffff1673ffffffffffffffffffffffffffffffffffffffff16815260200190815260200160002060003373ffffffffffffffffffffffffffffffffffffffff1673ffffffffffffffffffffffffffffffffffffffff16815260200190815260200160002060009054906101000a900460ff165b610af657600080fd5b82600073ffffffffffffffffffffffffffffffffffffffff166005600083815260200190815260200160002060009054906101000a900473ffffffffffffffffffffffffffffffffffffffff1673ffffffffffffffffffffffffffffffffffffffff161415610b9a576040517f08c379a0000000000000000000000000000000000000000000000000000000008152600401610b9190612715565b60405180910390fd5b610ba58686866114be565b505050505050565b6006543414610bf1576040517f08c379a0000000000000000000000000000000000000000000000000000000008152600401610be890612735565b60405180910390fd5b610bf96115a6565b565b610c03611677565b73ffffffffffffffffffffffffffffffffffffffff16610c21610fb6565b73ffffffffffffffffffffffffffffffffffffffff1614610c77576040517f08c379a0000000000000000000000000000000000000000000000000000000008152600401610c6e90612795565b60405180910390fd5b8060098190555050565b610c89611677565b73ffffffffffffffffffffffffffffffffffffffff16610ca7610fb6565b73ffffffffffffffffffffffffffffffffffffffff1614610cfd576040517f08c379a0000000000000000000000000000000000000000000000000000000008152600401610cf490612795565b60405180910390fd5b8060088190555050565b60056020528060005260406000206000915054906101000a900473ffffffffffffffffffffffffffffffffffffffff1681565b610d558383836040518060200160405280600081525061167f565b505050565b610d62611677565b73ffffffffffffffffffffffffffffffffffffffff16610d80610fb6565b73ffffffffffffffffffffffffffffffffffffffff1614610dd6576040517f08c379a0000000000000000000000000000000000000000000000000000000008152600401610dcd90612795565b60405180910390fd5b8060068190555050565b60006005600083815260200190815260200160002060009054906101000a900473ffffffffffffffffffffffffffffffffffffffff169050919050565b6000600b60008373ffffffffffffffffffffffffffffffffffffffff1673ffffffffffffffffffffffffffffffffffffffff168152602001908152602001600020549050919050565b610e6e611677565b73ffffffffffffffffffffffffffffffffffffffff16610e8c610fb6565b73ffffffffffffffffffffffffffffffffffffffff1614610ee2576040517f08c379a0000000000000000000000000000000000000000000000000000000008152600401610ed990612795565b60405180910390fd5b610eec6000611a54565b565b600b6020528060005260406000206000915090505481565b610f0e611677565b73ffffffffffffffffffffffffffffffffffffffff16610f2c610fb6565b73ffffffffffffffffffffffffffffffffffffffff1614610f82576040517f08c379a0000000000000000000000000000000000000000000000000000000008152600401610f7990612795565b60405180910390fd5b6000610f8f848484611b18565b9050610f9b8582611bf9565b60018054610fa99190612882565b6001819055505050505050565b60008060009054906101000a900473ffffffffffffffffffffffffffffffffffffffff16905090565b60048181548110610fef57600080fd5b90600052602060002090600402016000915090508060000154908060010154908060020154908060030154905084565b80600e60003373ffffffffffffffffffffffffffffffffffffffff1673ffffffffffffffffffffffffffffffffffffffff16815260200190815260200160002060008473ffffffffffffffffffffffffffffffffffffffff1673ffffffffffffffffffffffffffffffffffffffff16815260200190815260200160002060006101000a81548160ff0219169083151502179055508173ffffffffffffffffffffffffffffffffffffffff163373ffffffffffffffffffffffffffffffffffffffff167f17307eab39ab6107e8899845ad3d59bd9653f200f220920489ca2b5937696c318360405161111091906126da565b60405180910390a35050565b600c6020528060005260406000206000915054906101000a900460ff1681565b611144611677565b73ffffffffffffffffffffffffffffffffffffffff16611162610fb6565b73ffffffffffffffffffffffffffffffffffffffff16146111b8576040517f08c379a00000000000000000000000000000000000000000000000000000000081526004016111af90612795565b60405180910390fd5b8060038190555050565b61121285858585858080601f016020809104026020016040519081016040528093929190818152602001838380828437600081840152601f19601f8201169050808301925050505050505061167f565b5050505050565b6000600480549050905090565b61122e611677565b73ffffffffffffffffffffffffffffffffffffffff1661124c610fb6565b73ffffffffffffffffffffffffffffffffffffffff16146112a2576040517f08c379a000000000000000000000000000000000000000000000000000000000815260040161129990612795565b60405180910390fd5b80600a8190555050565b6112b4611677565b73ffffffffffffffffffffffffffffffffffffffff166112d2610fb6565b73ffffffffffffffffffffffffffffffffffffffff1614611328576040517f08c379a000000000000000000000000000000000000000000000000000000000815260040161131f90612795565b60405180910390fd5b8060078190555050565b6000600e60008473ffffffffffffffffffffffffffffffffffffffff1673ffffffffffffffffffffffffffffffffffffffff16815260200190815260200160002060008373ffffffffffffffffffffffffffffffffffffffff1673ffffffffffffffffffffffffffffffffffffffff16815260200190815260200160002060009054906101000a900460ff16905092915050565b6113ce611677565b73ffffffffffffffffffffffffffffffffffffffff166113ec610fb6565b73ffffffffffffffffffffffffffffffffffffffff1614611442576040517f08c379a000000000000000000000000000000000000000000000000000000000815260040161143990612795565b60405180910390fd5b600073ffffffffffffffffffffffffffffffffffffffff168173ffffffffffffffffffffffffffffffffffffffff1614156114b2576040517f08c379a00000000000000000000000000000000000000000000000000000000081526004016114a9906126f5565b60405180910390fd5b6114bb81611a54565b50565b600d600082815260200190815260200160002060006101000a81549073ffffffffffffffffffffffffffffffffffffffff0219169055816005600083815260200190815260200160002060006101000a81548173ffffffffffffffffffffffffffffffffffffffff021916908373ffffffffffffffffffffffffffffffffffffffff160217905550808273ffffffffffffffffffffffffffffffffffffffff168473ffffffffffffffffffffffffffffffffffffffff167fddf252ad1be2c89b69c2b068fc378daa952ba7f163c4a11628f55a4df523b3ef60405160405180910390a4505050565b60006115b6600a54826003611df0565b90506115c6600954826002611df0565b90506115d6600854826001611df0565b90506115e481600754611e65565b600754600b60003373ffffffffffffffffffffffffffffffffffffffff1673ffffffffffffffffffffffffffffffffffffffff168152602001908152602001600020546116319190612882565b600b60003373ffffffffffffffffffffffffffffffffffffffff1673ffffffffffffffffffffffffffffffffffffffff1681526020019081526020016000208190555050565b600033905090565b8160006005600083815260200190815260200160002060009054906101000a900473ffffffffffffffffffffffffffffffffffffffff1690503373ffffffffffffffffffffffffffffffffffffffff168173ffffffffffffffffffffffffffffffffffffffff16148061175057503373ffffffffffffffffffffffffffffffffffffffff16600d600084815260200190815260200160002060009054906101000a900473ffffffffffffffffffffffffffffffffffffffff1673ffffffffffffffffffffffffffffffffffffffff16145b806117e15750600e60008273ffffffffffffffffffffffffffffffffffffffff1673ffffffffffffffffffffffffffffffffffffffff16815260200190815260200160002060003373ffffffffffffffffffffffffffffffffffffffff1673ffffffffffffffffffffffffffffffffffffffff16815260200190815260200160002060009054906101000a900460ff165b6117ea57600080fd5b83600073ffffffffffffffffffffffffffffffffffffffff166005600083815260200190815260200160002060009054906101000a900473ffffffffffffffffffffffffffffffffffffffff1673ffffffffffffffffffffffffffffffffffffffff16141561188e576040517f08c379a000000000000000000000000000000000000000000000000000000000815260040161188590612715565b60405180910390fd5b600073ffffffffffffffffffffffffffffffffffffffff168673ffffffffffffffffffffffffffffffffffffffff1614156118fe576040517f08c379a00000000000000000000000000000000000000000000000000000000081526004016118f5906127b5565b60405180910390fd5b6119098787876114be565b6119288673ffffffffffffffffffffffffffffffffffffffff16611ec5565b15611a4b5760008673ffffffffffffffffffffffffffffffffffffffff1663150b7a02338a89896040518563ffffffff1660e01b815260040161196e949392919061268e565b602060405180830381600087803b15801561198857600080fd5b505af115801561199c573d6000803e3d6000fd5b505050506040513d601f19601f820116820180604052508101906119c09190612341565b905063150b7a0260e01b7bffffffffffffffffffffffffffffffffffffffffffffffffffffffff1916817bffffffffffffffffffffffffffffffffffffffffffffffffffffffff191614611a49576040517f08c379a0000000000000000000000000000000000000000000000000000000008152600401611a4090612775565b60405180910390fd5b505b50505050505050565b60008060009054906101000a900473ffffffffffffffffffffffffffffffffffffffff169050816000806101000a81548173ffffffffffffffffffffffffffffffffffffffff021916908373ffffffffffffffffffffffffffffffffffffffff1602179055508173ffffffffffffffffffffffffffffffffffffffff168173ffffffffffffffffffffffffffffffffffffffff167f8be0079c531659141344cd1fd0a4f28419497f9722a3daafe3b4186f6b6457e060405160405180910390a35050565b6000806040518060800160405280600154815260200186815260200184815260200185815250905060048190806001815401808255809150506001900390600052602060002090600402016000909190919091506000820151816000015560208201518160010155604082015181600201556060820151816003015550503373ffffffffffffffffffffffffffffffffffffffff167fa47f2b648fe6fee6023b9227628b751649f165f204c8a6e75d3146aca5b1b8a6600154868887604051611be49493929190612810565b60405180910390a26001549150509392505050565b600073ffffffffffffffffffffffffffffffffffffffff168273ffffffffffffffffffffffffffffffffffffffff161415611c69576040517f08c379a0000000000000000000000000000000000000000000000000000000008152600401611c60906127b5565b60405180910390fd5b600073ffffffffffffffffffffffffffffffffffffffff166005600083815260200190815260200160002060009054906101000a900473ffffffffffffffffffffffffffffffffffffffff1673ffffffffffffffffffffffffffffffffffffffff1614611d0b576040517f08c379a0000000000000000000000000000000000000000000000000000000008152600401611d0290612755565b60405180910390fd5b816005600083815260200190815260200160002060006101000a81548173ffffffffffffffffffffffffffffffffffffffff021916908373ffffffffffffffffffffffffffffffffffffffff1602179055506001600b60008473ffffffffffffffffffffffffffffffffffffffff1673ffffffffffffffffffffffffffffffffffffffff16815260200190815260200160002054611da99190612882565b600b60008473ffffffffffffffffffffffffffffffffffffffff1673ffffffffffffffffffffffffffffffffffffffff168152602001908152602001600020819055505050565b600080839050600085611e01611f10565b611e0b91906129d2565b1415611e5a576000600354611e1e611f10565b611e2891906129d2565b90506001600254611e399190612882565b600281905550611e498185611f47565b600185611e569190612882565b9150505b809150509392505050565b60008290505b81811015611ec0576000600354611e80611f10565b611e8a91906129d2565b90506001600254611e9b9190612882565b600281905550611eac816000611f47565b508080611eb89061297f565b915050611e6b565b505050565b60008060007fc5d2460186f7233c927e7db2dcc703c0e500b653ca82273b7bfad8045d85a47060001b9050833f91506000801b8214158015611f075750808214155b92505050919050565b60004442600254604051602001611f2993929190612636565b6040516020818303038152906040528051906020012060001c905090565b6000611f51611f10565b905060006040518060800160405280600154815260200185815260200183815260200184815250905060048190806001815401808255809150506001900390600052602060002090600402016000909190919091506000820151816000015560208201518160010155604082015181600201556060820151816003015550503373ffffffffffffffffffffffffffffffffffffffff167fa47f2b648fe6fee6023b9227628b751649f165f204c8a6e75d3146aca5b1b8a660015485878660405161201e9493929190612810565b60405180910390a23360056000600154815260200190815260200160002060006101000a81548173ffffffffffffffffffffffffffffffffffffffff021916908373ffffffffffffffffffffffffffffffffffffffff160217905550600180546120889190612882565b60018190555050505050565b6000813590506120a381612a72565b92915050565b6000813590506120b881612a89565b92915050565b6000815190506120cd81612aa0565b92915050565b60008083601f8401126120e557600080fd5b8235905067ffffffffffffffff8111156120fe57600080fd5b60208301915083600182028301111561211657600080fd5b9250929050565b60008135905061212c81612ab7565b92915050565b60006020828403121561214457600080fd5b600061215284828501612094565b91505092915050565b6000806040838503121561216e57600080fd5b600061217c85828601612094565b925050602061218d85828601612094565b9150509250929050565b6000806000606084860312156121ac57600080fd5b60006121ba86828701612094565b93505060206121cb86828701612094565b92505060406121dc8682870161211d565b9150509250925092565b6000806000806000608086880312156121fe57600080fd5b600061220c88828901612094565b955050602061221d88828901612094565b945050604061222e8882890161211d565b935050606086013567ffffffffffffffff81111561224b57600080fd5b612257888289016120d3565b92509250509295509295909350565b6000806040838503121561227957600080fd5b600061228785828601612094565b9250506020612298858286016120a9565b9150509250929050565b600080604083850312156122b557600080fd5b60006122c385828601612094565b92505060206122d48582860161211d565b9150509250929050565b600080600080608085870312156122f457600080fd5b600061230287828801612094565b94505060206123138782880161211d565b93505060406123248782880161211d565b92505060606123358782880161211d565b91505092959194509250565b60006020828403121561235357600080fd5b6000612361848285016120be565b91505092915050565b60006020828403121561237c57600080fd5b600061238a8482850161211d565b91505092915050565b61239c816128d8565b82525050565b6123ab816128ea565b82525050565b60006123bc82612855565b6123c68185612860565b93506123d681856020860161294c565b6123df81612a61565b840191505092915050565b60006123f7602683612871565b91507f4f776e61626c653a206e6577206f776e657220697320746865207a65726f206160008301527f64647265737300000000000000000000000000000000000000000000000000006020830152604082019050919050565b600061245d600c83612871565b91507f494e56414c4944204341524400000000000000000000000000000000000000006000830152602082019050919050565b600061249d602083612871565b91507f56414c55452053454e54204e4f5420455155414c20544f2043415244204645456000830152602082019050919050565b60006124dd601383612871565b91507f4341524420414c524541445920455849535453000000000000000000000000006000830152602082019050919050565b600061251d601283612871565b91507f43414e4e4f542052454345495645204e465400000000000000000000000000006000830152602082019050919050565b600061255d602083612871565b91507f4f776e61626c653a2063616c6c6572206973206e6f7420746865206f776e65726000830152602082019050919050565b600061259d600c83612871565b91507f5a45524f204144445245535300000000000000000000000000000000000000006000830152602082019050919050565b60006125dd601783612871565b91507f4e4f542043555252454e5420544f4b454e204f574e45520000000000000000006000830152602082019050919050565b61261981612942565b82525050565b61263061262b82612942565b6129c8565b82525050565b6000612642828661261f565b602082019150612652828561261f565b602082019150612662828461261f565b602082019150819050949350505050565b60006020820190506126886000830184612393565b92915050565b60006080820190506126a36000830187612393565b6126b06020830186612393565b6126bd6040830185612610565b81810360608301526126cf81846123b1565b905095945050505050565b60006020820190506126ef60008301846123a2565b92915050565b6000602082019050818103600083015261270e816123ea565b9050919050565b6000602082019050818103600083015261272e81612450565b9050919050565b6000602082019050818103600083015261274e81612490565b9050919050565b6000602082019050818103600083015261276e816124d0565b9050919050565b6000602082019050818103600083015261278e81612510565b9050919050565b600060208201905081810360008301526127ae81612550565b9050919050565b600060208201905081810360008301526127ce81612590565b9050919050565b600060208201905081810360008301526127ee816125d0565b9050919050565b600060208201905061280a6000830184612610565b92915050565b60006080820190506128256000830187612610565b6128326020830186612610565b61283f6040830185612610565b61284c6060830184612610565b95945050505050565b600081519050919050565b600082825260208201905092915050565b600082825260208201905092915050565b600061288d82612942565b915061289883612942565b9250827fffffffffffffffffffffffffffffffffffffffffffffffffffffffffffffffff038211156128cd576128cc612a03565b5b828201905092915050565b60006128e382612922565b9050919050565b60008115159050919050565b60007fffffffff0000000000000000000000000000000000000000000000000000000082169050919050565b600073ffffffffffffffffffffffffffffffffffffffff82169050919050565b6000819050919050565b60005b8381101561296a57808201518184015260208101905061294f565b83811115612979576000848401525b50505050565b600061298a82612942565b91507fffffffffffffffffffffffffffffffffffffffffffffffffffffffffffffffff8214156129bd576129bc612a03565b5b600182019050919050565b6000819050919050565b60006129dd82612942565b91506129e883612942565b9250826129f8576129f7612a32565b5b828206905092915050565b7f4e487b7100000000000000000000000000000000000000000000000000000000600052601160045260246000fd5b7f4e487b7100000000000000000000000000000000000000000000000000000000600052601260045260246000fd5b6000601f19601f8301169050919050565b612a7b816128d8565b8114612a8657600080fd5b50565b612a92816128ea565b8114612a9d57600080fd5b50565b612aa9816128f6565b8114612ab457600080fd5b50565b612ac081612942565b8114612acb57600080fd5b5056fea2646970667358221220ad97b0b56c79722734c6f9106ed71ea826e047d153e5b8f0d181d0a13b43b52964736f6c63430008000033",
  "immutableReferences": {},
  "source": "// SPDX-License-Identifier: UNLICENSED\npragma solidity ^0.8.0;\n\nimport \"./card-pack-factory.sol\";\nimport \"./erc721.sol\";\nimport \"../utils/address-utils.sol\";\nimport \"./erc721-token-receiver.sol\";\n\ncontract CardOwnership is CardPackFactory, ERC721 {\n\n    using AddressUtils for address;\n\n    bytes4 internal constant MAGIC_ON_ERC721_RECEIVED = 0x150b7a02;\n\n    mapping (uint256 => address) internal idToApproval;\n    mapping (address => mapping (address => bool)) internal ownerToOperators;\n\n    modifier canOperate(uint256 _tokenId) {\n        address owner = cardIdToOwner[_tokenId];\n        require(owner == msg.sender || ownerToOperators[owner][msg.sender]);\n        _;\n    }\n\n    modifier canTransfer(uint256 _tokenId) {\n        address owner = cardIdToOwner[_tokenId];\n        require(owner == msg.sender || idToApproval[_tokenId] == msg.sender || ownerToOperators[owner][msg.sender]);\n        _;\n    }\n\n    modifier isValidCard(uint _cardId) {\n        require(cardIdToOwner[_cardId] != address(0), \"INVALID CARD\");\n        _;\n    }\n\n    function balanceOf(address _owner) external override view returns(uint) {\n        return ownerCardCount[_owner];\n    }\n\n    function ownerOf(uint _tokenId) external override view returns(address) {\n        return cardIdToOwner[_tokenId];\n    }\n\n    function safeTransferFrom(address _from, address _to, uint256 _tokenId) external payable override {\n        _safeTransferFrom(_from, _to, _tokenId, \"\");\n    }\n\n    function safeTransferFrom(address _from, address _to, uint256 _tokenId, bytes calldata _data) external payable override {\n        _safeTransferFrom(_from, _to, _tokenId, _data);\n    }\n\n    function transferFrom(address _from, address _to, uint256 _tokenId) external payable override canTransfer(_tokenId) isValidCard(_tokenId) {\n        _transfer(_from, _to, _tokenId);\n    }\n\n    function approve(address _approved, uint256 _tokenId) external payable override canOperate(_tokenId) isValidCard(_tokenId) {\n        require(msg.sender == cardIdToOwner[_tokenId], \"NOT CURRENT TOKEN OWNER\");\n        idToApproval[_tokenId] = _approved;\n        emit Approval(msg.sender, _approved, _tokenId);\n    }\n\n    function setApprovalForAll(address _operator, bool _approved) external override {\n        ownerToOperators[msg.sender][_operator] = _approved;\n        emit ApprovalForAll(msg.sender, _operator, _approved);\n    }\n\n    function getApproved(uint256 _tokenId) external override view isValidCard(_tokenId) returns(address) {\n        return idToApproval[_tokenId];\n    }\n\n    function isApprovedForAll(address _owner, address _operator) external override view returns(bool) {\n        return ownerToOperators[_owner][_operator];\n    }\n\n    function _transfer(address _from, address _to, uint256 _tokenId) private {\n        delete idToApproval[_tokenId];\n        cardIdToOwner[_tokenId] = _to;\n        emit Transfer(_from, _to, _tokenId);\n    }\n\n    function _safeTransferFrom(address _from, address _to, uint256 _tokenId, bytes memory _data) private canTransfer(_tokenId) isValidCard(_tokenId) {\n        require(_to != address(0), \"ZERO ADDRESS\");\n        _transfer(_from, _to, _tokenId);\n        if(_to.isContract()) {\n            bytes4 retval = ERC721TokenReceiver(_to).onERC721Received(msg.sender, _from, _tokenId, _data);\n            require(retval == MAGIC_ON_ERC721_RECEIVED, \"CANNOT RECEIVE NFT\");\n        }\n    }\n\n    function mintCustomCard(address _to, uint _playerId, uint _type, uint _attributes) external onlyOwner {\n        uint tokenId = createCustomCard(_playerId, _type, _attributes);\n        _mint(_to, tokenId);\n        _tokenId = _tokenId + 1;\n    }\n\n    function _mint(address _to, uint256 _tokenId) internal {\n        require(_to != address(0), \"ZERO ADDRESS\");\n        require(cardIdToOwner[_tokenId] == address(0), \"CARD ALREADY EXISTS\");\n\n        cardIdToOwner[_tokenId] = _to;\n        ownerCardCount[_to] = ownerCardCount[_to] + 1;\n    }\n    \n}",
  "sourcePath": "/Users/tkma4fr/Development/solidity-app/contracts/card-ownership.sol",
  "compiler": {
    "name": "solc",
    "version": "0.8.0+commit.c7dfd78e.Emscripten.clang"
  },
  "schemaVersion": "3.4.2",
  "updatedAt": "2021-10-05T21:04:58.233Z",
  "devdoc": {
    "kind": "dev",
    "methods": {
      "approve(address,uint256)": {
        "details": "The zero address indicates there is no approved address.  Throws unless `msg.sender` is the current NFT owner, or an authorized  operator of the current owner.",
        "params": {
          "_approved": "The new approved NFT controller",
          "_tokenId": "The NFT to approve"
        }
      },
      "balanceOf(address)": {
        "details": "NFTs assigned to the zero address are considered invalid, and this  function throws for queries about the zero address.",
        "params": {
          "_owner": "An address for whom to query the balance"
        },
        "returns": {
          "_0": "The number of NFTs owned by `_owner`, possibly zero"
        }
      },
      "getApproved(uint256)": {
        "details": "Throws if `_tokenId` is not a valid NFT.",
        "params": {
          "_tokenId": "The NFT to find the approved address for"
        },
        "returns": {
          "_0": "The approved address for this NFT, or the zero address if there is none"
        }
      },
      "isApprovedForAll(address,address)": {
        "params": {
          "_operator": "The address that acts on behalf of the owner",
          "_owner": "The address that owns the NFTs"
        },
        "returns": {
          "_0": "True if `_operator` is an approved operator for `_owner`, false otherwise"
        }
      },
      "owner()": {
        "details": "Returns the address of the current owner."
      },
      "ownerOf(uint256)": {
        "details": "NFTs assigned to zero address are considered invalid, and queries  about them do throw.",
        "params": {
          "_tokenId": "The identifier for an NFT"
        },
        "returns": {
          "_0": "The address of the owner of the NFT"
        }
      },
      "renounceOwnership()": {
        "details": "Leaves the contract without owner. It will not be possible to call `onlyOwner` functions anymore. Can only be called by the current owner. NOTE: Renouncing ownership will leave the contract without an owner, thereby removing any functionality that is only available to the owner."
      },
      "safeTransferFrom(address,address,uint256)": {
        "details": "This works identically to the other function with an extra data parameter,  except this function just sets data to \"\".",
        "params": {
          "_from": "The current owner of the NFT",
          "_to": "The new owner",
          "_tokenId": "The NFT to transfer"
        }
      },
      "setApprovalForAll(address,bool)": {
        "details": "Emits the ApprovalForAll event. The contract MUST allow  multiple operators per owner.",
        "params": {
          "_approved": "True if the operator is approved, false to revoke approval",
          "_operator": "Address to add to the set of authorized operators"
        }
      },
      "transferFrom(address,address,uint256)": {
        "details": "Throws unless `msg.sender` is the current owner, an authorized  operator, or the approved address for this NFT. Throws if `_from` is  not the current owner. Throws if `_to` is the zero address. Throws if  `_tokenId` is not a valid NFT.",
        "params": {
          "_from": "The current owner of the NFT",
          "_to": "The new owner",
          "_tokenId": "The NFT to transfer"
        }
      },
      "transferOwnership(address)": {
        "details": "Transfers ownership of the contract to a new account (`newOwner`). Can only be called by the current owner."
      }
    },
    "version": 1
  },
  "userdoc": {
    "kind": "user",
    "methods": {
      "approve(address,uint256)": {
        "notice": "Change or reaffirm the approved address for an NFT"
      },
      "balanceOf(address)": {
        "notice": "Count all NFTs assigned to an owner"
      },
      "getApproved(uint256)": {
        "notice": "Get the approved address for a single NFT"
      },
      "isApprovedForAll(address,address)": {
        "notice": "Query if an address is an authorized operator for another address"
      },
      "ownerOf(uint256)": {
        "notice": "Find the owner of an NFT"
      },
      "safeTransferFrom(address,address,uint256)": {
        "notice": "Transfers the ownership of an NFT from one address to another address"
      },
      "setApprovalForAll(address,bool)": {
        "notice": "Enable or disable approval for a third party (\"operator\") to manage  all of `msg.sender`'s assets"
      },
      "transferFrom(address,address,uint256)": {
        "notice": "Transfer ownership of an NFT -- THE CALLER IS RESPONSIBLE  TO CONFIRM THAT `_to` IS CAPABLE OF RECEIVING NFTS OR ELSE  THEY MAY BE PERMANENTLY LOST"
      }
    },
    "version": 1
  }
}