{
  "contractName": "CardOwnership",
  "abi": [
    {
      "anonymous": false,
      "inputs": [
        {
          "indexed": true,
          "internalType": "address",
          "name": "_owner",
          "type": "address"
        },
        {
          "indexed": true,
          "internalType": "address",
          "name": "_approved",
          "type": "address"
        },
        {
          "indexed": true,
          "internalType": "uint256",
          "name": "_tokenId",
          "type": "uint256"
        }
      ],
      "name": "Approval",
      "type": "event"
    },
    {
      "anonymous": false,
      "inputs": [
        {
          "indexed": true,
          "internalType": "address",
          "name": "_owner",
          "type": "address"
        },
        {
          "indexed": true,
          "internalType": "address",
          "name": "_operator",
          "type": "address"
        },
        {
          "indexed": false,
          "internalType": "bool",
          "name": "_approved",
          "type": "bool"
        }
      ],
      "name": "ApprovalForAll",
      "type": "event"
    },
    {
      "anonymous": false,
      "inputs": [
        {
          "indexed": false,
          "internalType": "uint256",
          "name": "cardId",
          "type": "uint256"
        },
        {
          "indexed": false,
          "internalType": "uint256",
          "name": "cardType",
          "type": "uint256"
        },
        {
          "indexed": false,
          "internalType": "uint256",
          "name": "playerId",
          "type": "uint256"
        },
        {
          "indexed": false,
          "internalType": "uint256",
          "name": "attributeHash",
          "type": "uint256"
        },
        {
          "indexed": true,
          "internalType": "address",
          "name": "owner",
          "type": "address"
        }
      ],
      "name": "CardCreated",
      "type": "event"
    },
    {
      "anonymous": false,
      "inputs": [
        {
          "indexed": true,
          "internalType": "address",
          "name": "owner",
          "type": "address"
        }
      ],
      "name": "CardPackPurchased",
      "type": "event"
    },
    {
      "anonymous": false,
      "inputs": [
        {
          "indexed": true,
          "internalType": "address",
          "name": "previousOwner",
          "type": "address"
        },
        {
          "indexed": true,
          "internalType": "address",
          "name": "newOwner",
          "type": "address"
        }
      ],
      "name": "OwnershipTransferred",
      "type": "event"
    },
    {
      "anonymous": false,
      "inputs": [
        {
          "indexed": true,
          "internalType": "address",
          "name": "_from",
          "type": "address"
        },
        {
          "indexed": true,
          "internalType": "address",
          "name": "_to",
          "type": "address"
        },
        {
          "indexed": true,
          "internalType": "uint256",
          "name": "_tokenId",
          "type": "uint256"
        }
      ],
      "name": "Transfer",
      "type": "event"
    },
    {
      "inputs": [
        {
          "internalType": "uint256",
          "name": "",
          "type": "uint256"
        }
      ],
      "name": "cardIdToOwner",
      "outputs": [
        {
          "internalType": "address",
          "name": "",
          "type": "address"
        }
      ],
      "stateMutability": "view",
      "type": "function"
    },
    {
      "inputs": [
        {
          "internalType": "uint256",
          "name": "",
          "type": "uint256"
        }
      ],
      "name": "cardIsAtIndex",
      "outputs": [
        {
          "internalType": "uint256",
          "name": "",
          "type": "uint256"
        }
      ],
      "stateMutability": "view",
      "type": "function"
    },
    {
      "inputs": [
        {
          "internalType": "uint256",
          "name": "",
          "type": "uint256"
        }
      ],
      "name": "cards",
      "outputs": [
        {
          "internalType": "uint256",
          "name": "cardId",
          "type": "uint256"
        },
        {
          "internalType": "uint256",
          "name": "playerId",
          "type": "uint256"
        },
        {
          "internalType": "uint256",
          "name": "attributeHash",
          "type": "uint256"
        },
        {
          "internalType": "uint256",
          "name": "cardType",
          "type": "uint256"
        }
      ],
      "stateMutability": "view",
      "type": "function"
    },
    {
      "inputs": [
        {
          "internalType": "address",
          "name": "",
          "type": "address"
        }
      ],
      "name": "existingUser",
      "outputs": [
        {
          "internalType": "bool",
          "name": "",
          "type": "bool"
        }
      ],
      "stateMutability": "view",
      "type": "function"
    },
    {
      "inputs": [
        {
          "internalType": "address",
          "name": "_address",
          "type": "address"
        }
      ],
      "name": "getUserOwnedCards",
      "outputs": [
        {
          "internalType": "uint256[]",
          "name": "",
          "type": "uint256[]"
        }
      ],
      "stateMutability": "view",
      "type": "function"
    },
    {
      "inputs": [],
      "name": "owner",
      "outputs": [
        {
          "internalType": "address",
          "name": "",
          "type": "address"
        }
      ],
      "stateMutability": "view",
      "type": "function"
    },
    {
      "inputs": [
        {
          "internalType": "address",
          "name": "",
          "type": "address"
        }
      ],
      "name": "ownerCardCount",
      "outputs": [
        {
          "internalType": "uint256",
          "name": "",
          "type": "uint256"
        }
      ],
      "stateMutability": "view",
      "type": "function"
    },
    {
      "inputs": [],
      "name": "purchaseCardPack",
      "outputs": [],
      "stateMutability": "payable",
      "type": "function"
    },
    {
      "inputs": [],
      "name": "renounceOwnership",
      "outputs": [],
      "stateMutability": "nonpayable",
      "type": "function"
    },
    {
      "inputs": [
        {
          "internalType": "uint256",
          "name": "_fee",
          "type": "uint256"
        }
      ],
      "name": "setCardPackFee",
      "outputs": [],
      "stateMutability": "nonpayable",
      "type": "function"
    },
    {
      "inputs": [
        {
          "internalType": "uint256",
          "name": "_quantity",
          "type": "uint256"
        }
      ],
      "name": "setCardPackQuantity",
      "outputs": [],
      "stateMutability": "nonpayable",
      "type": "function"
    },
    {
      "inputs": [
        {
          "internalType": "uint256",
          "name": "_newOdds",
          "type": "uint256"
        }
      ],
      "name": "setExotixCardOdds",
      "outputs": [],
      "stateMutability": "nonpayable",
      "type": "function"
    },
    {
      "inputs": [
        {
          "internalType": "uint256",
          "name": "_newOdds",
          "type": "uint256"
        }
      ],
      "name": "setLegendaryCardOdds",
      "outputs": [],
      "stateMutability": "nonpayable",
      "type": "function"
    },
    {
      "inputs": [
        {
          "internalType": "uint256",
          "name": "_newOdds",
          "type": "uint256"
        }
      ],
      "name": "setRareCardOdds",
      "outputs": [],
      "stateMutability": "nonpayable",
      "type": "function"
    },
    {
      "inputs": [
        {
          "internalType": "uint256",
          "name": "_count",
          "type": "uint256"
        }
      ],
      "name": "setTotalPlayers",
      "outputs": [],
      "stateMutability": "nonpayable",
      "type": "function"
    },
    {
      "inputs": [
        {
          "internalType": "address",
          "name": "newOwner",
          "type": "address"
        }
      ],
      "name": "transferOwnership",
      "outputs": [],
      "stateMutability": "nonpayable",
      "type": "function"
    },
    {
      "inputs": [
        {
          "internalType": "address",
          "name": "",
          "type": "address"
        },
        {
          "internalType": "uint256",
          "name": "",
          "type": "uint256"
        }
      ],
      "name": "userOwnedCards",
      "outputs": [
        {
          "internalType": "uint256",
          "name": "",
          "type": "uint256"
        }
      ],
      "stateMutability": "view",
      "type": "function"
    },
    {
      "inputs": [
        {
          "internalType": "address",
          "name": "_owner",
          "type": "address"
        }
      ],
      "name": "balanceOf",
      "outputs": [
        {
          "internalType": "uint256",
          "name": "",
          "type": "uint256"
        }
      ],
      "stateMutability": "view",
      "type": "function"
    },
    {
      "inputs": [
        {
          "internalType": "uint256",
          "name": "_tokenId",
          "type": "uint256"
        }
      ],
      "name": "ownerOf",
      "outputs": [
        {
          "internalType": "address",
          "name": "",
          "type": "address"
        }
      ],
      "stateMutability": "view",
      "type": "function"
    },
    {
      "inputs": [
        {
          "internalType": "address",
          "name": "_from",
          "type": "address"
        },
        {
          "internalType": "address",
          "name": "_to",
          "type": "address"
        },
        {
          "internalType": "uint256",
          "name": "_tokenId",
          "type": "uint256"
        }
      ],
      "name": "safeTransferFrom",
      "outputs": [],
      "stateMutability": "payable",
      "type": "function"
    },
    {
      "inputs": [
        {
          "internalType": "address",
          "name": "_from",
          "type": "address"
        },
        {
          "internalType": "address",
          "name": "_to",
          "type": "address"
        },
        {
          "internalType": "uint256",
          "name": "_tokenId",
          "type": "uint256"
        },
        {
          "internalType": "bytes",
          "name": "_data",
          "type": "bytes"
        }
      ],
      "name": "safeTransferFrom",
      "outputs": [],
      "stateMutability": "payable",
      "type": "function"
    },
    {
      "inputs": [
        {
          "internalType": "address",
          "name": "_from",
          "type": "address"
        },
        {
          "internalType": "address",
          "name": "_to",
          "type": "address"
        },
        {
          "internalType": "uint256",
          "name": "_tokenId",
          "type": "uint256"
        }
      ],
      "name": "transferFrom",
      "outputs": [],
      "stateMutability": "payable",
      "type": "function"
    },
    {
      "inputs": [
        {
          "internalType": "address",
          "name": "_approved",
          "type": "address"
        },
        {
          "internalType": "uint256",
          "name": "_tokenId",
          "type": "uint256"
        }
      ],
      "name": "approve",
      "outputs": [],
      "stateMutability": "payable",
      "type": "function"
    },
    {
      "inputs": [
        {
          "internalType": "address",
          "name": "_operator",
          "type": "address"
        },
        {
          "internalType": "bool",
          "name": "_approved",
          "type": "bool"
        }
      ],
      "name": "setApprovalForAll",
      "outputs": [],
      "stateMutability": "nonpayable",
      "type": "function"
    },
    {
      "inputs": [
        {
          "internalType": "uint256",
          "name": "_tokenId",
          "type": "uint256"
        }
      ],
      "name": "getApproved",
      "outputs": [
        {
          "internalType": "address",
          "name": "",
          "type": "address"
        }
      ],
      "stateMutability": "view",
      "type": "function"
    },
    {
      "inputs": [
        {
          "internalType": "address",
          "name": "_owner",
          "type": "address"
        },
        {
          "internalType": "address",
          "name": "_operator",
          "type": "address"
        }
      ],
      "name": "isApprovedForAll",
      "outputs": [
        {
          "internalType": "bool",
          "name": "",
          "type": "bool"
        }
      ],
      "stateMutability": "view",
      "type": "function"
    },
    {
      "inputs": [
        {
          "internalType": "address",
          "name": "_to",
          "type": "address"
        },
        {
          "internalType": "uint256",
          "name": "_playerId",
          "type": "uint256"
        },
        {
          "internalType": "uint256",
          "name": "_type",
          "type": "uint256"
        },
        {
          "internalType": "uint256",
          "name": "_attributes",
          "type": "uint256"
        }
      ],
      "name": "mintCustomCard",
      "outputs": [],
      "stateMutability": "nonpayable",
      "type": "function"
    }
  ],
  "bytecode": "0x60806040526000600155600060025560bd6003556611c37937e08000600855600a6009556003600a556019600b556064600c553480156200003f57600080fd5b5062000060620000546200006660201b60201c565b6200006e60201b60201c565b62000132565b600033905090565b60008060009054906101000a900473ffffffffffffffffffffffffffffffffffffffff169050816000806101000a81548173ffffffffffffffffffffffffffffffffffffffff021916908373ffffffffffffffffffffffffffffffffffffffff1602179055508173ffffffffffffffffffffffffffffffffffffffff168173ffffffffffffffffffffffffffffffffffffffff167f8be0079c531659141344cd1fd0a4f28419497f9722a3daafe3b4186f6b6457e060405160405180910390a35050565b612e8080620001426000396000f3fe60806040526004361061019c5760003560e01c8063804c4b25116100ec578063a3d2065f1161008a578063c75f384b11610064578063c75f384b146105b8578063e25d13a8146105e1578063e985e9c51461060a578063f2fde38b146106475761019c565b8063a3d2065f14610536578063b780acc514610573578063b88d4fde1461059c5761019c565b80638dc10768116100c65780638dc10768146104535780639b3ce46e146104935780639bf822e3146104d0578063a22cb4651461050d5761019c565b8063804c4b25146103c2578063828c730c146103ff5780638da5cb5b146104285761019c565b806341845a1411610159578063552788da11610133578063552788da146103085780636352211e1461033157806370a082311461036e578063715018a6146103ab5761019c565b806341845a141461028657806341994140146102af57806342842e0e146102ec5761019c565b8063081812fc146101a1578063095ea7b3146101de57806319a35567146101fa57806323b872dd146102375780632cfae8d31461025357806336185bdf1461025d575b600080fd5b3480156101ad57600080fd5b506101c860048036038101906101c39190612606565b610670565b6040516101d59190612994565b60405180910390f35b6101f860048036038101906101f3919061253e565b610752565b005b34801561020657600080fd5b50610221600480360381019061021c91906123ce565b610a4d565b60405161022e91906129fb565b60405180910390f35b610251600480360381019061024c9190612433565b610ae4565b005b61025b610d06565b005b34801561026957600080fd5b50610284600480360381019061027f9190612606565b610d97565b005b34801561029257600080fd5b506102ad60048036038101906102a89190612606565b610e1d565b005b3480156102bb57600080fd5b506102d660048036038101906102d19190612606565b610ea3565b6040516102e39190612994565b60405180910390f35b61030660048036038101906103019190612433565b610ed6565b005b34801561031457600080fd5b5061032f600480360381019061032a9190612606565b610ef6565b005b34801561033d57600080fd5b5061035860048036038101906103539190612606565b610f7c565b6040516103659190612994565b60405180910390f35b34801561037a57600080fd5b50610395600480360381019061039091906123ce565b610fb9565b6040516103a29190612b38565b60405180910390f35b3480156103b757600080fd5b506103c0611002565b005b3480156103ce57600080fd5b506103e960048036038101906103e491906123ce565b61108a565b6040516103f69190612b38565b60405180910390f35b34801561040b57600080fd5b506104266004803603810190610421919061257a565b6110a2565b005b34801561043457600080fd5b5061043d611152565b60405161044a9190612994565b60405180910390f35b34801561045f57600080fd5b5061047a60048036038101906104759190612606565b61117b565b60405161048a9493929190612b53565b60405180910390f35b34801561049f57600080fd5b506104ba60048036038101906104b5919061253e565b6111bb565b6040516104c79190612b38565b60405180910390f35b3480156104dc57600080fd5b506104f760048036038101906104f29190612606565b6111ec565b6040516105049190612b38565b60405180910390f35b34801561051957600080fd5b50610534600480360381019061052f9190612502565b611204565b005b34801561054257600080fd5b5061055d600480360381019061055891906123ce565b611301565b60405161056a9190612a1d565b60405180910390f35b34801561057f57600080fd5b5061059a60048036038101906105959190612606565b611321565b005b6105b660048036038101906105b19190612482565b6113a7565b005b3480156105c457600080fd5b506105df60048036038101906105da9190612606565b6113fe565b005b3480156105ed57600080fd5b5061060860048036038101906106039190612606565b611484565b005b34801561061657600080fd5b50610631600480360381019061062c91906123f7565b61150a565b60405161063e9190612a1d565b60405180910390f35b34801561065357600080fd5b5061066e600480360381019061066991906123ce565b61159e565b005b600081600073ffffffffffffffffffffffffffffffffffffffff166005600083815260200190815260200160002060009054906101000a900473ffffffffffffffffffffffffffffffffffffffff1673ffffffffffffffffffffffffffffffffffffffff161415610716576040517f08c379a000000000000000000000000000000000000000000000000000000000815260040161070d90612a58565b60405180910390fd5b600f600084815260200190815260200160002060009054906101000a900473ffffffffffffffffffffffffffffffffffffffff16915050919050565b8060006005600083815260200190815260200160002060009054906101000a900473ffffffffffffffffffffffffffffffffffffffff1690503373ffffffffffffffffffffffffffffffffffffffff168173ffffffffffffffffffffffffffffffffffffffff16148061084b5750601060008273ffffffffffffffffffffffffffffffffffffffff1673ffffffffffffffffffffffffffffffffffffffff16815260200190815260200160002060003373ffffffffffffffffffffffffffffffffffffffff1673ffffffffffffffffffffffffffffffffffffffff16815260200190815260200160002060009054906101000a900460ff165b61085457600080fd5b82600073ffffffffffffffffffffffffffffffffffffffff166005600083815260200190815260200160002060009054906101000a900473ffffffffffffffffffffffffffffffffffffffff1673ffffffffffffffffffffffffffffffffffffffff1614156108f8576040517f08c379a00000000000000000000000000000000000000000000000000000000081526004016108ef90612a58565b60405180910390fd5b6005600085815260200190815260200160002060009054906101000a900473ffffffffffffffffffffffffffffffffffffffff1673ffffffffffffffffffffffffffffffffffffffff163373ffffffffffffffffffffffffffffffffffffffff1614610999576040517f08c379a000000000000000000000000000000000000000000000000000000000815260040161099090612b18565b60405180910390fd5b84600f600086815260200190815260200160002060006101000a81548173ffffffffffffffffffffffffffffffffffffffff021916908373ffffffffffffffffffffffffffffffffffffffff160217905550838573ffffffffffffffffffffffffffffffffffffffff163373ffffffffffffffffffffffffffffffffffffffff167f8c5be1e5ebec7d5bd14f71427d1e84f3dd0314c0f7b2291e5b200ac8c7c3b92560405160405180910390a45050505050565b6060600660008373ffffffffffffffffffffffffffffffffffffffff1673ffffffffffffffffffffffffffffffffffffffff168152602001908152602001600020805480602002602001604051908101604052809291908181526020018280548015610ad857602002820191906000526020600020905b815481526020019060010190808311610ac4575b50505050509050919050565b8060006005600083815260200190815260200160002060009054906101000a900473ffffffffffffffffffffffffffffffffffffffff1690503373ffffffffffffffffffffffffffffffffffffffff168173ffffffffffffffffffffffffffffffffffffffff161480610bb557503373ffffffffffffffffffffffffffffffffffffffff16600f600084815260200190815260200160002060009054906101000a900473ffffffffffffffffffffffffffffffffffffffff1673ffffffffffffffffffffffffffffffffffffffff16145b80610c465750601060008273ffffffffffffffffffffffffffffffffffffffff1673ffffffffffffffffffffffffffffffffffffffff16815260200190815260200160002060003373ffffffffffffffffffffffffffffffffffffffff1673ffffffffffffffffffffffffffffffffffffffff16815260200190815260200160002060009054906101000a900460ff165b610c4f57600080fd5b82600073ffffffffffffffffffffffffffffffffffffffff166005600083815260200190815260200160002060009054906101000a900473ffffffffffffffffffffffffffffffffffffffff1673ffffffffffffffffffffffffffffffffffffffff161415610cf3576040517f08c379a0000000000000000000000000000000000000000000000000000000008152600401610cea90612a58565b60405180910390fd5b610cfe868686611696565b505050505050565b6008543414610d4a576040517f08c379a0000000000000000000000000000000000000000000000000000000008152600401610d4190612a78565b60405180910390fd5b610d5261177e565b3373ffffffffffffffffffffffffffffffffffffffff167f1c3899f94ecc08f5f95b67284618b3ca13d80b66fbc5b7f07c6b8bd30f61fcbf60405160405180910390a2565b610d9f61184f565b73ffffffffffffffffffffffffffffffffffffffff16610dbd611152565b73ffffffffffffffffffffffffffffffffffffffff1614610e13576040517f08c379a0000000000000000000000000000000000000000000000000000000008152600401610e0a90612ad8565b60405180910390fd5b80600b8190555050565b610e2561184f565b73ffffffffffffffffffffffffffffffffffffffff16610e43611152565b73ffffffffffffffffffffffffffffffffffffffff1614610e99576040517f08c379a0000000000000000000000000000000000000000000000000000000008152600401610e9090612ad8565b60405180910390fd5b80600a8190555050565b60056020528060005260406000206000915054906101000a900473ffffffffffffffffffffffffffffffffffffffff1681565b610ef183838360405180602001604052806000815250611857565b505050565b610efe61184f565b73ffffffffffffffffffffffffffffffffffffffff16610f1c611152565b73ffffffffffffffffffffffffffffffffffffffff1614610f72576040517f08c379a0000000000000000000000000000000000000000000000000000000008152600401610f6990612ad8565b60405180910390fd5b8060088190555050565b60006005600083815260200190815260200160002060009054906101000a900473ffffffffffffffffffffffffffffffffffffffff169050919050565b6000600d60008373ffffffffffffffffffffffffffffffffffffffff1673ffffffffffffffffffffffffffffffffffffffff168152602001908152602001600020549050919050565b61100a61184f565b73ffffffffffffffffffffffffffffffffffffffff16611028611152565b73ffffffffffffffffffffffffffffffffffffffff161461107e576040517f08c379a000000000000000000000000000000000000000000000000000000000815260040161107590612ad8565b60405180910390fd5b6110886000611c2c565b565b600d6020528060005260406000206000915090505481565b6110aa61184f565b73ffffffffffffffffffffffffffffffffffffffff166110c8611152565b73ffffffffffffffffffffffffffffffffffffffff161461111e576040517f08c379a000000000000000000000000000000000000000000000000000000000815260040161111590612ad8565b60405180910390fd5b600061112b848484611cf0565b90506111378582611dd1565b600180546111459190612bfe565b6001819055505050505050565b60008060009054906101000a900473ffffffffffffffffffffffffffffffffffffffff16905090565b6004818154811061118b57600080fd5b90600052602060002090600402016000915090508060000154908060010154908060020154908060030154905084565b600660205281600052604060002081815481106111d757600080fd5b90600052602060002001600091509150505481565b60076020528060005260406000206000915090505481565b80601060003373ffffffffffffffffffffffffffffffffffffffff1673ffffffffffffffffffffffffffffffffffffffff16815260200190815260200160002060008473ffffffffffffffffffffffffffffffffffffffff1673ffffffffffffffffffffffffffffffffffffffff16815260200190815260200160002060006101000a81548160ff0219169083151502179055508173ffffffffffffffffffffffffffffffffffffffff163373ffffffffffffffffffffffffffffffffffffffff167f17307eab39ab6107e8899845ad3d59bd9653f200f220920489ca2b5937696c31836040516112f59190612a1d565b60405180910390a35050565b600e6020528060005260406000206000915054906101000a900460ff1681565b61132961184f565b73ffffffffffffffffffffffffffffffffffffffff16611347611152565b73ffffffffffffffffffffffffffffffffffffffff161461139d576040517f08c379a000000000000000000000000000000000000000000000000000000000815260040161139490612ad8565b60405180910390fd5b8060038190555050565b6113f785858585858080601f016020809104026020016040519081016040528093929190818152602001838380828437600081840152601f19601f82011690508083019250505050505050611857565b5050505050565b61140661184f565b73ffffffffffffffffffffffffffffffffffffffff16611424611152565b73ffffffffffffffffffffffffffffffffffffffff161461147a576040517f08c379a000000000000000000000000000000000000000000000000000000000815260040161147190612ad8565b60405180910390fd5b80600c8190555050565b61148c61184f565b73ffffffffffffffffffffffffffffffffffffffff166114aa611152565b73ffffffffffffffffffffffffffffffffffffffff1614611500576040517f08c379a00000000000000000000000000000000000000000000000000000000081526004016114f790612ad8565b60405180910390fd5b8060098190555050565b6000601060008473ffffffffffffffffffffffffffffffffffffffff1673ffffffffffffffffffffffffffffffffffffffff16815260200190815260200160002060008373ffffffffffffffffffffffffffffffffffffffff1673ffffffffffffffffffffffffffffffffffffffff16815260200190815260200160002060009054906101000a900460ff16905092915050565b6115a661184f565b73ffffffffffffffffffffffffffffffffffffffff166115c4611152565b73ffffffffffffffffffffffffffffffffffffffff161461161a576040517f08c379a000000000000000000000000000000000000000000000000000000000815260040161161190612ad8565b60405180910390fd5b600073ffffffffffffffffffffffffffffffffffffffff168173ffffffffffffffffffffffffffffffffffffffff16141561168a576040517f08c379a000000000000000000000000000000000000000000000000000000000815260040161168190612a38565b60405180910390fd5b61169381611c2c565b50565b600f600082815260200190815260200160002060006101000a81549073ffffffffffffffffffffffffffffffffffffffff0219169055816005600083815260200190815260200160002060006101000a81548173ffffffffffffffffffffffffffffffffffffffff021916908373ffffffffffffffffffffffffffffffffffffffff160217905550808273ffffffffffffffffffffffffffffffffffffffff168473ffffffffffffffffffffffffffffffffffffffff167fddf252ad1be2c89b69c2b068fc378daa952ba7f163c4a11628f55a4df523b3ef60405160405180910390a4505050565b600061178e600c54826003611fc8565b905061179e600b54826002611fc8565b90506117ae600a54826001611fc8565b90506117bc8160095461203d565b600954600d60003373ffffffffffffffffffffffffffffffffffffffff1673ffffffffffffffffffffffffffffffffffffffff168152602001908152602001600020546118099190612bfe565b600d60003373ffffffffffffffffffffffffffffffffffffffff1673ffffffffffffffffffffffffffffffffffffffff1681526020019081526020016000208190555050565b600033905090565b8160006005600083815260200190815260200160002060009054906101000a900473ffffffffffffffffffffffffffffffffffffffff1690503373ffffffffffffffffffffffffffffffffffffffff168173ffffffffffffffffffffffffffffffffffffffff16148061192857503373ffffffffffffffffffffffffffffffffffffffff16600f600084815260200190815260200160002060009054906101000a900473ffffffffffffffffffffffffffffffffffffffff1673ffffffffffffffffffffffffffffffffffffffff16145b806119b95750601060008273ffffffffffffffffffffffffffffffffffffffff1673ffffffffffffffffffffffffffffffffffffffff16815260200190815260200160002060003373ffffffffffffffffffffffffffffffffffffffff1673ffffffffffffffffffffffffffffffffffffffff16815260200190815260200160002060009054906101000a900460ff165b6119c257600080fd5b83600073ffffffffffffffffffffffffffffffffffffffff166005600083815260200190815260200160002060009054906101000a900473ffffffffffffffffffffffffffffffffffffffff1673ffffffffffffffffffffffffffffffffffffffff161415611a66576040517f08c379a0000000000000000000000000000000000000000000000000000000008152600401611a5d90612a58565b60405180910390fd5b600073ffffffffffffffffffffffffffffffffffffffff168673ffffffffffffffffffffffffffffffffffffffff161415611ad6576040517f08c379a0000000000000000000000000000000000000000000000000000000008152600401611acd90612af8565b60405180910390fd5b611ae1878787611696565b611b008673ffffffffffffffffffffffffffffffffffffffff1661209d565b15611c235760008673ffffffffffffffffffffffffffffffffffffffff1663150b7a02338a89896040518563ffffffff1660e01b8152600401611b4694939291906129af565b602060405180830381600087803b158015611b6057600080fd5b505af1158015611b74573d6000803e3d6000fd5b505050506040513d601f19601f82011682018060405250810190611b9891906125dd565b905063150b7a0260e01b7bffffffffffffffffffffffffffffffffffffffffffffffffffffffff1916817bffffffffffffffffffffffffffffffffffffffffffffffffffffffff191614611c21576040517f08c379a0000000000000000000000000000000000000000000000000000000008152600401611c1890612ab8565b60405180910390fd5b505b50505050505050565b60008060009054906101000a900473ffffffffffffffffffffffffffffffffffffffff169050816000806101000a81548173ffffffffffffffffffffffffffffffffffffffff021916908373ffffffffffffffffffffffffffffffffffffffff1602179055508173ffffffffffffffffffffffffffffffffffffffff168173ffffffffffffffffffffffffffffffffffffffff167f8be0079c531659141344cd1fd0a4f28419497f9722a3daafe3b4186f6b6457e060405160405180910390a35050565b6000806040518060800160405280600154815260200186815260200184815260200185815250905060048190806001815401808255809150506001900390600052602060002090600402016000909190919091506000820151816000015560208201518160010155604082015181600201556060820151816003015550503373ffffffffffffffffffffffffffffffffffffffff167fa47f2b648fe6fee6023b9227628b751649f165f204c8a6e75d3146aca5b1b8a6600154868887604051611dbc9493929190612b53565b60405180910390a26001549150509392505050565b600073ffffffffffffffffffffffffffffffffffffffff168273ffffffffffffffffffffffffffffffffffffffff161415611e41576040517f08c379a0000000000000000000000000000000000000000000000000000000008152600401611e3890612af8565b60405180910390fd5b600073ffffffffffffffffffffffffffffffffffffffff166005600083815260200190815260200160002060009054906101000a900473ffffffffffffffffffffffffffffffffffffffff1673ffffffffffffffffffffffffffffffffffffffff1614611ee3576040517f08c379a0000000000000000000000000000000000000000000000000000000008152600401611eda90612a98565b60405180910390fd5b816005600083815260200190815260200160002060006101000a81548173ffffffffffffffffffffffffffffffffffffffff021916908373ffffffffffffffffffffffffffffffffffffffff1602179055506001600d60008473ffffffffffffffffffffffffffffffffffffffff1673ffffffffffffffffffffffffffffffffffffffff16815260200190815260200160002054611f819190612bfe565b600d60008473ffffffffffffffffffffffffffffffffffffffff1673ffffffffffffffffffffffffffffffffffffffff168152602001908152602001600020819055505050565b600080839050600085611fd96120e8565b611fe39190612d4e565b1415612032576000600354611ff66120e8565b6120009190612d4e565b905060016002546120119190612bfe565b600281905550612021818561211f565b60018561202e9190612bfe565b9150505b809150509392505050565b60008290505b818110156120985760006003546120586120e8565b6120629190612d4e565b905060016002546120739190612bfe565b60028190555061208481600061211f565b50808061209090612cfb565b915050612043565b505050565b60008060007fc5d2460186f7233c927e7db2dcc703c0e500b653ca82273b7bfad8045d85a47060001b9050833f91506000801b82141580156120df5750808214155b92505050919050565b6000444260025460405160200161210193929190612957565b6040516020818303038152906040528051906020012060001c905090565b60006121296120e8565b905060006040518060800160405280600154815260200185815260200183815260200184815250905060048190806001815401808255809150506001900390600052602060002090600402016000909190919091506000820151816000015560208201518160010155604082015181600201556060820151816003015550503373ffffffffffffffffffffffffffffffffffffffff167fa47f2b648fe6fee6023b9227628b751649f165f204c8a6e75d3146aca5b1b8a66001548587866040516121f69493929190612b53565b60405180910390a23360056000600154815260200190815260200160002060006101000a81548173ffffffffffffffffffffffffffffffffffffffff021916908373ffffffffffffffffffffffffffffffffffffffff160217905550600660003373ffffffffffffffffffffffffffffffffffffffff1673ffffffffffffffffffffffffffffffffffffffff1681526020019081526020016000206001549080600181540180825580915050600190039060005260206000200160009091909190915055600660003373ffffffffffffffffffffffffffffffffffffffff1673ffffffffffffffffffffffffffffffffffffffff1681526020019081526020016000208054905060076000600154815260200190815260200160002081905550600180546123249190612bfe565b60018190555050505050565b60008135905061233f81612dee565b92915050565b60008135905061235481612e05565b92915050565b60008151905061236981612e1c565b92915050565b60008083601f84011261238157600080fd5b8235905067ffffffffffffffff81111561239a57600080fd5b6020830191508360018202830111156123b257600080fd5b9250929050565b6000813590506123c881612e33565b92915050565b6000602082840312156123e057600080fd5b60006123ee84828501612330565b91505092915050565b6000806040838503121561240a57600080fd5b600061241885828601612330565b925050602061242985828601612330565b9150509250929050565b60008060006060848603121561244857600080fd5b600061245686828701612330565b935050602061246786828701612330565b9250506040612478868287016123b9565b9150509250925092565b60008060008060006080868803121561249a57600080fd5b60006124a888828901612330565b95505060206124b988828901612330565b94505060406124ca888289016123b9565b935050606086013567ffffffffffffffff8111156124e757600080fd5b6124f38882890161236f565b92509250509295509295909350565b6000806040838503121561251557600080fd5b600061252385828601612330565b925050602061253485828601612345565b9150509250929050565b6000806040838503121561255157600080fd5b600061255f85828601612330565b9250506020612570858286016123b9565b9150509250929050565b6000806000806080858703121561259057600080fd5b600061259e87828801612330565b94505060206125af878288016123b9565b93505060406125c0878288016123b9565b92505060606125d1878288016123b9565b91505092959194509250565b6000602082840312156125ef57600080fd5b60006125fd8482850161235a565b91505092915050565b60006020828403121561261857600080fd5b6000612626848285016123b9565b91505092915050565b600061263b8383612922565b60208301905092915050565b61265081612c54565b82525050565b600061266182612ba8565b61266b8185612bcb565b935061267683612b98565b8060005b838110156126a757815161268e888261262f565b975061269983612bbe565b92505060018101905061267a565b5085935050505092915050565b6126bd81612c66565b82525050565b60006126ce82612bb3565b6126d88185612bdc565b93506126e8818560208601612cc8565b6126f181612ddd565b840191505092915050565b6000612709602683612bed565b91507f4f776e61626c653a206e6577206f776e657220697320746865207a65726f206160008301527f64647265737300000000000000000000000000000000000000000000000000006020830152604082019050919050565b600061276f600c83612bed565b91507f494e56414c4944204341524400000000000000000000000000000000000000006000830152602082019050919050565b60006127af602083612bed565b91507f56414c55452053454e54204e4f5420455155414c20544f2043415244204645456000830152602082019050919050565b60006127ef601383612bed565b91507f4341524420414c524541445920455849535453000000000000000000000000006000830152602082019050919050565b600061282f601283612bed565b91507f43414e4e4f542052454345495645204e465400000000000000000000000000006000830152602082019050919050565b600061286f602083612bed565b91507f4f776e61626c653a2063616c6c6572206973206e6f7420746865206f776e65726000830152602082019050919050565b60006128af600c83612bed565b91507f5a45524f204144445245535300000000000000000000000000000000000000006000830152602082019050919050565b60006128ef601783612bed565b91507f4e4f542043555252454e5420544f4b454e204f574e45520000000000000000006000830152602082019050919050565b61292b81612cbe565b82525050565b61293a81612cbe565b82525050565b61295161294c82612cbe565b612d44565b82525050565b60006129638286612940565b6020820191506129738285612940565b6020820191506129838284612940565b602082019150819050949350505050565b60006020820190506129a96000830184612647565b92915050565b60006080820190506129c46000830187612647565b6129d16020830186612647565b6129de6040830185612931565b81810360608301526129f081846126c3565b905095945050505050565b60006020820190508181036000830152612a158184612656565b905092915050565b6000602082019050612a3260008301846126b4565b92915050565b60006020820190508181036000830152612a51816126fc565b9050919050565b60006020820190508181036000830152612a7181612762565b9050919050565b60006020820190508181036000830152612a91816127a2565b9050919050565b60006020820190508181036000830152612ab1816127e2565b9050919050565b60006020820190508181036000830152612ad181612822565b9050919050565b60006020820190508181036000830152612af181612862565b9050919050565b60006020820190508181036000830152612b11816128a2565b9050919050565b60006020820190508181036000830152612b31816128e2565b9050919050565b6000602082019050612b4d6000830184612931565b92915050565b6000608082019050612b686000830187612931565b612b756020830186612931565b612b826040830185612931565b612b8f6060830184612931565b95945050505050565b6000819050602082019050919050565b600081519050919050565b600081519050919050565b6000602082019050919050565b600082825260208201905092915050565b600082825260208201905092915050565b600082825260208201905092915050565b6000612c0982612cbe565b9150612c1483612cbe565b9250827fffffffffffffffffffffffffffffffffffffffffffffffffffffffffffffffff03821115612c4957612c48612d7f565b5b828201905092915050565b6000612c5f82612c9e565b9050919050565b60008115159050919050565b60007fffffffff0000000000000000000000000000000000000000000000000000000082169050919050565b600073ffffffffffffffffffffffffffffffffffffffff82169050919050565b6000819050919050565b60005b83811015612ce6578082015181840152602081019050612ccb565b83811115612cf5576000848401525b50505050565b6000612d0682612cbe565b91507fffffffffffffffffffffffffffffffffffffffffffffffffffffffffffffffff821415612d3957612d38612d7f565b5b600182019050919050565b6000819050919050565b6000612d5982612cbe565b9150612d6483612cbe565b925082612d7457612d73612dae565b5b828206905092915050565b7f4e487b7100000000000000000000000000000000000000000000000000000000600052601160045260246000fd5b7f4e487b7100000000000000000000000000000000000000000000000000000000600052601260045260246000fd5b6000601f19601f8301169050919050565b612df781612c54565b8114612e0257600080fd5b50565b612e0e81612c66565b8114612e1957600080fd5b50565b612e2581612c72565b8114612e3057600080fd5b50565b612e3c81612cbe565b8114612e4757600080fd5b5056fea2646970667358221220bda450fc545958f51fe869718e4288ad16ba12c8f470dd0864ac63bd1d087a2164736f6c63430008000033",
  "immutableReferences": {},
  "source": "// SPDX-License-Identifier: UNLICENSED\npragma solidity ^0.8.0;\n\nimport \"./card-pack-factory.sol\";\nimport \"./erc721.sol\";\nimport \"../utils/address-utils.sol\";\nimport \"./erc721-token-receiver.sol\";\n\ncontract CardOwnership is CardPackFactory, ERC721 {\n\n    using AddressUtils for address;\n\n    bytes4 internal constant MAGIC_ON_ERC721_RECEIVED = 0x150b7a02;\n\n    mapping (uint256 => address) internal idToApproval;\n    mapping (address => mapping (address => bool)) internal ownerToOperators;\n\n    modifier canOperate(uint256 _tokenId) {\n        address owner = cardIdToOwner[_tokenId];\n        require(owner == msg.sender || ownerToOperators[owner][msg.sender]);\n        _;\n    }\n\n    modifier canTransfer(uint256 _tokenId) {\n        address owner = cardIdToOwner[_tokenId];\n        require(owner == msg.sender || idToApproval[_tokenId] == msg.sender || ownerToOperators[owner][msg.sender]);\n        _;\n    }\n\n    modifier isValidCard(uint _cardId) {\n        require(cardIdToOwner[_cardId] != address(0), \"INVALID CARD\");\n        _;\n    }\n\n    function balanceOf(address _owner) external override view returns(uint) {\n        return ownerCardCount[_owner];\n    }\n\n    function ownerOf(uint _tokenId) external override view returns(address) {\n        return cardIdToOwner[_tokenId];\n    }\n\n    function safeTransferFrom(address _from, address _to, uint256 _tokenId) external payable override {\n        _safeTransferFrom(_from, _to, _tokenId, \"\");\n    }\n\n    function safeTransferFrom(address _from, address _to, uint256 _tokenId, bytes calldata _data) external payable override {\n        _safeTransferFrom(_from, _to, _tokenId, _data);\n    }\n\n    function transferFrom(address _from, address _to, uint256 _tokenId) external payable override canTransfer(_tokenId) isValidCard(_tokenId) {\n        _transfer(_from, _to, _tokenId);\n    }\n\n    function approve(address _approved, uint256 _tokenId) external payable override canOperate(_tokenId) isValidCard(_tokenId) {\n        require(msg.sender == cardIdToOwner[_tokenId], \"NOT CURRENT TOKEN OWNER\");\n        idToApproval[_tokenId] = _approved;\n        emit Approval(msg.sender, _approved, _tokenId);\n    }\n\n    function setApprovalForAll(address _operator, bool _approved) external override {\n        ownerToOperators[msg.sender][_operator] = _approved;\n        emit ApprovalForAll(msg.sender, _operator, _approved);\n    }\n\n    function getApproved(uint256 _tokenId) external override view isValidCard(_tokenId) returns(address) {\n        return idToApproval[_tokenId];\n    }\n\n    function isApprovedForAll(address _owner, address _operator) external override view returns(bool) {\n        return ownerToOperators[_owner][_operator];\n    }\n\n    function _transfer(address _from, address _to, uint256 _tokenId) private {\n        delete idToApproval[_tokenId];\n        cardIdToOwner[_tokenId] = _to;\n        emit Transfer(_from, _to, _tokenId);\n    }\n\n    function _safeTransferFrom(address _from, address _to, uint256 _tokenId, bytes memory _data) private canTransfer(_tokenId) isValidCard(_tokenId) {\n        require(_to != address(0), \"ZERO ADDRESS\");\n        _transfer(_from, _to, _tokenId);\n        if(_to.isContract()) {\n            bytes4 retval = ERC721TokenReceiver(_to).onERC721Received(msg.sender, _from, _tokenId, _data);\n            require(retval == MAGIC_ON_ERC721_RECEIVED, \"CANNOT RECEIVE NFT\");\n        }\n    }\n\n    function mintCustomCard(address _to, uint _playerId, uint _type, uint _attributes) external onlyOwner {\n        uint tokenId = createCustomCard(_playerId, _type, _attributes);\n        _mint(_to, tokenId);\n        _tokenId = _tokenId + 1;\n    }\n\n    function _mint(address _to, uint256 _tokenId) internal {\n        require(_to != address(0), \"ZERO ADDRESS\");\n        require(cardIdToOwner[_tokenId] == address(0), \"CARD ALREADY EXISTS\");\n\n        cardIdToOwner[_tokenId] = _to;\n        ownerCardCount[_to] = ownerCardCount[_to] + 1;\n    }\n    \n}",
  "sourcePath": "/Users/tkma4fr/Development/solidity-app/contracts/card-ownership.sol",
  "compiler": {
    "name": "solc",
    "version": "0.8.0+commit.c7dfd78e.Emscripten.clang"
  },
  "schemaVersion": "3.4.2",
  "updatedAt": "2021-10-12T01:51:53.849Z",
  "devdoc": {
    "kind": "dev",
    "methods": {
      "approve(address,uint256)": {
        "details": "The zero address indicates there is no approved address.  Throws unless `msg.sender` is the current NFT owner, or an authorized  operator of the current owner.",
        "params": {
          "_approved": "The new approved NFT controller",
          "_tokenId": "The NFT to approve"
        }
      },
      "balanceOf(address)": {
        "details": "NFTs assigned to the zero address are considered invalid, and this  function throws for queries about the zero address.",
        "params": {
          "_owner": "An address for whom to query the balance"
        },
        "returns": {
          "_0": "The number of NFTs owned by `_owner`, possibly zero"
        }
      },
      "getApproved(uint256)": {
        "details": "Throws if `_tokenId` is not a valid NFT.",
        "params": {
          "_tokenId": "The NFT to find the approved address for"
        },
        "returns": {
          "_0": "The approved address for this NFT, or the zero address if there is none"
        }
      },
      "isApprovedForAll(address,address)": {
        "params": {
          "_operator": "The address that acts on behalf of the owner",
          "_owner": "The address that owns the NFTs"
        },
        "returns": {
          "_0": "True if `_operator` is an approved operator for `_owner`, false otherwise"
        }
      },
      "owner()": {
        "details": "Returns the address of the current owner."
      },
      "ownerOf(uint256)": {
        "details": "NFTs assigned to zero address are considered invalid, and queries  about them do throw.",
        "params": {
          "_tokenId": "The identifier for an NFT"
        },
        "returns": {
          "_0": "The address of the owner of the NFT"
        }
      },
      "renounceOwnership()": {
        "details": "Leaves the contract without owner. It will not be possible to call `onlyOwner` functions anymore. Can only be called by the current owner. NOTE: Renouncing ownership will leave the contract without an owner, thereby removing any functionality that is only available to the owner."
      },
      "safeTransferFrom(address,address,uint256)": {
        "details": "This works identically to the other function with an extra data parameter,  except this function just sets data to \"\".",
        "params": {
          "_from": "The current owner of the NFT",
          "_to": "The new owner",
          "_tokenId": "The NFT to transfer"
        }
      },
      "setApprovalForAll(address,bool)": {
        "details": "Emits the ApprovalForAll event. The contract MUST allow  multiple operators per owner.",
        "params": {
          "_approved": "True if the operator is approved, false to revoke approval",
          "_operator": "Address to add to the set of authorized operators"
        }
      },
      "transferFrom(address,address,uint256)": {
        "details": "Throws unless `msg.sender` is the current owner, an authorized  operator, or the approved address for this NFT. Throws if `_from` is  not the current owner. Throws if `_to` is the zero address. Throws if  `_tokenId` is not a valid NFT.",
        "params": {
          "_from": "The current owner of the NFT",
          "_to": "The new owner",
          "_tokenId": "The NFT to transfer"
        }
      },
      "transferOwnership(address)": {
        "details": "Transfers ownership of the contract to a new account (`newOwner`). Can only be called by the current owner."
      }
    },
    "version": 1
  },
  "userdoc": {
    "kind": "user",
    "methods": {
      "approve(address,uint256)": {
        "notice": "Change or reaffirm the approved address for an NFT"
      },
      "balanceOf(address)": {
        "notice": "Count all NFTs assigned to an owner"
      },
      "getApproved(uint256)": {
        "notice": "Get the approved address for a single NFT"
      },
      "isApprovedForAll(address,address)": {
        "notice": "Query if an address is an authorized operator for another address"
      },
      "ownerOf(uint256)": {
        "notice": "Find the owner of an NFT"
      },
      "safeTransferFrom(address,address,uint256)": {
        "notice": "Transfers the ownership of an NFT from one address to another address"
      },
      "setApprovalForAll(address,bool)": {
        "notice": "Enable or disable approval for a third party (\"operator\") to manage  all of `msg.sender`'s assets"
      },
      "transferFrom(address,address,uint256)": {
        "notice": "Transfer ownership of an NFT -- THE CALLER IS RESPONSIBLE  TO CONFIRM THAT `_to` IS CAPABLE OF RECEIVING NFTS OR ELSE  THEY MAY BE PERMANENTLY LOST"
      }
    },
    "version": 1
  }
}