{
  "contractName": "CardPackFactory",
  "abi": [
    {
      "anonymous": false,
      "inputs": [
        {
          "indexed": false,
          "internalType": "uint256",
          "name": "cardId",
          "type": "uint256"
        },
        {
          "indexed": false,
          "internalType": "uint256",
          "name": "cardType",
          "type": "uint256"
        },
        {
          "indexed": false,
          "internalType": "uint256",
          "name": "playerId",
          "type": "uint256"
        },
        {
          "indexed": false,
          "internalType": "uint256",
          "name": "attributeHash",
          "type": "uint256"
        },
        {
          "indexed": false,
          "internalType": "address",
          "name": "owner",
          "type": "address"
        }
      ],
      "name": "CardCreated",
      "type": "event"
    },
    {
      "anonymous": false,
      "inputs": [
        {
          "indexed": true,
          "internalType": "address",
          "name": "previousOwner",
          "type": "address"
        },
        {
          "indexed": true,
          "internalType": "address",
          "name": "newOwner",
          "type": "address"
        }
      ],
      "name": "OwnershipTransferred",
      "type": "event"
    },
    {
      "inputs": [
        {
          "internalType": "uint256",
          "name": "",
          "type": "uint256"
        }
      ],
      "name": "cardIdToOwner",
      "outputs": [
        {
          "internalType": "address",
          "name": "",
          "type": "address"
        }
      ],
      "stateMutability": "view",
      "type": "function"
    },
    {
      "inputs": [
        {
          "internalType": "uint256",
          "name": "",
          "type": "uint256"
        }
      ],
      "name": "cards",
      "outputs": [
        {
          "internalType": "uint256",
          "name": "cardId",
          "type": "uint256"
        },
        {
          "internalType": "uint256",
          "name": "playerId",
          "type": "uint256"
        },
        {
          "internalType": "uint256",
          "name": "attributeHash",
          "type": "uint256"
        },
        {
          "internalType": "uint256",
          "name": "cardType",
          "type": "uint256"
        }
      ],
      "stateMutability": "view",
      "type": "function"
    },
    {
      "inputs": [
        {
          "internalType": "address",
          "name": "",
          "type": "address"
        }
      ],
      "name": "existingUser",
      "outputs": [
        {
          "internalType": "bool",
          "name": "",
          "type": "bool"
        }
      ],
      "stateMutability": "view",
      "type": "function"
    },
    {
      "inputs": [],
      "name": "owner",
      "outputs": [
        {
          "internalType": "address",
          "name": "",
          "type": "address"
        }
      ],
      "stateMutability": "view",
      "type": "function"
    },
    {
      "inputs": [
        {
          "internalType": "address",
          "name": "",
          "type": "address"
        }
      ],
      "name": "ownerCardCount",
      "outputs": [
        {
          "internalType": "uint256",
          "name": "",
          "type": "uint256"
        }
      ],
      "stateMutability": "view",
      "type": "function"
    },
    {
      "inputs": [],
      "name": "renounceOwnership",
      "outputs": [],
      "stateMutability": "nonpayable",
      "type": "function"
    },
    {
      "inputs": [
        {
          "internalType": "uint256",
          "name": "_count",
          "type": "uint256"
        }
      ],
      "name": "setTotalPlayers",
      "outputs": [],
      "stateMutability": "nonpayable",
      "type": "function"
    },
    {
      "inputs": [
        {
          "internalType": "address",
          "name": "newOwner",
          "type": "address"
        }
      ],
      "name": "transferOwnership",
      "outputs": [],
      "stateMutability": "nonpayable",
      "type": "function"
    },
    {
      "inputs": [],
      "name": "purchaseCardPack",
      "outputs": [],
      "stateMutability": "payable",
      "type": "function"
    },
    {
      "inputs": [
        {
          "internalType": "uint256",
          "name": "_quantity",
          "type": "uint256"
        }
      ],
      "name": "setCardPackQuantity",
      "outputs": [],
      "stateMutability": "nonpayable",
      "type": "function"
    },
    {
      "inputs": [
        {
          "internalType": "uint256",
          "name": "_fee",
          "type": "uint256"
        }
      ],
      "name": "setCardPackFee",
      "outputs": [],
      "stateMutability": "nonpayable",
      "type": "function"
    },
    {
      "inputs": [
        {
          "internalType": "uint256",
          "name": "_newOdds",
          "type": "uint256"
        }
      ],
      "name": "setRareCardOdds",
      "outputs": [],
      "stateMutability": "nonpayable",
      "type": "function"
    },
    {
      "inputs": [
        {
          "internalType": "uint256",
          "name": "_newOdds",
          "type": "uint256"
        }
      ],
      "name": "setExotixCardOdds",
      "outputs": [],
      "stateMutability": "nonpayable",
      "type": "function"
    },
    {
      "inputs": [
        {
          "internalType": "uint256",
          "name": "_newOdds",
          "type": "uint256"
        }
      ],
      "name": "setLegendaryCardOdds",
      "outputs": [],
      "stateMutability": "nonpayable",
      "type": "function"
    }
  ],
  "bytecode": "0x60806040526000600155600060025560bd6003556611c37937e08000600655600a600755600360085560196009556064600a5534801561003e57600080fd5b5061005b61005061006060201b60201c565b61006860201b60201c565b61012c565b600033905090565b60008060009054906101000a900473ffffffffffffffffffffffffffffffffffffffff169050816000806101000a81548173ffffffffffffffffffffffffffffffffffffffff021916908373ffffffffffffffffffffffffffffffffffffffff1602179055508173ffffffffffffffffffffffffffffffffffffffff168173ffffffffffffffffffffffffffffffffffffffff167f8be0079c531659141344cd1fd0a4f28419497f9722a3daafe3b4186f6b6457e060405160405180910390a35050565b61120c8061013b6000396000f3fe6080604052600436106100dd5760003560e01c80638da5cb5b1161007f578063b780acc511610059578063b780acc5146102a0578063c75f384b146102c9578063e25d13a8146102f2578063f2fde38b1461031b576100dd565b80638da5cb5b146101f85780638dc1076814610223578063a3d2065f14610263576100dd565b806341994140116100bb578063419941401461013e578063552788da1461017b578063715018a6146101a4578063804c4b25146101bb576100dd565b80632cfae8d3146100e257806336185bdf146100ec57806341845a1414610115575b600080fd5b6100ea610344565b005b3480156100f857600080fd5b50610113600480360381019061010e9190610d3e565b610392565b005b34801561012157600080fd5b5061013c60048036038101906101379190610d3e565b610418565b005b34801561014a57600080fd5b5061016560048036038101906101609190610d3e565b61049e565b6040516101729190610ece565b60405180910390f35b34801561018757600080fd5b506101a2600480360381019061019d9190610d3e565b6104d1565b005b3480156101b057600080fd5b506101b9610557565b005b3480156101c757600080fd5b506101e260048036038101906101dd9190610d15565b6105df565b6040516101ef9190610f64565b60405180910390f35b34801561020457600080fd5b5061020d6105f7565b60405161021a9190610ece565b60405180910390f35b34801561022f57600080fd5b5061024a60048036038101906102459190610d3e565b610620565b60405161025a9493929190610f7f565b60405180910390f35b34801561026f57600080fd5b5061028a60048036038101906102859190610d15565b610660565b6040516102979190610ee9565b60405180910390f35b3480156102ac57600080fd5b506102c760048036038101906102c29190610d3e565b610680565b005b3480156102d557600080fd5b506102f060048036038101906102eb9190610d3e565b610706565b005b3480156102fe57600080fd5b5061031960048036038101906103149190610d3e565b61078c565b005b34801561032757600080fd5b50610342600480360381019061033d9190610d15565b610812565b005b6006543414610388576040517f08c379a000000000000000000000000000000000000000000000000000000000815260040161037f90610f24565b60405180910390fd5b61039061090a565b565b61039a6109db565b73ffffffffffffffffffffffffffffffffffffffff166103b86105f7565b73ffffffffffffffffffffffffffffffffffffffff161461040e576040517f08c379a000000000000000000000000000000000000000000000000000000000815260040161040590610f44565b60405180910390fd5b8060098190555050565b6104206109db565b73ffffffffffffffffffffffffffffffffffffffff1661043e6105f7565b73ffffffffffffffffffffffffffffffffffffffff1614610494576040517f08c379a000000000000000000000000000000000000000000000000000000000815260040161048b90610f44565b60405180910390fd5b8060088190555050565b60056020528060005260406000206000915054906101000a900473ffffffffffffffffffffffffffffffffffffffff1681565b6104d96109db565b73ffffffffffffffffffffffffffffffffffffffff166104f76105f7565b73ffffffffffffffffffffffffffffffffffffffff161461054d576040517f08c379a000000000000000000000000000000000000000000000000000000000815260040161054490610f44565b60405180910390fd5b8060068190555050565b61055f6109db565b73ffffffffffffffffffffffffffffffffffffffff1661057d6105f7565b73ffffffffffffffffffffffffffffffffffffffff16146105d3576040517f08c379a00000000000000000000000000000000000000000000000000000000081526004016105ca90610f44565b60405180910390fd5b6105dd60006109e3565b565b600b6020528060005260406000206000915090505481565b60008060009054906101000a900473ffffffffffffffffffffffffffffffffffffffff16905090565b6004818154811061063057600080fd5b90600052602060002090600402016000915090508060000154908060010154908060020154908060030154905084565b600c6020528060005260406000206000915054906101000a900460ff1681565b6106886109db565b73ffffffffffffffffffffffffffffffffffffffff166106a66105f7565b73ffffffffffffffffffffffffffffffffffffffff16146106fc576040517f08c379a00000000000000000000000000000000000000000000000000000000081526004016106f390610f44565b60405180910390fd5b8060038190555050565b61070e6109db565b73ffffffffffffffffffffffffffffffffffffffff1661072c6105f7565b73ffffffffffffffffffffffffffffffffffffffff1614610782576040517f08c379a000000000000000000000000000000000000000000000000000000000815260040161077990610f44565b60405180910390fd5b80600a8190555050565b6107946109db565b73ffffffffffffffffffffffffffffffffffffffff166107b26105f7565b73ffffffffffffffffffffffffffffffffffffffff1614610808576040517f08c379a00000000000000000000000000000000000000000000000000000000081526004016107ff90610f44565b60405180910390fd5b8060078190555050565b61081a6109db565b73ffffffffffffffffffffffffffffffffffffffff166108386105f7565b73ffffffffffffffffffffffffffffffffffffffff161461088e576040517f08c379a000000000000000000000000000000000000000000000000000000000815260040161088590610f44565b60405180910390fd5b600073ffffffffffffffffffffffffffffffffffffffff168173ffffffffffffffffffffffffffffffffffffffff1614156108fe576040517f08c379a00000000000000000000000000000000000000000000000000000000081526004016108f590610f04565b60405180910390fd5b610907816109e3565b50565b600061091a600a54826003610aa7565b905061092a600954826002610aa7565b905061093a600854826001610aa7565b905061094881600754610b1c565b600754600b60003373ffffffffffffffffffffffffffffffffffffffff1673ffffffffffffffffffffffffffffffffffffffff168152602001908152602001600020546109959190611028565b600b60003373ffffffffffffffffffffffffffffffffffffffff1673ffffffffffffffffffffffffffffffffffffffff1681526020019081526020016000208190555050565b600033905090565b60008060009054906101000a900473ffffffffffffffffffffffffffffffffffffffff169050816000806101000a81548173ffffffffffffffffffffffffffffffffffffffff021916908373ffffffffffffffffffffffffffffffffffffffff1602179055508173ffffffffffffffffffffffffffffffffffffffff168173ffffffffffffffffffffffffffffffffffffffff167f8be0079c531659141344cd1fd0a4f28419497f9722a3daafe3b4186f6b6457e060405160405180910390a35050565b600080839050600085610ab8610b7c565b610ac29190611119565b1415610b11576000600354610ad5610b7c565b610adf9190611119565b90506001600254610af09190611028565b600281905550610b008185610bb3565b600185610b0d9190611028565b9150505b809150509392505050565b60008290505b81811015610b77576000600354610b37610b7c565b610b419190611119565b90506001600254610b529190611028565b600281905550610b63816000610bb3565b508080610b6f906110c6565b915050610b22565b505050565b60004442600254604051602001610b9593929190610e91565b6040516020818303038152906040528051906020012060001c905090565b6000610bbd610b7c565b905060006040518060800160405280600154815260200185815260200183815260200184815250905060048190806001815401808255809150506001900390600052602060002090600402016000909190919091506000820151816000015560208201518160010155604082015181600201556060820151816003015550507fa47f2b648fe6fee6023b9227628b751649f165f204c8a6e75d3146aca5b1b8a660015484868533604051610c75959493929190610fc4565b60405180910390a13360056000600154815260200190815260200160002060006101000a81548173ffffffffffffffffffffffffffffffffffffffff021916908373ffffffffffffffffffffffffffffffffffffffff16021790555060018054610cdf9190611028565b60018190555050505050565b600081359050610cfa816111a8565b92915050565b600081359050610d0f816111bf565b92915050565b600060208284031215610d2757600080fd5b6000610d3584828501610ceb565b91505092915050565b600060208284031215610d5057600080fd5b6000610d5e84828501610d00565b91505092915050565b610d708161107e565b82525050565b610d7f81611090565b82525050565b6000610d92602683611017565b91507f4f776e61626c653a206e6577206f776e657220697320746865207a65726f206160008301527f64647265737300000000000000000000000000000000000000000000000000006020830152604082019050919050565b6000610df8602083611017565b91507f56414c55452053454e54204e4f5420455155414c20544f2043415244204645456000830152602082019050919050565b6000610e38602083611017565b91507f4f776e61626c653a2063616c6c6572206973206e6f7420746865206f776e65726000830152602082019050919050565b610e74816110bc565b82525050565b610e8b610e86826110bc565b61110f565b82525050565b6000610e9d8286610e7a565b602082019150610ead8285610e7a565b602082019150610ebd8284610e7a565b602082019150819050949350505050565b6000602082019050610ee36000830184610d67565b92915050565b6000602082019050610efe6000830184610d76565b92915050565b60006020820190508181036000830152610f1d81610d85565b9050919050565b60006020820190508181036000830152610f3d81610deb565b9050919050565b60006020820190508181036000830152610f5d81610e2b565b9050919050565b6000602082019050610f796000830184610e6b565b92915050565b6000608082019050610f946000830187610e6b565b610fa16020830186610e6b565b610fae6040830185610e6b565b610fbb6060830184610e6b565b95945050505050565b600060a082019050610fd96000830188610e6b565b610fe66020830187610e6b565b610ff36040830186610e6b565b6110006060830185610e6b565b61100d6080830184610d67565b9695505050505050565b600082825260208201905092915050565b6000611033826110bc565b915061103e836110bc565b9250827fffffffffffffffffffffffffffffffffffffffffffffffffffffffffffffffff038211156110735761107261114a565b5b828201905092915050565b60006110898261109c565b9050919050565b60008115159050919050565b600073ffffffffffffffffffffffffffffffffffffffff82169050919050565b6000819050919050565b60006110d1826110bc565b91507fffffffffffffffffffffffffffffffffffffffffffffffffffffffffffffffff8214156111045761110361114a565b5b600182019050919050565b6000819050919050565b6000611124826110bc565b915061112f836110bc565b92508261113f5761113e611179565b5b828206905092915050565b7f4e487b7100000000000000000000000000000000000000000000000000000000600052601160045260246000fd5b7f4e487b7100000000000000000000000000000000000000000000000000000000600052601260045260246000fd5b6111b18161107e565b81146111bc57600080fd5b50565b6111c8816110bc565b81146111d357600080fd5b5056fea2646970667358221220c65dbbde4d2530abeb13cc0072c8dbda9af9f2454c86d615f2e10c781e11297b64736f6c63430008000033",
  "immutableReferences": {},
  "source": "// SPDX-License-Identifier: UNLICENSED\npragma solidity ^0.8.0;\n\nimport \"./card-factory.sol\";\n\ncontract CardPackFactory is CardFactory {\n\n    uint cardPackFee = 0.005 ether;\n    uint cardPackQuantity = 10;\n    uint rareCardOdds = 3;\n    uint exoticCardOdds = 25;\n    uint legendaryCardOdds = 100;\n\n    mapping (address => uint) public ownerCardCount;\n    mapping (address => bool) public existingUser;\n\n    function purchaseCardPack() external payable {\n        require(msg.value == cardPackFee, \"VALUE SENT NOT EQUAL TO CARD FEE\");\n        _createCardPack();\n    }\n\n    function _createCardPack() internal {\n        uint cardCount = 0;\n\n        cardCount = createNonCommonCard(legendaryCardOdds, cardCount, 3);\n        cardCount = createNonCommonCard(exoticCardOdds, cardCount, 2);\n        cardCount = createNonCommonCard(rareCardOdds, cardCount, 1);\n        createCommonCards(cardCount, cardPackQuantity);\n\n        ownerCardCount[msg.sender] = ownerCardCount[msg.sender] + cardPackQuantity;\n    }\n\n    function setCardPackQuantity(uint _quantity) external onlyOwner {\n        cardPackQuantity = _quantity;\n    }\n\n    function setCardPackFee(uint _fee) external onlyOwner {\n        cardPackFee = _fee;\n    }\n\n    function setRareCardOdds(uint _newOdds) external onlyOwner {\n        rareCardOdds = _newOdds;\n    }\n\n    function setExotixCardOdds(uint _newOdds) external onlyOwner {\n        exoticCardOdds = _newOdds;\n    }\n\n    function setLegendaryCardOdds(uint _newOdds) external onlyOwner {\n        legendaryCardOdds = _newOdds;\n    }\n}",
  "sourcePath": "/Users/tkma4fr/Development/solidity-app/contracts/card-pack-factory.sol",
  "compiler": {
    "name": "solc",
    "version": "0.8.0+commit.c7dfd78e.Emscripten.clang"
  },
  "schemaVersion": "3.4.2",
  "updatedAt": "2021-10-02T15:06:24.833Z",
  "devdoc": {
    "kind": "dev",
    "methods": {
      "owner()": {
        "details": "Returns the address of the current owner."
      },
      "renounceOwnership()": {
        "details": "Leaves the contract without owner. It will not be possible to call `onlyOwner` functions anymore. Can only be called by the current owner. NOTE: Renouncing ownership will leave the contract without an owner, thereby removing any functionality that is only available to the owner."
      },
      "transferOwnership(address)": {
        "details": "Transfers ownership of the contract to a new account (`newOwner`). Can only be called by the current owner."
      }
    },
    "version": 1
  },
  "userdoc": {
    "kind": "user",
    "methods": {},
    "version": 1
  }
}