{
  "contractName": "CardPackFactory",
  "abi": [
    {
      "anonymous": false,
      "inputs": [
        {
          "indexed": false,
          "internalType": "uint256",
          "name": "cardId",
          "type": "uint256"
        },
        {
          "indexed": false,
          "internalType": "uint256",
          "name": "cardType",
          "type": "uint256"
        },
        {
          "indexed": false,
          "internalType": "uint256",
          "name": "playerId",
          "type": "uint256"
        },
        {
          "indexed": false,
          "internalType": "uint256",
          "name": "attributeHash",
          "type": "uint256"
        },
        {
          "indexed": true,
          "internalType": "address",
          "name": "owner",
          "type": "address"
        }
      ],
      "name": "CardCreated",
      "type": "event"
    },
    {
      "anonymous": false,
      "inputs": [
        {
          "indexed": true,
          "internalType": "address",
          "name": "previousOwner",
          "type": "address"
        },
        {
          "indexed": true,
          "internalType": "address",
          "name": "newOwner",
          "type": "address"
        }
      ],
      "name": "OwnershipTransferred",
      "type": "event"
    },
    {
      "inputs": [
        {
          "internalType": "uint256",
          "name": "",
          "type": "uint256"
        }
      ],
      "name": "cardIdToOwner",
      "outputs": [
        {
          "internalType": "address",
          "name": "",
          "type": "address"
        }
      ],
      "stateMutability": "view",
      "type": "function"
    },
    {
      "inputs": [
        {
          "internalType": "uint256",
          "name": "",
          "type": "uint256"
        }
      ],
      "name": "cards",
      "outputs": [
        {
          "internalType": "uint256",
          "name": "cardId",
          "type": "uint256"
        },
        {
          "internalType": "uint256",
          "name": "playerId",
          "type": "uint256"
        },
        {
          "internalType": "uint256",
          "name": "attributeHash",
          "type": "uint256"
        },
        {
          "internalType": "uint256",
          "name": "cardType",
          "type": "uint256"
        }
      ],
      "stateMutability": "view",
      "type": "function"
    },
    {
      "inputs": [
        {
          "internalType": "address",
          "name": "",
          "type": "address"
        }
      ],
      "name": "existingUser",
      "outputs": [
        {
          "internalType": "bool",
          "name": "",
          "type": "bool"
        }
      ],
      "stateMutability": "view",
      "type": "function"
    },
    {
      "inputs": [],
      "name": "getTotalCards",
      "outputs": [
        {
          "internalType": "uint256",
          "name": "",
          "type": "uint256"
        }
      ],
      "stateMutability": "view",
      "type": "function"
    },
    {
      "inputs": [],
      "name": "owner",
      "outputs": [
        {
          "internalType": "address",
          "name": "",
          "type": "address"
        }
      ],
      "stateMutability": "view",
      "type": "function"
    },
    {
      "inputs": [
        {
          "internalType": "address",
          "name": "",
          "type": "address"
        }
      ],
      "name": "ownerCardCount",
      "outputs": [
        {
          "internalType": "uint256",
          "name": "",
          "type": "uint256"
        }
      ],
      "stateMutability": "view",
      "type": "function"
    },
    {
      "inputs": [],
      "name": "renounceOwnership",
      "outputs": [],
      "stateMutability": "nonpayable",
      "type": "function"
    },
    {
      "inputs": [
        {
          "internalType": "uint256",
          "name": "_count",
          "type": "uint256"
        }
      ],
      "name": "setTotalPlayers",
      "outputs": [],
      "stateMutability": "nonpayable",
      "type": "function"
    },
    {
      "inputs": [
        {
          "internalType": "address",
          "name": "newOwner",
          "type": "address"
        }
      ],
      "name": "transferOwnership",
      "outputs": [],
      "stateMutability": "nonpayable",
      "type": "function"
    },
    {
      "inputs": [],
      "name": "purchaseCardPack",
      "outputs": [],
      "stateMutability": "payable",
      "type": "function"
    },
    {
      "inputs": [
        {
          "internalType": "uint256",
          "name": "_quantity",
          "type": "uint256"
        }
      ],
      "name": "setCardPackQuantity",
      "outputs": [],
      "stateMutability": "nonpayable",
      "type": "function"
    },
    {
      "inputs": [
        {
          "internalType": "uint256",
          "name": "_fee",
          "type": "uint256"
        }
      ],
      "name": "setCardPackFee",
      "outputs": [],
      "stateMutability": "nonpayable",
      "type": "function"
    },
    {
      "inputs": [
        {
          "internalType": "uint256",
          "name": "_newOdds",
          "type": "uint256"
        }
      ],
      "name": "setRareCardOdds",
      "outputs": [],
      "stateMutability": "nonpayable",
      "type": "function"
    },
    {
      "inputs": [
        {
          "internalType": "uint256",
          "name": "_newOdds",
          "type": "uint256"
        }
      ],
      "name": "setExotixCardOdds",
      "outputs": [],
      "stateMutability": "nonpayable",
      "type": "function"
    },
    {
      "inputs": [
        {
          "internalType": "uint256",
          "name": "_newOdds",
          "type": "uint256"
        }
      ],
      "name": "setLegendaryCardOdds",
      "outputs": [],
      "stateMutability": "nonpayable",
      "type": "function"
    }
  ],
  "bytecode": "0x60806040526000600155600060025560bd6003556611c37937e08000600655600a600755600360085560196009556064600a5534801561003e57600080fd5b5061005b61005061006060201b60201c565b61006860201b60201c565b61012c565b600033905090565b60008060009054906101000a900473ffffffffffffffffffffffffffffffffffffffff169050816000806101000a81548173ffffffffffffffffffffffffffffffffffffffff021916908373ffffffffffffffffffffffffffffffffffffffff1602179055508173ffffffffffffffffffffffffffffffffffffffff168173ffffffffffffffffffffffffffffffffffffffff167f8be0079c531659141344cd1fd0a4f28419497f9722a3daafe3b4186f6b6457e060405160405180910390a35050565b6112118061013b6000396000f3fe6080604052600436106100e85760003560e01c80638da5cb5b1161008a578063b8d2caee11610059578063b8d2caee146102d4578063c75f384b146102ff578063e25d13a814610328578063f2fde38b14610351576100e8565b80638da5cb5b146102035780638dc107681461022e578063a3d2065f1461026e578063b780acc5146102ab576100e8565b806341994140116100c65780634199414014610149578063552788da14610186578063715018a6146101af578063804c4b25146101c6576100e8565b80632cfae8d3146100ed57806336185bdf146100f757806341845a1414610120575b600080fd5b6100f561037a565b005b34801561010357600080fd5b5061011e60048036038101906101199190610d96565b6103c8565b005b34801561012c57600080fd5b5061014760048036038101906101429190610d96565b61044e565b005b34801561015557600080fd5b50610170600480360381019061016b9190610d96565b6104d4565b60405161017d9190610f26565b60405180910390f35b34801561019257600080fd5b506101ad60048036038101906101a89190610d96565b610507565b005b3480156101bb57600080fd5b506101c461058d565b005b3480156101d257600080fd5b506101ed60048036038101906101e89190610d6d565b610615565b6040516101fa9190610fbc565b60405180910390f35b34801561020f57600080fd5b5061021861062d565b6040516102259190610f26565b60405180910390f35b34801561023a57600080fd5b5061025560048036038101906102509190610d96565b610656565b6040516102659493929190610fd7565b60405180910390f35b34801561027a57600080fd5b5061029560048036038101906102909190610d6d565b610696565b6040516102a29190610f41565b60405180910390f35b3480156102b757600080fd5b506102d260048036038101906102cd9190610d96565b6106b6565b005b3480156102e057600080fd5b506102e961073c565b6040516102f69190610fbc565b60405180910390f35b34801561030b57600080fd5b5061032660048036038101906103219190610d96565b610749565b005b34801561033457600080fd5b5061034f600480360381019061034a9190610d96565b6107cf565b005b34801561035d57600080fd5b5061037860048036038101906103739190610d6d565b610855565b005b60065434146103be576040517f08c379a00000000000000000000000000000000000000000000000000000000081526004016103b590610f7c565b60405180910390fd5b6103c661094d565b565b6103d0610a1e565b73ffffffffffffffffffffffffffffffffffffffff166103ee61062d565b73ffffffffffffffffffffffffffffffffffffffff1614610444576040517f08c379a000000000000000000000000000000000000000000000000000000000815260040161043b90610f9c565b60405180910390fd5b8060098190555050565b610456610a1e565b73ffffffffffffffffffffffffffffffffffffffff1661047461062d565b73ffffffffffffffffffffffffffffffffffffffff16146104ca576040517f08c379a00000000000000000000000000000000000000000000000000000000081526004016104c190610f9c565b60405180910390fd5b8060088190555050565b60056020528060005260406000206000915054906101000a900473ffffffffffffffffffffffffffffffffffffffff1681565b61050f610a1e565b73ffffffffffffffffffffffffffffffffffffffff1661052d61062d565b73ffffffffffffffffffffffffffffffffffffffff1614610583576040517f08c379a000000000000000000000000000000000000000000000000000000000815260040161057a90610f9c565b60405180910390fd5b8060068190555050565b610595610a1e565b73ffffffffffffffffffffffffffffffffffffffff166105b361062d565b73ffffffffffffffffffffffffffffffffffffffff1614610609576040517f08c379a000000000000000000000000000000000000000000000000000000000815260040161060090610f9c565b60405180910390fd5b6106136000610a26565b565b600b6020528060005260406000206000915090505481565b60008060009054906101000a900473ffffffffffffffffffffffffffffffffffffffff16905090565b6004818154811061066657600080fd5b90600052602060002090600402016000915090508060000154908060010154908060020154908060030154905084565b600c6020528060005260406000206000915054906101000a900460ff1681565b6106be610a1e565b73ffffffffffffffffffffffffffffffffffffffff166106dc61062d565b73ffffffffffffffffffffffffffffffffffffffff1614610732576040517f08c379a000000000000000000000000000000000000000000000000000000000815260040161072990610f9c565b60405180910390fd5b8060038190555050565b6000600480549050905090565b610751610a1e565b73ffffffffffffffffffffffffffffffffffffffff1661076f61062d565b73ffffffffffffffffffffffffffffffffffffffff16146107c5576040517f08c379a00000000000000000000000000000000000000000000000000000000081526004016107bc90610f9c565b60405180910390fd5b80600a8190555050565b6107d7610a1e565b73ffffffffffffffffffffffffffffffffffffffff166107f561062d565b73ffffffffffffffffffffffffffffffffffffffff161461084b576040517f08c379a000000000000000000000000000000000000000000000000000000000815260040161084290610f9c565b60405180910390fd5b8060078190555050565b61085d610a1e565b73ffffffffffffffffffffffffffffffffffffffff1661087b61062d565b73ffffffffffffffffffffffffffffffffffffffff16146108d1576040517f08c379a00000000000000000000000000000000000000000000000000000000081526004016108c890610f9c565b60405180910390fd5b600073ffffffffffffffffffffffffffffffffffffffff168173ffffffffffffffffffffffffffffffffffffffff161415610941576040517f08c379a000000000000000000000000000000000000000000000000000000000815260040161093890610f5c565b60405180910390fd5b61094a81610a26565b50565b600061095d600a54826003610aea565b905061096d600954826002610aea565b905061097d600854826001610aea565b905061098b81600754610b5f565b600754600b60003373ffffffffffffffffffffffffffffffffffffffff1673ffffffffffffffffffffffffffffffffffffffff168152602001908152602001600020546109d8919061102d565b600b60003373ffffffffffffffffffffffffffffffffffffffff1673ffffffffffffffffffffffffffffffffffffffff1681526020019081526020016000208190555050565b600033905090565b60008060009054906101000a900473ffffffffffffffffffffffffffffffffffffffff169050816000806101000a81548173ffffffffffffffffffffffffffffffffffffffff021916908373ffffffffffffffffffffffffffffffffffffffff1602179055508173ffffffffffffffffffffffffffffffffffffffff168173ffffffffffffffffffffffffffffffffffffffff167f8be0079c531659141344cd1fd0a4f28419497f9722a3daafe3b4186f6b6457e060405160405180910390a35050565b600080839050600085610afb610bbf565b610b05919061111e565b1415610b54576000600354610b18610bbf565b610b22919061111e565b90506001600254610b33919061102d565b600281905550610b438185610bf6565b600185610b50919061102d565b9150505b809150509392505050565b60008290505b81811015610bba576000600354610b7a610bbf565b610b84919061111e565b90506001600254610b95919061102d565b600281905550610ba6816000610bf6565b508080610bb2906110cb565b915050610b65565b505050565b60004442600254604051602001610bd893929190610ee9565b6040516020818303038152906040528051906020012060001c905090565b6000610c00610bbf565b905060006040518060800160405280600154815260200185815260200183815260200184815250905060048190806001815401808255809150506001900390600052602060002090600402016000909190919091506000820151816000015560208201518160010155604082015181600201556060820151816003015550503373ffffffffffffffffffffffffffffffffffffffff167fa47f2b648fe6fee6023b9227628b751649f165f204c8a6e75d3146aca5b1b8a6600154858786604051610ccd9493929190610fd7565b60405180910390a23360056000600154815260200190815260200160002060006101000a81548173ffffffffffffffffffffffffffffffffffffffff021916908373ffffffffffffffffffffffffffffffffffffffff16021790555060018054610d37919061102d565b60018190555050505050565b600081359050610d52816111ad565b92915050565b600081359050610d67816111c4565b92915050565b600060208284031215610d7f57600080fd5b6000610d8d84828501610d43565b91505092915050565b600060208284031215610da857600080fd5b6000610db684828501610d58565b91505092915050565b610dc881611083565b82525050565b610dd781611095565b82525050565b6000610dea60268361101c565b91507f4f776e61626c653a206e6577206f776e657220697320746865207a65726f206160008301527f64647265737300000000000000000000000000000000000000000000000000006020830152604082019050919050565b6000610e5060208361101c565b91507f56414c55452053454e54204e4f5420455155414c20544f2043415244204645456000830152602082019050919050565b6000610e9060208361101c565b91507f4f776e61626c653a2063616c6c6572206973206e6f7420746865206f776e65726000830152602082019050919050565b610ecc816110c1565b82525050565b610ee3610ede826110c1565b611114565b82525050565b6000610ef58286610ed2565b602082019150610f058285610ed2565b602082019150610f158284610ed2565b602082019150819050949350505050565b6000602082019050610f3b6000830184610dbf565b92915050565b6000602082019050610f566000830184610dce565b92915050565b60006020820190508181036000830152610f7581610ddd565b9050919050565b60006020820190508181036000830152610f9581610e43565b9050919050565b60006020820190508181036000830152610fb581610e83565b9050919050565b6000602082019050610fd16000830184610ec3565b92915050565b6000608082019050610fec6000830187610ec3565b610ff96020830186610ec3565b6110066040830185610ec3565b6110136060830184610ec3565b95945050505050565b600082825260208201905092915050565b6000611038826110c1565b9150611043836110c1565b9250827fffffffffffffffffffffffffffffffffffffffffffffffffffffffffffffffff038211156110785761107761114f565b5b828201905092915050565b600061108e826110a1565b9050919050565b60008115159050919050565b600073ffffffffffffffffffffffffffffffffffffffff82169050919050565b6000819050919050565b60006110d6826110c1565b91507fffffffffffffffffffffffffffffffffffffffffffffffffffffffffffffffff8214156111095761110861114f565b5b600182019050919050565b6000819050919050565b6000611129826110c1565b9150611134836110c1565b9250826111445761114361117e565b5b828206905092915050565b7f4e487b7100000000000000000000000000000000000000000000000000000000600052601160045260246000fd5b7f4e487b7100000000000000000000000000000000000000000000000000000000600052601260045260246000fd5b6111b681611083565b81146111c157600080fd5b50565b6111cd816110c1565b81146111d857600080fd5b5056fea26469706673582212209ce786f6bd2e2eaa19776c9f0b35bf69b4d11e668e3c9ca0a4fa3a760c74300864736f6c63430008000033",
  "immutableReferences": {},
  "source": "// SPDX-License-Identifier: UNLICENSED\npragma solidity ^0.8.0;\n\nimport \"./card-factory.sol\";\n\ncontract CardPackFactory is CardFactory {\n\n    uint cardPackFee = 0.005 ether;\n    uint cardPackQuantity = 10;\n    uint rareCardOdds = 3;\n    uint exoticCardOdds = 25;\n    uint legendaryCardOdds = 100;\n\n    mapping (address => uint) public ownerCardCount;\n    mapping (address => bool) public existingUser;\n\n    function purchaseCardPack() external payable {\n        require(msg.value == cardPackFee, \"VALUE SENT NOT EQUAL TO CARD FEE\");\n        _createCardPack();\n    }\n\n    function _createCardPack() internal {\n        uint cardCount = 0;\n\n        cardCount = createNonCommonCard(legendaryCardOdds, cardCount, 3);\n        cardCount = createNonCommonCard(exoticCardOdds, cardCount, 2);\n        cardCount = createNonCommonCard(rareCardOdds, cardCount, 1);\n        createCommonCards(cardCount, cardPackQuantity);\n\n        ownerCardCount[msg.sender] = ownerCardCount[msg.sender] + cardPackQuantity;\n    }\n\n    function setCardPackQuantity(uint _quantity) external onlyOwner {\n        cardPackQuantity = _quantity;\n    }\n\n    function setCardPackFee(uint _fee) external onlyOwner {\n        cardPackFee = _fee;\n    }\n\n    function setRareCardOdds(uint _newOdds) external onlyOwner {\n        rareCardOdds = _newOdds;\n    }\n\n    function setExotixCardOdds(uint _newOdds) external onlyOwner {\n        exoticCardOdds = _newOdds;\n    }\n\n    function setLegendaryCardOdds(uint _newOdds) external onlyOwner {\n        legendaryCardOdds = _newOdds;\n    }\n}",
  "sourcePath": "/Users/tkma4fr/Development/solidity-app/contracts/card-pack-factory.sol",
  "compiler": {
    "name": "solc",
    "version": "0.8.0+commit.c7dfd78e.Emscripten.clang"
  },
  "schemaVersion": "3.4.2",
  "updatedAt": "2021-10-05T21:04:58.244Z",
  "devdoc": {
    "kind": "dev",
    "methods": {
      "owner()": {
        "details": "Returns the address of the current owner."
      },
      "renounceOwnership()": {
        "details": "Leaves the contract without owner. It will not be possible to call `onlyOwner` functions anymore. Can only be called by the current owner. NOTE: Renouncing ownership will leave the contract without an owner, thereby removing any functionality that is only available to the owner."
      },
      "transferOwnership(address)": {
        "details": "Transfers ownership of the contract to a new account (`newOwner`). Can only be called by the current owner."
      }
    },
    "version": 1
  },
  "userdoc": {
    "kind": "user",
    "methods": {},
    "version": 1
  }
}