{
  "contractName": "CardPackFactory",
  "abi": [
    {
      "anonymous": false,
      "inputs": [
        {
          "indexed": false,
          "internalType": "uint256",
          "name": "cardId",
          "type": "uint256"
        },
        {
          "indexed": false,
          "internalType": "uint256",
          "name": "cardType",
          "type": "uint256"
        }
      ],
      "name": "CardCreated",
      "type": "event"
    },
    {
      "anonymous": false,
      "inputs": [
        {
          "indexed": false,
          "internalType": "uint256",
          "name": "playerId",
          "type": "uint256"
        },
        {
          "indexed": false,
          "internalType": "string",
          "name": "name",
          "type": "string"
        }
      ],
      "name": "NewPlayer",
      "type": "event"
    },
    {
      "anonymous": false,
      "inputs": [
        {
          "indexed": true,
          "internalType": "address",
          "name": "previousOwner",
          "type": "address"
        },
        {
          "indexed": true,
          "internalType": "address",
          "name": "newOwner",
          "type": "address"
        }
      ],
      "name": "OwnershipTransferred",
      "type": "event"
    },
    {
      "inputs": [
        {
          "internalType": "uint256",
          "name": "",
          "type": "uint256"
        }
      ],
      "name": "cardIdToOwner",
      "outputs": [
        {
          "internalType": "address",
          "name": "",
          "type": "address"
        }
      ],
      "stateMutability": "view",
      "type": "function"
    },
    {
      "inputs": [
        {
          "internalType": "uint256",
          "name": "",
          "type": "uint256"
        }
      ],
      "name": "cards",
      "outputs": [
        {
          "internalType": "uint256",
          "name": "cardId",
          "type": "uint256"
        },
        {
          "internalType": "uint256",
          "name": "playerId",
          "type": "uint256"
        },
        {
          "internalType": "uint256",
          "name": "attributeHash",
          "type": "uint256"
        },
        {
          "internalType": "uint256",
          "name": "cardType",
          "type": "uint256"
        }
      ],
      "stateMutability": "view",
      "type": "function"
    },
    {
      "inputs": [
        {
          "internalType": "string",
          "name": "_name",
          "type": "string"
        },
        {
          "internalType": "uint8",
          "name": "_teamId",
          "type": "uint8"
        },
        {
          "internalType": "uint8",
          "name": "_position",
          "type": "uint8"
        },
        {
          "internalType": "uint16",
          "name": "_season",
          "type": "uint16"
        }
      ],
      "name": "createPlayer",
      "outputs": [],
      "stateMutability": "nonpayable",
      "type": "function"
    },
    {
      "inputs": [
        {
          "internalType": "address",
          "name": "",
          "type": "address"
        }
      ],
      "name": "existingUser",
      "outputs": [
        {
          "internalType": "bool",
          "name": "",
          "type": "bool"
        }
      ],
      "stateMutability": "view",
      "type": "function"
    },
    {
      "inputs": [],
      "name": "owner",
      "outputs": [
        {
          "internalType": "address",
          "name": "",
          "type": "address"
        }
      ],
      "stateMutability": "view",
      "type": "function"
    },
    {
      "inputs": [
        {
          "internalType": "address",
          "name": "",
          "type": "address"
        }
      ],
      "name": "ownerCardCount",
      "outputs": [
        {
          "internalType": "uint256",
          "name": "",
          "type": "uint256"
        }
      ],
      "stateMutability": "view",
      "type": "function"
    },
    {
      "inputs": [
        {
          "internalType": "uint256",
          "name": "",
          "type": "uint256"
        }
      ],
      "name": "playerIdToPlayer",
      "outputs": [
        {
          "internalType": "string",
          "name": "name",
          "type": "string"
        },
        {
          "internalType": "uint8",
          "name": "teamId",
          "type": "uint8"
        },
        {
          "internalType": "uint8",
          "name": "position",
          "type": "uint8"
        },
        {
          "internalType": "uint16",
          "name": "season",
          "type": "uint16"
        }
      ],
      "stateMutability": "view",
      "type": "function"
    },
    {
      "inputs": [
        {
          "internalType": "uint256",
          "name": "",
          "type": "uint256"
        }
      ],
      "name": "players",
      "outputs": [
        {
          "internalType": "string",
          "name": "name",
          "type": "string"
        },
        {
          "internalType": "uint8",
          "name": "teamId",
          "type": "uint8"
        },
        {
          "internalType": "uint8",
          "name": "position",
          "type": "uint8"
        },
        {
          "internalType": "uint16",
          "name": "season",
          "type": "uint16"
        }
      ],
      "stateMutability": "view",
      "type": "function"
    },
    {
      "inputs": [],
      "name": "renounceOwnership",
      "outputs": [],
      "stateMutability": "nonpayable",
      "type": "function"
    },
    {
      "inputs": [
        {
          "internalType": "address",
          "name": "newOwner",
          "type": "address"
        }
      ],
      "name": "transferOwnership",
      "outputs": [],
      "stateMutability": "nonpayable",
      "type": "function"
    },
    {
      "inputs": [],
      "name": "purchaseCardPack",
      "outputs": [],
      "stateMutability": "payable",
      "type": "function"
    },
    {
      "inputs": [
        {
          "internalType": "uint256",
          "name": "_quantity",
          "type": "uint256"
        }
      ],
      "name": "setCardPackQuantity",
      "outputs": [],
      "stateMutability": "nonpayable",
      "type": "function"
    },
    {
      "inputs": [
        {
          "internalType": "uint256",
          "name": "_fee",
          "type": "uint256"
        }
      ],
      "name": "setCardPackFee",
      "outputs": [],
      "stateMutability": "nonpayable",
      "type": "function"
    },
    {
      "inputs": [
        {
          "internalType": "uint256",
          "name": "_newOdds",
          "type": "uint256"
        }
      ],
      "name": "setRareCardOdds",
      "outputs": [],
      "stateMutability": "nonpayable",
      "type": "function"
    },
    {
      "inputs": [
        {
          "internalType": "uint256",
          "name": "_newOdds",
          "type": "uint256"
        }
      ],
      "name": "setExotixCardOdds",
      "outputs": [],
      "stateMutability": "nonpayable",
      "type": "function"
    },
    {
      "inputs": [
        {
          "internalType": "uint256",
          "name": "_newOdds",
          "type": "uint256"
        }
      ],
      "name": "setLegendaryCardOdds",
      "outputs": [],
      "stateMutability": "nonpayable",
      "type": "function"
    }
  ],
  "bytecode": "0x6080604052600060055566354a6ba7a18000600855600a600955600a80556064600b556103e8600c5534801561003457600080fd5b5061005161004661005660201b60201c565b61005e60201b60201c565b610122565b600033905090565b60008060009054906101000a900473ffffffffffffffffffffffffffffffffffffffff169050816000806101000a81548173ffffffffffffffffffffffffffffffffffffffff021916908373ffffffffffffffffffffffffffffffffffffffff1602179055508173ffffffffffffffffffffffffffffffffffffffff168173ffffffffffffffffffffffffffffffffffffffff167f8be0079c531659141344cd1fd0a4f28419497f9722a3daafe3b4186f6b6457e060405160405180910390a35050565b6119e8806101316000396000f3fe6080604052600436106100f35760003560e01c80638da5cb5b1161008a578063c75f384b11610059578063c75f384b1461031f578063e25d13a814610348578063f2fde38b14610371578063f71d96cb1461039a576100f3565b80638da5cb5b146102375780638dc1076814610262578063a3d2065f146102a2578063b53794c9146102df576100f3565b80634ccf0174116100c65780634ccf017414610191578063552788da146101ba578063715018a6146101e3578063804c4b25146101fa576100f3565b80632cfae8d3146100f857806336185bdf1461010257806341845a141461012b5780634199414014610154575b600080fd5b6101006103da565b005b34801561010e57600080fd5b5061012960048036038101906101249190611339565b6103f2565b005b34801561013757600080fd5b50610152600480360381019061014d9190611339565b610478565b005b34801561016057600080fd5b5061017b60048036038101906101769190611339565b6104fe565b60405161018891906114e0565b60405180910390f35b34801561019d57600080fd5b506101b860048036038101906101b391906112be565b610531565b005b3480156101c657600080fd5b506101e160048036038101906101dc9190611339565b61077d565b005b3480156101ef57600080fd5b506101f8610803565b005b34801561020657600080fd5b50610221600480360381019061021c9190611295565b61088b565b60405161022e91906115a2565b60405180910390f35b34801561024357600080fd5b5061024c6108a3565b60405161025991906114e0565b60405180910390f35b34801561026e57600080fd5b5061028960048036038101906102849190611339565b6108cc565b6040516102999493929190611616565b60405180910390f35b3480156102ae57600080fd5b506102c960048036038101906102c49190611295565b61090c565b6040516102d691906114fb565b60405180910390f35b3480156102eb57600080fd5b5061030660048036038101906103019190611339565b61092c565b6040516103169493929190611516565b60405180910390f35b34801561032b57600080fd5b5061034660048036038101906103419190611339565b610a0c565b005b34801561035457600080fd5b5061036f600480360381019061036a9190611339565b610a92565b005b34801561037d57600080fd5b5061039860048036038101906103939190611295565b610b18565b005b3480156103a657600080fd5b506103c160048036038101906103bc9190611339565b610c10565b6040516103d19493929190611516565b60405180910390f35b60085434146103e857600080fd5b6103f0610d00565b565b6103fa610dd1565b73ffffffffffffffffffffffffffffffffffffffff166104186108a3565b73ffffffffffffffffffffffffffffffffffffffff161461046e576040517f08c379a000000000000000000000000000000000000000000000000000000000815260040161046590611582565b60405180910390fd5b80600b8190555050565b610480610dd1565b73ffffffffffffffffffffffffffffffffffffffff1661049e6108a3565b73ffffffffffffffffffffffffffffffffffffffff16146104f4576040517f08c379a00000000000000000000000000000000000000000000000000000000081526004016104eb90611582565b60405180910390fd5b80600a8190555050565b60076020528060005260406000206000915054906101000a900473ffffffffffffffffffffffffffffffffffffffff1681565b610539610dd1565b73ffffffffffffffffffffffffffffffffffffffff166105576108a3565b73ffffffffffffffffffffffffffffffffffffffff16146105ad576040517f08c379a00000000000000000000000000000000000000000000000000000000081526004016105a490611582565b60405180910390fd5b600060405180608001604052808681526020018560ff1681526020018460ff1681526020018361ffff16815250905060028190806001815401808255809150506001900390600052602060002090600202016000909190919091506000820151816000019080519060200190610624929190611136565b5060208201518160010160006101000a81548160ff021916908360ff16021790555060408201518160010160016101000a81548160ff021916908360ff16021790555060608201518160010160026101000a81548161ffff021916908361ffff16021790555050508060036000600154815260200190815260200160002060008201518160000190805190602001906106be929190611136565b5060208201518160010160006101000a81548160ff021916908360ff16021790555060408201518160010160016101000a81548160ff021916908360ff16021790555060608201518160010160026101000a81548161ffff021916908361ffff1602179055509050507fc617f3fbc3f6a35c0509a5f01fb4907e9c6e94cff260c3fe739bafd93cf224056001548660405161075a9291906115bd565b60405180910390a16001805461077091906116d8565b6001819055505050505050565b610785610dd1565b73ffffffffffffffffffffffffffffffffffffffff166107a36108a3565b73ffffffffffffffffffffffffffffffffffffffff16146107f9576040517f08c379a00000000000000000000000000000000000000000000000000000000081526004016107f090611582565b60405180910390fd5b8060088190555050565b61080b610dd1565b73ffffffffffffffffffffffffffffffffffffffff166108296108a3565b73ffffffffffffffffffffffffffffffffffffffff161461087f576040517f08c379a000000000000000000000000000000000000000000000000000000000815260040161087690611582565b60405180910390fd5b6108896000610dd9565b565b600d6020528060005260406000206000915090505481565b60008060009054906101000a900473ffffffffffffffffffffffffffffffffffffffff16905090565b600681815481106108dc57600080fd5b90600052602060002090600402016000915090508060000154908060010154908060020154908060030154905084565b600e6020528060005260406000206000915054906101000a900460ff1681565b600360205280600052604060002060009150905080600001805461094f906117d3565b80601f016020809104026020016040519081016040528092919081815260200182805461097b906117d3565b80156109c85780601f1061099d576101008083540402835291602001916109c8565b820191906000526020600020905b8154815290600101906020018083116109ab57829003601f168201915b5050505050908060010160009054906101000a900460ff16908060010160019054906101000a900460ff16908060010160029054906101000a900461ffff16905084565b610a14610dd1565b73ffffffffffffffffffffffffffffffffffffffff16610a326108a3565b73ffffffffffffffffffffffffffffffffffffffff1614610a88576040517f08c379a0000000000000000000000000000000000000000000000000000000008152600401610a7f90611582565b60405180910390fd5b80600c8190555050565b610a9a610dd1565b73ffffffffffffffffffffffffffffffffffffffff16610ab86108a3565b73ffffffffffffffffffffffffffffffffffffffff1614610b0e576040517f08c379a0000000000000000000000000000000000000000000000000000000008152600401610b0590611582565b60405180910390fd5b8060098190555050565b610b20610dd1565b73ffffffffffffffffffffffffffffffffffffffff16610b3e6108a3565b73ffffffffffffffffffffffffffffffffffffffff1614610b94576040517f08c379a0000000000000000000000000000000000000000000000000000000008152600401610b8b90611582565b60405180910390fd5b600073ffffffffffffffffffffffffffffffffffffffff168173ffffffffffffffffffffffffffffffffffffffff161415610c04576040517f08c379a0000000000000000000000000000000000000000000000000000000008152600401610bfb90611562565b60405180910390fd5b610c0d81610dd9565b50565b60028181548110610c2057600080fd5b9060005260206000209060020201600091509050806000018054610c43906117d3565b80601f0160208091040260200160405190810160405280929190818152602001828054610c6f906117d3565b8015610cbc5780601f10610c9157610100808354040283529160200191610cbc565b820191906000526020600020905b815481529060010190602001808311610c9f57829003601f168201915b5050505050908060010160009054906101000a900460ff16908060010160019054906101000a900460ff16908060010160029054906101000a900461ffff16905084565b6000610d10600c54826003610e9d565b9050610d20600b54826002610e9d565b9050610d30600a54826001610e9d565b9050610d3e81600954610f69565b600954600d60003373ffffffffffffffffffffffffffffffffffffffff1673ffffffffffffffffffffffffffffffffffffffff16815260200190815260200160002054610d8b91906116d8565b600d60003373ffffffffffffffffffffffffffffffffffffffff1673ffffffffffffffffffffffffffffffffffffffff1681526020019081526020016000208190555050565b600033905090565b60008060009054906101000a900473ffffffffffffffffffffffffffffffffffffffff169050816000806101000a81548173ffffffffffffffffffffffffffffffffffffffff021916908373ffffffffffffffffffffffffffffffffffffffff1602179055508173ffffffffffffffffffffffffffffffffffffffff168173ffffffffffffffffffffffffffffffffffffffff167f8be0079c531659141344cd1fd0a4f28419497f9722a3daafe3b4186f6b6457e060405160405180910390a35050565b600080839050600085610eae611020565b610eb89190611858565b1415610f5e576000600280549050610ece611020565b610ed89190611858565b90506001600554610ee991906116d8565b600581905550610ef98185611057565b3360076000600454815260200190815260200160002060006101000a81548173ffffffffffffffffffffffffffffffffffffffff021916908373ffffffffffffffffffffffffffffffffffffffff160217905550600185610f5a91906116d8565b9150505b809150509392505050565b60008290505b8181101561101b576000600280549050610f87611020565b610f919190611858565b90506001600554610fa291906116d8565b600581905550610fb3816000611057565b3360076000600454815260200190815260200160002060006101000a81548173ffffffffffffffffffffffffffffffffffffffff021916908373ffffffffffffffffffffffffffffffffffffffff16021790555050808061101390611805565b915050610f6f565b505050565b60004442600554604051602001611039939291906114a3565b6040516020818303038152906040528051906020012060001c905090565b6000611061611020565b905060006040518060800160405280600454815260200185815260200183815260200184815250905060068190806001815401808255809150506001900390600052602060002090600402016000909190919091506000820151816000015560208201518160010155604082015181600201556060820151816003015550507f077ca1125847d167fcffdc126f62150d8371a0124ed8340bc36a27aaf5661acb600454846040516111139291906115ed565b60405180910390a1600160045461112a91906116d8565b60048190555050505050565b828054611142906117d3565b90600052602060002090601f01602090048101928261116457600085556111ab565b82601f1061117d57805160ff19168380011785556111ab565b828001600101855582156111ab579182015b828111156111aa57825182559160200191906001019061118f565b5b5090506111b891906111bc565b5090565b5b808211156111d55760008160009055506001016111bd565b5090565b60006111ec6111e78461168c565b61165b565b90508281526020810184848401111561120457600080fd5b61120f848285611791565b509392505050565b60008135905061122681611956565b92915050565b600082601f83011261123d57600080fd5b813561124d8482602086016111d9565b91505092915050565b6000813590506112658161196d565b92915050565b60008135905061127a81611984565b92915050565b60008135905061128f8161199b565b92915050565b6000602082840312156112a757600080fd5b60006112b584828501611217565b91505092915050565b600080600080608085870312156112d457600080fd5b600085013567ffffffffffffffff8111156112ee57600080fd5b6112fa8782880161122c565b945050602061130b87828801611280565b935050604061131c87828801611280565b925050606061132d87828801611256565b91505092959194509250565b60006020828403121561134b57600080fd5b60006113598482850161126b565b91505092915050565b61136b8161172e565b82525050565b61137a81611740565b82525050565b600061138b826116bc565b61139581856116c7565b93506113a58185602086016117a0565b6113ae81611945565b840191505092915050565b60006113c66026836116c7565b91507f4f776e61626c653a206e6577206f776e657220697320746865207a65726f206160008301527f64647265737300000000000000000000000000000000000000000000000000006020830152604082019050919050565b600061142c6020836116c7565b91507f4f776e61626c653a2063616c6c6572206973206e6f7420746865206f776e65726000830152602082019050919050565b6114688161174c565b82525050565b6114778161177a565b82525050565b61148e6114898261177a565b61184e565b82525050565b61149d81611784565b82525050565b60006114af828661147d565b6020820191506114bf828561147d565b6020820191506114cf828461147d565b602082019150819050949350505050565b60006020820190506114f56000830184611362565b92915050565b60006020820190506115106000830184611371565b92915050565b600060808201905081810360008301526115308187611380565b905061153f6020830186611494565b61154c6040830185611494565b611559606083018461145f565b95945050505050565b6000602082019050818103600083015261157b816113b9565b9050919050565b6000602082019050818103600083015261159b8161141f565b9050919050565b60006020820190506115b7600083018461146e565b92915050565b60006040820190506115d2600083018561146e565b81810360208301526115e48184611380565b90509392505050565b6000604082019050611602600083018561146e565b61160f602083018461146e565b9392505050565b600060808201905061162b600083018761146e565b611638602083018661146e565b611645604083018561146e565b611652606083018461146e565b95945050505050565b6000604051905081810181811067ffffffffffffffff8211171561168257611681611916565b5b8060405250919050565b600067ffffffffffffffff8211156116a7576116a6611916565b5b601f19601f8301169050602081019050919050565b600081519050919050565b600082825260208201905092915050565b60006116e38261177a565b91506116ee8361177a565b9250827fffffffffffffffffffffffffffffffffffffffffffffffffffffffffffffffff0382111561172357611722611889565b5b828201905092915050565b60006117398261175a565b9050919050565b60008115159050919050565b600061ffff82169050919050565b600073ffffffffffffffffffffffffffffffffffffffff82169050919050565b6000819050919050565b600060ff82169050919050565b82818337600083830152505050565b60005b838110156117be5780820151818401526020810190506117a3565b838111156117cd576000848401525b50505050565b600060028204905060018216806117eb57607f821691505b602082108114156117ff576117fe6118e7565b5b50919050565b60006118108261177a565b91507fffffffffffffffffffffffffffffffffffffffffffffffffffffffffffffffff82141561184357611842611889565b5b600182019050919050565b6000819050919050565b60006118638261177a565b915061186e8361177a565b92508261187e5761187d6118b8565b5b828206905092915050565b7f4e487b7100000000000000000000000000000000000000000000000000000000600052601160045260246000fd5b7f4e487b7100000000000000000000000000000000000000000000000000000000600052601260045260246000fd5b7f4e487b7100000000000000000000000000000000000000000000000000000000600052602260045260246000fd5b7f4e487b7100000000000000000000000000000000000000000000000000000000600052604160045260246000fd5b6000601f19601f8301169050919050565b61195f8161172e565b811461196a57600080fd5b50565b6119768161174c565b811461198157600080fd5b50565b61198d8161177a565b811461199857600080fd5b50565b6119a481611784565b81146119af57600080fd5b5056fea2646970667358221220d711c2211f76cdf73695c6955dc06527abcc072cadc73ca799d0a37658aefd2e64736f6c63430008000033",
  "immutableReferences": {},
  "source": "// SPDX-License-Identifier: UNLICENSED\npragma solidity ^0.8.0;\n\nimport \"./card-factory.sol\";\n\ncontract CardPackFactory is CardFactory {\n\n    uint cardPackFee = 0.015 ether;\n    uint cardPackQuantity = 10;\n    uint rareCardOdds = 10;\n    uint exoticCardOdds = 100;\n    uint legendaryCardOdds = 1000;\n\n    mapping (address => uint) public ownerCardCount;\n    mapping (address => bool) public existingUser;\n\n    function purchaseCardPack() external payable {\n        require(msg.value == cardPackFee);\n        _createCardPack();\n    }\n\n    function _createCardPack() internal {\n        uint cardCount = 0;\n\n        cardCount = createNonCommonCard(legendaryCardOdds, cardCount, 3);\n        cardCount = createNonCommonCard(exoticCardOdds, cardCount, 2);\n        cardCount = createNonCommonCard(rareCardOdds, cardCount, 1);\n        createCommonCards(cardCount, cardPackQuantity);\n\n        ownerCardCount[msg.sender] = ownerCardCount[msg.sender] + cardPackQuantity;\n    }\n\n    function setCardPackQuantity(uint _quantity) external onlyOwner {\n        cardPackQuantity = _quantity;\n    }\n\n    function setCardPackFee(uint _fee) external onlyOwner {\n        cardPackFee = _fee;\n    }\n\n    function setRareCardOdds(uint _newOdds) external onlyOwner {\n        rareCardOdds = _newOdds;\n    }\n\n    function setExotixCardOdds(uint _newOdds) external onlyOwner {\n        exoticCardOdds = _newOdds;\n    }\n\n    function setLegendaryCardOdds(uint _newOdds) external onlyOwner {\n        legendaryCardOdds = _newOdds;\n    }\n}",
  "sourcePath": "/Users/tkma4fr/Development/solidity-app/contracts/card-pack-factory.sol",
  "compiler": {
    "name": "solc",
    "version": "0.8.0+commit.c7dfd78e.Emscripten.clang"
  },
  "schemaVersion": "3.4.2",
  "updatedAt": "2021-09-22T00:23:44.421Z",
  "devdoc": {
    "kind": "dev",
    "methods": {
      "owner()": {
        "details": "Returns the address of the current owner."
      },
      "renounceOwnership()": {
        "details": "Leaves the contract without owner. It will not be possible to call `onlyOwner` functions anymore. Can only be called by the current owner. NOTE: Renouncing ownership will leave the contract without an owner, thereby removing any functionality that is only available to the owner."
      },
      "transferOwnership(address)": {
        "details": "Transfers ownership of the contract to a new account (`newOwner`). Can only be called by the current owner."
      }
    },
    "version": 1
  },
  "userdoc": {
    "kind": "user",
    "methods": {},
    "version": 1
  }
}