{
  "contractName": "CardAuction",
  "abi": [
    {
      "anonymous": false,
      "inputs": [
        {
          "indexed": true,
          "internalType": "address",
          "name": "_owner",
          "type": "address"
        },
        {
          "indexed": true,
          "internalType": "address",
          "name": "_approved",
          "type": "address"
        },
        {
          "indexed": true,
          "internalType": "uint256",
          "name": "_tokenId",
          "type": "uint256"
        }
      ],
      "name": "Approval",
      "type": "event"
    },
    {
      "anonymous": false,
      "inputs": [
        {
          "indexed": true,
          "internalType": "address",
          "name": "_owner",
          "type": "address"
        },
        {
          "indexed": true,
          "internalType": "address",
          "name": "_operator",
          "type": "address"
        },
        {
          "indexed": false,
          "internalType": "bool",
          "name": "_approved",
          "type": "bool"
        }
      ],
      "name": "ApprovalForAll",
      "type": "event"
    },
    {
      "anonymous": false,
      "inputs": [
        {
          "indexed": false,
          "internalType": "uint256",
          "name": "_cardId",
          "type": "uint256"
        },
        {
          "indexed": false,
          "internalType": "uint256",
          "name": "_startingBid",
          "type": "uint256"
        },
        {
          "indexed": false,
          "internalType": "uint256",
          "name": "_currentTime",
          "type": "uint256"
        }
      ],
      "name": "AuctionOpened",
      "type": "event"
    },
    {
      "anonymous": false,
      "inputs": [
        {
          "indexed": false,
          "internalType": "uint256",
          "name": "_cardId",
          "type": "uint256"
        },
        {
          "indexed": false,
          "internalType": "uint256",
          "name": "_bid",
          "type": "uint256"
        },
        {
          "indexed": false,
          "internalType": "address",
          "name": "_bidder",
          "type": "address"
        }
      ],
      "name": "BidPlaced",
      "type": "event"
    },
    {
      "anonymous": false,
      "inputs": [
        {
          "indexed": false,
          "internalType": "uint256",
          "name": "cardId",
          "type": "uint256"
        },
        {
          "indexed": false,
          "internalType": "uint256",
          "name": "cardType",
          "type": "uint256"
        },
        {
          "indexed": false,
          "internalType": "uint256",
          "name": "playerId",
          "type": "uint256"
        },
        {
          "indexed": false,
          "internalType": "uint256",
          "name": "attributeHash",
          "type": "uint256"
        },
        {
          "indexed": false,
          "internalType": "address",
          "name": "owner",
          "type": "address"
        }
      ],
      "name": "CardCreated",
      "type": "event"
    },
    {
      "anonymous": false,
      "inputs": [
        {
          "indexed": true,
          "internalType": "address",
          "name": "previousOwner",
          "type": "address"
        },
        {
          "indexed": true,
          "internalType": "address",
          "name": "newOwner",
          "type": "address"
        }
      ],
      "name": "OwnershipTransferred",
      "type": "event"
    },
    {
      "anonymous": false,
      "inputs": [
        {
          "indexed": true,
          "internalType": "address",
          "name": "_from",
          "type": "address"
        },
        {
          "indexed": true,
          "internalType": "address",
          "name": "_to",
          "type": "address"
        },
        {
          "indexed": true,
          "internalType": "uint256",
          "name": "_tokenId",
          "type": "uint256"
        }
      ],
      "name": "Transfer",
      "type": "event"
    },
    {
      "inputs": [
        {
          "internalType": "address",
          "name": "_approved",
          "type": "address"
        },
        {
          "internalType": "uint256",
          "name": "_tokenId",
          "type": "uint256"
        }
      ],
      "name": "approve",
      "outputs": [],
      "stateMutability": "payable",
      "type": "function"
    },
    {
      "inputs": [
        {
          "internalType": "uint256",
          "name": "",
          "type": "uint256"
        }
      ],
      "name": "auctionExpireDate",
      "outputs": [
        {
          "internalType": "uint256",
          "name": "",
          "type": "uint256"
        }
      ],
      "stateMutability": "view",
      "type": "function"
    },
    {
      "inputs": [
        {
          "internalType": "address",
          "name": "_owner",
          "type": "address"
        }
      ],
      "name": "balanceOf",
      "outputs": [
        {
          "internalType": "uint256",
          "name": "",
          "type": "uint256"
        }
      ],
      "stateMutability": "view",
      "type": "function"
    },
    {
      "inputs": [
        {
          "internalType": "uint256",
          "name": "",
          "type": "uint256"
        }
      ],
      "name": "cardIdToOwner",
      "outputs": [
        {
          "internalType": "address",
          "name": "",
          "type": "address"
        }
      ],
      "stateMutability": "view",
      "type": "function"
    },
    {
      "inputs": [
        {
          "internalType": "uint256",
          "name": "",
          "type": "uint256"
        }
      ],
      "name": "cardIsForSale",
      "outputs": [
        {
          "internalType": "bool",
          "name": "",
          "type": "bool"
        }
      ],
      "stateMutability": "view",
      "type": "function"
    },
    {
      "inputs": [
        {
          "internalType": "uint256",
          "name": "",
          "type": "uint256"
        }
      ],
      "name": "cardToCurrentBid",
      "outputs": [
        {
          "internalType": "uint256",
          "name": "",
          "type": "uint256"
        }
      ],
      "stateMutability": "view",
      "type": "function"
    },
    {
      "inputs": [
        {
          "internalType": "uint256",
          "name": "",
          "type": "uint256"
        }
      ],
      "name": "cards",
      "outputs": [
        {
          "internalType": "uint256",
          "name": "cardId",
          "type": "uint256"
        },
        {
          "internalType": "uint256",
          "name": "playerId",
          "type": "uint256"
        },
        {
          "internalType": "uint256",
          "name": "attributeHash",
          "type": "uint256"
        },
        {
          "internalType": "uint256",
          "name": "cardType",
          "type": "uint256"
        }
      ],
      "stateMutability": "view",
      "type": "function"
    },
    {
      "inputs": [
        {
          "internalType": "address",
          "name": "",
          "type": "address"
        }
      ],
      "name": "existingUser",
      "outputs": [
        {
          "internalType": "bool",
          "name": "",
          "type": "bool"
        }
      ],
      "stateMutability": "view",
      "type": "function"
    },
    {
      "inputs": [
        {
          "internalType": "uint256",
          "name": "_tokenId",
          "type": "uint256"
        }
      ],
      "name": "getApproved",
      "outputs": [
        {
          "internalType": "address",
          "name": "",
          "type": "address"
        }
      ],
      "stateMutability": "view",
      "type": "function"
    },
    {
      "inputs": [
        {
          "internalType": "address",
          "name": "_owner",
          "type": "address"
        },
        {
          "internalType": "address",
          "name": "_operator",
          "type": "address"
        }
      ],
      "name": "isApprovedForAll",
      "outputs": [
        {
          "internalType": "bool",
          "name": "",
          "type": "bool"
        }
      ],
      "stateMutability": "view",
      "type": "function"
    },
    {
      "inputs": [
        {
          "internalType": "uint256",
          "name": "",
          "type": "uint256"
        }
      ],
      "name": "leadingBidder",
      "outputs": [
        {
          "internalType": "address",
          "name": "",
          "type": "address"
        }
      ],
      "stateMutability": "view",
      "type": "function"
    },
    {
      "inputs": [
        {
          "internalType": "address",
          "name": "_to",
          "type": "address"
        },
        {
          "internalType": "uint256",
          "name": "_playerId",
          "type": "uint256"
        },
        {
          "internalType": "uint256",
          "name": "_type",
          "type": "uint256"
        },
        {
          "internalType": "uint256",
          "name": "_attributes",
          "type": "uint256"
        }
      ],
      "name": "mintCustomCard",
      "outputs": [],
      "stateMutability": "nonpayable",
      "type": "function"
    },
    {
      "inputs": [],
      "name": "owner",
      "outputs": [
        {
          "internalType": "address",
          "name": "",
          "type": "address"
        }
      ],
      "stateMutability": "view",
      "type": "function"
    },
    {
      "inputs": [
        {
          "internalType": "address",
          "name": "",
          "type": "address"
        }
      ],
      "name": "ownerCardCount",
      "outputs": [
        {
          "internalType": "uint256",
          "name": "",
          "type": "uint256"
        }
      ],
      "stateMutability": "view",
      "type": "function"
    },
    {
      "inputs": [
        {
          "internalType": "uint256",
          "name": "_tokenId",
          "type": "uint256"
        }
      ],
      "name": "ownerOf",
      "outputs": [
        {
          "internalType": "address",
          "name": "",
          "type": "address"
        }
      ],
      "stateMutability": "view",
      "type": "function"
    },
    {
      "inputs": [],
      "name": "purchaseCardPack",
      "outputs": [],
      "stateMutability": "payable",
      "type": "function"
    },
    {
      "inputs": [],
      "name": "renounceOwnership",
      "outputs": [],
      "stateMutability": "nonpayable",
      "type": "function"
    },
    {
      "inputs": [
        {
          "internalType": "address",
          "name": "_from",
          "type": "address"
        },
        {
          "internalType": "address",
          "name": "_to",
          "type": "address"
        },
        {
          "internalType": "uint256",
          "name": "_tokenId",
          "type": "uint256"
        }
      ],
      "name": "safeTransferFrom",
      "outputs": [],
      "stateMutability": "payable",
      "type": "function"
    },
    {
      "inputs": [
        {
          "internalType": "address",
          "name": "_from",
          "type": "address"
        },
        {
          "internalType": "address",
          "name": "_to",
          "type": "address"
        },
        {
          "internalType": "uint256",
          "name": "_tokenId",
          "type": "uint256"
        },
        {
          "internalType": "bytes",
          "name": "_data",
          "type": "bytes"
        }
      ],
      "name": "safeTransferFrom",
      "outputs": [],
      "stateMutability": "payable",
      "type": "function"
    },
    {
      "inputs": [
        {
          "internalType": "address",
          "name": "_operator",
          "type": "address"
        },
        {
          "internalType": "bool",
          "name": "_approved",
          "type": "bool"
        }
      ],
      "name": "setApprovalForAll",
      "outputs": [],
      "stateMutability": "nonpayable",
      "type": "function"
    },
    {
      "inputs": [
        {
          "internalType": "uint256",
          "name": "_fee",
          "type": "uint256"
        }
      ],
      "name": "setCardPackFee",
      "outputs": [],
      "stateMutability": "nonpayable",
      "type": "function"
    },
    {
      "inputs": [
        {
          "internalType": "uint256",
          "name": "_quantity",
          "type": "uint256"
        }
      ],
      "name": "setCardPackQuantity",
      "outputs": [],
      "stateMutability": "nonpayable",
      "type": "function"
    },
    {
      "inputs": [
        {
          "internalType": "uint256",
          "name": "_newOdds",
          "type": "uint256"
        }
      ],
      "name": "setExotixCardOdds",
      "outputs": [],
      "stateMutability": "nonpayable",
      "type": "function"
    },
    {
      "inputs": [
        {
          "internalType": "uint256",
          "name": "_newOdds",
          "type": "uint256"
        }
      ],
      "name": "setLegendaryCardOdds",
      "outputs": [],
      "stateMutability": "nonpayable",
      "type": "function"
    },
    {
      "inputs": [
        {
          "internalType": "uint256",
          "name": "_newOdds",
          "type": "uint256"
        }
      ],
      "name": "setRareCardOdds",
      "outputs": [],
      "stateMutability": "nonpayable",
      "type": "function"
    },
    {
      "inputs": [
        {
          "internalType": "uint256",
          "name": "_count",
          "type": "uint256"
        }
      ],
      "name": "setTotalPlayers",
      "outputs": [],
      "stateMutability": "nonpayable",
      "type": "function"
    },
    {
      "inputs": [
        {
          "internalType": "address",
          "name": "_from",
          "type": "address"
        },
        {
          "internalType": "address",
          "name": "_to",
          "type": "address"
        },
        {
          "internalType": "uint256",
          "name": "_tokenId",
          "type": "uint256"
        }
      ],
      "name": "transferFrom",
      "outputs": [],
      "stateMutability": "payable",
      "type": "function"
    },
    {
      "inputs": [
        {
          "internalType": "address",
          "name": "newOwner",
          "type": "address"
        }
      ],
      "name": "transferOwnership",
      "outputs": [],
      "stateMutability": "nonpayable",
      "type": "function"
    },
    {
      "inputs": [
        {
          "internalType": "uint256",
          "name": "_cardId",
          "type": "uint256"
        },
        {
          "internalType": "uint256",
          "name": "_startingBid",
          "type": "uint256"
        },
        {
          "internalType": "uint256",
          "name": "_duration",
          "type": "uint256"
        }
      ],
      "name": "createCardAuction",
      "outputs": [],
      "stateMutability": "nonpayable",
      "type": "function"
    },
    {
      "inputs": [
        {
          "internalType": "uint256",
          "name": "_cardId",
          "type": "uint256"
        }
      ],
      "name": "placeBid",
      "outputs": [],
      "stateMutability": "payable",
      "type": "function"
    },
    {
      "inputs": [
        {
          "internalType": "uint256",
          "name": "_cardId",
          "type": "uint256"
        }
      ],
      "name": "endAuction",
      "outputs": [],
      "stateMutability": "nonpayable",
      "type": "function"
    },
    {
      "inputs": [
        {
          "internalType": "uint256",
          "name": "_cardId",
          "type": "uint256"
        }
      ],
      "name": "getAuctionTimeRemaining",
      "outputs": [
        {
          "internalType": "bool",
          "name": "",
          "type": "bool"
        }
      ],
      "stateMutability": "view",
      "type": "function"
    }
  ],
  "bytecode": "0x60806040526000600155600060025560bd6003556611c37937e08000600655600a600755600360085560196009556064600a5562093a80600f553480156200004657600080fd5b50620000676200005b6200006d60201b60201c565b6200007560201b60201c565b62000139565b600033905090565b60008060009054906101000a900473ffffffffffffffffffffffffffffffffffffffff169050816000806101000a81548173ffffffffffffffffffffffffffffffffffffffff021916908373ffffffffffffffffffffffffffffffffffffffff1602179055508173ffffffffffffffffffffffffffffffffffffffff168173ffffffffffffffffffffffffffffffffffffffff167f8be0079c531659141344cd1fd0a4f28419497f9722a3daafe3b4186f6b6457e060405160405180910390a35050565b61364a80620001496000396000f3fe6080604052600436106101e35760003560e01c80638dc1076811610102578063b9a2de3a11610095578063e25d13a811610064578063e25d13a8146106e7578063e985e9c514610710578063f2fde38b1461074d578063feb2c4df14610776576101e3565b8063b9a2de3a1461061b578063bb77e35514610644578063bca978fb14610681578063c75f384b146106be576101e3565b8063a3d2065f116100d1578063a3d2065f1461055c578063a6e156c614610599578063b780acc5146105d6578063b88d4fde146105ff576101e3565b80638dc107681461049a578063957e5b97146104da5780639979ef4514610517578063a22cb46514610533576101e3565b806342842e0e1161017a578063715018a611610149578063715018a6146103f2578063804c4b2514610409578063828c730c146104465780638da5cb5b1461046f576101e3565b806342842e0e14610333578063552788da1461034f5780636352211e1461037857806370a08231146103b5576101e3565b80632cfae8d3116101b65780632cfae8d31461029a57806336185bdf146102a457806341845a14146102cd57806341994140146102f6576101e3565b8063081812fc146101e8578063095ea7b3146102255780631647d5a01461024157806323b872dd1461027e575b600080fd5b3480156101f457600080fd5b5061020f600480360381019061020a9190612b71565b61079f565b60405161021c919061306f565b60405180910390f35b61023f600480360381019061023a9190612aa9565b610881565b005b34801561024d57600080fd5b5061026860048036038101906102639190612b71565b610b7c565b60405161027591906132b1565b60405180910390f35b6102986004803603810190610293919061299e565b610b94565b005b6102a2610db6565b005b3480156102b057600080fd5b506102cb60048036038101906102c69190612b71565b610e04565b005b3480156102d957600080fd5b506102f460048036038101906102ef9190612b71565b610e8a565b005b34801561030257600080fd5b5061031d60048036038101906103189190612b71565b610f10565b60405161032a919061306f565b60405180910390f35b61034d6004803603810190610348919061299e565b610f43565b005b34801561035b57600080fd5b5061037660048036038101906103719190612b71565b610f63565b005b34801561038457600080fd5b5061039f600480360381019061039a9190612b71565b610fe9565b6040516103ac919061306f565b60405180910390f35b3480156103c157600080fd5b506103dc60048036038101906103d79190612939565b611026565b6040516103e991906132b1565b60405180910390f35b3480156103fe57600080fd5b5061040761106f565b005b34801561041557600080fd5b50610430600480360381019061042b9190612939565b6110f7565b60405161043d91906132b1565b60405180910390f35b34801561045257600080fd5b5061046d60048036038101906104689190612ae5565b61110f565b005b34801561047b57600080fd5b506104846111bf565b604051610491919061306f565b60405180910390f35b3480156104a657600080fd5b506104c160048036038101906104bc9190612b71565b6111e8565b6040516104d19493929190613303565b60405180910390f35b3480156104e657600080fd5b5061050160048036038101906104fc9190612b71565b611228565b60405161050e91906130d6565b60405180910390f35b610531600480360381019061052c9190612b71565b611248565b005b34801561053f57600080fd5b5061055a60048036038101906105559190612a6d565b61140c565b005b34801561056857600080fd5b50610583600480360381019061057e9190612939565b611509565b60405161059091906130d6565b60405180910390f35b3480156105a557600080fd5b506105c060048036038101906105bb9190612b71565b611529565b6040516105cd91906130d6565b60405180910390f35b3480156105e257600080fd5b506105fd60048036038101906105f89190612b71565b611549565b005b610619600480360381019061061491906129ed565b6115cf565b005b34801561062757600080fd5b50610642600480360381019061063d9190612b71565b611626565b005b34801561065057600080fd5b5061066b60048036038101906106669190612b71565b611812565b604051610678919061306f565b60405180910390f35b34801561068d57600080fd5b506106a860048036038101906106a39190612b71565b611845565b6040516106b591906132b1565b60405180910390f35b3480156106ca57600080fd5b506106e560048036038101906106e09190612b71565b61185d565b005b3480156106f357600080fd5b5061070e60048036038101906107099190612b71565b6118e3565b005b34801561071c57600080fd5b5061073760048036038101906107329190612962565b611969565b60405161074491906130d6565b60405180910390f35b34801561075957600080fd5b50610774600480360381019061076f9190612939565b6119fd565b005b34801561078257600080fd5b5061079d60048036038101906107989190612b9a565b611af5565b005b600081600073ffffffffffffffffffffffffffffffffffffffff166005600083815260200190815260200160002060009054906101000a900473ffffffffffffffffffffffffffffffffffffffff1673ffffffffffffffffffffffffffffffffffffffff161415610845576040517f08c379a000000000000000000000000000000000000000000000000000000000815260040161083c90613111565b60405180910390fd5b600d600084815260200190815260200160002060009054906101000a900473ffffffffffffffffffffffffffffffffffffffff16915050919050565b8060006005600083815260200190815260200160002060009054906101000a900473ffffffffffffffffffffffffffffffffffffffff1690503373ffffffffffffffffffffffffffffffffffffffff168173ffffffffffffffffffffffffffffffffffffffff16148061097a5750600e60008273ffffffffffffffffffffffffffffffffffffffff1673ffffffffffffffffffffffffffffffffffffffff16815260200190815260200160002060003373ffffffffffffffffffffffffffffffffffffffff1673ffffffffffffffffffffffffffffffffffffffff16815260200190815260200160002060009054906101000a900460ff165b61098357600080fd5b82600073ffffffffffffffffffffffffffffffffffffffff166005600083815260200190815260200160002060009054906101000a900473ffffffffffffffffffffffffffffffffffffffff1673ffffffffffffffffffffffffffffffffffffffff161415610a27576040517f08c379a0000000000000000000000000000000000000000000000000000000008152600401610a1e90613111565b60405180910390fd5b6005600085815260200190815260200160002060009054906101000a900473ffffffffffffffffffffffffffffffffffffffff1673ffffffffffffffffffffffffffffffffffffffff163373ffffffffffffffffffffffffffffffffffffffff1614610ac8576040517f08c379a0000000000000000000000000000000000000000000000000000000008152600401610abf90613291565b60405180910390fd5b84600d600086815260200190815260200160002060006101000a81548173ffffffffffffffffffffffffffffffffffffffff021916908373ffffffffffffffffffffffffffffffffffffffff160217905550838573ffffffffffffffffffffffffffffffffffffffff163373ffffffffffffffffffffffffffffffffffffffff167f8c5be1e5ebec7d5bd14f71427d1e84f3dd0314c0f7b2291e5b200ac8c7c3b92560405160405180910390a45050505050565b60116020528060005260406000206000915090505481565b8060006005600083815260200190815260200160002060009054906101000a900473ffffffffffffffffffffffffffffffffffffffff1690503373ffffffffffffffffffffffffffffffffffffffff168173ffffffffffffffffffffffffffffffffffffffff161480610c6557503373ffffffffffffffffffffffffffffffffffffffff16600d600084815260200190815260200160002060009054906101000a900473ffffffffffffffffffffffffffffffffffffffff1673ffffffffffffffffffffffffffffffffffffffff16145b80610cf65750600e60008273ffffffffffffffffffffffffffffffffffffffff1673ffffffffffffffffffffffffffffffffffffffff16815260200190815260200160002060003373ffffffffffffffffffffffffffffffffffffffff1673ffffffffffffffffffffffffffffffffffffffff16815260200190815260200160002060009054906101000a900460ff165b610cff57600080fd5b82600073ffffffffffffffffffffffffffffffffffffffff166005600083815260200190815260200160002060009054906101000a900473ffffffffffffffffffffffffffffffffffffffff1673ffffffffffffffffffffffffffffffffffffffff161415610da3576040517f08c379a0000000000000000000000000000000000000000000000000000000008152600401610d9a90613111565b60405180910390fd5b610dae868686611cef565b505050505050565b6006543414610dfa576040517f08c379a0000000000000000000000000000000000000000000000000000000008152600401610df190613131565b60405180910390fd5b610e02611dd7565b565b610e0c611ea8565b73ffffffffffffffffffffffffffffffffffffffff16610e2a6111bf565b73ffffffffffffffffffffffffffffffffffffffff1614610e80576040517f08c379a0000000000000000000000000000000000000000000000000000000008152600401610e7790613211565b60405180910390fd5b8060098190555050565b610e92611ea8565b73ffffffffffffffffffffffffffffffffffffffff16610eb06111bf565b73ffffffffffffffffffffffffffffffffffffffff1614610f06576040517f08c379a0000000000000000000000000000000000000000000000000000000008152600401610efd90613211565b60405180910390fd5b8060088190555050565b60056020528060005260406000206000915054906101000a900473ffffffffffffffffffffffffffffffffffffffff1681565b610f5e83838360405180602001604052806000815250611eb0565b505050565b610f6b611ea8565b73ffffffffffffffffffffffffffffffffffffffff16610f896111bf565b73ffffffffffffffffffffffffffffffffffffffff1614610fdf576040517f08c379a0000000000000000000000000000000000000000000000000000000008152600401610fd690613211565b60405180910390fd5b8060068190555050565b60006005600083815260200190815260200160002060009054906101000a900473ffffffffffffffffffffffffffffffffffffffff169050919050565b6000600b60008373ffffffffffffffffffffffffffffffffffffffff1673ffffffffffffffffffffffffffffffffffffffff168152602001908152602001600020549050919050565b611077611ea8565b73ffffffffffffffffffffffffffffffffffffffff166110956111bf565b73ffffffffffffffffffffffffffffffffffffffff16146110eb576040517f08c379a00000000000000000000000000000000000000000000000000000000081526004016110e290613211565b60405180910390fd5b6110f56000612285565b565b600b6020528060005260406000206000915090505481565b611117611ea8565b73ffffffffffffffffffffffffffffffffffffffff166111356111bf565b73ffffffffffffffffffffffffffffffffffffffff161461118b576040517f08c379a000000000000000000000000000000000000000000000000000000000815260040161118290613211565b60405180910390fd5b6000611198848484612349565b90506111a48582612415565b600180546111b291906133c8565b6001819055505050505050565b60008060009054906101000a900473ffffffffffffffffffffffffffffffffffffffff16905090565b600481815481106111f857600080fd5b90600052602060002090600402016000915090508060000154908060010154908060020154908060030154905084565b600042601360008481526020019081526020016000205411159050919050565b3373ffffffffffffffffffffffffffffffffffffffff166005600083815260200190815260200160002060009054906101000a900473ffffffffffffffffffffffffffffffffffffffff1673ffffffffffffffffffffffffffffffffffffffff1614156112ea576040517f08c379a00000000000000000000000000000000000000000000000000000000081526004016112e1906131d1565b60405180910390fd5b6010600082815260200190815260200160002060009054906101000a900460ff1661134a576040517f08c379a000000000000000000000000000000000000000000000000000000000815260040161134190613151565b60405180910390fd5b6011600082815260200190815260200160002054341161139f576040517f08c379a000000000000000000000000000000000000000000000000000000000815260040161139690613191565b60405180910390fd5b346011600083815260200190815260200160002081905550336012600083815260200190815260200160002060006101000a81548173ffffffffffffffffffffffffffffffffffffffff021916908373ffffffffffffffffffffffffffffffffffffffff16021790555050565b80600e60003373ffffffffffffffffffffffffffffffffffffffff1673ffffffffffffffffffffffffffffffffffffffff16815260200190815260200160002060008473ffffffffffffffffffffffffffffffffffffffff1673ffffffffffffffffffffffffffffffffffffffff16815260200190815260200160002060006101000a81548160ff0219169083151502179055508173ffffffffffffffffffffffffffffffffffffffff163373ffffffffffffffffffffffffffffffffffffffff167f17307eab39ab6107e8899845ad3d59bd9653f200f220920489ca2b5937696c31836040516114fd91906130d6565b60405180910390a35050565b600c6020528060005260406000206000915054906101000a900460ff1681565b60106020528060005260406000206000915054906101000a900460ff1681565b611551611ea8565b73ffffffffffffffffffffffffffffffffffffffff1661156f6111bf565b73ffffffffffffffffffffffffffffffffffffffff16146115c5576040517f08c379a00000000000000000000000000000000000000000000000000000000081526004016115bc90613211565b60405180910390fd5b8060038190555050565b61161f85858585858080601f016020809104026020016040519081016040528093929190818152602001838380828437600081840152601f19601f82011690508083019250505050505050611eb0565b5050505050565b426013600083815260200190815260200160002054111561164657600080fd5b60006005600083815260200190815260200160002060009054906101000a900473ffffffffffffffffffffffffffffffffffffffff1690508073ffffffffffffffffffffffffffffffffffffffff166108fc60116000858152602001908152602001600020549081150290604051600060405180830381858888f193505050501580156116d7573d6000803e3d6000fd5b506012600083815260200190815260200160002060009054906101000a900473ffffffffffffffffffffffffffffffffffffffff166005600084815260200190815260200160002060006101000a81548173ffffffffffffffffffffffffffffffffffffffff021916908373ffffffffffffffffffffffffffffffffffffffff16021790555060006010600084815260200190815260200160002060006101000a81548160ff0219169083151502179055506000601160008481526020019081526020016000208190555060006012600084815260200190815260200160002060006101000a81548173ffffffffffffffffffffffffffffffffffffffff021916908373ffffffffffffffffffffffffffffffffffffffff160217905550600060136000848152602001908152602001600020819055505050565b60126020528060005260406000206000915054906101000a900473ffffffffffffffffffffffffffffffffffffffff1681565b60136020528060005260406000206000915090505481565b611865611ea8565b73ffffffffffffffffffffffffffffffffffffffff166118836111bf565b73ffffffffffffffffffffffffffffffffffffffff16146118d9576040517f08c379a00000000000000000000000000000000000000000000000000000000081526004016118d090613211565b60405180910390fd5b80600a8190555050565b6118eb611ea8565b73ffffffffffffffffffffffffffffffffffffffff166119096111bf565b73ffffffffffffffffffffffffffffffffffffffff161461195f576040517f08c379a000000000000000000000000000000000000000000000000000000000815260040161195690613211565b60405180910390fd5b8060078190555050565b6000600e60008473ffffffffffffffffffffffffffffffffffffffff1673ffffffffffffffffffffffffffffffffffffffff16815260200190815260200160002060008373ffffffffffffffffffffffffffffffffffffffff1673ffffffffffffffffffffffffffffffffffffffff16815260200190815260200160002060009054906101000a900460ff16905092915050565b611a05611ea8565b73ffffffffffffffffffffffffffffffffffffffff16611a236111bf565b73ffffffffffffffffffffffffffffffffffffffff1614611a79576040517f08c379a0000000000000000000000000000000000000000000000000000000008152600401611a7090613211565b60405180910390fd5b600073ffffffffffffffffffffffffffffffffffffffff168173ffffffffffffffffffffffffffffffffffffffff161415611ae9576040517f08c379a0000000000000000000000000000000000000000000000000000000008152600401611ae0906130f1565b60405180910390fd5b611af281612285565b50565b80600f54811115611b3b576040517f08c379a0000000000000000000000000000000000000000000000000000000008152600401611b3290613231565b60405180910390fd5b83600060056000600154815260200190815260200160002060009054906101000a900473ffffffffffffffffffffffffffffffffffffffff1690503373ffffffffffffffffffffffffffffffffffffffff168173ffffffffffffffffffffffffffffffffffffffff1614611be4576040517f08c379a0000000000000000000000000000000000000000000000000000000008152600401611bdb90613271565b60405180910390fd5b6010600087815260200190815260200160002060009054906101000a900460ff1615611c45576040517f08c379a0000000000000000000000000000000000000000000000000000000008152600401611c3c906131f1565b60405180910390fd5b60016010600088815260200190815260200160002060006101000a81548160ff0219169083151502179055508460116000888152602001908152602001600020819055508342611c9591906133c8565b60136000888152602001908152602001600020819055507fc2fbfad6915d49533ad7877a0ffccb0acd8bf3034f7e48d3aa620abcaa1df7ed868642604051611cdf939291906132cc565b60405180910390a1505050505050565b600d600082815260200190815260200160002060006101000a81549073ffffffffffffffffffffffffffffffffffffffff0219169055816005600083815260200190815260200160002060006101000a81548173ffffffffffffffffffffffffffffffffffffffff021916908373ffffffffffffffffffffffffffffffffffffffff160217905550808273ffffffffffffffffffffffffffffffffffffffff168473ffffffffffffffffffffffffffffffffffffffff167fddf252ad1be2c89b69c2b068fc378daa952ba7f163c4a11628f55a4df523b3ef60405160405180910390a4505050565b6000611de7600a5482600361260c565b9050611df760095482600261260c565b9050611e0760085482600161260c565b9050611e1581600754612681565b600754600b60003373ffffffffffffffffffffffffffffffffffffffff1673ffffffffffffffffffffffffffffffffffffffff16815260200190815260200160002054611e6291906133c8565b600b60003373ffffffffffffffffffffffffffffffffffffffff1673ffffffffffffffffffffffffffffffffffffffff1681526020019081526020016000208190555050565b600033905090565b8160006005600083815260200190815260200160002060009054906101000a900473ffffffffffffffffffffffffffffffffffffffff1690503373ffffffffffffffffffffffffffffffffffffffff168173ffffffffffffffffffffffffffffffffffffffff161480611f8157503373ffffffffffffffffffffffffffffffffffffffff16600d600084815260200190815260200160002060009054906101000a900473ffffffffffffffffffffffffffffffffffffffff1673ffffffffffffffffffffffffffffffffffffffff16145b806120125750600e60008273ffffffffffffffffffffffffffffffffffffffff1673ffffffffffffffffffffffffffffffffffffffff16815260200190815260200160002060003373ffffffffffffffffffffffffffffffffffffffff1673ffffffffffffffffffffffffffffffffffffffff16815260200190815260200160002060009054906101000a900460ff165b61201b57600080fd5b83600073ffffffffffffffffffffffffffffffffffffffff166005600083815260200190815260200160002060009054906101000a900473ffffffffffffffffffffffffffffffffffffffff1673ffffffffffffffffffffffffffffffffffffffff1614156120bf576040517f08c379a00000000000000000000000000000000000000000000000000000000081526004016120b690613111565b60405180910390fd5b600073ffffffffffffffffffffffffffffffffffffffff168673ffffffffffffffffffffffffffffffffffffffff16141561212f576040517f08c379a000000000000000000000000000000000000000000000000000000000815260040161212690613251565b60405180910390fd5b61213a878787611cef565b6121598673ffffffffffffffffffffffffffffffffffffffff166126e1565b1561227c5760008673ffffffffffffffffffffffffffffffffffffffff1663150b7a02338a89896040518563ffffffff1660e01b815260040161219f949392919061308a565b602060405180830381600087803b1580156121b957600080fd5b505af11580156121cd573d6000803e3d6000fd5b505050506040513d601f19601f820116820180604052508101906121f19190612b48565b905063150b7a0260e01b7bffffffffffffffffffffffffffffffffffffffffffffffffffffffff1916817bffffffffffffffffffffffffffffffffffffffffffffffffffffffff19161461227a576040517f08c379a0000000000000000000000000000000000000000000000000000000008152600401612271906131b1565b60405180910390fd5b505b50505050505050565b60008060009054906101000a900473ffffffffffffffffffffffffffffffffffffffff169050816000806101000a81548173ffffffffffffffffffffffffffffffffffffffff021916908373ffffffffffffffffffffffffffffffffffffffff1602179055508173ffffffffffffffffffffffffffffffffffffffff168173ffffffffffffffffffffffffffffffffffffffff167f8be0079c531659141344cd1fd0a4f28419497f9722a3daafe3b4186f6b6457e060405160405180910390a35050565b6000806040518060800160405280600154815260200186815260200184815260200185815250905060048190806001815401808255809150506001900390600052602060002090600402016000909190919091506000820151816000015560208201518160010155604082015181600201556060820151816003015550507fa47f2b648fe6fee6023b9227628b751649f165f204c8a6e75d3146aca5b1b8a660015485878633604051612400959493929190613348565b60405180910390a16001549150509392505050565b600073ffffffffffffffffffffffffffffffffffffffff168273ffffffffffffffffffffffffffffffffffffffff161415612485576040517f08c379a000000000000000000000000000000000000000000000000000000000815260040161247c90613251565b60405180910390fd5b600073ffffffffffffffffffffffffffffffffffffffff166005600083815260200190815260200160002060009054906101000a900473ffffffffffffffffffffffffffffffffffffffff1673ffffffffffffffffffffffffffffffffffffffff1614612527576040517f08c379a000000000000000000000000000000000000000000000000000000000815260040161251e90613171565b60405180910390fd5b816005600083815260200190815260200160002060006101000a81548173ffffffffffffffffffffffffffffffffffffffff021916908373ffffffffffffffffffffffffffffffffffffffff1602179055506001600b60008473ffffffffffffffffffffffffffffffffffffffff1673ffffffffffffffffffffffffffffffffffffffff168152602001908152602001600020546125c591906133c8565b600b60008473ffffffffffffffffffffffffffffffffffffffff1673ffffffffffffffffffffffffffffffffffffffff168152602001908152602001600020819055505050565b60008083905060008561261d61272c565b6126279190613518565b141561267657600060035461263a61272c565b6126449190613518565b9050600160025461265591906133c8565b6002819055506126658185612763565b60018561267291906133c8565b9150505b809150509392505050565b60008290505b818110156126dc57600060035461269c61272c565b6126a69190613518565b905060016002546126b791906133c8565b6002819055506126c8816000612763565b5080806126d4906134c5565b915050612687565b505050565b60008060007fc5d2460186f7233c927e7db2dcc703c0e500b653ca82273b7bfad8045d85a47060001b9050833f91506000801b82141580156127235750808214155b92505050919050565b6000444260025460405160200161274593929190613032565b6040516020818303038152906040528051906020012060001c905090565b600061276d61272c565b905060006040518060800160405280600154815260200185815260200183815260200184815250905060048190806001815401808255809150506001900390600052602060002090600402016000909190919091506000820151816000015560208201518160010155604082015181600201556060820151816003015550507fa47f2b648fe6fee6023b9227628b751649f165f204c8a6e75d3146aca5b1b8a660015484868533604051612825959493929190613348565b60405180910390a13360056000600154815260200190815260200160002060006101000a81548173ffffffffffffffffffffffffffffffffffffffff021916908373ffffffffffffffffffffffffffffffffffffffff1602179055506001805461288f91906133c8565b60018190555050505050565b6000813590506128aa816135b8565b92915050565b6000813590506128bf816135cf565b92915050565b6000815190506128d4816135e6565b92915050565b60008083601f8401126128ec57600080fd5b8235905067ffffffffffffffff81111561290557600080fd5b60208301915083600182028301111561291d57600080fd5b9250929050565b600081359050612933816135fd565b92915050565b60006020828403121561294b57600080fd5b60006129598482850161289b565b91505092915050565b6000806040838503121561297557600080fd5b60006129838582860161289b565b92505060206129948582860161289b565b9150509250929050565b6000806000606084860312156129b357600080fd5b60006129c18682870161289b565b93505060206129d28682870161289b565b92505060406129e386828701612924565b9150509250925092565b600080600080600060808688031215612a0557600080fd5b6000612a138882890161289b565b9550506020612a248882890161289b565b9450506040612a3588828901612924565b935050606086013567ffffffffffffffff811115612a5257600080fd5b612a5e888289016128da565b92509250509295509295909350565b60008060408385031215612a8057600080fd5b6000612a8e8582860161289b565b9250506020612a9f858286016128b0565b9150509250929050565b60008060408385031215612abc57600080fd5b6000612aca8582860161289b565b9250506020612adb85828601612924565b9150509250929050565b60008060008060808587031215612afb57600080fd5b6000612b098782880161289b565b9450506020612b1a87828801612924565b9350506040612b2b87828801612924565b9250506060612b3c87828801612924565b91505092959194509250565b600060208284031215612b5a57600080fd5b6000612b68848285016128c5565b91505092915050565b600060208284031215612b8357600080fd5b6000612b9184828501612924565b91505092915050565b600080600060608486031215612baf57600080fd5b6000612bbd86828701612924565b9350506020612bce86828701612924565b9250506040612bdf86828701612924565b9150509250925092565b612bf28161341e565b82525050565b612c0181613430565b82525050565b6000612c128261339b565b612c1c81856133a6565b9350612c2c818560208601613492565b612c35816135a7565b840191505092915050565b6000612c4d6026836133b7565b91507f4f776e61626c653a206e6577206f776e657220697320746865207a65726f206160008301527f64647265737300000000000000000000000000000000000000000000000000006020830152604082019050919050565b6000612cb3600c836133b7565b91507f494e56414c4944204341524400000000000000000000000000000000000000006000830152602082019050919050565b6000612cf36020836133b7565b91507f56414c55452053454e54204e4f5420455155414c20544f2043415244204645456000830152602082019050919050565b6000612d336011836133b7565b91507f43415244204e4f5420464f522053414c450000000000000000000000000000006000830152602082019050919050565b6000612d736013836133b7565b91507f4341524420414c524541445920455849535453000000000000000000000000006000830152602082019050919050565b6000612db36016836133b7565b91507f424944204c4f574552205448414e2043555252454e54000000000000000000006000830152602082019050919050565b6000612df36012836133b7565b91507f43414e4e4f542052454345495645204e465400000000000000000000000000006000830152602082019050919050565b6000612e33601c836133b7565b91507f43414e204e4f5420424944204f4e20434152445320594f55204f574e000000006000830152602082019050919050565b6000612e73601b836133b7565b91507f4341524420414c524541445920555020464f522041554354494f4e00000000006000830152602082019050919050565b6000612eb36020836133b7565b91507f4f776e61626c653a2063616c6c6572206973206e6f7420746865206f776e65726000830152602082019050919050565b6000612ef36018836133b7565b91507f424944204455524154494f4e204e4f5420414c4c4f57454400000000000000006000830152602082019050919050565b6000612f33600c836133b7565b91507f5a45524f204144445245535300000000000000000000000000000000000000006000830152602082019050919050565b6000612f736027836133b7565b91507f4f4e4c592043415244204f574e45522043414e20504f535420495420464f522060008301527f41554354494f4e000000000000000000000000000000000000000000000000006020830152604082019050919050565b6000612fd96017836133b7565b91507f4e4f542043555252454e5420544f4b454e204f574e45520000000000000000006000830152602082019050919050565b61301581613488565b82525050565b61302c61302782613488565b61350e565b82525050565b600061303e828661301b565b60208201915061304e828561301b565b60208201915061305e828461301b565b602082019150819050949350505050565b60006020820190506130846000830184612be9565b92915050565b600060808201905061309f6000830187612be9565b6130ac6020830186612be9565b6130b9604083018561300c565b81810360608301526130cb8184612c07565b905095945050505050565b60006020820190506130eb6000830184612bf8565b92915050565b6000602082019050818103600083015261310a81612c40565b9050919050565b6000602082019050818103600083015261312a81612ca6565b9050919050565b6000602082019050818103600083015261314a81612ce6565b9050919050565b6000602082019050818103600083015261316a81612d26565b9050919050565b6000602082019050818103600083015261318a81612d66565b9050919050565b600060208201905081810360008301526131aa81612da6565b9050919050565b600060208201905081810360008301526131ca81612de6565b9050919050565b600060208201905081810360008301526131ea81612e26565b9050919050565b6000602082019050818103600083015261320a81612e66565b9050919050565b6000602082019050818103600083015261322a81612ea6565b9050919050565b6000602082019050818103600083015261324a81612ee6565b9050919050565b6000602082019050818103600083015261326a81612f26565b9050919050565b6000602082019050818103600083015261328a81612f66565b9050919050565b600060208201905081810360008301526132aa81612fcc565b9050919050565b60006020820190506132c6600083018461300c565b92915050565b60006060820190506132e1600083018661300c565b6132ee602083018561300c565b6132fb604083018461300c565b949350505050565b6000608082019050613318600083018761300c565b613325602083018661300c565b613332604083018561300c565b61333f606083018461300c565b95945050505050565b600060a08201905061335d600083018861300c565b61336a602083018761300c565b613377604083018661300c565b613384606083018561300c565b6133916080830184612be9565b9695505050505050565b600081519050919050565b600082825260208201905092915050565b600082825260208201905092915050565b60006133d382613488565b91506133de83613488565b9250827fffffffffffffffffffffffffffffffffffffffffffffffffffffffffffffffff0382111561341357613412613549565b5b828201905092915050565b600061342982613468565b9050919050565b60008115159050919050565b60007fffffffff0000000000000000000000000000000000000000000000000000000082169050919050565b600073ffffffffffffffffffffffffffffffffffffffff82169050919050565b6000819050919050565b60005b838110156134b0578082015181840152602081019050613495565b838111156134bf576000848401525b50505050565b60006134d082613488565b91507fffffffffffffffffffffffffffffffffffffffffffffffffffffffffffffffff82141561350357613502613549565b5b600182019050919050565b6000819050919050565b600061352382613488565b915061352e83613488565b92508261353e5761353d613578565b5b828206905092915050565b7f4e487b7100000000000000000000000000000000000000000000000000000000600052601160045260246000fd5b7f4e487b7100000000000000000000000000000000000000000000000000000000600052601260045260246000fd5b6000601f19601f8301169050919050565b6135c18161341e565b81146135cc57600080fd5b50565b6135d881613430565b81146135e357600080fd5b50565b6135ef8161343c565b81146135fa57600080fd5b50565b61360681613488565b811461361157600080fd5b5056fea264697066735822122047eeddb2e62e9507182a45d37507ec8bd6a86d7bf1a42aeacde3742de271938e64736f6c63430008000033",
  "immutableReferences": {},
  "source": "// SPDX-License-Identifier: UNLICENSED\npragma solidity ^0.8.0;\n\nimport \"./card-ownership.sol\";\n\ncontract CardAuction is CardOwnership {\n\n    uint maxAuctionDuration = 604800;\n    mapping(uint => bool) public cardIsForSale;\n    mapping(uint => uint) public cardToCurrentBid;\n    mapping(uint => address) public leadingBidder;\n    mapping(uint => uint) public auctionExpireDate;\n    \n    event AuctionOpened(uint _cardId, uint _startingBid, uint _currentTime);\n    event BidPlaced(uint _cardId, uint _bid, address _bidder);\n\n    modifier onlyCardOwner(uint _cardId) {\n        address owner = cardIdToOwner[_tokenId];\n        require(owner == msg.sender, 'ONLY CARD OWNER CAN POST IT FOR AUCTION');\n        _;\n    }\n\n    modifier checkAuctionDuration(uint _duration) {\n        require(_duration <= maxAuctionDuration, 'BID DURATION NOT ALLOWED');\n        _;\n    }\n\n    function createCardAuction(uint _cardId, uint _startingBid, uint _duration) external checkAuctionDuration(_duration) onlyCardOwner(_cardId) {\n        require(!cardIsForSale[_cardId], 'CARD ALREADY UP FOR AUCTION');\n\n        cardIsForSale[_cardId] = true;\n        cardToCurrentBid[_cardId] = _startingBid;\n        auctionExpireDate[_cardId] = block.timestamp + _duration;\n        emit AuctionOpened(_cardId, _startingBid, block.timestamp);\n    }\n\n    function placeBid(uint _cardId) external payable {\n        require(cardIdToOwner[_cardId] != msg.sender, 'CAN NOT BID ON CARDS YOU OWN');\n        require(cardIsForSale[_cardId], 'CARD NOT FOR SALE');\n        require(msg.value > cardToCurrentBid[_cardId], 'BID LOWER THAN CURRENT');\n\n        cardToCurrentBid[_cardId] = msg.value;\n        leadingBidder[_cardId] = msg.sender;\n    }\n\n    function endAuction(uint _cardId) external {\n        require(auctionExpireDate[_cardId] <= block.timestamp);\n\n        address payable beneficiary = payable(cardIdToOwner[_cardId]);\n\n        beneficiary.transfer(cardToCurrentBid[_cardId]);\n        cardIdToOwner[_cardId] = leadingBidder[_cardId];\n        cardIsForSale[_cardId] = false;\n        cardToCurrentBid[_cardId] = 0;\n        leadingBidder[_cardId] = address(0);\n        auctionExpireDate[_cardId] = 0;\n    }\n\n    function getAuctionTimeRemaining(uint _cardId) external view returns(bool) {\n        return auctionExpireDate[_cardId] <= block.timestamp;\n    }\n}",
  "sourcePath": "/Users/tkma4fr/Development/solidity-app/contracts/card-auction.sol",
  "compiler": {
    "name": "solc",
    "version": "0.8.0+commit.c7dfd78e.Emscripten.clang"
  },
  "schemaVersion": "3.4.2",
  "updatedAt": "2021-10-03T17:03:27.706Z",
  "devdoc": {
    "kind": "dev",
    "methods": {
      "approve(address,uint256)": {
        "details": "The zero address indicates there is no approved address.  Throws unless `msg.sender` is the current NFT owner, or an authorized  operator of the current owner.",
        "params": {
          "_approved": "The new approved NFT controller",
          "_tokenId": "The NFT to approve"
        }
      },
      "balanceOf(address)": {
        "details": "NFTs assigned to the zero address are considered invalid, and this  function throws for queries about the zero address.",
        "params": {
          "_owner": "An address for whom to query the balance"
        },
        "returns": {
          "_0": "The number of NFTs owned by `_owner`, possibly zero"
        }
      },
      "getApproved(uint256)": {
        "details": "Throws if `_tokenId` is not a valid NFT.",
        "params": {
          "_tokenId": "The NFT to find the approved address for"
        },
        "returns": {
          "_0": "The approved address for this NFT, or the zero address if there is none"
        }
      },
      "isApprovedForAll(address,address)": {
        "params": {
          "_operator": "The address that acts on behalf of the owner",
          "_owner": "The address that owns the NFTs"
        },
        "returns": {
          "_0": "True if `_operator` is an approved operator for `_owner`, false otherwise"
        }
      },
      "owner()": {
        "details": "Returns the address of the current owner."
      },
      "ownerOf(uint256)": {
        "details": "NFTs assigned to zero address are considered invalid, and queries  about them do throw.",
        "params": {
          "_tokenId": "The identifier for an NFT"
        },
        "returns": {
          "_0": "The address of the owner of the NFT"
        }
      },
      "renounceOwnership()": {
        "details": "Leaves the contract without owner. It will not be possible to call `onlyOwner` functions anymore. Can only be called by the current owner. NOTE: Renouncing ownership will leave the contract without an owner, thereby removing any functionality that is only available to the owner."
      },
      "safeTransferFrom(address,address,uint256)": {
        "details": "This works identically to the other function with an extra data parameter,  except this function just sets data to \"\".",
        "params": {
          "_from": "The current owner of the NFT",
          "_to": "The new owner",
          "_tokenId": "The NFT to transfer"
        }
      },
      "setApprovalForAll(address,bool)": {
        "details": "Emits the ApprovalForAll event. The contract MUST allow  multiple operators per owner.",
        "params": {
          "_approved": "True if the operator is approved, false to revoke approval",
          "_operator": "Address to add to the set of authorized operators"
        }
      },
      "transferFrom(address,address,uint256)": {
        "details": "Throws unless `msg.sender` is the current owner, an authorized  operator, or the approved address for this NFT. Throws if `_from` is  not the current owner. Throws if `_to` is the zero address. Throws if  `_tokenId` is not a valid NFT.",
        "params": {
          "_from": "The current owner of the NFT",
          "_to": "The new owner",
          "_tokenId": "The NFT to transfer"
        }
      },
      "transferOwnership(address)": {
        "details": "Transfers ownership of the contract to a new account (`newOwner`). Can only be called by the current owner."
      }
    },
    "version": 1
  },
  "userdoc": {
    "kind": "user",
    "methods": {
      "approve(address,uint256)": {
        "notice": "Change or reaffirm the approved address for an NFT"
      },
      "balanceOf(address)": {
        "notice": "Count all NFTs assigned to an owner"
      },
      "getApproved(uint256)": {
        "notice": "Get the approved address for a single NFT"
      },
      "isApprovedForAll(address,address)": {
        "notice": "Query if an address is an authorized operator for another address"
      },
      "ownerOf(uint256)": {
        "notice": "Find the owner of an NFT"
      },
      "safeTransferFrom(address,address,uint256)": {
        "notice": "Transfers the ownership of an NFT from one address to another address"
      },
      "setApprovalForAll(address,bool)": {
        "notice": "Enable or disable approval for a third party (\"operator\") to manage  all of `msg.sender`'s assets"
      },
      "transferFrom(address,address,uint256)": {
        "notice": "Transfer ownership of an NFT -- THE CALLER IS RESPONSIBLE  TO CONFIRM THAT `_to` IS CAPABLE OF RECEIVING NFTS OR ELSE  THEY MAY BE PERMANENTLY LOST"
      }
    },
    "version": 1
  }
}