{
  "contractName": "CardFactory",
  "abi": [
    {
      "anonymous": false,
      "inputs": [
        {
          "indexed": false,
          "internalType": "uint256",
          "name": "cardId",
          "type": "uint256"
        },
        {
          "indexed": false,
          "internalType": "uint256",
          "name": "cardType",
          "type": "uint256"
        },
        {
          "indexed": false,
          "internalType": "uint256",
          "name": "playerId",
          "type": "uint256"
        },
        {
          "indexed": false,
          "internalType": "uint256",
          "name": "attributeHash",
          "type": "uint256"
        },
        {
          "indexed": true,
          "internalType": "address",
          "name": "owner",
          "type": "address"
        }
      ],
      "name": "CardCreated",
      "type": "event"
    },
    {
      "anonymous": false,
      "inputs": [
        {
          "indexed": true,
          "internalType": "address",
          "name": "previousOwner",
          "type": "address"
        },
        {
          "indexed": true,
          "internalType": "address",
          "name": "newOwner",
          "type": "address"
        }
      ],
      "name": "OwnershipTransferred",
      "type": "event"
    },
    {
      "inputs": [
        {
          "internalType": "uint256",
          "name": "",
          "type": "uint256"
        }
      ],
      "name": "cardIdToCard",
      "outputs": [
        {
          "internalType": "uint256",
          "name": "cardId",
          "type": "uint256"
        },
        {
          "internalType": "uint256",
          "name": "playerId",
          "type": "uint256"
        },
        {
          "internalType": "uint256",
          "name": "attributeHash",
          "type": "uint256"
        },
        {
          "internalType": "uint256",
          "name": "cardType",
          "type": "uint256"
        },
        {
          "internalType": "bool",
          "name": "inUse",
          "type": "bool"
        }
      ],
      "stateMutability": "view",
      "type": "function"
    },
    {
      "inputs": [
        {
          "internalType": "uint256",
          "name": "",
          "type": "uint256"
        }
      ],
      "name": "cardIdToOwner",
      "outputs": [
        {
          "internalType": "address",
          "name": "",
          "type": "address"
        }
      ],
      "stateMutability": "view",
      "type": "function"
    },
    {
      "inputs": [
        {
          "internalType": "uint256",
          "name": "",
          "type": "uint256"
        }
      ],
      "name": "cardIsAtIndex",
      "outputs": [
        {
          "internalType": "uint256",
          "name": "",
          "type": "uint256"
        }
      ],
      "stateMutability": "view",
      "type": "function"
    },
    {
      "inputs": [],
      "name": "owner",
      "outputs": [
        {
          "internalType": "address",
          "name": "",
          "type": "address"
        }
      ],
      "stateMutability": "view",
      "type": "function"
    },
    {
      "inputs": [],
      "name": "renounceOwnership",
      "outputs": [],
      "stateMutability": "nonpayable",
      "type": "function"
    },
    {
      "inputs": [
        {
          "internalType": "address",
          "name": "newOwner",
          "type": "address"
        }
      ],
      "name": "transferOwnership",
      "outputs": [],
      "stateMutability": "nonpayable",
      "type": "function"
    },
    {
      "inputs": [
        {
          "internalType": "address",
          "name": "",
          "type": "address"
        },
        {
          "internalType": "uint256",
          "name": "",
          "type": "uint256"
        }
      ],
      "name": "userOwnedCards",
      "outputs": [
        {
          "internalType": "uint256",
          "name": "",
          "type": "uint256"
        }
      ],
      "stateMutability": "view",
      "type": "function"
    },
    {
      "inputs": [
        {
          "internalType": "uint256",
          "name": "_count",
          "type": "uint256"
        }
      ],
      "name": "setTotalPlayers",
      "outputs": [],
      "stateMutability": "nonpayable",
      "type": "function"
    },
    {
      "inputs": [
        {
          "internalType": "address",
          "name": "_address",
          "type": "address"
        }
      ],
      "name": "getUserOwnedCards",
      "outputs": [
        {
          "internalType": "uint256[]",
          "name": "",
          "type": "uint256[]"
        }
      ],
      "stateMutability": "view",
      "type": "function"
    }
  ],
  "bytecode": "0x6080604052600060025560bd60035534801561001a57600080fd5b5061003761002c61003c60201b60201c565b61004460201b60201c565b610108565b600033905090565b60008060009054906101000a900473ffffffffffffffffffffffffffffffffffffffff169050816000806101000a81548173ffffffffffffffffffffffffffffffffffffffff021916908373ffffffffffffffffffffffffffffffffffffffff1602179055508173ffffffffffffffffffffffffffffffffffffffff168173ffffffffffffffffffffffffffffffffffffffff167f8be0079c531659141344cd1fd0a4f28419497f9722a3daafe3b4186f6b6457e060405160405180910390a35050565b610a2e806101176000396000f3fe608060405234801561001057600080fd5b50600436106100935760003560e01c80639b3ce46e116100665780639b3ce46e146101205780639bf822e314610150578063a0dd6b3414610180578063b780acc5146101b4578063f2fde38b146101d057610093565b806319a355671461009857806341994140146100c8578063715018a6146100f85780638da5cb5b14610102575b600080fd5b6100b260048036038101906100ad9190610667565b6101ec565b6040516100bf9190610868565b60405180910390f35b6100e260048036038101906100dd91906106cc565b610283565b6040516100ef919061084d565b60405180910390f35b6101006102b6565b005b61010a61033e565b604051610117919061084d565b60405180910390f35b61013a60048036038101906101359190610690565b610367565b60405161014791906108ca565b60405180910390f35b61016a600480360381019061016591906106cc565b610398565b60405161017791906108ca565b60405180910390f35b61019a600480360381019061019591906106cc565b6103b0565b6040516101ab9594939291906108e5565b60405180910390f35b6101ce60048036038101906101c991906106cc565b6103f3565b005b6101ea60048036038101906101e59190610667565b610479565b005b6060600560008373ffffffffffffffffffffffffffffffffffffffff1673ffffffffffffffffffffffffffffffffffffffff16815260200190815260200160002080548060200260200160405190810160405280929190818152602001828054801561027757602002820191906000526020600020905b815481526020019060010190808311610263575b50505050509050919050565b60046020528060005260406000206000915054906101000a900473ffffffffffffffffffffffffffffffffffffffff1681565b6102be610571565b73ffffffffffffffffffffffffffffffffffffffff166102dc61033e565b73ffffffffffffffffffffffffffffffffffffffff1614610332576040517f08c379a0000000000000000000000000000000000000000000000000000000008152600401610329906108aa565b60405180910390fd5b61033c6000610579565b565b60008060009054906101000a900473ffffffffffffffffffffffffffffffffffffffff16905090565b6005602052816000526040600020818154811061038357600080fd5b90600052602060002001600091509150505481565b60066020528060005260406000206000915090505481565b60076020528060005260406000206000915090508060000154908060010154908060020154908060030154908060040160009054906101000a900460ff16905085565b6103fb610571565b73ffffffffffffffffffffffffffffffffffffffff1661041961033e565b73ffffffffffffffffffffffffffffffffffffffff161461046f576040517f08c379a0000000000000000000000000000000000000000000000000000000008152600401610466906108aa565b60405180910390fd5b8060038190555050565b610481610571565b73ffffffffffffffffffffffffffffffffffffffff1661049f61033e565b73ffffffffffffffffffffffffffffffffffffffff16146104f5576040517f08c379a00000000000000000000000000000000000000000000000000000000081526004016104ec906108aa565b60405180910390fd5b600073ffffffffffffffffffffffffffffffffffffffff168173ffffffffffffffffffffffffffffffffffffffff161415610565576040517f08c379a000000000000000000000000000000000000000000000000000000000815260040161055c9061088a565b60405180910390fd5b61056e81610579565b50565b600033905090565b60008060009054906101000a900473ffffffffffffffffffffffffffffffffffffffff169050816000806101000a81548173ffffffffffffffffffffffffffffffffffffffff021916908373ffffffffffffffffffffffffffffffffffffffff1602179055508173ffffffffffffffffffffffffffffffffffffffff168173ffffffffffffffffffffffffffffffffffffffff167f8be0079c531659141344cd1fd0a4f28419497f9722a3daafe3b4186f6b6457e060405160405180910390a35050565b60008135905061064c816109ca565b92915050565b600081359050610661816109e1565b92915050565b60006020828403121561067957600080fd5b60006106878482850161063d565b91505092915050565b600080604083850312156106a357600080fd5b60006106b18582860161063d565b92505060206106c285828601610652565b9150509250929050565b6000602082840312156106de57600080fd5b60006106ec84828501610652565b91505092915050565b6000610701838361082f565b60208301905092915050565b61071681610982565b82525050565b600061072782610948565b6107318185610960565b935061073c83610938565b8060005b8381101561076d57815161075488826106f5565b975061075f83610953565b925050600181019050610740565b5085935050505092915050565b61078381610994565b82525050565b6000610796602683610971565b91507f4f776e61626c653a206e6577206f776e657220697320746865207a65726f206160008301527f64647265737300000000000000000000000000000000000000000000000000006020830152604082019050919050565b60006107fc602083610971565b91507f4f776e61626c653a2063616c6c6572206973206e6f7420746865206f776e65726000830152602082019050919050565b610838816109c0565b82525050565b610847816109c0565b82525050565b6000602082019050610862600083018461070d565b92915050565b60006020820190508181036000830152610882818461071c565b905092915050565b600060208201905081810360008301526108a381610789565b9050919050565b600060208201905081810360008301526108c3816107ef565b9050919050565b60006020820190506108df600083018461083e565b92915050565b600060a0820190506108fa600083018861083e565b610907602083018761083e565b610914604083018661083e565b610921606083018561083e565b61092e608083018461077a565b9695505050505050565b6000819050602082019050919050565b600081519050919050565b6000602082019050919050565b600082825260208201905092915050565b600082825260208201905092915050565b600061098d826109a0565b9050919050565b60008115159050919050565b600073ffffffffffffffffffffffffffffffffffffffff82169050919050565b6000819050919050565b6109d381610982565b81146109de57600080fd5b50565b6109ea816109c0565b81146109f557600080fd5b5056fea2646970667358221220997a59e222cdfdef03ca04f916ab5ec808d4386700e9a5202ae9266524d9e65664736f6c63430008000033",
  "immutableReferences": {},
  "source": "// SPDX-License-Identifier: UNLICENSED\npragma solidity ^0.8.0;\n\nimport \"@openzeppelin/contracts/access/Ownable.sol\";\n\ncontract CardFactory is Ownable {\n\n    uint _tokenId;\n    uint private _randNonce = 0;\n    uint totalPlayers = 189;\n\n    mapping (uint => address) public cardIdToOwner;\n    mapping (address => uint[]) public userOwnedCards;\n    mapping (uint => uint) public cardIsAtIndex;\n    mapping (uint => Card) public cardIdToCard;\n\n    event CardCreated(uint cardId, uint cardType, uint playerId, uint attributeHash, address indexed owner);\n    \n    struct Card {\n        uint cardId;\n        uint playerId;\n        uint attributeHash;\n        uint cardType;\n        bool inUse;\n    }\n\n    function createCard(uint _playerId, uint _type) internal {\n        uint attrHash = _generateRandomNumber();\n        Card memory card = Card(_tokenId, _playerId, attrHash, _type, false);\n        cardIdToCard[_tokenId] = card;\n        emit CardCreated(_tokenId, _type, _playerId, attrHash, msg.sender);\n        cardIdToOwner[_tokenId] = msg.sender;\n        userOwnedCards[msg.sender].push(_tokenId);\n        cardIsAtIndex[_tokenId] = userOwnedCards[msg.sender].length - 1;\n        _tokenId = _tokenId + 1;\n    }\n\n    function createCustomCard(uint _playerId, uint _type, uint _attribute) internal returns(uint) {\n        Card memory card = Card(_tokenId, _playerId, _attribute, _type, false);\n        cardIdToCard[_tokenId] = card;\n        emit CardCreated(_tokenId, _type, _playerId, _attribute, msg.sender);\n        return _tokenId;\n    }\n\n    function createNonCommonCard(uint _divisor, uint _cardCount, uint _type) internal returns(uint) {\n        uint cardCount = _cardCount;\n\n        if(_generateRandomNumber() % _divisor == 0) {\n            uint playerId = _generateRandomNumber() % totalPlayers;\n            _randNonce = _randNonce + 1;\n            createCard(playerId, _type);\n            cardCount = _cardCount + 1;\n        }\n\n        return cardCount;\n    }\n\n    function createCommonCards(uint _cardsCreated, uint _cardPackQuantity) internal {\n        for(uint i = _cardsCreated; i < _cardPackQuantity; i++) {\n            uint playerId = _generateRandomNumber() % totalPlayers;\n            _randNonce = _randNonce + 1;\n            createCard(playerId, 0);\n        }\n    }\n\n    function _generateRandomNumber() internal view returns (uint) {\n        return uint(keccak256(abi.encodePacked(block.difficulty, block.timestamp, _randNonce)));\n    }\n\n    function setTotalPlayers(uint _count) external onlyOwner {\n        totalPlayers = _count;\n    }\n\n    function getUserOwnedCards(address _address) external view returns(uint[] memory) {\n        return userOwnedCards[_address];\n    }\n}",
  "sourcePath": "/Users/tkma4fr/Development/solidity-app/contracts/card-factory.sol",
  "compiler": {
    "name": "solc",
    "version": "0.8.0+commit.c7dfd78e.Emscripten.clang"
  },
  "schemaVersion": "3.4.2",
  "updatedAt": "2021-10-19T13:34:18.601Z",
  "devdoc": {
    "kind": "dev",
    "methods": {
      "owner()": {
        "details": "Returns the address of the current owner."
      },
      "renounceOwnership()": {
        "details": "Leaves the contract without owner. It will not be possible to call `onlyOwner` functions anymore. Can only be called by the current owner. NOTE: Renouncing ownership will leave the contract without an owner, thereby removing any functionality that is only available to the owner."
      },
      "transferOwnership(address)": {
        "details": "Transfers ownership of the contract to a new account (`newOwner`). Can only be called by the current owner."
      }
    },
    "version": 1
  },
  "userdoc": {
    "kind": "user",
    "methods": {},
    "version": 1
  }
}