{
  "contractName": "PlayerFactory",
  "abi": [
    {
      "anonymous": false,
      "inputs": [
        {
          "indexed": false,
          "internalType": "uint256",
          "name": "playerId",
          "type": "uint256"
        },
        {
          "indexed": false,
          "internalType": "string",
          "name": "name",
          "type": "string"
        }
      ],
      "name": "NewPlayer",
      "type": "event"
    },
    {
      "anonymous": false,
      "inputs": [
        {
          "indexed": true,
          "internalType": "address",
          "name": "previousOwner",
          "type": "address"
        },
        {
          "indexed": true,
          "internalType": "address",
          "name": "newOwner",
          "type": "address"
        }
      ],
      "name": "OwnershipTransferred",
      "type": "event"
    },
    {
      "inputs": [],
      "name": "owner",
      "outputs": [
        {
          "internalType": "address",
          "name": "",
          "type": "address"
        }
      ],
      "stateMutability": "view",
      "type": "function"
    },
    {
      "inputs": [
        {
          "internalType": "uint256",
          "name": "",
          "type": "uint256"
        }
      ],
      "name": "playerIdToPlayer",
      "outputs": [
        {
          "internalType": "string",
          "name": "name",
          "type": "string"
        },
        {
          "internalType": "uint8",
          "name": "teamId",
          "type": "uint8"
        },
        {
          "internalType": "uint8",
          "name": "position",
          "type": "uint8"
        },
        {
          "internalType": "uint16",
          "name": "season",
          "type": "uint16"
        }
      ],
      "stateMutability": "view",
      "type": "function"
    },
    {
      "inputs": [
        {
          "internalType": "uint256",
          "name": "",
          "type": "uint256"
        }
      ],
      "name": "players",
      "outputs": [
        {
          "internalType": "string",
          "name": "name",
          "type": "string"
        },
        {
          "internalType": "uint8",
          "name": "teamId",
          "type": "uint8"
        },
        {
          "internalType": "uint8",
          "name": "position",
          "type": "uint8"
        },
        {
          "internalType": "uint16",
          "name": "season",
          "type": "uint16"
        }
      ],
      "stateMutability": "view",
      "type": "function"
    },
    {
      "inputs": [],
      "name": "renounceOwnership",
      "outputs": [],
      "stateMutability": "nonpayable",
      "type": "function"
    },
    {
      "inputs": [
        {
          "internalType": "address",
          "name": "newOwner",
          "type": "address"
        }
      ],
      "name": "transferOwnership",
      "outputs": [],
      "stateMutability": "nonpayable",
      "type": "function"
    },
    {
      "inputs": [
        {
          "internalType": "string",
          "name": "_name",
          "type": "string"
        },
        {
          "internalType": "uint8",
          "name": "_teamId",
          "type": "uint8"
        },
        {
          "internalType": "uint8",
          "name": "_position",
          "type": "uint8"
        },
        {
          "internalType": "uint16",
          "name": "_season",
          "type": "uint16"
        }
      ],
      "name": "createPlayer",
      "outputs": [],
      "stateMutability": "nonpayable",
      "type": "function"
    }
  ],
  "bytecode": "0x608060405234801561001057600080fd5b5061002d61002261003260201b60201c565b61003a60201b60201c565b6100fe565b600033905090565b60008060009054906101000a900473ffffffffffffffffffffffffffffffffffffffff169050816000806101000a81548173ffffffffffffffffffffffffffffffffffffffff021916908373ffffffffffffffffffffffffffffffffffffffff1602179055508173ffffffffffffffffffffffffffffffffffffffff168173ffffffffffffffffffffffffffffffffffffffff167f8be0079c531659141344cd1fd0a4f28419497f9722a3daafe3b4186f6b6457e060405160405180910390a35050565b610ec28061010d6000396000f3fe608060405234801561001057600080fd5b50600436106100625760003560e01c80634ccf017414610067578063715018a6146100835780638da5cb5b1461008d578063b53794c9146100ab578063f2fde38b146100de578063f71d96cb146100fa575b600080fd5b610081600480360381019061007c919061095e565b61012d565b005b61008b61037b565b005b610095610403565b6040516100a29190610b1d565b60405180910390f35b6100c560048036038101906100c091906109d9565b61042c565b6040516100d59493929190610b38565b60405180910390f35b6100f860048036038101906100f39190610935565b61050c565b005b610114600480360381019061010f91906109d9565b610604565b6040516101249493929190610b38565b60405180910390f35b6101356106f4565b73ffffffffffffffffffffffffffffffffffffffff16610153610403565b73ffffffffffffffffffffffffffffffffffffffff16146101a9576040517f08c379a00000000000000000000000000000000000000000000000000000000081526004016101a090610ba4565b60405180910390fd5b600060405180608001604052808681526020018560ff1681526020018460ff1681526020018361ffff168152509050600281908060018154018082558091505060019003906000526020600020906002020160009091909190915060008201518160000190805190602001906102209291906107d6565b5060208201518160010160006101000a81548160ff021916908360ff16021790555060408201518160010160016101000a81548160ff021916908360ff16021790555060608201518160010160026101000a81548161ffff021916908361ffff16021790555050508060036000600154815260200190815260200160002060008201518160000190805190602001906102ba9291906107d6565b5060208201518160010160006101000a81548160ff021916908360ff16021790555060408201518160010160016101000a81548160ff021916908360ff16021790555060608201518160010160026101000a81548161ffff021916908361ffff1602179055509050507fc617f3fbc3f6a35c0509a5f01fb4907e9c6e94cff260c3fe739bafd93cf2240560015486604051610356929190610bc4565b60405180910390a1610373600180546106fc90919063ffffffff16565b505050505050565b6103836106f4565b73ffffffffffffffffffffffffffffffffffffffff166103a1610403565b73ffffffffffffffffffffffffffffffffffffffff16146103f7576040517f08c379a00000000000000000000000000000000000000000000000000000000081526004016103ee90610ba4565b60405180910390fd5b6104016000610712565b565b60008060009054906101000a900473ffffffffffffffffffffffffffffffffffffffff16905090565b600360205280600052604060002060009150905080600001805461044f90610d60565b80601f016020809104026020016040519081016040528092919081815260200182805461047b90610d60565b80156104c85780601f1061049d576101008083540402835291602001916104c8565b820191906000526020600020905b8154815290600101906020018083116104ab57829003601f168201915b5050505050908060010160009054906101000a900460ff16908060010160019054906101000a900460ff16908060010160029054906101000a900461ffff16905084565b6105146106f4565b73ffffffffffffffffffffffffffffffffffffffff16610532610403565b73ffffffffffffffffffffffffffffffffffffffff1614610588576040517f08c379a000000000000000000000000000000000000000000000000000000000815260040161057f90610ba4565b60405180910390fd5b600073ffffffffffffffffffffffffffffffffffffffff168173ffffffffffffffffffffffffffffffffffffffff1614156105f8576040517f08c379a00000000000000000000000000000000000000000000000000000000081526004016105ef90610b84565b60405180910390fd5b61060181610712565b50565b6002818154811061061457600080fd5b906000526020600020906002020160009150905080600001805461063790610d60565b80601f016020809104026020016040519081016040528092919081815260200182805461066390610d60565b80156106b05780601f10610685576101008083540402835291602001916106b0565b820191906000526020600020905b81548152906001019060200180831161069357829003601f168201915b5050505050908060010160009054906101000a900460ff16908060010160019054906101000a900460ff16908060010160029054906101000a900461ffff16905084565b600033905090565b6000818361070a9190610c71565b905092915050565b60008060009054906101000a900473ffffffffffffffffffffffffffffffffffffffff169050816000806101000a81548173ffffffffffffffffffffffffffffffffffffffff021916908373ffffffffffffffffffffffffffffffffffffffff1602179055508173ffffffffffffffffffffffffffffffffffffffff168173ffffffffffffffffffffffffffffffffffffffff167f8be0079c531659141344cd1fd0a4f28419497f9722a3daafe3b4186f6b6457e060405160405180910390a35050565b8280546107e290610d60565b90600052602060002090601f016020900481019282610804576000855561084b565b82601f1061081d57805160ff191683800117855561084b565b8280016001018555821561084b579182015b8281111561084a57825182559160200191906001019061082f565b5b509050610858919061085c565b5090565b5b8082111561087557600081600090555060010161085d565b5090565b600061088c61088784610c25565b610bf4565b9050828152602081018484840111156108a457600080fd5b6108af848285610d1e565b509392505050565b6000813590506108c681610e30565b92915050565b600082601f8301126108dd57600080fd5b81356108ed848260208601610879565b91505092915050565b60008135905061090581610e47565b92915050565b60008135905061091a81610e5e565b92915050565b60008135905061092f81610e75565b92915050565b60006020828403121561094757600080fd5b6000610955848285016108b7565b91505092915050565b6000806000806080858703121561097457600080fd5b600085013567ffffffffffffffff81111561098e57600080fd5b61099a878288016108cc565b94505060206109ab87828801610920565b93505060406109bc87828801610920565b92505060606109cd878288016108f6565b91505092959194509250565b6000602082840312156109eb57600080fd5b60006109f98482850161090b565b91505092915050565b610a0b81610cc7565b82525050565b6000610a1c82610c55565b610a268185610c60565b9350610a36818560208601610d2d565b610a3f81610e1f565b840191505092915050565b6000610a57602683610c60565b91507f4f776e61626c653a206e6577206f776e657220697320746865207a65726f206160008301527f64647265737300000000000000000000000000000000000000000000000000006020830152604082019050919050565b6000610abd602083610c60565b91507f4f776e61626c653a2063616c6c6572206973206e6f7420746865206f776e65726000830152602082019050919050565b610af981610cd9565b82525050565b610b0881610d07565b82525050565b610b1781610d11565b82525050565b6000602082019050610b326000830184610a02565b92915050565b60006080820190508181036000830152610b528187610a11565b9050610b616020830186610b0e565b610b6e6040830185610b0e565b610b7b6060830184610af0565b95945050505050565b60006020820190508181036000830152610b9d81610a4a565b9050919050565b60006020820190508181036000830152610bbd81610ab0565b9050919050565b6000604082019050610bd96000830185610aff565b8181036020830152610beb8184610a11565b90509392505050565b6000604051905081810181811067ffffffffffffffff82111715610c1b57610c1a610df0565b5b8060405250919050565b600067ffffffffffffffff821115610c4057610c3f610df0565b5b601f19601f8301169050602081019050919050565b600081519050919050565b600082825260208201905092915050565b6000610c7c82610d07565b9150610c8783610d07565b9250827fffffffffffffffffffffffffffffffffffffffffffffffffffffffffffffffff03821115610cbc57610cbb610d92565b5b828201905092915050565b6000610cd282610ce7565b9050919050565b600061ffff82169050919050565b600073ffffffffffffffffffffffffffffffffffffffff82169050919050565b6000819050919050565b600060ff82169050919050565b82818337600083830152505050565b60005b83811015610d4b578082015181840152602081019050610d30565b83811115610d5a576000848401525b50505050565b60006002820490506001821680610d7857607f821691505b60208210811415610d8c57610d8b610dc1565b5b50919050565b7f4e487b7100000000000000000000000000000000000000000000000000000000600052601160045260246000fd5b7f4e487b7100000000000000000000000000000000000000000000000000000000600052602260045260246000fd5b7f4e487b7100000000000000000000000000000000000000000000000000000000600052604160045260246000fd5b6000601f19601f8301169050919050565b610e3981610cc7565b8114610e4457600080fd5b50565b610e5081610cd9565b8114610e5b57600080fd5b50565b610e6781610d07565b8114610e7257600080fd5b50565b610e7e81610d11565b8114610e8957600080fd5b5056fea264697066735822122008e733b29fad3ae375f505f4b19b1490300d1f6bc599bb752d65b677d363201664736f6c63430008000033",
  "immutableReferences": {},
  "source": "// SPDX-License-Identifier: UNLICENSED\npragma solidity ^0.8.0;\n\nimport \"@openzeppelin/contracts/access/Ownable.sol\";\nimport \"@openzeppelin/contracts/utils/math/SafeMath.sol\";\n\ncontract PlayerFactory is Ownable {\n\n    using SafeMath for uint256;\n    uint private _playerId;\n\n    event NewPlayer(uint playerId, string name);\n\n    struct Player {\n        string name;\n        uint8 teamId;\n        uint8 position;\n        uint16 season;\n    }\n\n    Player[] public players;\n    mapping (uint => Player) public playerIdToPlayer;\n\n    function createPlayer(string memory _name, uint8 _teamId, uint8 _position, uint16 _season) external onlyOwner {\n        Player memory player = Player(_name, _teamId, _position, _season);\n        players.push(player);\n        playerIdToPlayer[_playerId] = player;\n        emit NewPlayer(_playerId, _name);\n        _playerId.add(1);\n    }\n}",
  "sourcePath": "/Users/tkma4fr/Development/solidity-app/contracts/player-factory.sol",
  "compiler": {
    "name": "solc",
    "version": "0.8.0+commit.c7dfd78e.Emscripten.clang"
  },
  "schemaVersion": "3.4.2",
  "updatedAt": "2021-08-26T00:54:52.402Z",
  "devdoc": {
    "kind": "dev",
    "methods": {
      "owner()": {
        "details": "Returns the address of the current owner."
      },
      "renounceOwnership()": {
        "details": "Leaves the contract without owner. It will not be possible to call `onlyOwner` functions anymore. Can only be called by the current owner. NOTE: Renouncing ownership will leave the contract without an owner, thereby removing any functionality that is only available to the owner."
      },
      "transferOwnership(address)": {
        "details": "Transfers ownership of the contract to a new account (`newOwner`). Can only be called by the current owner."
      }
    },
    "version": 1
  },
  "userdoc": {
    "kind": "user",
    "methods": {},
    "version": 1
  }
}