{
  "contractName": "PlayerFactory",
  "abi": [
    {
      "anonymous": false,
      "inputs": [
        {
          "indexed": false,
          "internalType": "uint256",
          "name": "playerId",
          "type": "uint256"
        },
        {
          "indexed": false,
          "internalType": "string",
          "name": "name",
          "type": "string"
        }
      ],
      "name": "NewPlayer",
      "type": "event"
    },
    {
      "anonymous": false,
      "inputs": [
        {
          "indexed": true,
          "internalType": "address",
          "name": "previousOwner",
          "type": "address"
        },
        {
          "indexed": true,
          "internalType": "address",
          "name": "newOwner",
          "type": "address"
        }
      ],
      "name": "OwnershipTransferred",
      "type": "event"
    },
    {
      "inputs": [],
      "name": "owner",
      "outputs": [
        {
          "internalType": "address",
          "name": "",
          "type": "address"
        }
      ],
      "stateMutability": "view",
      "type": "function"
    },
    {
      "inputs": [
        {
          "internalType": "uint256",
          "name": "",
          "type": "uint256"
        }
      ],
      "name": "playerIdToPlayer",
      "outputs": [
        {
          "internalType": "string",
          "name": "name",
          "type": "string"
        },
        {
          "internalType": "uint8",
          "name": "teamId",
          "type": "uint8"
        },
        {
          "internalType": "uint8",
          "name": "position",
          "type": "uint8"
        },
        {
          "internalType": "uint16",
          "name": "season",
          "type": "uint16"
        }
      ],
      "stateMutability": "view",
      "type": "function"
    },
    {
      "inputs": [
        {
          "internalType": "uint256",
          "name": "",
          "type": "uint256"
        }
      ],
      "name": "players",
      "outputs": [
        {
          "internalType": "string",
          "name": "name",
          "type": "string"
        },
        {
          "internalType": "uint8",
          "name": "teamId",
          "type": "uint8"
        },
        {
          "internalType": "uint8",
          "name": "position",
          "type": "uint8"
        },
        {
          "internalType": "uint16",
          "name": "season",
          "type": "uint16"
        }
      ],
      "stateMutability": "view",
      "type": "function"
    },
    {
      "inputs": [],
      "name": "renounceOwnership",
      "outputs": [],
      "stateMutability": "nonpayable",
      "type": "function"
    },
    {
      "inputs": [
        {
          "internalType": "address",
          "name": "newOwner",
          "type": "address"
        }
      ],
      "name": "transferOwnership",
      "outputs": [],
      "stateMutability": "nonpayable",
      "type": "function"
    },
    {
      "inputs": [
        {
          "internalType": "string",
          "name": "_name",
          "type": "string"
        },
        {
          "internalType": "uint8",
          "name": "_teamId",
          "type": "uint8"
        },
        {
          "internalType": "uint8",
          "name": "_position",
          "type": "uint8"
        },
        {
          "internalType": "uint16",
          "name": "_season",
          "type": "uint16"
        }
      ],
      "name": "createPlayer",
      "outputs": [],
      "stateMutability": "nonpayable",
      "type": "function"
    }
  ],
  "bytecode": "0x608060405234801561001057600080fd5b5061002d61002261003260201b60201c565b61003a60201b60201c565b6100fe565b600033905090565b60008060009054906101000a900473ffffffffffffffffffffffffffffffffffffffff169050816000806101000a81548173ffffffffffffffffffffffffffffffffffffffff021916908373ffffffffffffffffffffffffffffffffffffffff1602179055508173ffffffffffffffffffffffffffffffffffffffff168173ffffffffffffffffffffffffffffffffffffffff167f8be0079c531659141344cd1fd0a4f28419497f9722a3daafe3b4186f6b6457e060405160405180910390a35050565b610eaa8061010d6000396000f3fe608060405234801561001057600080fd5b50600436106100625760003560e01c80634ccf017414610067578063715018a6146100835780638da5cb5b1461008d578063b53794c9146100ab578063f2fde38b146100de578063f71d96cb146100fa575b600080fd5b610081600480360381019061007c9190610946565b61012d565b005b61008b610379565b005b610095610401565b6040516100a29190610b05565b60405180910390f35b6100c560048036038101906100c091906109c1565b61042a565b6040516100d59493929190610b20565b60405180910390f35b6100f860048036038101906100f3919061091d565b61050a565b005b610114600480360381019061010f91906109c1565b610602565b6040516101249493929190610b20565b60405180910390f35b6101356106f2565b73ffffffffffffffffffffffffffffffffffffffff16610153610401565b73ffffffffffffffffffffffffffffffffffffffff16146101a9576040517f08c379a00000000000000000000000000000000000000000000000000000000081526004016101a090610b8c565b60405180910390fd5b600060405180608001604052808681526020018560ff1681526020018460ff1681526020018361ffff168152509050600281908060018154018082558091505060019003906000526020600020906002020160009091909190915060008201518160000190805190602001906102209291906107be565b5060208201518160010160006101000a81548160ff021916908360ff16021790555060408201518160010160016101000a81548160ff021916908360ff16021790555060608201518160010160026101000a81548161ffff021916908361ffff16021790555050508060036000600154815260200190815260200160002060008201518160000190805190602001906102ba9291906107be565b5060208201518160010160006101000a81548160ff021916908360ff16021790555060408201518160010160016101000a81548160ff021916908360ff16021790555060608201518160010160026101000a81548161ffff021916908361ffff1602179055509050507fc617f3fbc3f6a35c0509a5f01fb4907e9c6e94cff260c3fe739bafd93cf2240560015486604051610356929190610bac565b60405180910390a16001805461036c9190610c59565b6001819055505050505050565b6103816106f2565b73ffffffffffffffffffffffffffffffffffffffff1661039f610401565b73ffffffffffffffffffffffffffffffffffffffff16146103f5576040517f08c379a00000000000000000000000000000000000000000000000000000000081526004016103ec90610b8c565b60405180910390fd5b6103ff60006106fa565b565b60008060009054906101000a900473ffffffffffffffffffffffffffffffffffffffff16905090565b600360205280600052604060002060009150905080600001805461044d90610d48565b80601f016020809104026020016040519081016040528092919081815260200182805461047990610d48565b80156104c65780601f1061049b576101008083540402835291602001916104c6565b820191906000526020600020905b8154815290600101906020018083116104a957829003601f168201915b5050505050908060010160009054906101000a900460ff16908060010160019054906101000a900460ff16908060010160029054906101000a900461ffff16905084565b6105126106f2565b73ffffffffffffffffffffffffffffffffffffffff16610530610401565b73ffffffffffffffffffffffffffffffffffffffff1614610586576040517f08c379a000000000000000000000000000000000000000000000000000000000815260040161057d90610b8c565b60405180910390fd5b600073ffffffffffffffffffffffffffffffffffffffff168173ffffffffffffffffffffffffffffffffffffffff1614156105f6576040517f08c379a00000000000000000000000000000000000000000000000000000000081526004016105ed90610b6c565b60405180910390fd5b6105ff816106fa565b50565b6002818154811061061257600080fd5b906000526020600020906002020160009150905080600001805461063590610d48565b80601f016020809104026020016040519081016040528092919081815260200182805461066190610d48565b80156106ae5780601f10610683576101008083540402835291602001916106ae565b820191906000526020600020905b81548152906001019060200180831161069157829003601f168201915b5050505050908060010160009054906101000a900460ff16908060010160019054906101000a900460ff16908060010160029054906101000a900461ffff16905084565b600033905090565b60008060009054906101000a900473ffffffffffffffffffffffffffffffffffffffff169050816000806101000a81548173ffffffffffffffffffffffffffffffffffffffff021916908373ffffffffffffffffffffffffffffffffffffffff1602179055508173ffffffffffffffffffffffffffffffffffffffff168173ffffffffffffffffffffffffffffffffffffffff167f8be0079c531659141344cd1fd0a4f28419497f9722a3daafe3b4186f6b6457e060405160405180910390a35050565b8280546107ca90610d48565b90600052602060002090601f0160209004810192826107ec5760008555610833565b82601f1061080557805160ff1916838001178555610833565b82800160010185558215610833579182015b82811115610832578251825591602001919060010190610817565b5b5090506108409190610844565b5090565b5b8082111561085d576000816000905550600101610845565b5090565b600061087461086f84610c0d565b610bdc565b90508281526020810184848401111561088c57600080fd5b610897848285610d06565b509392505050565b6000813590506108ae81610e18565b92915050565b600082601f8301126108c557600080fd5b81356108d5848260208601610861565b91505092915050565b6000813590506108ed81610e2f565b92915050565b60008135905061090281610e46565b92915050565b60008135905061091781610e5d565b92915050565b60006020828403121561092f57600080fd5b600061093d8482850161089f565b91505092915050565b6000806000806080858703121561095c57600080fd5b600085013567ffffffffffffffff81111561097657600080fd5b610982878288016108b4565b945050602061099387828801610908565b93505060406109a487828801610908565b92505060606109b5878288016108de565b91505092959194509250565b6000602082840312156109d357600080fd5b60006109e1848285016108f3565b91505092915050565b6109f381610caf565b82525050565b6000610a0482610c3d565b610a0e8185610c48565b9350610a1e818560208601610d15565b610a2781610e07565b840191505092915050565b6000610a3f602683610c48565b91507f4f776e61626c653a206e6577206f776e657220697320746865207a65726f206160008301527f64647265737300000000000000000000000000000000000000000000000000006020830152604082019050919050565b6000610aa5602083610c48565b91507f4f776e61626c653a2063616c6c6572206973206e6f7420746865206f776e65726000830152602082019050919050565b610ae181610cc1565b82525050565b610af081610cef565b82525050565b610aff81610cf9565b82525050565b6000602082019050610b1a60008301846109ea565b92915050565b60006080820190508181036000830152610b3a81876109f9565b9050610b496020830186610af6565b610b566040830185610af6565b610b636060830184610ad8565b95945050505050565b60006020820190508181036000830152610b8581610a32565b9050919050565b60006020820190508181036000830152610ba581610a98565b9050919050565b6000604082019050610bc16000830185610ae7565b8181036020830152610bd381846109f9565b90509392505050565b6000604051905081810181811067ffffffffffffffff82111715610c0357610c02610dd8565b5b8060405250919050565b600067ffffffffffffffff821115610c2857610c27610dd8565b5b601f19601f8301169050602081019050919050565b600081519050919050565b600082825260208201905092915050565b6000610c6482610cef565b9150610c6f83610cef565b9250827fffffffffffffffffffffffffffffffffffffffffffffffffffffffffffffffff03821115610ca457610ca3610d7a565b5b828201905092915050565b6000610cba82610ccf565b9050919050565b600061ffff82169050919050565b600073ffffffffffffffffffffffffffffffffffffffff82169050919050565b6000819050919050565b600060ff82169050919050565b82818337600083830152505050565b60005b83811015610d33578082015181840152602081019050610d18565b83811115610d42576000848401525b50505050565b60006002820490506001821680610d6057607f821691505b60208210811415610d7457610d73610da9565b5b50919050565b7f4e487b7100000000000000000000000000000000000000000000000000000000600052601160045260246000fd5b7f4e487b7100000000000000000000000000000000000000000000000000000000600052602260045260246000fd5b7f4e487b7100000000000000000000000000000000000000000000000000000000600052604160045260246000fd5b6000601f19601f8301169050919050565b610e2181610caf565b8114610e2c57600080fd5b50565b610e3881610cc1565b8114610e4357600080fd5b50565b610e4f81610cef565b8114610e5a57600080fd5b50565b610e6681610cf9565b8114610e7157600080fd5b5056fea26469706673582212207eede1705296ac0f83e39357e4828c304f05f2e0dd835a0f7df25b23fbacaae764736f6c63430008000033",
  "immutableReferences": {},
  "source": "// SPDX-License-Identifier: UNLICENSED\npragma solidity ^0.8.0;\n\nimport \"@openzeppelin/contracts/access/Ownable.sol\";\n\ncontract PlayerFactory is Ownable {\n\n    uint private _playerId;\n\n    event NewPlayer(uint playerId, string name);\n\n    struct Player {\n        string name;\n        uint8 teamId;\n        uint8 position;\n        uint16 season;\n    }\n\n    Player[] public players;\n    mapping (uint => Player) public playerIdToPlayer;\n\n    function createPlayer(string memory _name, uint8 _teamId, uint8 _position, uint16 _season) external onlyOwner {\n        Player memory player = Player(_name, _teamId, _position, _season);\n        players.push(player);\n        playerIdToPlayer[_playerId] = player;\n        emit NewPlayer(_playerId, _name);\n        _playerId = _playerId + 1;\n    }\n}",
  "sourcePath": "/Users/tkma4fr/Development/solidity-app/contracts/player-factory.sol",
  "compiler": {
    "name": "solc",
    "version": "0.8.0+commit.c7dfd78e.Emscripten.clang"
  },
  "schemaVersion": "3.4.2",
  "updatedAt": "2021-09-22T00:23:44.428Z",
  "devdoc": {
    "kind": "dev",
    "methods": {
      "owner()": {
        "details": "Returns the address of the current owner."
      },
      "renounceOwnership()": {
        "details": "Leaves the contract without owner. It will not be possible to call `onlyOwner` functions anymore. Can only be called by the current owner. NOTE: Renouncing ownership will leave the contract without an owner, thereby removing any functionality that is only available to the owner."
      },
      "transferOwnership(address)": {
        "details": "Transfers ownership of the contract to a new account (`newOwner`). Can only be called by the current owner."
      }
    },
    "version": 1
  },
  "userdoc": {
    "kind": "user",
    "methods": {},
    "version": 1
  }
}